:020000040800F2
:1000000000090020E10400086114000865140008DC
:10001000BD1400086514000891140008E3040008EA
:10002000E3040008E3040008E3040008612F00086B
:10003000E3040008E3040008E30400083135000885
:10004000E3040008E3040008E3040008E3040008F4
:10005000E3040008E3040008313200085D320008C0
:1000600089320008B5320008E1320008E3040008D4
:10007000E3040008E3040008E3040008E3040008C4
:10008000E3040008E3040008E3040008CD230008AB
:10009000392400088D240008E12400080D330008ED
:1000A000E3040008E3040008E3040008E304000894
:1000B000E3040008E3040008E3040008E304000884
:1000C000E3040008E3040008E3040008E304000874
:1000D000E3040008C5360008E3040008E304000850
:1000E00075330008E3040008E3040008E304000893
:1000F000E3040008E3040008E3040008E304000844
:10010000E3040008E3040008E3040008E304000833
:10011000E3040008E3040008E3040008E304000823
:10012000E3040008E3040008E3040008E304000813
:10013000E3040008E3040008E3040008E304000803
:10014000E3040008E3040008E3040008E3040008F3
:10015000E3040008E3040008E3040008E3040008E3
:10016000E3040008E3040008E3040008E3040008D3
:10017000E3040008E3040008E3040008E3040008C3
:10018000E3040008E3040008E3040008E3040008B3
:10019000E3040008E3040008E3040008E3040008A3
:1001A000D0400B1CD1409C46203AD34018435242C9
:1001B00063469340184370479140031C90409C460F
:1001C000203A9340194352426346D3401943704743
:1001D00053B94AB9002908BF00281CBF4FF0FF31AE
:1001E0004FF0FF3000F07AB9ADF1080C6DE904CEA4
:1001F00000F006F8DDF804E0DDE9022304B0704702
:100200002DE9F0478C460D460446089E002B51D13F
:100210008A4217466DD9B2FA82FEBEF1000F0BD0AA
:10022000CEF1200C01FA0EF520FA0CFC02FA0EF7C2
:100230004CEA050C00FA0EF44FEA174A250CBCFBF9
:10024000FAF81FFA87F90AFB18CC45EA0C4508FBB7
:1002500009F3AB420AD9ED1908F1FF3280F023818E
:10026000AB4240F22081A8F102083D44ED1AA4B24D
:10027000B5FBFAF00AFB105544EA054400FB09F906
:10028000A14509D9E41900F1FF3380F00A81A145A5
:1002900040F2078102383C44A4EB090440EA0840DC
:1002A0000021002E61D024FA0EF400233460736024
:1002B000BDE8F0878B4207D9002E54D0002186E894
:1002C00021000846BDE8F087B3FA83F1002940F029
:1002D0008E80AB4202D3824200F2FA80841A65EB30
:1002E00003050120AC46002E3FD086E81010BDE883
:1002F000F08712B90127B7FBF2F7B7FA87FEBEF114
:10030000000F34D1EB1B3A0C1FFA87FC0121B3FB21
:10031000F2F8250C02FB183345EA03450CFB08F301
:10032000AB4207D9ED1908F1FF3002D2AB4200F21F
:10033000D1808046ED1AA3B2B5FBF2F002FB105556
:1003400043EA05440CFB00FCA44507D9E41900F17D
:10035000FF3302D2A44500F2B8801846A4EB0C0487
:1003600040EA08409DE731463046BDE8F087CEF1CF
:10037000200405FA0EF307FA0EF720FA04F83A0CF7
:1003800025FA04F448EA0308B4FBF2F14FEA1845F1
:1003900002FB11441FFA87FC45EA044501FB0CF3FC
:1003A000AB4200FA0EF409D9ED1901F1FF3080F0EB
:1003B0008A80AB4240F2878002393D44EB1A1FFA33
:1003C00088F5B3FBF2F002FB103345EA034500FB6E
:1003D0000CF3AB4207D9ED1900F1FF386FD2AB42F5
:1003E0006DD902383D44EB1A40EA01418FE7C1F173
:1003F000200722FA07F88B4005FA01F448EA0303C4
:1004000020FA07FE4FEA134CFD404EEA040EB5FBFE
:10041000FCF94FEA1E440CFB19551FFA83F844EA15
:10042000054509FB08F4AC4202FA01F200FA01FAB0
:1004300008D9ED1809F1FF3043D2AC4241D9A9F1F6
:1004400002091D442D1B1FFA8EFEB5FBFCF00CFBB0
:1004500010554EEA054400FB08F8A04507D9E418FA
:1004600000F1FF3529D2A04527D902381C4440EAC3
:100470000940A4EB0804A0FB02894C45C6464D4642
:1004800015D312D056B1BAEB0E0364EB050404FA8F
:1004900007F7CB401F43CC40376074600021BDE8B4
:1004A000F0871846F8E69046E0E6C245EAD2B8EB97
:1004B000020E69EB03050138E4E72846D7E740461A
:1004C00091E78146BEE7014678E702383C4445E7BC
:1004D000084608E7A8F102083D442BE7704700BF33
:1004E00002E000F000F8FEE772B6394880F30888B1
:1004F000384880F3098838484EF60851CEF200019A
:10050000086040F20000CCF200004EF63471CEF2EA
:1005100000010860BFF34F8FBFF36F8F40F2000000
:10052000C0F2F0004EF68851CEF200010860BFF331
:100530004F8FBFF36F8F4FF00000E1EE100A4EF6C1
:100540003C71CEF200010860062080F31488BFF3EE
:100550006F8F02F063FD02F08FFD4FF055301F49A1
:100560001B4A91423CBF41F8040BFAE71C49194A67
:1005700091423CBF41F8040BFAE71A491A4A1B4B57
:100580009A423EBF51F8040B42F8040BF8E70020F2
:100590001749184A91423CBF41F8040BFAE702F0B0
:1005A00041FD02F0ABFD144C144DAC4203DA54F89B
:1005B000041B8847F9E700F041F8114C114DAC429B
:1005C00003DA54F8041B8847F9E702F029BD00005C
:1005D0000009002000110020000000080001002098
:1005E00000090020B83B0008001100201011002075
:1005F0001011002070250020A0010008A0010008B3
:10060000A0010008A00100082DE9F04F2DED108A8F
:10061000C1F80CD0C3689D46BDEC108ABDE8F08FD0
:10062000002383F311882846A047002002F05AFADD
:10063000FEE702F0C1F900DFFEE70000384B6FF083
:1006400013022DE9F0416FF0670100241A700322B4
:100650005A709C70DC701C715C719C71DC711C7236
:1006600059729A72DC7202F025FC074602F072FCA5
:100670000546C8BB2B4B9F4238D001339F4238D030
:10068000294B27F0FF029A4237D1F8B200F052FA14
:10069000A84642F2107400F063FC00F051FA0646DE
:1006A00078B384BB464635B1204B9F4203D002F05D
:1006B00049FC00242646002002F006FC1C4B1B6966
:1006C00013F0400322D00EB100F034F800F06AFCC1
:1006D00000F0FEFD00F006FF0546CCB900F0B8FCC6
:1006E000012002F005FAF8E78046D4E78046044688
:1006F000D1E704464FF00108CDE780464FF47A7405
:10070000C9E70446CFE74FF47A74CCE71C46DDE72F
:1007100000F0E8FE401BA042E0D900F00BF8D9E75A
:1007200010110020010007B0000008B0263A09B0FF
:100730000004004810B51C4B1C4953F8042F01322B
:1007400000D110BD8B42F8D1194C1A4B22689A4245
:1007500028D9194B9B6803F1006303F5D0439A42F3
:1007600020D202F0C3FB02F0D5FB002000F0CAFD4E
:10077000124B0220187000F001FE114BDA690022C2
:10078000DA61D96999699A619B6972B60D4A0E4B13
:1007900013601B682268202181F311889D4683F332
:1007A0000888104710BD00BFFC6700081C680008DF
:1007B00004680008FF670008101100201C110020C9
:1007C0000010024008ED00E00068000809490B68CD
:1007D00049F269009AB21B0C00FB0233064A0B6017
:1007E000136844F2506198B21B0C01FB003010609A
:1007F00080B270470C1100200811002010B50021B4
:100800001022044600F0D4FD034B03CB206061604E
:100810001868A06010BD00BFACF7FF1FF0B51F4CFB
:10082000BBB000F05FFEA368C31AF92B30D906AD48
:100830002346A06028220021284601F0D5FA04F1C1
:100840000E0000F0ADFD0023C6B2591D5F1CDBB2E7
:10085000B3424FEAC10107DA0E3323440822284687
:1008600001F0C2FA3B46F0E7012303930823207B03
:1008700002930B4B0193C1F3CF01302305910093F9
:100880000146049503A3D3E90023064801F0E6F8E6
:100890003BB0F0BD78F6339F93CACD8D6021002028
:1008A0006D2100203821002070B50D4614461E46EB
:1008B00001F07CF850B9022E0ED1012C0CD112A3FC
:1008C000D3E90023C5E90023012070BD052C14D015
:1008D00003D8012C09D0002070BD282C09D0302C61
:1008E000F9D10BA3D3E90023ECE70BA3D3E9002351
:1008F000E8E70BA3D3E90023E4E70BA3D3E9002344
:10090000E0E700BFAFF30080401DA12026812A0B45
:1009100078F6339F93CACD8D9E6AC421818A46EEB4
:1009200026417272DF25D7B7F017304A39059E5637
:1009300038B504460D46034620222846002101F022
:1009400053FA22792346032A28BF032203F8042FEF
:1009500028460222202101F047FA62792346072A1D
:1009600028BF072203F8052F28460322222101F081
:100970003BFAA2792346072A28BF072203F8062F4D
:1009800028460322252101F02FFA284604F1080306
:100990001022282101F028FA382038BD2DE9F04F27
:1009A000ADF5017D21AE0EAD40F2791280460F46C5
:1009B0003046002100F0FCFC48220021284600F0CF
:1009C000F7FC00F08FFD594B4FF47A72B0FBF2F058
:1009D000186093E80700012385E807002B740DF1E8
:1009E0005A0000236B74FFF709FF032385F82030BA
:1009F000EC2385F8213007AB18464D4902F0F8FF8B
:100A0000182228643146284685F83C20FFF790FFDD
:100A100012AB044601460822304601F0E5F90822EF
:100A2000A1180DF14903304601F0DEF90DF14A033A
:100A3000082204F11001304601F0D6F913AB202250
:100A400004F11801304601F0CFF914AB402204F153
:100A50003801304601F0C8F916AB082204F17801DC
:100A6000304601F0C1F90DF15903082204F180016B
:100A7000304601F0B9F904F1880A0DF15A0904F57C
:100A8000847B4B465146082230460AF1080A01F0A1
:100A9000ABF9D34509F10109F3D11BAB0822594643
:100AA000304601F0A1F904F588744FF0000995F87B
:100AB00034304B4510D84FF0000995F83C304B4589
:100AC00015D92B6C21464B440822304601F08CF995
:100AD000083409F10109F0E7AB6B21464B440822C9
:100AE000304601F081F9083409F10109DFE7E31D1F
:100AF000C3F3CF03F97E0593002304960393BB7ED3
:100B00000293193701230093019706A3D3E9002329
:100B1000404600F0A3FF0DF5017DBDE8F08F00BF5A
:100B2000AFF300809E6AC421818A46EE2011002026
:100B30009C3A0008014B1870704700BF2C11002030
:100B4000F0B5334B1C7B85B034B1324B0E221A8189
:100B50000024204605B0F0BD2F4A1068516802AB52
:100B600003C308230DEB03022C492D4802F022FF9A
:100B7000054630B9274B2B480A221A8100F06CFC3D
:100B8000E6E70169B1F5663F06D9224B26480B22FC
:100B90001A8100F061FCDCE7438BB3F57B7F09D061
:100BA0001C4A22480C2111814FF47B72194600F037
:100BB00053FCCEE71E4A024402F11003994204D2CC
:100BC000144B1C4810221A81E3E710398E1A204674
:100BD000134900F08BFC3246074605F11801204608
:100BE00000F084FCAB689F4202D1EB6898420AD0C7
:100BF000084B0D221A8100903B46EA68A9680E480E
:100C000000F02AFCA4E70D4800F026FC0124A0E730
:100C10006021002020110020003A0008DC9703002A
:100C200000680008083A0008143A0008263A00084C
:100C30000898FFF7443A0008613A00088A3A000829
:100C40002DE9F04FADB006AF80460C4600F0AEFE89
:100C5000064600285BD1237E022B19D1E38A012BA3
:100C600016D100F03FFC0546FFF7B0FD4FF4C87306
:100C7000B54AB0FBF3F105F5167501FB1300E37EF1
:100C800015FA80F01060914633B9B04B00221A700B
:100C90009C37BD46BDE8F08FA38AF5B2013BAB425D
:100CA00006F101060CD93B1D691CC9001D440095C5
:100CB0000023082201F0F801204600F067FFEBE76F
:100CC00007F11400FFF79AFD2A4607F11401381DB9
:100CD00002F060FE03460028D7D10F2D08D89B4BA9
:100CE0001D70D9F80030A3F51673C9F80030CFE7AE
:100CF00007F19802014602F8950D2046009207225E
:100D000000F044FFF978404600F048FEC0E7E38A6F
:100D1000052B00F0068106D8012BB9D121464046AB
:100D2000FFF73CFEB4E7282B3DD0302BB0D1637EDB
:100D3000874D01336A7BDBB29342E94640F0EF8096
:100D4000E27E2B7B9A4240F0EA8007F1980300266E
:100D500023F8846D1022009331460123204600F0D1
:100D600015FFB4F81480A8F102081FFA88F808F1FA
:100D7000030323F003030A3323F00703ADEB030D52
:100D80000DF1180A33469BB2B11C98454FEAC101D8
:100D900006F101066CDD534400930822002320462F
:100DA00000F0F4FEEEE7A38A013B9BB2C92B3FF6AD
:100DB0006FAF674E357B4DBB06F10C0300930822E5
:100DC0002B462946204600F0E1FEA38A05F10109E1
:100DD000013BEDB29D424FEAC90109DA0E353544B7
:100DE000009500230822204600F0D0FE4D46ECE797
:100DF00000230022C6E900230023B36086F8D73021
:100E0000C6F8D830337B0BB9E37E3373002507F186
:100E100014063B1D0822294630467D60BD60FD60FA
:100E200000F0E2FF3B7A05F10109AB424FEAC9014C
:100E300007D9FB6808222B44304600F0D5FF4D4609
:100E4000F0E7C1F3CF010023E07E05910496039300
:100E5000A37E02931934282301460093019438A3FA
:100E6000D3E90023404600F0F9FDFFF7D7FC0FE778
:100E700095F8D70000F050FAD5F8D83006461BB9DF
:100E800095F8D70000F058FAD5F8D83043449E4280
:100E900004D295F8D700013000F04EFA4FEA980BD3
:100EA0000024A0B2584504F1010408DA2B68800040
:100EB0000AEB00010122184400F082FAF1E7D5E9BB
:100EC0000023D5F8D84095F8D70012EB080243F17B
:100ED00000034444C5E90023C5F8D84000F01CFADB
:100EE000844209D395F8D730013385F8D730D5F847
:100EF000D8309E1BC5F8D860B8F1FF0F08DC00237E
:100F00002B7300F02BFAFFF71BFE08B1FFF712FC62
:100F10002B68104A9B0A013313810023AB60CD4636
:100F2000B6E6BFF34F8F0C490C4BCA6802F4E0627F
:100F30001343CB60BFF34F8F00BFFDE7AFF30080DB
:100F400026417272DF25D7B73421002031210020DD
:100F5000602100202011002000ED00E00400FA05CF
:100F600008B54FF000530B4A196891420AD10A4A5A
:100F7000597D117009481B7D0373C92208490E3041
:100F800000F004FAE02200214FF00050BDE80840D4
:100F900000F00EBA9AAD44C52C110020602100204B
:100FA0001600002030B5204C2049214885B002238E
:100FB000637104230025ADF808300123ADF80C500F
:100FC00007228DF80C308DF80B301A4B4B608DF8E2
:100FD0000A2001F0F7FB184B019500931749184BB5
:100FE00018484FF4805200F0B1FC174B1978254691
:100FF00011B1144800F0D2FC00F074FA0446FFF777
:10100000E5FB4FF4C87304F51674B0FBF3F202FB72
:1010100013000E4B14FA80F0186001F09BFF08B12A
:101020000F232B8105B030BD2011002000110020BE
:101030007822002003000600A908000830110020D3
:10104000410C0008382100202C1100203421002000
:101050002DE9F04F94A7D7E900670FF25429D9E999
:1010600000898D4C93B0DFF850B2DFF850A22046D3
:1010700000F03EFD0CAD079098B3102200212846E9
:1010800000F096F9079B197B4FF0000261F3030211
:1010900019468DF8302051F8040F49680EAA03C292
:1010A0001B680D9A63F31C029DF830300D9243F0DB
:1010B00020038DF8303000232A461946584601F0A7
:1010C00091FB079030B9204600F016FD079B8AF887
:1010D0000030CCE79AF80030072B3EDC01338AF869
:1010E000003018220021284600F062F9DFF8C8A17C
:1010F000002319462A46504601F09CFB014680BB5E
:10110000102208A800F054F94FF09042536983F080
:101110001003536100F0E8F90B4612A9024611E9E9
:1011200003000DF1240E8EE803009DF83410C1F386
:10113000030089064CBF0E99BDF838108DF82C00BD
:1011400046BFC1F31C0141F00041C1F30A010891FF
:10115000204608A900F090FECAE7204600F0CCFC2B
:10116000BFE7204600F022FC824600284AD1DFF883
:1011700050B100F0B7F9DBF80030984242D300F0EC
:10118000B1F90790FFF722FB079A8DF820A04FF4E2
:10119000C87302F51672B0FBF3F101FB130012FAEB
:1011A00080F0CBF80000DFF81CB19BF8001011B9FB
:1011B00001238DF8203028460791FFF71FFB079980
:1011C000C1F1100A5FFA8AFABAF1060F28BF4FF090
:1011D000060A524629440DF1210000F0D7F80AF121
:1011E0000103049308AB0393182302932B4B019341
:1011F0000123009332463B46204600F0D9FB0023F2
:101200008BF8003000F06EF9254ADFF8BCA01368B7
:10121000C31AB3F57A7F32D3106000F065F9024645
:101220000B46204600F072FC204600F0BFFB30B3B6
:101230009AF80C30DFF894B0002B14BF032302237C
:101240008BF8053000F04EF94FF47A732946B0FB65
:10125000F3F0CBF800005846FFF76AFB182307307D
:101260000293104B0193C0F3CF0040F2551304904A
:101270000093039542464B46204600F099FB9AF8AE
:101280000C300BB1FFF7CAFA9AF80C30002B7FF440
:10129000EAAE13B0BDE8F08F3821002030210020E5
:1012A0004022002044220020401DA12026812A0B3C
:1012B000F1C6A7C1D068080F78220020452200207F
:1012C0003421002031210020602100202011002045
:1012D00070B501F0E5FC094C094E2080002530680E
:1012E0002388834208D901F0D7FC336805440133D1
:1012F000B5F5D04F3360F2D370BD00BF742200202B
:101300004822002001F05ABD00F10060920000F573
:10131000D04001F0FFBC0000054B1A68054B1B884C
:101320009B1A834202D9104401F0B6BC00207047DA
:10133000482200207422002038B5074D0446286852
:10134000204401F0AFFC28B928682044BDE83840AB
:1013500001F0BABC38BD00BF48220020064991F810
:10136000243033B100230822086A81F82430FFF7C3
:10137000CBBF0120704700BF4C220020022802BFD3
:101380004FF090434FF480129A61704710B50023DC
:10139000934203D0CC5CC4540133F9E710BD000084
:1013A00002460346981A13F9011B0029FAD1704727
:1013B00002440346934202D003F8011BFAE7704748
:1013C0002DE9F047234C94F824300546884617460B
:1013D00083BB2E46DFF87C90C7B394F824302BB93A
:1013E0002022FF2148462662FFF7E2FF94F82400FE
:1013F000C0F10805BD4228BF3D465FFA85FAAD0041
:1014000041462A4604EB8000FFF7C0FF94F82430E1
:10141000A7EB0A079A445FFA8AFABAF1080F2E443A
:10142000A844FFB284F824A0D6D1FFF797FF002884
:10143000D2D108E0266A06EB8306B042CAD0FFF795
:101440008DFF0028C5D10020BDE8F0870120BDE850
:10145000F08700BF4C2200200FB4002004B070477A
:10146000FEE7000000B59BB0EFF3098168226846F3
:10147000FFF78CFFEFF30583044B9A6BDA6A9A6AE5
:101480009A6A9A6A9A6A9A6A9B6AFEE700ED00E095
:1014900000B59BB0EFF3098168226846FFF776FF3D
:1014A000EFF30583044B9A6B9A6A9A6A9A6A9A6A6E
:1014B0009A6A9B6AFEE700BF00ED00E000B59BB0B2
:1014C000EFF3098168226846FFF760FFEFF30583B9
:1014D000034B5A6B9A6A9A6A9A6A9A6A9B6AFEE7FF
:1014E00000ED00E001F0A2BC01F07CBC30B5084D7D
:1014F0000A4491420BD011F8013B09245840013CA9
:10150000F7D040F300032B4083EA5000F7E730BDEB
:101510002083B8ED2DE9F047089E01F007054FEA5A
:10152000D60C2A4406F0070600EBD1004FF47F49A1
:10153000954201D1BDE8F08705F0070E06F0070AD5
:10154000D64577464FEAD50438BF5746C7F1080756
:10155000511B0CEBD6088F42045D28BF0F4604FADE
:101560000EF413F8081029FA07FE24FA0AF45FFAB9
:101570008EFE4C404EFA0AFE04EA0E04614003F867
:1015800008103D443E44D3E70246006848B1036872
:101590001360D388118901339BB29942D38038BF3D
:1015A0001381704770B588B00D4604462022002193
:1015B0006846FFF7FDFE20460495FFF7E5FF054668
:1015C00058B16B46044608AE1A4603CAB2422060C0
:1015D0006160134604F10804F6D1284608B070BDD6
:1015E0002DE9F041056885B90160BDE8F081002B67
:1015F00029DA930CB34229D1A54201D10D60F3E75A
:10160000C8F800100C60BDE8F0814B6823F060471B
:10161000BE0C4FEAD37EC3F3807C16EA230638BFA4
:101620003E46A8462C466368BEEBD37F23F060425B
:10163000DDD1974203D1C3F380739C450AD1974211
:1016400005E01C46EFE7B24206D013469E422CBF8F
:1016500000230123002BCFD12368A046002BF0D11B
:101660002160BDE8F08100002DE9F04106460F46FB
:1016700000254FF6FF7441F221082A4630463946CC
:10168000FEF78EFDC0B284EA0024082314F4004F54
:101690004FEA4404A4B203F1FF3318BF84EA0804FC
:1016A00013F0FF03F2D10835402DE6D12046BDE806
:1016B000F081000010B54B6833B9CA8A63F30902A0
:1016C000CA820020002110BDC4681A681C60C36073
:1016D000438A013B43824A60EDE7000010B50A44AB
:1016E00041F22104914200D110BD11F8013B80EA82
:1016F0000320082310F4004F4FEA400080B203F1AA
:10170000FF3318BF604013F0FF03F3D1EAE7000096
:101710002DE9F04F85B081468DE80A00BDF83C40C8
:101720009346002A00F0838024B10E9B002B7ED0CC
:10173000072C2AD809F10C00FFF726FF054628B927
:101740006FF00205284605B0BDE8F08F1422002195
:10175000FFF72EFE22460E9905F10800FFF716FE50
:10176000631C2B749BF800302C4403F01F0363F0C0
:101770003F032372009B43F000436B60294609F14D
:101780001C00FFF72DFF0125DCE7019B1B0A4FF032
:101790000008029300F10C034FF0800A46464546CC
:1017A00003930398FFF7F0FE07460028C8D01422E1
:1017B0000021FFF7FDFDC6BB9DF804303B729DF88C
:1017C00008307B7202220E9B711E1944B4420AD962
:1017D000B8180132D2B211F801EF80F808E00136F2
:1017E000072AB6B2F2D19BF8001001F01F01B442F3
:1017F00008BF4FF0400AB81841EA48114AEA01030D
:101800000372009B013243F000437B603A74394617
:1018100009F11C00FFF7E4FE0135B4422DB288F057
:1018200001084FF0000ABCD18CE70022CBE76FF033
:10183000010587E72DE9F0471E46CB8A9146C3F3A1
:101840000902062A80460F4619D013460021B0B27D
:101850008DB25A1992B2052A09D9A84210D8FA8A2B
:10186000034463F30902FA820120BDE8F087A8422D
:10187000F3D93A4419F8014094760131E8E700259C
:10188000FB8A7C68C3F30900821F1C23B2FBF3FAB6
:1018900003FB1A2A1FFA8AF27CB301212368002B6A
:1018A00039D1B31F03441C20B3FBF0F301339BB2C7
:1018B00099420CD2BAF1000F09D14046FFF764FEFD
:1018C00008B1C0F800A0206008B304460022B6B2F8
:1018D0004FF0000AB54230D2691E49441346E01861
:1018E00001339BB211F801EF80F804E001351C2BA5
:1018F000ADB214D0AE42F2D8ECE74046FFF744FE5A
:10190000044608B1002303607C60002CDED16FF038
:101910000200BDE8F087013189B21C46BEE7AE4245
:10192000D8D94046FFF730FE08B1C0F800A02060CB
:101930000028ECD004460022CCE7FB8AC3F309025E
:10194000164466F30903FB828EE70000F8B50446EF
:1019500015460E46242200211F46FFF729FD069B4F
:101960006360079B23626A094FF6FF739A424FF048
:10197000000028BF1A46A760207097B204F10C053A
:1019800003469A4205D100232B6027826382A382FB
:10199000F8BD2E60013335462036F2E703781BB9D7
:1019A0004BB2002BC8BF0170704700000078704731
:1019B0002DE9F7430D9EBDF828900B9D9DF8304012
:1019C000BDF8388007461946104616B9B8F1000F21
:1019D00040D11F2C3ED83B78D3B9B8F1070F36D889
:1019E00039F0030336D1424631464FF6FF70FFF718
:1019F00075FE4FEA092920F0010009F440794004FE
:101A000049EA0464400C44EA40244FF6FF730DE0B9
:101A100043EA0923B8F1070F43EA0464F5D9FFF755
:101A200023FE42463146FFF759FE03468DE840014A
:101A30002A4621463846FFF76BFE2B780133DBB28E
:101A40001F2B88BF00232B7003B0BDE8F0836FF01D
:101A50000300F9E76FF00100F6E700002DE9F74316
:101A60000E9F0B9D9DF83480BDF83C6081469DF82B
:101A7000300007B9AEBB1F2833D899F800E0BEF19B
:101A8000000F31D00C0244F080049DF8281044EA85
:101A9000C83444EA014444EA0E04072E44EA0064D0
:101AA0001CD919461046FFF7DFFD32463946FFF7CD
:101AB00015FE0346019600972A4621464846FFF741
:101AC00027FEB8F1010F06D12B780133DBB21F2BB3
:101AD00088BF00232B7003B0BDE8F0834FF6FF737F
:101AE000E8E76FF00100F6E76FF00300F3E70000AE
:101AF000C06900B104307047C3691A68C261C26826
:101B00001A60C360438A013B438270472DE9F04766
:101B1000D0F818A0DFF87080054616461F465446D8
:101B20004FF000090CB9BDE8F087D4E90223B21ADE
:101B300067EB0303994508BF904523D2AB699C42EC
:101B4000214628460FD1FFF7B5FDAB691B68AB6195
:101B5000EB6823606B8AEC60AC69013B6B822346C7
:101B6000A2461C46DEE7FFF7A5FD2368CAF8003051
:101B7000EB6823606B8AEC60013B6B82DAF8003023
:101B80005446EDE72368EBE780841E002DE9F04F13
:101B90008BB00E4614460793DDF85080834600282C
:101BA00000F01081B8F1000F00F00C81531E3F2BA4
:101BB00000F20881012A03D1079B002B40F002812B
:101BC000BBF81450ED000023AE420893099304D3F0
:101BD000002630460BB0BDE8F08F33199D42DBF88C
:101BE0000C303ABFAD1BEDB2254623B9DBF81030FF
:101BF000002B00F093802F2E65D8C6F13007BD4230
:101C00004FF000032CBFFFB22F460093314608ABC4
:101C10003A46DBF80800FFF77DFCA5EB07093E44D8
:101C20005FFA89F9BBF8143003F10053063BDB007F
:101C30000493DBF80C3003933021039B13B1B9F10B
:101C4000000F43D1DBF8100040B1B9F1000F05D00F
:101C5000009708AB4A46711AFFF75CFC2EB2002DC4
:101C6000B6D060070AD00AAB03EBD401624211F888
:101C7000083C02F00702134101F8083C082C54D933
:101C8000102C54D9202C8CBF08230423079A002A37
:101C900000F09E80B4EBC30F00F09D80082C48D864
:101CA0009DF82030621E23FA02F2D10706D54FF0CC
:101CB000FF3202FA04F423438DF820309DF82030DF
:101CC00088F8003085E7A9460027ABE7049BE02BA6
:101CD00028BFE02306930B44B342059315D9A3EB29
:101CE000060AD145039800972CBF5FFA8AFACA46C4
:101CF000711A08AB52460430FFF70CFC5744A9EBAD
:101D00000A095644FFB25FFA89F9049B069A0599BD
:101D10009B1A0493039B1B6803938EE700932A4648
:101D200008AB3146DBF8080096E70123AEE7022353
:101D3000ACE7102C12D8BDF82030621E23FA02F254
:101D4000D20706D54FF0FF3202FA04F42343ADF870
:101D50002030BDF82030A8F800303AE7202C0FD80A
:101D6000089A631E22FA03F3DB0705D54FF0FF3311
:101D700003FA04F414430894089BC8F8003028E7D9
:101D8000402C22D0DDE908AB621E50465946FEF7D2
:101D900007FA002100F0010050EA01030DD02246AD
:101DA00001200021FEF708FA404261EB410140EAC0
:101DB0000A0041EA0B01CDE90801DDE90823C8E981
:101DC000002306E76FF0010603E76FF0080600E75F
:101DD000012C3FF473AF082C7FF670AF102CB8D9EC
:101DE000202CEAD8C8E7000030B5402A85B01FD8BB
:101DF000002A08BF01220024012A0294039419D169
:101E00001B788DF8083053070AD004AB03EBD205DA
:101E1000544215F8083C04F00704A34005F8083CB8
:101E200000910346002102A8FFF774FB05B030BD06
:101E30004022E0E7082AE3D9102A03D81B88ADF82E
:101E40000830E0E7202A02D81B680293DBE7D3E9D9
:101E50000045CDE90245D6E710B5CB681BB98B60CC
:101E60000B618B8210BDC4681A681C60C360438A12
:101E7000013B4382CA60F0E72DE9F04FD1F80090B2
:101E80008FB0C9F3C01604460D46CDE90223002EDB
:101E900050D0C9F3C03AC9F30626B9F1000F80F259
:101EA000CB8119F0C04F40F0C7812B7B002B00F095
:101EB000C381BAF1020F03D02278B24240F0BF8151
:101EC00009F07F02BAF1020F059236D119F07F0FA7
:101ED000C9F30F2B01D10BF0030B2B447606059AA7
:101EE00093F8038046EA0A4646EA82465FEAD81338
:101EF00046EA0B06049300F0A180002200230EA9FD
:101F000061E90823059B0093676853465A462046BB
:101F1000B847002800F08F80A7698FB9314604F1D7
:101F20000C00FFF73FFB0746D0B96FF002000FB07F
:101F3000BDE8F08F4FF0020AAFE7C9F3074BCCE7DB
:101F40003B699E420DD03F68002FF9D1314604F124
:101F50000C00FFF727FB07460028E6D0A3693B608B
:101F6000A761DDE90601FFF77FFBB882F97D08F084
:101F70001F06C1F38401711A89B20FFA81FED7E9F5
:101F80000223BEF1000FBCBF01F1200E0FFA8EFE3E
:101F900052EA0301C9F3046900F05D81DDE9020141
:101FA000801A61EB030102460B46B64800219942B4
:101FB00008BF9042C0F04F81049B002B48D0BEF177
:101FC000010F00F3488118F0400F41D0DDE90223F2
:101FD0000021C7E9022306A82022FFF7E9F9DDE97D
:101FE0000223CDE906232B1D08932B7BADF82EB0E1
:101FF000013BDBB2ADF82C309DF814308DF8333056
:102000008DF830A0A3688DF831608DF8329006A964
:1020100020469847FB7DC3F38402013262F38603B6
:10202000FB75FB8A6FF30903FB821B0A6FF3C7136F
:10203000FB7500207BE76FF00B0078E7A76917B905
:102040006FF00C0073E73B699E428FD03F68F6E764
:10205000FB7DC8F34012B2EBD31F40F0F380C3F313
:102060008403B34240F0F18004992B7B4FEA98122D
:1020700000293BD012F001085CD1032B40F2E8802C
:10208000DDE90223C7E902232B7BAE1D033BDBB254
:102090003246394604F10C00FFF7CCFB002814DA75
:1020A00039462046FFF706FBFB7DC3F3840201326D
:1020B00062F38603FB75FB8A68F30903FB821B0A44
:1020C00068F3C713FB75032031E7AB883B832A7B9A
:1020D000033AD2B2B88A3146FFF700FBFB7DB882E3
:1020E000DA43C2F3C01262F3C713A1E712BB2E1D7D
:1020F000013BDBB23246394604F10C00FFF79AFB94
:10210000002814DA39462046FFF7D4FAFB7DC3F3E2
:102110008402013262F38603FB75049AFB8A62F340
:102120000903FB82049A1B0A62F3C713CAE72A7BDE
:10213000013ACEE7F98AC1F30901013B0529DAB278
:102140005AD8281D00239A420AD907EB010E013103
:1021500010F801CB8EF81AC001330629DBB2F2D198
:10216000DDE902019342CDE9060107F11A01089168
:1021700038BF04337968099134BF5B1900230A938F
:10218000FB8AADF82EB0C3F309031A449DF814304E
:102190008DF833300023ADF82C208DF830A08DF869
:1021A00031608DF832907B602A7BB88A013A291D14
:1021B000FFF794FA3B8BB882834203D1A36806A948
:1021C00020469847204606A9FFF746FEFB7DB88AC1
:1021D000C3F38402013262F38603FB75FB8A6FF35B
:1021E0000903FB821B0A6FF3C713FB753B8B9842F5
:1021F00014BF112000209AE6D7F804E0BEF1000FCA
:1022000018D00623DEF8000088B9C91A05F10408C1
:1022100000EB010CBCF11B0FC3B2A1D893429FD2BB
:10222000F44418F8013B8CF804300130F0E71C331B
:102230008646E7E7734693E76FF0090077E66FF0AD
:102240000A0074E66FF00D0071E66FF00E006EE6A6
:102250006FF00F006BE6FB7D68F386036FF3C71327
:10226000FB7539462046FFF725FA049B002B7FF4C7
:10227000AAAEFB7DC3F38402013262F38603FB75D1
:10228000DEE600BF80841E002DE9F0414C4EB042D6
:1022900040F081804B4CDFF830E1E56945F0007596
:1022A000E561E469846AD4F8007207EA0E0747F032
:1022B0000107C4F80072D4F8005205EA0E0545F093
:1022C000010545EA0121C4F80012002A65D0002169
:1022D000C4F81C120F46C4F80412C4F80C12C4F857
:1022E000141204EBC10501310E29C5F84072C5F87E
:1022F0004472F6D14FF0000E4FF0010C964510D10C
:10230000826AD2F80032B04223F00103C2F80032F0
:1023100053D12C4BDA6922F00072DA61DB69BDE837
:10232000F0819F781D8817F0010F18BFD4F8048240
:102330000CFA05F11CBF41EA0808C4F8048217F042
:10234000020F1EBFD4F80C8241EA0808C4F80C82C0
:102350007F0742BFD4F814720F43C4F8147204EB21
:10236000C5055F68C5F840729F68C5F84472D4F827
:102370001C522943C4F81C120C330EF1010EBDE7A8
:10238000846A0021C4F81C12C4F80412C4F80C12A8
:10239000C4F81412AEE7002AF2D1836A0022C3F80F
:1023A0004022C3F84422C3F80422C3F814220122B5
:1023B000C3F80C22C3F81C22A2E7BDE8F08100BFDD
:1023C00078220020001002400000FFFF184A916AA6
:1023D00008B58B688B6013F0010105D013F00C0F6A
:1023E00014BF4FF480310121D80506D513F4406F96
:1023F00014BF41F4003141F00201D80306D513F4B3
:10240000402F14BF41F4802141F00401D3690BB186
:1024100007489847202383F311880021054800F0DE
:102420008FFB002383F31188BDE8084000F0CCBD8A
:10243000782200208022002038B5124CA36ADD6883
:10244000AA0712D05A6922F002025A61A36913B195
:10245000012120469847202383F3118800210A4850
:1024600000F06EFB002383F31188EB0606D5A36A08
:102470001021D960236A0BB102489847BDE8384063
:1024800000F0A2BD782200208822002038B5124C2E
:10249000A36A1D69AA0712D05A6922F010025A6174
:1024A000A36913B1022120469847202383F31188A2
:1024B00000210A4800F044FB002383F31188EB0657
:1024C00006D5A36A10211961236A0BB10248984707
:1024D000BDE8384000F078BD782200208822002036
:1024E00038B50F4CA36A5D685D602A070AD50422DF
:1024F00022701A6822F002021A60636A13B1002186
:10250000204698476B0706D5A36A9969236A13B1D9
:10251000090403489847BDE8384000F055BD00BFA6
:102520007822002010B50F4C204600F039F90E4BF0
:10253000A3620B21132000F013F90B21142000F0EB
:102540000FF90B21152000F00BF90B21162000F0DC
:1025500007F9002320461A460E21BDE81040FFF778
:1025600093BE00BF78220020006400400F4B9842C9
:1025700010B5044605D10E4BDA6942F00072DA61FB
:10258000DB69A36A01221A60A36A5A68D20707D5D9
:10259000626851681268D9611A60064A5A6110BDB2
:1025A0000121082000F0C2F9EEE700BF78220020E8
:1025B000001002405B87010003291AD8DFE801F010
:1025C000020A0F14836A9B6813F0E05F14BF0120B6
:1025D00000207047836A9868C0F380607047836A00
:1025E0009868C0F3C0607047836A9868C0F3007051
:1025F000704700207047000010B503291FD8DFE89E
:1026000001F0021F2327816A8B68C3F3016318332B
:1026100001EB0313107881061ED55468C0F3001136
:10262000490041EAC40141F0040100F00F00586084
:1026300090689860D268DA6041F00101196010BDBD
:10264000836A03F5C073E5E7836A03F5C873E1E7BE
:10265000836A03F5D073DDE79488C0F30011490065
:1026600041EA4451E1E7000001290CD003D30229DB
:1026700010D000207047836ADA68920701D1186988
:1026800003E001207047836AD86810F0030018BF88
:1026900001207047836AF2E710B539B9836AD968B7
:1026A00089071BD11B699B0704D110BD012915D0D7
:1026B000022948D1816AD1F8C031D1F8C401D1F8DA
:1026C000C8411461D1F8CC41546120240C610C69DB
:1026D000A40717D14C6944F0100412E0816AD1F8C4
:1026E000B031D1F8B401D1F8B8411461D1F8BC418E
:1026F00054612024CC60CC68A40703D14C6944F019
:1027000002044C6111795C0864F304119C0864F3C1
:102710004511117189064BBF91681189DB085B0D6A
:102720004CBF63F31C0163F30A01137948BF916046
:1027300060F3030313714FEA10234FEA104058BFB0
:1027400011811370508010BD002304491A465A505D
:10275000C8180833802B4260F9D17047A4220020AA
:1027600000F1604300F01F02400903F561430901D5
:102770008000C9B200F1604083F8001300F56140A9
:1027800001239340C0F880310360704700F160403E
:10279000090100F56D40C9B201767047FFF7C2BE6E
:1027A00000F108020123037082600023C26000F17F
:1027B00010024360026142618361C361036243624C
:1027C0007047000010B52023044683F311880223CC
:1027D00003704160FFF7CAFE04232370002383F3D4
:1027E000118810BD2DE9F0411F4604460D461646DE
:1027F000202383F3118800F108082378052B0ED0DD
:1028000029462046FFF7D8FE48B1204632462946E1
:10281000FFF7F2FE002080F31188BDE8F081394611
:10282000404600F071F90028E7D0002383F31188B7
:10283000BDE8F0812DE9F0411F4604460D461646DD
:10284000202383F3118800F110082378052B0ED084
:1028500029462046FFF708FF48B120463246294660
:10286000FFF71AFF002080F31188BDE8F081394698
:10287000404600F049F90028E7D0002383F311888F
:10288000BDE8F081024B00221B605B609A607047DC
:1028900024230020002303748268054B1B68996879
:1028A0009142FBD25A6803604260106058607047E2
:1028B0002423002008B5202383F31188037C032BF5
:1028C00005D0042B0DD02BB983F3118808BD4369C3
:1028D00000221A604FF0FF334361FFF7DBFF002354
:1028E000F2E790E80C001A6002685360F2E700001B
:1028F000002303748268054B1B6899689142FBD8DA
:102900005A680360426010605860704724230020BA
:10291000054B19690874186802681A6053601861D9
:1029200001230374FDF770BE2423002030B54B1C37
:1029300087B005460A4C10D023690A4A01A800F066
:102940001BF92846FFF7E4FF049B13B101A800F030
:102950002DF92369586907B030BDFFF7D9FFF8E7B3
:1029600024230020B528000838B50C4D41612B699F
:1029700081689A689142044603D8BDE83840FFF761
:1029800089BF1846FFF7B4FF01232C610146237469
:102990002046BDE83840FDF737BE00BF24230020A5
:1029A000044B1A681B6990689B68984294BF00208A
:1029B000012070472423002010B5084C23682069AB
:1029C0001A6822605460012223611A74FFF790FF95
:1029D00001462069BDE81040FDF716BE2423002003
:1029E00008B5FFF7DDFF18B1BDE80840FFF7E4BF09
:1029F00008BD0000FEE7000010B50C4CFFF742FFD9
:102A000000F0ACF880220A49204600F031F801239A
:102A100044F8180C037400F0B3FA002383F3118810
:102A200062B60448BDE8104000F044B84C230020D2
:102A3000B83A0008C03A000800F0CAB8EFF31180B5
:102A400020B9EFF30583202282F31188704700003C
:102A500010B558B9EFF30584C4F3080414B180F33A
:102A6000118810BDFFF7BCFF84F3118810BD000072
:102A70008260022202740022427470478368A3F1CC
:102A80007C0243F80C2C026943F83C2C426943F861
:102A9000382C074A43F81C2CC26843F8102C022239
:102AA00003F8082C002203F8072CA3F11800704744
:102AB0002106000810B5202383F31188FFF7DEFFFD
:102AC00000210446FFF750FF002383F311882046BE
:102AD00010BD0000024B1B6958610F20FFF718BFA3
:102AE00024230020202383F31188FFF7F3BF000085
:102AF00008B50146202383F311880820FFF716FF4D
:102B0000002383F3118808BD49B1064B42681B6955
:102B100018605A60136043600420FFF707BF4FF04E
:102B2000FF307047242300200368984206D01A68BB
:102B30000260506059611846FFF7ACBE7047000054
:102B400038B504460D462068844200D138BD03687C
:102B500023605C604561FFF79DFEF4E7054B03F1E0
:102B600014025A619A614FF0FF32DA6100221A6250
:102B7000704700BF2423002010B5C2600A4A0361D9
:102B800053699C68A1420CD85C6803604460206073
:102B9000586081609868411A99604FF0FF33D361A3
:102BA00010BD091B1B68ECE7242300200368816823
:102BB0009A680A449A604268136003685A60002366
:102BC000C360024B4FF0FF32DA61704724230020CC
:102BD000F8B50F4C226A01322262224652F8141FC5
:102BE0009142154606D08B68013B8B6020266369B5
:102BF0009A6802B1F8BD1968DF68DA604D606161FA
:102C000082F311881869B84786F31188EFE700BF8F
:102C10002423002000207047FEE7000070470000DA
:102C20004FF0FF3070470000BFF34F8F024AD36868
:102C3000DB07FCD4704700BF0020024008B5074BFB
:102C40001B7853B9FFF7F0FF054B1A69120641BF15
:102C5000044A5A6002F188325A6008BDB02400204C
:102C6000002002402301674508B5054B1B7833B9A6
:102C7000FFF7DAFF034A136943F08003136108BDCD
:102C8000B0240020002002407F289ABF00F5803049
:102C9000C0020020704700004FF400607047000041
:102CA000802070477F2808B50BD8FFF7EDFF00F5AF
:102CB00000630268013204D104308342F9D101205B
:102CC00008BD002008BD00007F2810B504461CD8B0
:102CD000FFF7AAFFFFF7B2FF0D4BF322DA600222E3
:102CE0001A61FFF7D1FF58611A6942F040021A6178
:102CF000FFF79AFF4FF4006100F0F6F8FFF7B4FF1A
:102D00002046BDE81040FFF7CDBF002010BD00BF3A
:102D1000002002402DE9F84312F00103144606D0CA
:102D2000204B40F27D221A600020BDE8F883851810
:102D30001D4A954204D91B4A40F282211160F3E7F3
:102D4000FFF77CFFFFF770FFDFF86C80451A4FF04C
:102D50000109012C05EB01060F4604D8FFF784FF9B
:102D60000120BDE8F883C8F8109031F8023B3380A9
:102D7000FFF75AFF0020C8F8100033883A889BB24A
:102D80009A420DD0074B40F299221A60074B1E6001
:102D9000074B1C60074B1F60FFF766FFBDE8F88319
:102DA000023CD6E7AC240020FFFF0308A02400204B
:102DB000A8240020A424002000200240084908B5CF
:102DC0000B7828B153B9FFF739FF01230B7008BD09
:102DD00023B1BDE808400870FFF746BF08BD00BF3B
:102DE000B024002038B5FFF729FE0D4B0D4A1C6AB0
:102DF00011684FF47A7303FB04F38B420A49D1E95B
:102E0000004504D2003445F10105C1E90045E4184C
:102E100045F100051360FFF71BFE2046294638BD2B
:102E200024230020B4240020B824002008B5FFF794
:102E3000D9FF4FF47A720023FDF7CAF908BD00BF2D
:102E400010B50244064B0439D2B2904200D110BDF5
:102E5000441C00B253F8200041F8040FE0B2F4E73C
:102E600050280040104B30B51C6A240407D41C6A5B
:102E700044F440741C621C6A44F400441C620B4C11
:102E8000236843F4807323600244094B0439D2B2AF
:102E9000904200D130BD441C00B251F8045F43F8A9
:102EA0002050E0B2F4E700BF001002400070004084
:102EB0005028004007B5012201A90020FFF7C0FFFC
:102EC000019803B05DF804FB13B50446FFF7F2FF69
:102ED000A04206D002A9012241F8044D0020FFF7CC
:102EE000C1FF02B010BD000070470000074B45F263
:102EF00055521A6002225A6040F6FF729A604CF6F0
:102F0000CC421A60024B01221A7070470030004018
:102F1000C1240020034B1B781BB1034B4AF6AA22A5
:102F20001A607047C124002000300040034B1B682A
:102F30009B0042BF024B01221A70704724100240CE
:102F4000C0240020024B4FF080721A60704700BF0F
:102F500024100240014B1878704700BFC0240020A5
:102F6000EFF3098305494A6822F001024A60683399
:102F700083F30988002383F31188704730EF00E062
:102F8000202080F3118862B60B4B0C4AD96821F4DB
:102F9000E0610904090C0A430949DA60CA6842F091
:102FA0008072CA6007490A6842F001020A60102272
:102FB000DA7783F82200704700ED00E00003FA059D
:102FC000F0ED00E0001000E010B5202383F311883D
:102FD0000E4B5B6813F4006314D0F1EE103AEFF37C
:102FE0000984683C4FF08073E361094BDB6823661A
:102FF00084F30988FFF7D4FC10B1064BA36110BD20
:10300000054BFBE783F3118810BD00BF00ED00E026
:1030100030EF00E033060008360600087047000075
:10302000FEE70000084A094B09498B4204D3094ACC
:103030000021934205D3704752F8040F43F8040B64
:10304000F3E743F8041BF4E7C43B000870250020B5
:1030500070250020702500204B6843608B688360DA
:10306000CB68C3600B6943614B6903628B69436240
:103070000B6803607047000008B5194B9A6A42F468
:10308000FC029A629A6A22F4FC029A629A6A5A696B
:1030900042F4FC025A61134A5B6911464FF09040BA
:1030A000FFF7DAFF104802F11C01FFF7D5FF0F48C8
:1030B00002F13801FFF7D0FF0D4802F15401FFF78C
:1030C000CBFF0C4802F17001FFF7C6FF0A4802F17E
:1030D0008C01FFF7C1FFBDE8084000F065B800BFF4
:1030E00000100240E03A00080004004800080048D0
:1030F000000C0048001000480014004808B500F01B
:1031000093F9FFF779FCBDE80840FFF70FBF000017
:103110007047000010B5214CA26A62F4FC02A26262
:10312000A26A02F4FC02A2624FF0FF31A26A226995
:1031300021612269002222612069E068E160E16882
:10314000E260E168E169164841F08051E161E169BE
:10315000016841F480710160216A01F44071B1F5A8
:10316000407F1EBF4FF4803323622262236A1B0418
:1031700007D4236A43F440732362236A43F4004371
:10318000236200F031F9A369064A43F00103A36109
:10319000A369136843F02003136010BD00100240C0
:1031A00000700040000001401E4B1A6842F001020E
:1031B0001A601A689007FCD55A6822F003025A6018
:1031C0005A6812F00C02FBD1196801F0F90119607C
:1031D0005A601A6842F480321A601A689103FCD56A
:1031E000114A5A604FF40452DA6230221A631A68A4
:1031F00042F080721A601A689201FCD50B4A1221C3
:103200001160116801F007010229FAD15A6842F0F1
:1032100002025A605A6802F00C02082AFAD11A6BAC
:103220001A6370470010024000241D000020024075
:10323000084A08B5536911680B4003F00103536154
:1032400023B1054A13680BB150689847BDE80840A0
:10325000FFF7BABE00040140A4220020084A08B5C6
:10326000536911680B4003F00203536123B1054A0F
:1032700093680BB1D0689847BDE80840FFF7A4BE3B
:1032800000040140A4220020084A08B553691168CF
:103290000B4003F00403536123B1054A13690BB1DA
:1032A00050699847BDE80840FFF78EBE0004014012
:1032B000A4220020084A08B5536911680B4003F0A6
:1032C0000803536123B1054A93690BB1D06998474C
:1032D000BDE80840FFF778BE00040140A4220020AA
:1032E000084A08B5536911680B4003F01003536195
:1032F00023B1054A136A0BB1506A9847BDE80840EC
:10330000FFF762BE00040140A4220020174B10B555
:103310005C691A68144004F478725A61A30604D5F3
:10332000134A936A0BB1D06A9847600604D5104AD5
:10333000136B0BB1506B9847210604D50C4A936B65
:103340000BB1D06B9847E20504D5094A136C0BB159
:10335000506C9847A30504D5054A936C0BB1D06C0B
:103360009847BDE81040FFF72FBE00BF00040140A2
:10337000A42200201A4B10B55C691A68144004F4AA
:103380007C425A61620504D5164A136D0BB1506D2B
:103390009847230504D5134A936D0BB1D06D984718
:1033A000E00404D50F4A136E0BB1506E9847A10488
:1033B00004D50C4A936E0BB1D06E9847620404D5C5
:1033C000084A136F0BB1506F9847230404D5054A80
:1033D000936F0BB1D06F9847BDE81040FFF7F4BD75
:1033E00000040140A4220020062108B50846FFF78A
:1033F000B7F906210720FFF7B3F906210820FFF7E8
:10340000AFF906210920FFF7ABF906210A20FFF7E3
:10341000A7F906211720FFF7A3F906212820BDE808
:103420000840FFF79DB9000008B5FFF773FEFFF7EE
:103430008BF9FFF7B3F900F039F8FFF769FEBDE843
:10344000084000F059B80000026843681143016069
:1034500003B1184770470000143000F0E9B90000CC
:103460004FF0FF33143000F0E3B90000383000F0C3
:103470005FBA00004FF0FF33383000F059BA000057
:10348000143000F0AFB900004FF0FF31143000F0FD
:10349000A9B90000383000F009BA00004FF0FF323F
:1034A000383000F003BA00000020704700F058B830
:1034B000044B0360002343608360C36001230374F3
:1034C000704700BF883B000838B5C36904460D4605
:1034D0001BB904210844FFF7B7FF294604F1140083
:1034E00000F064F9002806DA201D4FF48061BDE881
:1034F0003840FFF7A9BF38BD00F000B8054B064AB9
:103500005A6000229A6007221A6008210B20FFF7F8
:103510003DB900BF10E000E03F19010008B52023CD
:1035200083F31188FFF788FA002383F3118808BD1D
:1035300008B5FFF7F3FFBDE80840FFF745BD000001
:10354000026843681143016003B1184770470000E7
:10355000024A136843F0C00313607047003801400B
:1035600013B50F4C2046FFF7A3FF04F1140000949D
:10357000002320220B4900F00BF904F138000094DD
:10358000094B0A49202200F085F9094BE365094BF4
:1035900023660C21252002B0BDE81040FFF7E0B8FB
:1035A000C42400203025002051350008502500207B
:1035B00000380140005125022DE9F047C66D3768FB
:1035C000F46934620546200719D014F0080F0CBFC7
:1035D00000218021E20748BF41F02001A30748BF36
:1035E00041F04001600748BF41F48071202383F31C
:1035F0001188281DFFF7A4FF002383F31188E2053B
:103600000AD5202383F311884FF40071281DFFF79A
:1036100097FF002383F311884FF020094FF0000A31
:1036200014F0200831D13B0616D54FF0200905F1E2
:10363000380A200610D589F31188504600F05EF94B
:1036400000282FDA0821281DFFF77AFF27F08003D2
:103650003360002383F3118879060DD562060BD5FC
:10366000202383F31188EA6C2B6D9A4201D12B6CD5
:10367000F3B9002383F31188E30621D5AA6E1369F9
:10368000F3B15069BDE8F047184789F31188B38C4E
:1036900095F8641028461940FFF716FF8AF3118841
:1036A000F469BDE780B2308588F31188F469C0E71A
:1036B0001021281D27F04007FFF742FF3760D8E7A9
:1036C000BDE8F08708B50348FFF776FFBDE808407E
:1036D000FFF77ABCC4240020F8B515468268066955
:1036E000AA420B46816938BF8568761AB5420446FE
:1036F00007D218462A46FDF749FEA3692B44A36169
:103700000DE011D932461846FDF740FEAF1B3A4690
:10371000E1683044FDF73AFEE2683A44A261A368EA
:103720005B1BA3602846F8BD18462A46FDF72EFE0F
:10373000E368E4E783682DE9F041044693421546C7
:10374000266938BF85684069361AB5420F4606D2E9
:103750002A46FDF71BFE63692B4463610DE012D915
:103760003246A5EB0608FDF711FE4246B919E0689E
:10377000FDF70CFEE26842446261A3685B1BA36034
:103780002846BDE8F0812A46FDF700FEE368E4E73D
:1037900010B50A440024C361029B0060406084604D
:1037A000C160816141610261036210BD08B5826937
:1037B0004369934201D1826882B982680132826092
:1037C0005A1C42611970426903699A4201D3C36865
:1037D00043610021FFF7A8F9002008BD4FF0FF303A
:1037E00008BD000070B5202304460E4683F31188FF
:1037F000A568A5B1A368A269013BA360531CA3619E
:1038000015782269934224BFE368A361E3690BB191
:1038100020469847002383F31188284670BD31461F
:103820002046FFF771F90028E2DA85F3118870BDB0
:103830002DE9F74F05460F4690469A46D0F81C9062
:10384000202686F311884FF0000B144664B12246FF
:1038500039462846FFF740FF034668B951462846D7
:10386000FFF752F90028F1D0002383F31188A8EB69
:10387000040003B0BDE8F08FB9F1000F03D0019050
:103880002846C847019B8BF31188E41A1F4486F32E
:103890001188DBE7C16081614161C3611144009B14
:1038A000006040608260016103627047F8B50446C1
:1038B0000E461746202383F31188A568A5B1A36897
:1038C000013BA36063695A1C62611E7023696269CF
:1038D0009A4224BFE3686361E3690BB120469847CD
:1038E000002080F31188F8BD39462046FFF70CF917
:1038F0000028E2DA85F31188F8BD00008369426987
:103900009A4210B501D182687AB982680132826028
:103910005A1C82611C7803699A4201D3C36883618F
:103920000021FFF701F9204610BD4FF0FF3010BD18
:103930002DE9F74F05460F4690469A46D0F81C9061
:10394000202686F311884FF0000B144664B12246FE
:1039500039462846FFF7EEFE034668B95146284629
:10396000FFF7D2F80028F1D0002383F31188A8EBE9
:10397000040003B0BDE8F08FB9F1000F03D001904F
:103980002846C847019B8BF31188E41A1F4486F32D
:103990001188DBE710B501390244904201D10020C3
:1039A00010BD10F8013B11F8014FA342F5D0181BD0
:1039B00010BD00002DE9F8430746884691461E4693
:1039C0008BB10D46A8EB0500B54207EB000402D20F
:1039D0000020BDE8F883324649462046FFF7DAFF6B
:1039E00018B1013DEEE7BDE8F8832046BDE8F88355
:1039F000034611F8012B03F8012B002AF9D1704777
:103A000040A2E4F1646891064E6F206170702073EB
:103A100069670A00426164206677206C656E67748E
:103A2000682025750A0042616420626F6172645FDC
:103A300069642025752073686F756C642062652049
:103A400025750A004261642066772064657363729D
:103A50006970746F72206C656E6774682025750AD2
:103A60000042616420617070204352432030782509
:103A70003038783A3078253038782030782530382A
:103A8000783A3078253038780A00476F6F642066BE
:103A900069726D776172650A000000006F72672EAF
:103AA0006172647570696C6F742E663330335F6B4E
:103AB00072617573000000006D61696E00000000A6
:103AC000D83A000868230020A0240020010000004C
:103AD000F52900080000000069646C650000000022
:103AE0000001A82A00000000AAAABEAA0000140033
:103AF000EFFF0000000000007097090001000000C7
:103B000000000000AAAAAAAA01000000FFFF00000E
:103B100000000000000000000000000000000000A5
:103B2000AAAAAAAA00000000FFFF000000000000EF
:103B3000000000000000000000000000AAAAAAAADD
:103B400000000000FFFF0000000000000000000077
:103B50000000000000000000AAAAAAAA00000000BD
:103B6000FFFF000000000000000000000000000057
:103B700000000000AAAAAAAA00000000FFFF00009F
:103B80000000000000000000000000007534000884
:103B9000613400089D340008893400089534000819
:103BA000813400086D34000859340008A934000835
:103BB00050C6FF7F0100000064000000000000000C
:083BC000FE2A0100D2040000FE
:00000001FF
