:020000040800F2
:1000000000090020E1040008B5140008B914000834
:100010000D150008B9140008E1140008E3040008F5
:10002000E3040008E3040008E3040008653700085F
:10003000E3040008E3040008E3040008093C0008A6
:10004000E3040008E3040008E3040008E3040008F4
:10005000E3040008E3040008ED390008193A000839
:10006000453A0008713A00089D3A0008E304000888
:10007000E3040008E3040008E3040008E3040008C4
:10008000E3040008E3040008E30400082526000850
:1000900091260008E526000839270008C93A00081B
:1000A000E3040008E3040008E3040008E304000894
:1000B000E3040008E3040008E3040008E304000884
:1000C000E3040008E3040008E3040008E304000874
:1000D000E3040008F52A0008092B0008E3040008DF
:1000E000313B0008E3040008E3040008E3040008CF
:1000F000E3040008E3040008E3040008E304000844
:10010000E3040008E3040008E3040008E304000833
:10011000E3040008E3040008E3040008E304000823
:10012000E3040008E3040008E3040008E304000813
:10013000E3040008E3040008E3040008E304000803
:10014000E3040008E3040008E3040008E3040008F3
:10015000E3040008E3040008E3040008E3040008E3
:10016000E3040008E3040008E3040008E3040008D3
:10017000E3040008E3040008E3040008E3040008C3
:10018000E3040008E3040008E3040008E3040008B3
:10019000E3040008E3040008E3040008E3040008A3
:1001A000D0400B1CD1409C46203AD34018435242C9
:1001B00063469340184370479140031C90409C460F
:1001C000203A9340194352426346D3401943704743
:1001D00053B94AB9002908BF00281CBF4FF0FF31AE
:1001E0004FF0FF3000F07AB9ADF1080C6DE904CEA4
:1001F00000F006F8DDF804E0DDE9022304B0704702
:100200002DE9F0478C460D460446089E002B51D13F
:100210008A4217466DD9B2FA82FEBEF1000F0BD0AA
:10022000CEF1200C01FA0EF520FA0CFC02FA0EF7C2
:100230004CEA050C00FA0EF44FEA174A250CBCFBF9
:10024000FAF81FFA87F90AFB18CC45EA0C4508FBB7
:1002500009F3AB420AD9ED1908F1FF3280F023818E
:10026000AB4240F22081A8F102083D44ED1AA4B24D
:10027000B5FBFAF00AFB105544EA054400FB09F906
:10028000A14509D9E41900F1FF3380F00A81A145A5
:1002900040F2078102383C44A4EB090440EA0840DC
:1002A0000021002E61D024FA0EF400233460736024
:1002B000BDE8F0878B4207D9002E54D0002186E894
:1002C00021000846BDE8F087B3FA83F1002940F029
:1002D0008E80AB4202D3824200F2FA80841A65EB30
:1002E00003050120AC46002E3FD086E81010BDE883
:1002F000F08712B90127B7FBF2F7B7FA87FEBEF114
:10030000000F34D1EB1B3A0C1FFA87FC0121B3FB21
:10031000F2F8250C02FB183345EA03450CFB08F301
:10032000AB4207D9ED1908F1FF3002D2AB4200F21F
:10033000D1808046ED1AA3B2B5FBF2F002FB105556
:1003400043EA05440CFB00FCA44507D9E41900F17D
:10035000FF3302D2A44500F2B8801846A4EB0C0487
:1003600040EA08409DE731463046BDE8F087CEF1CF
:10037000200405FA0EF307FA0EF720FA04F83A0CF7
:1003800025FA04F448EA0308B4FBF2F14FEA1845F1
:1003900002FB11441FFA87FC45EA044501FB0CF3FC
:1003A000AB4200FA0EF409D9ED1901F1FF3080F0EB
:1003B0008A80AB4240F2878002393D44EB1A1FFA33
:1003C00088F5B3FBF2F002FB103345EA034500FB6E
:1003D0000CF3AB4207D9ED1900F1FF386FD2AB42F5
:1003E0006DD902383D44EB1A40EA01418FE7C1F173
:1003F000200722FA07F88B4005FA01F448EA0303C4
:1004000020FA07FE4FEA134CFD404EEA040EB5FBFE
:10041000FCF94FEA1E440CFB19551FFA83F844EA15
:10042000054509FB08F4AC4202FA01F200FA01FAB0
:1004300008D9ED1809F1FF3043D2AC4241D9A9F1F6
:1004400002091D442D1B1FFA8EFEB5FBFCF00CFBB0
:1004500010554EEA054400FB08F8A04507D9E418FA
:1004600000F1FF3529D2A04527D902381C4440EAC3
:100470000940A4EB0804A0FB02894C45C6464D4642
:1004800015D312D056B1BAEB0E0364EB050404FA8F
:1004900007F7CB401F43CC40376074600021BDE8B4
:1004A000F0871846F8E69046E0E6C245EAD2B8EB97
:1004B000020E69EB03050138E4E72846D7E740461A
:1004C00091E78146BEE7014678E702383C4445E7BC
:1004D000084608E7A8F102083D442BE7704700BF33
:1004E00002E000F000F8FEE772B6394880F30888B1
:1004F000384880F3098838484EF60851CEF200019A
:10050000086040F20000CCF200004EF63471CEF2EA
:1005100000010860BFF34F8FBFF36F8F40F2000000
:10052000C0F2F0004EF68851CEF200010860BFF331
:100530004F8FBFF36F8F4FF00000E1EE100A4EF6C1
:100540003C71CEF200010860062080F31488BFF3EE
:100550006F8F03F045F903F071F94FF055301F49E3
:100560001B4A91423CBF41F8040BFAE71C49194A67
:1005700091423CBF41F8040BFAE71A491A4A1B4B57
:100580009A423EBF51F8040B42F8040BF8E70020F2
:100590001749184A91423CBF41F8040BFAE703F0AF
:1005A00023F903F08DF9144C144DAC4203DA54F8DE
:1005B000041B8847F9E700F03FF8114C114DAC429D
:1005C00003DA54F8041B8847F9E703F00BB900007D
:1005D0000009002000110020000000080001002098
:1005E00000090020B0430008001100207411002011
:1005F00078110020A8260020A0010008A001000812
:10060000A0010008A00100082DE9F04F2DED108A8F
:10061000C1F80CD0C3689D46BDEC108ABDE8F08FD0
:10062000002383F311882846A047002002F07EFEB5
:1006300002F0A8FD00DFFEE7384B6FF013022DE952
:10064000F0416FF0670100241A7003225A709C7009
:10065000DC701C715C719C71DC711C7259729A7235
:10066000DC7203F029F8074603F076F80546C8BBAC
:100670002B4B9F4238D001339F4238D0294B27F073
:10068000FF029A4237D1F8B200F04EFAA84642F281
:10069000107400F089FC00F04DFA064678B384BB74
:1006A000464635B1204B9F4203D003F04DF800245D
:1006B0002646002003F00AF81C4B1B6913F0400388
:1006C00022D00EB100F034F800F090FC00F024FECF
:1006D00000F030FF0546CCB900F0DEFC012002F04E
:1006E0002BFEF8E78046D4E780460446D1E704466F
:1006F0004FF00108CDE780464FF47A74C9E704460D
:10070000CFE74FF47A74CCE71C46DDE700F012FF28
:10071000401BA042E0D900F00BF8D9E77811002087
:10072000010007B0000008B0263A09B000040048F4
:1007300010B51C4B1C4953F8042F013200D110BDD9
:100740008B42F8D1194C1A4B22689A4228D9194B7E
:100750009B6803F1006303F5D0439A4220D202F074
:10076000C7FF02F0D9FF002000F0F0FD124B02207D
:10077000187000F027FE114BDA690022DA61D9699E
:1007800099699A619B6972B60D4A0E4B13601B689A
:100790002268202181F311889D4683F30888104741
:1007A00010BD00BFFC6700081C6800080468000852
:1007B000FF6700087811002084110020001002401B
:1007C00008ED00E00068000809490B6849F269007B
:1007D0009AB21B0C00FB0233064A0B60136844F20A
:1007E000506198B21B0C01FB0030106080B2704762
:1007F0000C1100200811002010B500211022044621
:1008000000F0FAFD034B03CB206061601868A06024
:1008100010BD00BFACF7FF1FF0B51F4CBBB000F020
:1008200089FEA368C31AF92B30D906AD2346A06010
:1008300028220021284601F00BFC04F10E0000F0F4
:10084000D3FD0023C6B2591D5F1CDBB2B3424FEA91
:10085000C10107DA0E3323440822284601F0F8FBD1
:100860003B46F0E7012303930823207B02930B4BC5
:100870000193C1F3CF013023059100930146049504
:1008800003A3D3E90023064801F0B2F93BB0F0BD61
:1008900078F6339F93CACD8DE8210020F521002002
:1008A000C021002070B50D4614461E4601F046F9E1
:1008B00050B9022E0ED1012C0CD112A3D3E9002382
:1008C000C5E90023012070BD052C14D003D8012CEC
:1008D00009D0002070BD282C09D0302CF9D10BA3F1
:1008E000D3E90023ECE70BA3D3E90023E8E70BA34C
:1008F000D3E90023E4E70BA3D3E90023E0E700BF3B
:10090000AFF30080401DA12026812A0B78F6339F8B
:1009100093CACD8D9E6AC421818A46EE26417272A9
:10092000DF25D7B7F017304A39059E5638B504464B
:100930000D46034620222846002101F089FB22793A
:100940002346032A28BF032203F8042F2846022245
:10095000202101F07DFB62792346072A28BF072268
:1009600003F8052F28460322222101F071FBA2790A
:100970002346072A28BF072203F8062F284603220A
:10098000252101F065FB284604F1080310222821E7
:1009900001F05EFB382038BD2DE9F04FFFB01FAEEF
:1009A0000CAD40F2791280460F463046002100F02F
:1009B00023FD48220021284600F01EFD00F0BAFD6C
:1009C000574B4FF47A72B0FBF2F0186093E80700CF
:1009D000012385E807002B740DF1520000236B748E
:1009E000FFF70AFF032385F82030EC2385F8213038
:1009F00006AB18464B4903F071F9162228643146BC
:100A0000284685F83C20FFF791FF10AB04460146CD
:100A10000822304601F01CFB0822A1180DF1410309
:100A2000304601F015FB0DF14203082204F11001DC
:100A3000304601F00DFB11AB202204F118013046C5
:100A400001F006FB12AB402204F13801304601F000
:100A5000FFFA14AB082204F17801304601F0F8FAED
:100A60000DF15103082204F18001304601F0F0FA43
:100A700004F1880A0DF1520904F5847B4B46514676
:100A8000082230460AF1080A01F0E2FAD34509F1DA
:100A90000109F3D119AB08225946304601F0D8FAC2
:100AA00004F588744FF0000995F834304B4510D8A0
:100AB0004FF0000995F83C304B4515D92B6C214679
:100AC0004B440822304601F0C3FA083409F1010909
:100AD000F0E7AB6B21464B440822304601F0B8FAF0
:100AE000083409F10109DFE7E31DC3F3CF03F97E01
:100AF0000593002304960393BB7E029319370123C9
:100B00000093019704A3D3E90023404601F070F855
:100B10007FB0BDE8F08F00BF9E6AC421818A46EE97
:100B200088110020943E0008014B1870704700BFE8
:100B3000B4110020F0B5314B1C7B85B034B1304B83
:100B40000E221A810024204605B0F0BD2D4A1068FF
:100B5000516802AB03C308230DEB03022A492B485B
:100B600003F09EF8054630B9254B29480A221A8120
:100B700000F096FCE6E70169B1F5663F06D9204B27
:100B800024480B221A8100F08BFCDCE7438BB3F581
:100B90007B7F09D01A4A20480C2111814FF47B72C7
:100BA000194600F07DFCCEE71C4A024402F1100316
:100BB0009942E4D310398E1A2046144900F0BEFC45
:100BC0003246074605F11801204600F0B7FCAB6835
:100BD0009F4202D1EB6898420AD0094B0D221A813C
:100BE00000903B46EA68A9680D4800F059FCA9E767
:100BF0000C4800F055FC0124A5E700BFE8210020C7
:100C000088110020843D0008DC970300006800087C
:100C10008C3D0008983D0008AA3D00080898FFF7A1
:100C2000C83D0008F13D00082DE9F04FADB006AF1A
:100C300080460E4600F082FF044600286AD1337ECB
:100C4000022B18D1F38A012B15D100F073FC8146D9
:100C5000FFF7BAFD4FF4C873C14DB0FBF3F209F5CD
:100C6000167902FB1300F37E19FA80F028608BB925
:100C7000BC4B00221A709C37BD46BDE8F08F3B1D6F
:100C80001C440094002308224FEAC901304601F0B9
:100C900043F84C46B38A013BA3425FFA84F90BD96F
:100CA00004F10109B9F1110FE9D1AF4BAF4A4FF48B
:100CB000A171AF4802F0C6FF07F11400FFF79CFDD9
:100CC000224607F11401381D02F0DAFF034600281E
:100CD000CED1B9F1100F07D0A24B83F800902B684A
:100CE000A3F516732B60C6E707F19802014602F8D8
:100CF000950D30460092072201F00EF8F9787F2911
:100D000004DD9C4B994A40F25911D2E7404600F06D
:100D1000F9FEB0E7F38A052B00F0348106D8012BE9
:100D2000A9D131464046FFF737FEA4E7282B3AD039
:100D3000302BA0D1737E904C0133627BDBB29342A7
:100D4000E94640F00581F27E237B9A4240F0008123
:100D500007F198034FF0000A23F884AD10220093A6
:100D600051460123304600F0D7FFB58A023DADB2AF
:100D7000EB1C23F003030A3323F00703ADEB030D51
:100D80000DF118085346991C9BB29D424FEAC101D0
:100D90000AF1010A71DD4344009308220023304622
:100DA00000F0BAFFEEE7B38A013B9BB2C92B3FF6D6
:100DB00062AF714D71482022FF2100F01DFB2C7B9A
:100DC0004CBB05F10C030093082223462146304614
:100DD00000F0A2FFB38A04F10109013BE4B29C4296
:100DE0004FEAC90109DA0E342C440094002308228A
:100DF000304600F091FF4C46ECE700230022C5E9A5
:100E000000230023AB6085F8D730C5F8D8302B7BA2
:100E10000BB9F37E2B73002407F114053B1D082248
:100E2000214628467C60BC60FC6001F011F93B7AE9
:100E300004F10109A3424FEAC90107D9FB6808225E
:100E40002344284601F004F94C46F0E7C1F3CF01F2
:100E50000023F07E059104950393B37E0293193627
:100E600028230146009301963BA3D3E90023404683
:100E700000F0BEFEFFF7D0FCFDE694F8D70000F0CE
:100E80006FFAD4F8D83082461BB994F8D70000F036
:100E900077FAD4F8D8302B449A4504D294F8D70086
:100EA000013000F06DFA4FEA950B0026B1B25945BA
:100EB0001BDA94F8D73088007BB9D4E900231218E4
:100EC00043EBE073002B08BF202A06D22B4A58F8C8
:100ED000213042F821300136E8E7236808EB0001B1
:100EE0000122184400F090FAF5E7D4E90023D4F881
:100EF000D86094F8D700521943F100032E44C4E996
:100F00000023C4F8D86000F02BFA86420AD394F884
:100F1000D730013384F8D730D4F8D830A3EB0A03A4
:100F2000C4F8D830FF2D0CDC0822144900202073AF
:100F300000F06AFA00F036FAFFF7FCFD08B1FFF79F
:100F4000F7FB23680E4A9B0A013313810023A36039
:100F5000CD4690E6AFF3008026417272DF25D7B709
:100F6000BC210020B9210020003E0008AC3E000852
:100F7000593E00087B3E0008E82100209411002023
:100F800088110020BFF34F8F0549064BCA6802F451
:100F9000E0621343CB60BFF34F8F00BFFDE700BF9C
:100FA00000ED00E00400FA0508B54FF000530B4ACD
:100FB000196891420AD10A4A597D117009481B7D6E
:100FC0000373C92208490E3000F004FAE022002120
:100FD0004FF00050BDE8084000F00EBA9AAD44C58D
:100FE000B4110020E82100201600002030B5204C6C
:100FF0002049214885B00223637104230025ADF800
:1010000008300123ADF80C5007228DF80C308DF814
:101010000B301A4B4B608DF80A2001F003FE184B81
:10102000019500931749184B18484FF4805200F06F
:1010300033FD174B1978254611B1144800F062FDB5
:1010400000F078FA0446FFF7BFFB4FF4C87304F5CD
:101050001674B0FBF3F202FB13000E4B14FA80F08F
:10106000186002F079FB08B10F232B8105B030BD69
:10107000881100200011002000230020030006003A
:10108000A5080008B8110020290C0008C021002084
:10109000B4110020BC2100202DE9F04F94A7D7E91E
:1010A00000670FF25429D9E900898D4C93B0DFF81D
:1010B00050B2DFF850A2204600F0E6FD0CAD0790DC
:1010C00098B310220021284600F096F9079B197B5F
:1010D0004FF0000261F3030219468DF8302051F8F9
:1010E000040F49680EAA03C21B680D9A63F31C0221
:1010F0009DF830300D9243F020038DF830300023FE
:101100002A461946584601F09DFD079030B9204601
:1011100000F0BEFD079B8AF80030CCE79AF800305B
:10112000072B3EDC01338AF80030182200212846C4
:1011300000F062F9DFF8C8A1002319462A4650469C
:1011400001F0A8FD014680BB102208A800F054F968
:101150004FF09042536983F01003536100F0ECF9B3
:101160000B4612A9024611E903000DF1240E8EE888
:1011700003009DF83410C1F3030089064CBF0E999B
:10118000BDF838108DF82C0046BFC1F31C0141F0AA
:101190000041C1F30A010891204608A900F0BEFFF2
:1011A000CAE7204600F074FDBFE7204600F0C6FC09
:1011B000824600284AD1DFF850B100F0BBF9DBF8D5
:1011C0000030984242D300F0B5F90790FFF7FCFADF
:1011D000079A8DF820A04FF4C87302F51672B0FB81
:1011E000F3F101FB130012FA80F0CBF80000DFF8F6
:1011F0001CB19BF8001011B901238DF8203028464E
:101200000791FFF7F9FA0799C1F1100A5FFA8AFA14
:10121000BAF1060F28BF4FF0060A524629440DF1D5
:10122000210000F0D7F80AF10103049308AB0393FF
:10123000182302932B4B01930123009332463B4624
:10124000204600F07DFC00238BF8003000F072F99E
:10125000254ADFF8BCA01368C31AB3F57A7F32D3EE
:10126000106000F069F902460B46204600F016FDBA
:10127000204600F063FC30B39AF80C30DFF894B0ED
:10128000002B14BF032302238BF8053000F052F922
:101290004FF47A732946B0FBF3F0CBF800005846C0
:1012A000FFF744FB182307300293104B0193C0F360
:1012B000CF0040F2551304900093039542464B46ED
:1012C000204600F03DFC9AF80C300BB1FFF7A4FA71
:1012D0009AF80C30002B7FF4EAAE13B0BDE8F08F23
:1012E000C0210020B8210020C8220020CC220020EC
:1012F000401DA12026812A0BF1C6A7C1D068080F86
:1013000000230020CD220020BC210020B921002094
:10131000E82100208811002070B502F0C3F8094CC4
:10132000094E2070002530682378834208D902F0E6
:10133000B5F8336805440133B5F5D04F3360F2D3C7
:1013400070BD00BFFC220020D022002002F038B97E
:1013500000F10060920000F5D04002F0DDB800001E
:10136000054B1A68054B1B789B1A834202D910441F
:1013700002F094B800207047D0220020FC22002008
:1013800038B5074D04462868204402F08DF828B986
:1013900028682044BDE8384002F098B838BD00BF46
:1013A000D0220020064991F8243033B100230822CE
:1013B000086A81F82430FFF7CBBF0120704700BFD7
:1013C000D4220020022802BF4FF090434FF4801235
:1013D0009A61704710B50023934203D0CC5CC4548B
:1013E0000133F9E710BD000002460346981A13F9CD
:1013F000011B0029FAD1704702440346934202D0F0
:1014000003F8011BFAE770472DE9F047234C94F8E5
:10141000243005468846174683BB2E46DFF87C906D
:10142000C7B394F824302BB92022FF214846266206
:10143000FFF7E2FF94F82400C0F10805BD4228BF81
:101440003D465FFA85FAAD0041462A4604EB80002E
:10145000FFF7C0FF94F82430A7EB0A079A445FFA1D
:101460008AFABAF1080F2E44A844FFB284F824A0E7
:10147000D6D1FFF797FF0028D2D108E0266A06EB05
:101480008306B042CAD0FFF78DFF0028C5D10020E7
:10149000BDE8F0870120BDE8F08700BFD42200201E
:1014A0000FB4002004B070470FB44FF0FF3004B009
:1014B00070470000FEE7000000B59BB0EFF3098124
:1014C00068226846FFF786FFEFF30583034B9A6BAC
:1014D0009A6A9A6A9A6A9A6A9B6AFEE700ED00E045
:1014E00000B59BB0EFF3098168226846FFF772FFF1
:1014F000EFF30583044B9A6B9A6A9A6A9A6A9A6A1E
:101500009A6A9B6AFEE700BF00ED00E000B59BB061
:10151000EFF3098168226846FFF75CFFEFF305836C
:10152000034B5A6B9A6A9A6A9A6A9A6A9B6AFEE7AE
:1015300000ED00E002F07CB802F056B830B5084D7E
:101540000A4491420BD011F8013B09245840013C58
:10155000F7D040F300032B4083EA5000F7E730BD9B
:101560002083B8ED0246006848B103681360D38851
:10157000118901339BB29942D38038BF13817047E0
:1015800070B588B00D460446202200216846FFF75A
:1015900033FF20460495FFF7E5FF054658B16B463B
:1015A000044608AE1A4603CAB24220606160134680
:1015B00004F10804F6D1284608B070BD2DE9F041C9
:1015C00030B9274B274A40F2C531274802F03AFB91
:1015D0000B7C23B9254B234A40F2C631F5E7C66997
:1015E00086B9C161BDE8F081002B29DA930CAB42CA
:1015F00029D1B44201D10C60F3E7C8F800100C60A7
:10160000BDE8F0814B6823F06047BD0C4FEAD37E04
:10161000C3F3807C15EA230538BF3D46B046344607
:101620006368BEEBD37F23F06042DDD1974203D1E4
:10163000C3F380739C450AD1974205E01C46EFE74F
:10164000AA4206D013469D422CBF00230123002B43
:10165000CFD12368A046002BF0D12160BDE8F081F6
:1016600080410008743F00083842000859420008D1
:1016700008B5034A034B044840F25E3102F0E2FA37
:10168000503F0008F84100083842000808B50368D8
:101690000B60C388016033B9044B054A05484FF419
:1016A000C76102F0CFFA013BC38008BDC841000802
:1016B000C43F00083842000870B50C4600F10C0524
:1016C000616831B9E38A61F30903E38200200021F4
:1016D00070BD0E682846FFF7D9FF6660F0E700008E
:1016E00008B5426832B10B4B0B4A0C4840F22F410F
:1016F00002F0A8FAC37DC3F38401013161F38603CC
:10170000C375C38A62F30903C3821B0A62F3C7135A
:10171000C37508BD14420008803F00083842000825
:101720002DE9F047089E32B91F4B204A204840F26D
:10173000395102F087FA01F007054FEAD6082A442A
:1017400006F0070600EBD1004FF47F49954201D126
:10175000BDE8F08705F0070E06F0070AD645774684
:1017600038BF5746C7F10807511BEC088F4228BF06
:101770000F46045D08EBD60104FA0EF413F801C01D
:1017800029FA07FE24FA0AF45FFA8EFE8CEA0404B2
:101790004EFA0AFE04EA0E048CEA040C03F801C0B7
:1017A0003D443E44D2E700BF94410008983F000802
:1017B000384200082DE9F04106460F4600254FF655
:1017C000FF7441F221082A4630463946FEF7E8FC0C
:1017D000C0B284EA0024082314F4004F4FEA440402
:1017E000A4B203F1FF3318BF84EA080413F0FF0327
:1017F000F2D10835402DE6D12046BDE8F081000049
:1018000010B50A4441F22104914200D110BD11F8F3
:10181000013B80EA0320082310F4004F4FEA400008
:1018200080B203F1FF3318BF604013F0FF03F3D120
:10183000EAE700002DE9F04F85B08A468DE80C00FC
:10184000BDF83C40814630B9494B4A4A40F26E31BE
:10185000494802F0F7F911F0604F04D0474B454A70
:1018600040F26F31F4E7009B002B7ED024B10E9B39
:10187000002B7AD0072C28D809F10C00FFF772FE54
:10188000054628B96FF00205284605B0BDE8F08F7F
:1018900014220021FFF7B0FD22460E9905F1080041
:1018A000FFF798FD631C2B74009B1B782C4403F0FE
:1018B0001F0363F03F0323724AF000436B60294625
:1018C0004846FFF77BFE0125DEE7019B1B0A4FF030
:1018D0000008029300F10C034FF0800B464645468A
:1018E00003930398FFF73EFE07460028CAD0142250
:1018F0000021FFF781FDB6BB9DF804303B729DF8D7
:1019000008307B7202220E9B711E1944B4420AD920
:10191000B8180132D2B211F801EF80F808E00136B0
:10192000072AB6B2F2D1009B197801F01F01B44228
:1019300008BF4FF0400BB81841EA48114BEA0103C9
:10194000037201324AF000437B603A7439464846DC
:10195000FFF734FE0135B4422DB288F001084FF094
:10196000000BBED190E70022CDE76FF001058BE7B9
:1019700080410008643F000838420008A441000884
:101980002DE9F0471E46CB8A9146C3F30902062A89
:1019900080460F4619D013460021B0B28DB25A19B5
:1019A00092B2052A09D9A84210D8FA8A034463F3EF
:1019B0000902FA820120BDE8F087A842F3D93A442F
:1019C00019F8014094760131E8E70025FB8A7C682C
:1019D000C3F30900821F1C23B2FBF3FA03FB1A2A8C
:1019E0001FFA8AF27CB301212368002B39D1B31F7F
:1019F00003441C20B3FBF0F301339BB299420CD299
:101A0000BAF1000F09D14046FFF7ACFD08B1C0F8AC
:101A100000A0206008B304460022B6B24FF0000ACE
:101A2000B54230D2691E49441346E01801339BB2D7
:101A300011F801EF80F804E001351C2BADB214D091
:101A4000AE42F2D8ECE74046FFF78CFD044608B101
:101A5000002303607C60002CDED16FF00200BDE843
:101A6000F087013189B21C46BEE7AE42D8D9404664
:101A7000FFF778FD08B1C0F800A020600028ECD086
:101A800004460022CCE7FB8AC3F30902164466F33E
:101A90000903FB828EE70000F8B50E4615461F4687
:101AA000044628B9144B154A15484F2102F0CAF8CC
:101AB00024220021FFF7A0FC069B6360079B2362A2
:101AC0006A094FF6FF739A424FF0000028BF1A468A
:101AD000A7602070A061E06197B204F10C0582421A
:101AE00005D100232B6027826382A382F8BD2E607C
:101AF000013035462036F2E77C410008F03E000810
:101B00003842000808B528B9084B094A732109482A
:101B100002F098F8037823B94BB2002B01DD017075
:101B200008BD054B024A7D21F1E700BF8041000856
:101B3000FC3E000838420008C440000800787047A6
:101B40002DE9F7430D9EBDF828900B9D9DF8304080
:101B5000BDF8388007461946104616B9B8F1000F8F
:101B600043D11F2C41D83B78D3B9B8F1070F39D8EE
:101B700039F0030339D1424631464FF6FF70FFF783
:101B80003FFE4FEA092920F0010009F440794004A2
:101B900049EA0464400C44EA40244FF6FF730DE028
:101BA00043EA0923B8F1070F43EA0464F5D9FFF7C4
:101BB00001FE42463146FFF723FE03468DE8400111
:101BC0002A4621463846FFF735FE0DB9FFF750FD8E
:101BD0002B780133DBB21F2B88BF00232B7003B09F
:101BE000BDE8F0836FF00300F9E76FF00100F6E75E
:101BF0002DE9F7430E9F0B9D9DF83480BDF83C60A6
:101C000081469DF8300007B9C6BB1F2836D899F821
:101C100000E0BEF1000F34D00C0244F080049DF8C7
:101C2000281044EAC83444EA014444EA0E04072E6A
:101C300044EA006415D919461046FFF7BBFD324649
:101C40003946FFF7DDFD0346019600972A462146F7
:101C50004846FFF7EFFDB8F1010F0CD125B9FFF7AA
:101C600007FD4FF6FF73EFE72B780133DBB21F2B35
:101C700088BF00232B7003B0BDE8F0836FF0010034
:101C8000F9E76FF00300F6E7C06900B10430704770
:101C9000C1690B68C3610C30FFF7F8BC2DE9F84F40
:101CA000D0F818A0DFF86C80054616461F4654464B
:101CB0004FF0000900F10C0B0CB9BDE8F88FD4E926
:101CC0000223B21A67EB0303994508BF90451FD260
:101CD000AB699C42214628460DD1FFF7EDFCAB696C
:101CE0001B68AB6121465846FFF7D0FCAC69234620
:101CF000A2461C46E0E7FFF7DFFC2368CAF8003085
:101D000021465846FFF7C2FC5446DAF80030EFE7A8
:101D10002368EDE780841E002DE9F04F8BB00D465F
:101D200014460793DDF850908246002800F0648145
:101D3000B9F1000F00F06081531E3F2B00F25C816F
:101D4000012A03D1079B002B40F05681BAF814609A
:101D5000F6000023B5420893099380F053812B19B4
:101D60009E420AD2761B16F0FF0607D1AB4BAC4A57
:101D700040F26751AB4801F065FF2646DAF80C30B7
:101D800023B9DAF81030002B00F0A5802F2D31D8C0
:101D9000C5F1300846454FF000032CBF5FFA88F8C4
:101DA000B0460093294608AB4246DAF80800FFF730
:101DB000B7FCA6EB08074544FFB2BAF8143003F1AC
:101DC0000053063BDB000293DAF80C3005934FF02A
:101DD000300B059B002B51D087B9DAF81000002892
:101DE00061D0002F5FD0AB4550D98F4B8C4A40F269
:101DF000A651BFE737464FF00008DEE7029B23B944
:101E00008A4B874A4FF4B161B4E7029BE02B28BFAD
:101E1000E02306935B44AB4204931DD95B1B9F42B6
:101E200026BFDBB203930397AB4504D97E4B7C4AB4
:101E300040F291519EE70598CDF8008008ABA5EBE4
:101E40000B01039A0430FFF76BFC039B9844FF1AC5
:101E50001D445FFA88F8FFB2049B9B4504D3744B82
:101E60006F4A40F29B5185E7029B069ADDF810B05D
:101E70009B1A0293059B1B680593AAE7029BBB4232
:101E8000ABD26C4B664A40F2A15173E7CDF80080AB
:101E90003A46A5EB0B0108ABFFF742FCB8443D44C2
:101EA0005FFA88F80027BAF81430B5EBC30F04D9ED
:101EB000614B5B4A40F2B1515CE7B8F1400F04D985
:101EC0005E4B574A40F2B25154E767B15C4B544AFB
:101ED00040F2B3514EE70093324608AB2946DAF898
:101EE0000800FFF71DFC731E3F2B35B201D8A64238
:101EF00004DD544B544A40F235213BE760070AD0D9
:101F00000AAB03EBD401624211F8083C02F007026D
:101F1000134101F8083C082C21D9102C21D9202C80
:101F20008CBF08230423079A002A6DD0B4EBC30F9B
:101F30006CD0082C04F1FF3215D89DF8203023FA1C
:101F400002F2D10706D54FF0FF3202FA04F4234320
:101F50008DF820309DF8203089F800304EE00123C4
:101F6000E1E70223DFE7102C11D8BDF8203023FA77
:101F700002F2D20706D54FF0FF3202FA04F42343EF
:101F8000ADF82030BDF82030A9F8003036E0202C24
:101F90000ED8089921FA02F2D30705D54FF0FF3386
:101FA00003FA04F40C430894089BC9F8003025E0B8
:101FB000402C1CD0DDE9086730463946FEF7F0F8C2
:101FC000002100F0010050EA01030BD0224601205D
:101FD0000021FEF7F1F8404261EB410106430F4357
:101FE000CDE90867DDE90823C9E9002306E0174BBE
:101FF000154A4FF42071BDE66FF0010528460BB07D
:10200000BDE8F08F1D46F9E7012CA3D0082CA1D91B
:10201000102CB7D9202CE5D8C6E700BFD03F000868
:10202000A83F000838420008F23F0008DF3F0008E0
:10203000174000083F400008664000089440000830
:10204000AC400008C6400008283F0008C440000813
:1020500030B585B030B9244B244A40F2B121244830
:1020600001F0F0FD23B9234B204A40F2B221F6E7FC
:10207000402A04D9204B1D4A40F2B621EFE722B98D
:102080001D4B1A4A4FF42F71E9E70024012A0294EC
:10209000039417D11B788DF8083053070AD004AB8E
:1020A00003EBD203554213F8084C05F00705AC408A
:1020B00003F8084C00910346002102A8FFF730FB0B
:1020C00005B030BD082AE5D9102A03D81B88ADF821
:1020D0000830E2E7202A02D81B680293DDE7D3E943
:1020E0000045CDE90245D8E7004100083C3F000823
:1020F000384200081B410008C440000870B50C4677
:1021000000F10C05E16819B9A1602161A18270BDDF
:102110000E682846FFF7BAFAE660F3E72DE9F04FBC
:10212000D1F8009091B0C9F3C01604460D46CDE930
:102130000223002E50D0C9F3C03BC9F30626B9F1E3
:10214000000F80F29F8119F0C04F40F09B812B7BE4
:10215000002B00F09781BBF1020F03D02278B2422E
:1021600040F0938109F07F02BBF1020F059236D156
:1021700019F07F0FC9F30F2A01D10AF0030A2B448B
:102180007606059A93F8038046EA0B4646EA8246AD
:102190005FEAD81346EA0A06069300F09A80002206
:1021A000002310A961E90823059B009367685B463B
:1021B00052462046B847002800F08880A7698FB9AA
:1021C000314604F10C00FFF7DBF90746D0B96FF098
:1021D000020011B0BDE8F08F4FF0020BAFE7C9F37A
:1021E000074ACCE73B699E420DD03F68002FF9D1EA
:1021F000314604F10C00FFF7C3F907460028E6D08A
:10220000A3693B60A761DDE90801FFF7D3FAB88253
:10221000F97D08F01F06C1F38401711A89B20FFA23
:1022200081FED7E90223BEF1000FB8BF01F1200EF5
:10223000C9F30461B8BF0FFA8EFE079152EA030199
:1022400000F02F81DDE90201801A61EB03010246F3
:102250000B469F480021994208BF9042C0F021815F
:10226000069B002B3FD0BEF1010F00F31A8118F03E
:10227000400F38D0DDE90223C7E9022320220021E4
:102280000DEB0200FFF7B8F8DDE90223CDE90823E2
:102290002B1D0A932B7BADF836A0013BDBB2ADF8CA
:1022A00034309DF81C308DF83A309DF814308DF89C
:1022B0003B3020468DF838B08DF83960A36808A906
:1022C00098473846FFF70CFA002082E76FF00B00C2
:1022D0007FE7A76917B96FF00C007AE73B699E4268
:1022E00096D03F68F6E7FB7DC8F34012B2EBD31FF0
:1022F00040F0CE80C3F38403B34240F0CC80069913
:102300002B7B4FEA981279B3D2073CD4032B40F2CF
:10231000C580DDE90223C7E902232B7BAE1D033B09
:10232000DBB23246394604F10C00FFF729FB0028E6
:1023300008DA39462046FFF7BFF93846FFF7D0F9EB
:10234000032046E7AB883B832A7B033AD2B2B88AA4
:102350003146FFF755FAFB7DB882DA43C2F3C0126B
:1023600062F3C713FB75AFE76AB92E1D013BDBB201
:102370003246394604F10C00FFF702FB0028D8DB97
:102380002A7B013AE2E7FA8AC2F30902013B052AF5
:10239000D9B250D8281D002399420AD907EB020E62
:1023A000013210F801CB8EF81AC00133062ADBB2D5
:1023B000F2D1DDE902898B4207F11A02CDE90889E1
:1023C0000A9238BF04337A680B9234BF5B1900233A
:1023D0000C93FB8AADF836A0C3F3090319449DF8AA
:1023E0001C308DF83A309DF814308DF83B300023C6
:1023F000ADF834108DF838B08DF839607B602A7BE9
:10240000B88A013A291DFFF7FBF93B8BB88283425A
:1024100003D1A36808A92046984708A92046FFF7DA
:102420006DFE3846FFF75CF9B88A3B8B984214BFC3
:1024300011200020CDE6786810B34FF0060E036837
:102440009BB9A2EB0E021B2A13D80332024405F1FA
:10245000040E1F309942ACD91EF801CB02F801CF0F
:1024600001339042DBB2F5D1A3E70EF11C0E184602
:10247000E5E7184B184A194840F2B31101F0E2FBA6
:10248000034696E76FF00900A3E66FF00A00A0E6A6
:102490006FF00D009DE66FF00E009AE66FF00F00F2
:1024A00097E6FB7D68F386036FF3C713FB75394628
:1024B0002046FFF701F9069B002B7FF4D8AEFB7D89
:1024C000C3F38402013262F38603FB7503E700BFA6
:1024D00080841E0030410008143F00083842000884
:1024E0002DE9F0414C4EB04240F081804B4CDFF87A
:1024F00030E1E56945F00075E561E469846AD4F886
:10250000007207EA0E0747F00107C4F80072D4F81A
:10251000005205EA0E0545F0010545EA0121C4F81F
:102520000012002A65D00021C4F81C120F46C4F81E
:102530000412C4F80C12C4F8141204EBC1050131E2
:102540000E29C5F84072C5F84472F6D14FF0000E5E
:102550004FF0010C964510D1826AD2F80032B04299
:1025600023F00103C2F8003253D12C4BDA6922F078
:102570000072DA61DB69BDE8F0819F781D8817F091
:10258000010F18BFD4F804820CFA05F11CBF41EA10
:102590000808C4F8048217F0020F1EBFD4F80C829A
:1025A00041EA0808C4F80C827F0742BFD4F81472CD
:1025B0000F43C4F8147204EBC5055F68C5F8407298
:1025C0009F68C5F84472D4F81C522943C4F81C1201
:1025D0000C330EF1010EBDE7846A0021C4F81C1211
:1025E000C4F80412C4F80C12C4F81412AEE7002A9E
:1025F000F2D1836A0022C3F84022C3F84422C3F810
:102600000422C3F814220122C3F80C22C3F81C22AE
:10261000A2E7BDE8F08100BF0023002000100240C7
:102620000000FFFF184A916A08B58B688B6013F0B1
:10263000010105D013F00C0F14BF4FF480310121BC
:10264000D80506D513F4406F14BF41F4003141F0B2
:102650000201D80306D513F4402F14BF41F48021A2
:1026600041F00401D3690BB107489847202383F355
:1026700011880021054800F087FE002383F31188AC
:10268000BDE8084001F07EB80023002008230020A8
:1026900038B5124CA36ADD68AA0712D05A6922F035
:1026A00002025A61A36913B10121204698472023F1
:1026B00083F3118800210A4800F066FE002383F3AB
:1026C0001188EB0606D5A36A1021D960236A0BB1E5
:1026D00002489847BDE8384001F054B80023002074
:1026E0001023002038B5124CA36A1D69AA0712D026
:1026F0005A6922F010025A61A36913B102212046DF
:102700009847202383F3118800210A4800F03CFEFB
:10271000002383F31188EB0606D5A36A1021196103
:10272000236A0BB102489847BDE8384001F02AB847
:10273000002300201023002038B50F4CA36A5D68E9
:102740005D602A070AD5032222701A6822F002026D
:102750001A60636A13B10021204698476B0706D5BB
:10276000A36A9969236A13B1090403489847BDE82D
:10277000384001F007B800BF0023002010B50F4C0F
:10278000204600F03DFA0E4BA3620B21132000F00F
:1027900017FA0B21142000F013FA0B21152000F07A
:1027A0000FFA0B21162000F00BFA002320461A46E0
:1027B0000E21BDE81040FFF793BE00BF00230020AC
:1027C000006400400F4B984210B5044605D10E4BF3
:1027D000DA6942F00072DA61DB69A36A01221A60E9
:1027E000A36A5A68D20707D5626851681268D9612E
:1027F0001A60064A5A6110BD0121082000F07CFCD5
:10280000EEE700BF00230020001002405B870100BC
:1028100003291AD8DFE801F0020A0F14836A9B68C3
:1028200013F0E05F14BF012000207047836A9868AE
:10283000C0F380607047836A9868C0F3C0607047D7
:10284000836A9868C0F300707047002070470000EA
:1028500010B503291FD8DFE801F0021F2327816A82
:102860008B68C3F30163183301EB031310788106FF
:102870001ED55468C0F30011490041EAC40141F07B
:10288000040100F00F00586090689860D268DA6028
:1028900041F00101196010BD836A03F5C073E5E7DB
:1028A000836A03F5C873E1E7836A03F5D073DDE754
:1028B0009488C0F30011490041EA4451E1E7000067
:1028C00001290CD003D3022910D000207047836A5D
:1028D000DA68920701D1186903E001207047836A22
:1028E000D86810F0030018BF01207047836AF2E730
:1028F00010B539B9836AD96889071BD11B699B0751
:1029000004D110BD012915D0022948D1816AD1F81E
:10291000C031D1F8C401D1F8C8411461D1F8CC411B
:10292000546120240C610C69A40717D14C6944F050
:10293000100412E0816AD1F8B031D1F8B401D1F8B5
:10294000B8411461D1F8BC4154612024CC60CC68FA
:10295000A40703D14C6944F002044C6111795C086E
:1029600064F304119C0864F34511117189064BBF8F
:1029700091681189DB085B0D4CBF63F31C0163F3A5
:102980000A01137948BF916060F3030313714FEAA2
:1029900010234FEA104058BF11811370508010BDB2
:1029A000002304491A465A50C8180833802B426045
:1029B000F9D170472C23002002684368114301605D
:1029C00003B1184770470000024A136843F0C00380
:1029D0001360704700380140024A136843F0C00397
:1029E00013607047004400402DE9F047C66D37681A
:1029F000F46934620546200719D014F0080F0CBFA3
:102A000000218021E20748BF41F02001A30748BF11
:102A100041F04001600748BF41F48071202383F3F7
:102A20001188281DFFF7C8FF002383F31188E205F2
:102A30000AD5202383F311884FF40071281DFFF776
:102A4000BBFF002383F311884FF020094FF0000AE9
:102A500014F0200831D13B0616D54FF0200905F1BE
:102A6000380A200610D589F31188504600F04CFA38
:102A700000282FDA0821281DFFF79EFF27F080038A
:102A80003360002383F3118879060DD562060BD5D8
:102A9000202383F31188EA6C2B6D9A4201D12B6CB1
:102AA000F3B9002383F31188E30621D5AA6E1369D5
:102AB000F3B15069BDE8F047184789F31188B38C2A
:102AC00095F864102846194000F0AAFA8AF3118894
:102AD000F469BDE780B2308588F31188F469C0E7F6
:102AE0001021281D27F04007FFF766FF3760D8E761
:102AF000BDE8F08708B50348FFF776FFBDE808405A
:102B000000F040BEAC23002008B50348FFF76CFF7F
:102B1000BDE8084000F036BE1824002037B51D4C33
:102B20001D4D204600F070FA009404F114000023BB
:102B300020221A4900F032F92022009404F13800D2
:102B4000174B184900F0ACF9174BE3652566174C95
:102B50000C21252000F034F8204600F055FA04F14D
:102B60001400009400232022114900F017F904F109
:102B7000380000940F4B1049202200F091F90F4BC0
:102B8000E3650C212620256603B0BDE8304000F047
:102B900017B800BFAC230020005125028424002078
:102BA000C9290008C424002000380140182400204E
:102BB000A4240020D9290008E42400200044004077
:102BC00000F1604300F01F02400903F56143090171
:102BD0008000C9B200F1604083F8001300F5614045
:102BE00001239340C0F880310360704700F16040DA
:102BF000090100F56D40C9B201767047FFF7BEBD0F
:102C000000F108020123037082600023C26000F11A
:102C100010024360026142618361C36103624362E7
:102C20007047000010B52023044683F31188022367
:102C300003704160FFF7C6FD03232370002383F375
:102C4000118810BD2DE9F0411F4604460D46164679
:102C5000202383F3118800F108082378042B0ED079
:102C600029462046FFF7D4FD48B120463246294682
:102C7000FFF7EEFD002080F31188BDE8F0813946B2
:102C8000404600F065FB0028E7D0002383F311885D
:102C9000BDE8F0812DE9F0411F4604460D46164679
:102CA000202383F3118800F110082378042B0ED021
:102CB00029462046FFF704FE48B120463246294601
:102CC000FFF716FE002080F31188BDE8F081394639
:102CD000404600F03DFB0028E7D0002383F3118835
:102CE000BDE8F081F8B5154682680669AA420B4630
:102CF000816938BF8568761AB542044607D21846FE
:102D00002A46FEF767FBA3692B44A3610DE011D9A6
:102D100032461846FEF75EFBAF1B3A46E168304488
:102D2000FEF758FBE2683A44A261A3685B1BA3600C
:102D30002846F8BD18462A46FEF74CFBE368E4E750
:102D400083682DE9F041044693421546266938BF51
:102D500085684069361AB5420F4606D22A46FEF704
:102D600039FB63692B4463610DE012D93246A5EB50
:102D70000608FEF72FFB4246B919E068FEF72AFB6A
:102D8000E26842446261A3685B1BA3602846BDE819
:102D9000F0812A46FEF71EFBE368E4E710B50A441B
:102DA0000024C361029B006040608460C160816157
:102DB00041610261036210BD08B5826943699342B3
:102DC00001D1826882B98268013282605A1C4261F4
:102DD0001970426903699A4201D3C36843610021B3
:102DE00000F0C6FA002008BD4FF0FF3008BD00001B
:102DF00070B5202304460E4683F31188A568A5B15B
:102E0000A368A269013BA360531CA36115782269E2
:102E1000934224BFE368A361E3690BB1204698475E
:102E2000002383F31188284670BD3146204600F008
:102E30008FFA0028E2DA85F3118870BD2DE9F74F8B
:102E400005460F4690469A46D0F81C90202686F3F9
:102E500011884FF0000B144664B1224639462846CB
:102E6000FFF740FF034668B95146284600F070FA64
:102E70000028F1D0002383F31188A8EB040003B0ED
:102E8000BDE8F08FB9F1000F03D001902846C84784
:102E9000019B8BF31188E41A1F4486F31188DBE74A
:102EA000C16081614161C3611144009B0060406069
:102EB0008260016103627047F8B504460E4617460A
:102EC000202383F31188A568A5B1A368013BA36003
:102ED00063695A1C62611E70236962699A4224BF49
:102EE000E3686361E3690BB120469847002080F3F3
:102EF0001188F8BD3946204600F02AFA0028E2DAA7
:102F000085F31188F8BD0000836942699A4210B5C3
:102F100001D182687AB98268013282605A1C82616A
:102F20001C7803699A4201D3C3688361002100F0D1
:102F30001FFA204610BD4FF0FF3010BD2DE9F74FAE
:102F400005460F4690469A46D0F81C90202686F3F8
:102F500011884FF0000B144664B1224639462846CA
:102F6000FFF7EEFE034668B95146284600F0F0F937
:102F70000028F1D0002383F31188A8EB040003B0EC
:102F8000BDE8F08FB9F1000F03D001902846C84783
:102F9000019B8BF31188E41A1F4486F31188DBE749
:102FA000026843681143016003B11847704700008D
:102FB0001430FFF743BF00004FF0FF331430FFF72A
:102FC0003DBF00003830FFF7B9BF00004FF0FF33BE
:102FD0003830FFF7B3BF00001430FFF709BF00001F
:102FE0004FF0FF311430FFF703BF00003830FFF718
:102FF00063BF00004FF0FF323830FFF75DBF0000C5
:1030000000207047FFF78ABD044B03600023436034
:103010008360C36001230374704700BF74420008DB
:1030200038B5C36904460D461BB904210844FFF7AF
:10303000B7FF294604F11400FFF7BEFE002806DAA8
:10304000201D4FF48061BDE83840FFF7A9BF38BDAF
:10305000024B00221B605B609A60704704250020D1
:10306000002303748268054B1B6899689142FBD268
:103070005A68036042601060586070470425002061
:1030800008B5202383F31188037C032B05D0042B80
:103090000DD02BB983F3118808BD436900221A6053
:1030A0004FF0FF334361FFF7DBFF0023F2E790E8C7
:1030B0000C001A6002685360F2E7000000230374FA
:1030C0008268054B1B6899689142FBD85A68036077
:1030D000426010605860704704250020054B196954
:1030E0000874186802681A60536018610123037439
:1030F000FDF78ABA0425002030B54B1C87B0054681
:103100000A4C10D023690A4A01A800F059F9284650
:10311000FFF7E4FF049B13B101A800F06BF92369EA
:10312000586907B030BDFFF7D9FFF8E70425002044
:103130008130000838B50C4D41612B6981689A686F
:103140009142044603D8BDE83840FFF789BF1846CE
:10315000FFF786FF01232C61014623742046BDE85A
:103160003840FDF751BA00BF04250020044B1A680F
:103170001B6990689B68984294BF002001207047AB
:103180000425002010B5084C236820691A682260C5
:103190005460012223611A74FFF790FF01462069F1
:1031A000BDE81040FDF730BA0425002008B5FFF750
:1031B000DDFF18B1BDE80840FFF7E4BF08BD00001F
:1031C000FEE7000010B5174CFFF742FF00F0EAF8E9
:1031D00080221549204600F06FF8012344F8180CAE
:1031E0000374124B124AD96821F4E0610904090CF6
:1031F0000A431049DA60CA6842F08072CA600E4918
:103200000A6842F001020A601022DA77202283F86D
:103210002220002383F3118862B60848BDE81040DD
:1032200000F06CB82C2500209C42000800ED00E066
:103230000003FA05F0ED00E0001000E0A4420008F1
:10324000F8B50F4C226A01322262224652F8141F4E
:103250009142154606D08B68013B8B60202663693E
:103260009A6802B1F8BD1968DF68DA604D60616183
:1032700082F311881869B84786F31188EFE700BF19
:1032800004250020EFF3118020B9EFF305832022FD
:1032900082F311887047000010B558B9EFF3058428
:1032A000C4F3080414B180F3118810BDFFF77EFF4A
:1032B00084F3118810BD0000826002220274002293
:1032C000427470478368A3F17C0243F80C2C0269B6
:1032D00043F83C2C426943F8382C074A43F81C2C2D
:1032E000C26843F8102C022203F8082C002203F8CD
:1032F000072CA3F1180070472106000810B5202301
:1033000083F31188FFF7DEFF00210446FFF712FF69
:10331000002383F31188204610BD0000024B1B6977
:1033200058610F20FFF7DABE04250020202383F325
:103330001188FFF7F3BF000008B50146202383F38F
:1033400011880820FFF7D8FE002383F3118808BDF9
:1033500049B1064B42681B6918605A6013604360AC
:103360000420FFF7C9BE4FF0FF307047042500204E
:103370000368984206D01A68026050605961184686
:10338000FFF76EBE7047000038B504460D46206852
:10339000844200D138BD036823605C604561FFF75B
:1033A0005FFEF4E7054B03F114025A619A614FF096
:1033B000FF32DA6100221A62704700BF0425002044
:1033C00010B5C2600A4A036153699C68A1420CD8D7
:1033D0005C68036044602060586081609868411AAE
:1033E00099604FF0FF33D36110BD091B1B68ECE7F8
:1033F00004250020036881689A680A449A6042683C
:10340000136003685A600023C360024B4FF0FF3221
:10341000DA6170470425002000207047FEE70000B5
:10342000704700004FF0FF3070470000BFF34F8F30
:10343000024AD368DB07FCD4704700BF002002407B
:1034400008B5074B1B7853B9FFF7F0FF054B1A6916
:10345000120641BF044A5A6002F188325A6008BD20
:1034600090260020002002402301674508B5054B47
:103470001B7833B9FFF7DAFF034A136943F080037F
:10348000136108BD90260020002002407F289ABFCB
:1034900000F58030C0020020704700004FF400604B
:1034A00070470000802070477F2808B50BD8FFF7D1
:1034B000EDFF00F500630268013204D1043083425D
:1034C000F9D1012008BD002008BD00007F2810B5FB
:1034D00004461CD8FFF7AAFFFFF7B2FF0D4BF322FB
:1034E000DA6002221A61FFF7D1FF58611A6942F0CF
:1034F00040021A61FFF79AFF4FF4006100F0F6F8FE
:10350000FFF7B4FF2046BDE81040FFF7CDBF002015
:1035100010BD00BF002002402DE9F84312F0010366
:10352000144606D0204B40F243221A600020BDE82A
:10353000F88385181D4A954204D91B4A4FF412712D
:103540001160F3E7FFF77CFFFFF770FFDFF86C8097
:10355000451A4FF00109012C05EB01060F4604D86E
:10356000FFF784FF0120BDE8F883C8F8109031F818
:10357000023B3380FFF75AFF0020C8F81000338861
:103580003A889BB29A420DD0074B40F25F221A60F4
:10359000074B1E60074B1C60074B1F60FFF766FF61
:1035A000BDE8F883023CD6E78C260020FFFF030825
:1035B000802600208826002084260020002002404B
:1035C000084908B50B7828B153B9FFF739FF012333
:1035D0000B7008BD23B1BDE808400870FFF746BF77
:1035E00008BD00BF9026002038B5FFF74BFE0D4BFD
:1035F0000D4A1C6A11684FF47A7303FB04F38B4283
:103600000A49D1E9004504D2003445F10105C1E978
:103610000045E41845F100051360FFF73DFE204624
:10362000294638BD04250020942600209826002035
:1036300008B5FFF7D9FF4FF47A720023FCF7C8FDF5
:1036400008BD00BF10B50244064B0439D2B2904207
:1036500000D110BD441C00B253F8200041F8040F03
:10366000E0B2F4E750280040104B30B51C6A240447
:1036700007D41C6A44F440741C621C6A44F400447D
:103680001C620B4C236843F4807323600244094B93
:103690000439D2B2904200D130BD441C00B251F87E
:1036A000045F43F82050E0B2F4E700BF001002408E
:1036B000007000405028004007B5012201A90020F9
:1036C000FFF7C0FF019803B05DF804FB13B5044693
:1036D000FFF7F2FFA04206D002A9012241F8044DF3
:1036E0000020FFF7C1FF02B010BD000070470000CE
:1036F000074B45F255521A6002225A6040F6FF729B
:103700009A604CF6CC421A60024B01221A70704744
:1037100000300040A1260020034B1B781BB1034B57
:103720004AF6AA221A607047A12600200030004005
:10373000034B1B689B0042BF024B01221A7070476B
:1037400024100240A0260020024B4FF080721A6025
:10375000704700BF24100240014B1878704700BF2B
:10376000A0260020064A536823F001035360EFF3BC
:103770000983683383F30988002383F31188704732
:1037800030EF00E010B5202383F31188104B5B6805
:1037900013F4006318D0F1EE103AEFF309844FF000
:1037A000807344F84C3C0B4BDB6844F8083CA4F1B4
:1037B000680383F30988FFF7D9FC18B1064B44F876
:1037C000503C10BD054BFAE783F3118810BD00BFD4
:1037D00000ED00E030EF00E031060008340600089C
:1037E00070470000FEE70000084A094B09498B4278
:1037F00004D3094A0021934205D3704752F8040FBD
:1038000043F8040BF3E743F8041BF4E720440008F3
:10381000A8260020A8260020A82600204B68436088
:103820008B688360CB68C3600B6943614B6903623B
:103830008B6943620B6803607047000008B5194B41
:103840009A6A42F4FC029A629A6A22F4FC029A6230
:103850009A6A5A6942F4FC025A61134A5B6911463A
:103860004FF09040FFF7DAFF104802F11C01FFF71C
:10387000D5FF0F4802F13801FFF7D0FF0D4802F1E4
:103880005401FFF7CBFF0C4802F17001FFF7C6FFB0
:103890000A4802F18C01FFF7C1FFBDE8084000F0C3
:1038A00065B800BF00100240C44200080004004890
:1038B00000080048000C00480010004800140048B0
:1038C00008B500F08FF9FFF77DFCBDE80840FFF771
:1038D0002FBF00007047000010B5214CA26A62F4AF
:1038E000FC02A262A26A02F4FC02A2624FF0FF3163
:1038F000A26A226921612269002222612069E068AE
:10390000E160E168E260E168E169164841F08051F8
:10391000E161E169016841F480710160216A01F4AB
:103920004071B1F5407F1EBF4FF4803323622262A5
:10393000236A1B0407D4236A43F440732362236A77
:1039400043F40043236200F02DF9A369064A43F0D3
:103950000103A361A369136843F02003136010BD42
:103960000010024000700040000001401C4B1A682B
:1039700042F001021A601A689007FCD55A6822F0DA
:1039800003025A605A6812F00C02FBD1196801F068
:10399000F90119605A601A6842F480321A601A6894
:1039A0009103FCD50F4A5A604FF40452DA62302278
:1039B0001A631A6842F080721A601A689201FCD584
:1039C000094A122111605A6842F002025A605A688C
:1039D00002F00C02082AFAD11A6B1A63704700BF72
:1039E0000010024000241D0000200240084A08B5D3
:1039F000536911680B4003F00103536123B1054A79
:103A000013680BB150689847BDE80840FFF7BABE8D
:103A1000000401402C230020084A08B553691168AE
:103A20000B4003F00203536123B1054A93680BB1C5
:103A3000D0689847BDE80840FFF7A4BE00040140E5
:103A40002C230020084A08B5536911680B4003F085
:103A50000403536123B1054A13690BB150699847B8
:103A6000BDE80840FFF78EBE000401402C23002073
:103A7000084A08B5536911680B4003F00803536105
:103A800023B1054A93690BB1D0699847BDE8084056
:103A9000FFF778BE000401402C230020084A08B537
:103AA000536911680B4003F01003536123B1054AB9
:103AB000136A0BB1506A9847BDE80840FFF762BE31
:103AC000000401402C230020174B10B55C691A68D4
:103AD000144004F478725A61A30604D5134A936A19
:103AE0000BB1D06A9847600604D5104A136B0BB12E
:103AF000506B9847210604D50C4A936B0BB1D06BE1
:103B00009847E20504D5094A136C0BB1506C9847ED
:103B1000A30504D5054A936C0BB1D06C9847BDE85A
:103B20001040FFF72FBE00BF000401402C230020EF
:103B30001A4B10B55C691A68144004F47C425A614F
:103B4000620504D5164A136D0BB1506D98472305D5
:103B500004D5134A936D0BB1D06D9847E00404D59A
:103B60000F4A136E0BB1506E9847A10404D50C4A4E
:103B7000936E0BB1D06E9847620404D5084A136F58
:103B80000BB1506F9847230404D5054A936F0BB1CE
:103B9000D06F9847BDE81040FFF7F4BD0004014026
:103BA0002C230020062108B50846FFF709F8062156
:103BB0000720FFF705F806210820FFF701F8062186
:103BC0000920FEF7FDFF06210A20FEF7F9FF062176
:103BD0001720FEF7F5FF06212820BDE80840FEF774
:103BE000EFBF000008B5FFF777FEFEF7D9FEFFF73D
:103BF00005F8FFF707FAFFF76DFEBDE8084000F093
:103C000001B8000000F00EB808B5202383F3118836
:103C1000FFF716FB002383F31188BDE80840FFF788
:103C2000B1BD0000054B064A5A6000229A60072287
:103C30001A6008210B20FEF7D9BF00BF10E000E09A
:103C40003F1901001FB51C46094B1B680546D86883
:103C500052B1084B02928DE80A0022462B460649D3
:103C6000FDF722FC00F042F8044B1A46F2E700BFD1
:103C7000101100206C43000879430008FF3D000844
:103C800010B501390244904201D1002010BD10F856
:103C9000013B11F8014FA342F5D0181B10BD0000E5
:103CA0002DE9F8430746884691461E468BB10D46DE
:103CB000A8EB0500B54207EB000402D20020BDE8E6
:103CC000F883324649462046FFF7DAFF18B1013D36
:103CD000EEE7BDE8F8832046BDE8F883034611F817
:103CE000012B03F8012B002AF9D1704708B50620F3
:103CF00000F02CF80120FFF791FB00001F2938B5D8
:103D000004460D4604D9162303604FF0FF3038BD3A
:103D1000426C12B152F821304BB9204600F030F815
:103D20002A4601462046BDE8384000F017B8012B6E
:103D30000AD0591C03D116230360012038BD00248A
:103D400042F8254028469847002038BD024B0146DE
:103D50001868FFF7D3BF00BF1011002038B5074C1B
:103D600000230546084611462360FFF75BFB431C12
:103D700002D1236803B12B6038BD00BFA426002008
:103D8000FFF74ABB40A2E4F1646891064E6F2061E0
:103D90007070207369670A00426164206677206C46
:103DA000656E6774682025750A0042616420626F41
:103DB0006172645F69642025752073686F756C6437
:103DC0002062652025750A004261642061707020C0
:103DD000435243203078253038783A3078253038CF
:103DE00078203078253038783A3078253038780A9D
:103DF00000476F6F64206669726D776172650A00B3
:103E000072656365697665645F756E697175655F16
:103E100069645F6C656E203C2055415643414E5F9E
:103E200050524F544F434F4C5F44594E414D4943BC
:103E30005F4E4F44455F49445F414C4C4F434154B2
:103E4000494F4E5F554E495155455F49445F4D417D
:103E5000585F4C454E475448002E2E2F2E2E2F547F
:103E60006F6F6C732F41505F426F6F746C6F616442
:103E700065722F63616E2E63707000616C6C6F638E
:103E8000617465645F6E6F64655F6964203C3D20AA
:103E9000313237006F72672E6172647570696C6FB2
:103EA000742E663330332D686B610000766F696461
:103EB0002068616E646C655F616C6C6F63617469CE
:103EC0006F6E5F726573706F6E73652843616E61AC
:103ED0007264496E7374616E63652A2C2043616E4F
:103EE00061726452785472616E736665722A290039
:103EF00063616E617264496E6974000063616E6132
:103F000072645365744C6F63616C4E6F64654944B1
:103F10000000000063616E61726448616E646C65EC
:103F200052784672616D650063616E6172644465CA
:103F3000636F64655363616C6172000063616E61FD
:103F40007264456E636F64655363616C61720000F7
:103F5000696E6372656D656E745472616E736665C9
:103F600072494400656E7175657565547846726175
:103F70006D6573007075736854785175657565006B
:103F800070726570617265466F724E6578745472B6
:103F9000616E736665720000636F70794269744187
:103FA0007272617900000000646573636174746506
:103FB000725472616E736665725061796C6F616480
:103FC0000000000066726565426C6F636B00000064
:103FD0006269745F6C656E677468203E20300072A1
:103FE000656D61696E696E675F62697473203E20FA
:103FF0003000696E7075745F6269745F6F666673B6
:104000006574203E3D20626C6F636B5F6269745F14
:104010006F666673657400626C6F636B5F656E6478
:104020005F6269745F6F6666736574203E20626CC0
:104030006F636B5F6269745F6F666673657400724D
:10404000656D61696E696E675F6269745F6C656EEC
:10405000677468203C3D2072656D61696E696E67AA
:104060005F6269747300696E7075745F6269745F12
:104070006F6666736574203C3D207472616E736672
:1040800065722D3E7061796C6F61645F6C656E2046
:104090002A2038006F75747075745F6269745F6F81
:1040A0006666736574203C3D2036340072656D6130
:1040B000696E696E675F6269745F6C656E6774686C
:1040C000203D3D20300028726573756C74203E20C1
:1040D00030292026262028726573756C74203C3D9B
:1040E000203634292026262028726573756C7420AA
:1040F0003C3D206269745F6C656E677468290000DE
:1041000064657374696E6174696F6E20213D202847
:1041100028766F6964202A2930290076616C7565DC
:1041200020213D202828766F6964202A2930290023
:104130006F66667365745F77697468696E5F626CD9
:104140006F636B203C2028333255202D205F5F6247
:1041500075696C74696E5F6F66667365746F6620EF
:104160002843616E617264427566666572426C6F67
:10417000636B2C2064617461292900006F75745F82
:10418000696E7320213D202828766F6964202A29D2
:10419000302900007372635F6C656E203E203055DD
:1041A000000000002863616E5F696420262030787B
:1041B00031464646464646465529203D3D206361E8
:1041C0006E5F696400000000616C6C6F6361746F06
:1041D000722D3E737461746973746963732E6375B1
:1041E0007272656E745F75736167655F626C6F6331
:1041F0006B73203E203000007472616E73666572CE
:104200005F696420213D202828766F6964202A296F
:104210003029000073746174652D3E6275666665B1
:10422000725F626C6F636B73203D3D202828766F50
:104230006964202A293029002E2E2F2E2E2F6D6FF3
:1042400064756C65732F6C696263616E6172642F53
:1042500063616E6172642E63006974656D2D3E66E4
:1042600072616D652E646174615F6C656E203E20C5
:104270003000000000000000CD2F0008B92F00081A
:10428000F52F0008E12F0008ED2F0008D92F0008B6
:10429000C52F0008B12F0008013000086D61696E5C
:1042A00000000000BC4200084825002080260020B5
:1042B00001000000C13100080000000069646C6565
:1042C00000000000A001A82A00000000FAAABEAA6F
:1042D00050001400EFFF0000007700007097090005
:1042E0000100000000000000AAAAAAAA0100000024
:1042F000FFFF0000000000000000000000000000C0
:1043000000000000AAAAAAAA00000000FFFF000007
:10431000000000000000000000000000000000009D
:10432000AAAAAAAA00000000FFFF000000000000E7
:10433000000000000000000000000000AAAAAAAAD5
:1043400000000000FFFF000000000000000000006F
:104350000000000000000000AAAAAAAA00000000B5
:10436000FFFF000000000000000000002C20667528
:104370006E6374696F6E3A2000617373657274695D
:104380006F6E2022257322206661696C65643A2075
:1043900066696C6520222573222C206C696E65206D
:1043A0002564257325730A0058BEFF7F01000000B5
:1043B0006400000000000000FE2A0100D20400009A
:1043C00014110020000000000000000000000000A8
:1043D00000000000000000000000000000000000DD
:1043E00000000000000000000000000000000000CD
:1043F00000000000000000000000000000000000BD
:1044000000000000000000000000000000000000AC
:10441000000000000000000000000000000000009C
:044420000000000098
:00000001FF
