:020000040800F2
:1000000000090020B5040008F12C0008A92C000804
:10001000D12C0008A92C0008C92C0008B70400083E
:10002000B7040008B7040008B7040008613D0008E1
:10003000B7040008B7040008B7040008994E000888
:10004000B7040008B7040008B7040008B7040008A4
:10005000B7040008B7040008B7040008B704000894
:10006000B7040008B7040008B7040008B704000884
:10007000B7040008B7040008B7040008B704000874
:10008000B7040008B7040008B70400085D2C000896
:10009000892C0008992C0008B7040008B704000850
:1000A000B7040008B7040008B7040008B704000844
:1000B000B7040008B7040008B7040008B704000834
:1000C000B7040008B7040008B7040008B704000824
:1000D000B7040008B7040008B7040008314000085E
:1000E000B7040008B7040008B7040008B704000804
:1000F000B7040008B7040008B7040008B7040008F4
:10010000B7040008B7040008B7040008B7040008E3
:10011000B7040008B7040008B7040008B7040008D3
:10012000B7040008B7040008B7040008B7040008C3
:10013000B7040008B7040008B7040008B7040008B3
:10014000B7040008B7040008B7040008B7040008A3
:10015000B7040008B7040008B7040008B704000893
:10016000B7040008B7040008B7040008B704000883
:10017000B7040008B7040008B7040008B704000873
:10018000B7040008B7040008B7040008B704000863
:10019000B7040008B7040008B7040008B704000853
:1001A00055170008FFFFFFFFFFFFFFFFFFFFFFFFE7
:1001B00053B94AB9002908BF00281CBF4FF0FF31CE
:1001C0004FF0FF3000F074B9ADF1080C6DE904CECA
:1001D00000F006F8DDF804E0DDE9022304B0704722
:1001E0002DE9F047089D04468E46002B4DD18A42EA
:1001F000944669D9B2FA82F252B101FA02F3C2F11D
:10020000200120FA01F10CFA02FC41EA030E9440AD
:100210004FEA1C48210CBEFBF8F61FFA8CF708FBCE
:1002200016E341EA034306FB07F199420AD91CEBA6
:10023000030306F1FF3080F01F81994240F21C81D8
:10024000023E63445B1AA4B2B3FBF8F008FB103320
:1002500044EA034400FB07F7A7420AD91CEB040455
:1002600000F1FF3380F00A81A74240F20781644425
:10027000023840EA0640E41B00261DB1D4400023AA
:10028000C5E900433146BDE8F0878B4209D9002D0E
:1002900000F0EF800026C5E9000130463146BDE898
:1002A000F087B3FA83F6002E4AD18B4202D3824202
:1002B00000F2F980841A61EB030301209E46002DB1
:1002C000E0D0C5E9004EDDE702B9FFDEB2FA82F206
:1002D000002A40F09280A1EB0C014FEA1C471FFA64
:1002E0008CFE0126200CB1FBF7F307FB131140EA4B
:1002F00001410EFB03F0884208D91CEB010103F118
:10030000FF3802D2884200F2CB804346091AA4B2D9
:10031000B1FBF7F007FB101144EA01440EFB00FEAD
:10032000A64508D91CEB040400F1FF3102D2A64512
:1003300000F2BB800846A4EB0E0440EA03409CE7B1
:10034000C6F12007B34022FA07FC4CEA030C20FA5E
:1003500007F401FA06F31C43F9404FEA1C4900FA7E
:1003600006F3B1FBF9F8200C1FFA8CFE09FB1811FB
:1003700040EA014108FB0EF0884202FA06F20BD96E
:100380001CEB010108F1FF3A80F08880884240F2BE
:100390008580A8F102086144091AA4B2B1FBF9F002
:1003A00009FB101144EA014100FB0EFE8E4508D9FD
:1003B0001CEB010100F1FF346CD28E456AD9023882
:1003C000614440EA0840A0FB0294A1EB0E01A14267
:1003D000C846A64656D353D05DB1B3EB080261EBD5
:1003E0000E0101FA07F722FA06F3F1401F43C5E9AF
:1003F000007100263146BDE8F087C2F12003D840E5
:100400000CFA02FC21FA03F3914001434FEA1C4726
:100410001FFA8CFEB3FBF7F007FB10360B0C43EA18
:10042000064300FB0EF69E4204FA02F408D91CEBC8
:10043000030300F1FF382FD29E422DD902386344C6
:100440009B1B89B2B3FBF7F607FB163341EA034166
:1004500006FB0EF38B4208D91CEB010106F1FF38B5
:1004600016D28B4214D9023E6144C91A46EA0046AC
:1004700038E72E46284605E70646E3E61846F8E63E
:100480004B45A9D2B9EB020864EB0C0E0138A3E787
:100490004646EAE7204694E74046D1E7D0467BE768
:1004A000023B614432E7304609E76444023842E7E0
:1004B000704700BF02E000F000F8FEE772B6374870
:1004C00080F30888364880F3098836483649086042
:1004D00040F20000CCF200004EF63471CEF2000182
:1004E0000860BFF34F8FBFF36F8F40F20000C0F280
:1004F000F0004EF68851CEF200010860BFF34F8F36
:10050000BFF36F8F4FF00000E1EE100A4EF63C7122
:10051000CEF200010860062080F31488BFF36F8FCD
:1005200004F018FB04F08CFB4FF055301F491B4AB8
:1005300091423CBF41F8040BFAE71D49184A914229
:100540003CBF41F8040BFAE71A491B4A1B4B9A427D
:100550003EBF51F8040B42F8040BF8E7002018499D
:10056000184A91423CBF41F8040BFAE704F0F6FA4E
:1005700004F0AEFB144C154DAC4203DA54F8041BE6
:100580008847F9E700F042F8114C124DAC4203DA0B
:1005900054F8041B8847F9E704F0DEBA000900208C
:1005A000001100200000000808ED00E0000100201C
:1005B000000900204851000800110020841100208B
:1005C00088110020643C0020A0010008A40100085C
:1005D000A4010008A40100082DE9F04F2DED108AB8
:1005E000C1F80CD0C3689D46BDEC108ABDE8F08F01
:1005F000002383F311882846A047002003F0FEFF64
:10060000FEE703F081FF00DFFEE70000F8B501F030
:100610001BF904F03FFA074604F08EFA0546A8BB22
:100620001F4B9F4232D001339F4232D01D4B27F0E7
:10063000FF029A4230D1F8B200F0E2FE2E4642F2BA
:10064000107400F0E3FE08B10024264601F04EFCD1
:1006500020B1032000F078F80024264635B1124B73
:100660009F4203D004F060FA00242646002004F0E4
:100670001BFA0EB100F07EF801F0E0F900F0FAFE8E
:10068000204600F0C9F800F075F8F9E72E4600247E
:10069000D7E704460126D4E706464FF47A74D0E73C
:1006A000010007B0000008B0263A09B008B501F013
:1006B00099F8A0F120035842584108BD07B504211C
:1006C00001900DEB010001F0ABF803B05DF804FB05
:1006D00038B5302383F31188174803680BB103F052
:1006E000DDFF164A14480023012103F0CDFF00234B
:1006F00083F31188124C236813B12368013B2360F4
:10070000636813B16368013B63600E4D2B7833B9A6
:1007100063687BB9022001F027F9322363602B78EC
:10072000032B07D163682BB9022001F01DF94FF4A8
:100730007A73636038BD00BF88110020D1060008BD
:10074000A8120020A0110020084B187003280CD814
:10075000DFE800F008050208022001F003B90220DA
:1007600001F0FEB8024B00225A607047A011002031
:10077000A812002038B501F0B9FB30B11F4B03229D
:100780001A701F4B00225A6038BD1E4B1E4A196852
:100790000131F9D004339342F9D11C4C194DD4F8EE
:1007A0000428AA42F0D31A4B9B6803F1006303F5B7
:1007B000D0439A42E8D204F08BF904F09DF900206E
:1007C00001F05CF80220FFF7BFFF124BDA6900224C
:1007D000DA61D96999699A619B6972B64FF0E02331
:1007E0003021C3F8085DD4F80038D4F8042881F328
:1007F00011889D4683F308881047C5E7A0110020A3
:10080000A8120020006800082068000800600008A6
:1008100000110020001002402DE9F04F93B0DFF8E6
:10082000F89202902022FF210AA8D9F8085001F07E
:10083000AFF8B04A13789BB9AF480121036011703B
:10084000302383F3118803680BB103F027FFAB4A11
:10085000A9480023012103F017FF002383F3118827
:10086000029B13B1A64B029A1A60A64A029C137807
:10087000032B1EBF00231370A14A4FF0000B18BFBB
:100880005360CDF804B05E46DA46012001F06AF804
:1008900024B19B4B1B68002B00F0C681002000F0A8
:1008A000A1FF071E80F2F58100F02AFEF0E702208A
:1008B000FFF7FCFE002840F0E381029B9248BBF169
:1008C000000F08BF1C46022140E04FF47A7000F090
:1008D00089FF071EF1DB0220FFF7E8FE0028ECD0BD
:1008E000013F052F00F2CE81DFE807F003070A0D74
:1008F00010330520FFF7E2FE14E0D9F80000F9E715
:10090000D9F80400F6E7D9F80800F3E74FF01C081F
:10091000404600F0B5FF08F10408FFF7CFFEB8F13C
:100920002C0FF5D1019B012000FA07F71F43FBB202
:1009300001934FF0000A01F077F82EB1019B03F00C
:100940000B030B2B08BF00247048022100F068FF46
:100950009BE7D9F80C00CDE7002EAED0019B03F049
:100960000B030B2BA9D10220FFF7A0FE074600289E
:10097000A3D0012000F082FF0220FFF7E5FE002651
:100980001FFA86F8404600F08BFF044670B1002144
:10099000404600F09DFF01360028F1D1BB460446D9
:1009A0005B48022100F03CFF3E466EE70120FFF766
:1009B000CBFE2546D9F80830AB4207D9284600F0CF
:1009C0005FFF013040F061810435F3E74D4B0025B6
:1009D0001D704B4BBB465D603E46ACE7002E3FF4BE
:1009E0006CAF019B03F00B030B2B7FF466AF02206F
:1009F000FFF7AAFE322000F0F5FEB0F10008FFF686
:100A00005CAF18F003077FF458AFD9F8082008EB63
:100A1000050393423FF651AFB8F5807F3FF74DAFE6
:100A20003C4B0393B8450BDD4FF47A7000F0DAFECF
:100A30000028FFF642AF039B013703F8010BF0E7F4
:100A4000C820FFF733FE074600283FF436AF1F2DBE
:100A500011D8C5F1200242450AAB25F0030028BF9A
:100A600042462C490392184400F080FF039A29481B
:100A7000FF2100F08DFF4FEAA80326490393C8F336
:100A80008702284600F08CFF0646002888D0039B8A
:100A900005EB83054FE70220FFF708FE00283FF42F
:100AA0000CAF00F027FF00283FF407AF0027B8463F
:100AB000D9F80830BB4218D91F2F11D80A9B01332F
:100AC0000ED027F0030312AA134453F8203C0593D9
:100AD0004046042205A901F0F3F904378046E7E710
:100AE000384600F0CDFE0590F2E74046FFF7E6FD00
:100AF00021E700BFA412002088110020D1060008C1
:100B0000A8120020A01100206C4F0008644F0008BC
:100B1000684F0008A4110020001100200023642168
:100B200005A8059300F072FE00287FF4C6AE0220EF
:100B3000FFF7BCFD00283FF4C0AE059800F0D0FEE2
:100B4000D4E70023642105A8059300F05FFE002888
:100B50007FF4B3AE0220FFF7A9FD00283FF4ADAE4D
:100B6000059800F0BFFEC1E70220FFF79FFD0028B7
:100B70003FF4A3AE00F0CEFEB8E70220FFF796FDEB
:100B800000283FF49AAE05A9142000F0C9FE039096
:100B9000FFF794FD039905A800F042FECBE6322052
:100BA00000F020FE071EFFF688AEBB077FF485AE7F
:100BB000D9F8082007EB0A0393423FF67EAE0220E5
:100BC000FFF774FD00283FF478AE27F00307574481
:100BD000BA453FF4B0AE504600F052FEFFF76EFD4E
:100BE0000AF1040AF4E74FF47A70FFF75FFD00287A
:100BF0003FF463AE00F07EFE002848D00A9B01332C
:100C00000BD008220AA9002000F0CAFE00283ED01E
:100C10002022FF210AA800F0BBFE3A48022100F082
:100C2000FFFD642003F0F0FC13B0BDE8F08F002E50
:100C30003FF443AE019B03F00B030B2B7FF43DAE5F
:100C40000023642105A8059300F0E0FD0746002875
:100C50007FF433AE0220FFF729FD804600283FF4E1
:100C60002CAE0221274800F0DBFD052003F0CCFC70
:100C7000059800F0EFFE464600F0D6FE3C4604E63E
:100C8000064658E64FF0000A17E6BB4688E63746A8
:100C900086E6012000F064FEA7F1210016283FF649
:100CA000F4AD01A353F820F0AF080008CB0800080A
:100CB000590900088B0800088B0800088B080008F9
:100CC000DD0900089F0B0008970A00081D0B0008AB
:100CD000430B0008690B00088B0800087B0B000819
:100CE0008B080008E70B0008370900088B0800088C
:100CF0002F0C0008BB080008370900088B08000803
:100D00001D0B0008644F0008094A136849F2690086
:100D100099B21B0C00FB01331360064B186844F2B8
:100D2000506182B2000C01FB0200186080B2704773
:100D3000141100201011002010B5002110220446CB
:100D400000F026FE034B03CB206061601868A060B2
:100D500010BD00BFACF7FF1FF0B5ADF54D7D6AAC1F
:100D60000D4606464FF4C4720021204600F010FEE6
:100D700001F0C6FF224B4FF47A72B0FBF2F018601C
:100D800093E80700022384E807000DF5E57023824D
:100D9000FFF7D2FF4CF604531A49238407A804F046
:100DA000D9F80C2384F8323107AB03CB0BAFCDF865
:100DB000DB021868CDF8DF12CDF8E30239460122D4
:100DC000204600F061FE00230393AB7E029305F101
:100DD0001903019380B20123CDE904700093E97EE9
:100DE00005A3D3E90023304602F082FB0DF54D7DCB
:100DF000F0BD00BFAFF300809E6AC421818A46EE39
:100E0000B0120020704F00082DE9F0412C4C237ADD
:100E1000DAB080460D465BBB27A9284600F05AFF92
:100E20000746002842D19DF89D60C82E3ED8014655
:100E30004FF4A662204600F0ABFD4FF48073C4F877
:100E4000F8314FF40073C4F80C334FF44073C4F816
:100E5000203432460DF19E0104F1090000F086FDB8
:100E600026449DF89C30777223720BB9EB7E237277
:100E70008122002106AC27A800F08AFD012221462C
:100E800027A800F06DFF00230393AB7E029305F1CA
:100E9000190380B201932823CDE904400093E97E31
:100EA00005A3D3E90023404602F022FB5AB0BDE877
:100EB000F08100BFAFF3008026417272DF25D7B703
:100EC000F8220020F0B5254E4FF48A7505FB006529
:100ED000F1B096F8D83085F8DC300024D8222146CD
:100EE00085F8E8403AA800F053FD06F1090000F04B
:100EF00047FDD5F8E4308DF8F000C2B206AF06F138
:100F000009010DF1F100CDE93A3400F02FFD394629
:100F100001223AA800F05AFF80B2CDE904700823FC
:100F20000127CDE9023706F1D8030193302300935E
:100F3000317A0B4807A3D3E9002302F0D9FAA04283
:100F400006DD01F0DDFEC5F8E000384671B0F0BD09
:100F50002046FBE778F6339F93CACD8DF822002018
:100F6000C82200202DE9F0411D4D1E4E1E4F86B0B7
:100F7000284602F0E9FA034658B30024CDE90344B9
:100F8000ADF81440027B8DF81420996840680294F3
:100F900003AA03C21B68DFF8548043F000430293A6
:100FA00001F0B0FE821941F10003009402A9384615
:100FB00001F07CF9A04205DD284602F0C9FA88F864
:100FC0000040D5E798F80030072B05D8013388F8A2
:100FD000003006B0BDE8F081014802F0B9FAF8E748
:100FE000C822002040420F00302800202D28002079
:100FF00070B50D4614461E4602F0D6F950B9022EC1
:1010000010D1012C0ED112A3D3E90023C5E900238E
:10101000012007E0282C10D005D8012C09D0052C80
:101020000FD0002070BD302CFBD10BA3D3E90023DF
:10103000ECE70BA3D3E90023E8E70BA3D3E90023F4
:10104000E4E70BA3D3E90023E0E700BFAFF30080A0
:10105000401DA12026812A0B78F6339F93CACD8D9F
:101060009E6AC421818A46EE26417272DF25D7B777
:10107000F017304A39059E5638B505460E4C00210A
:10108000013500F025FCA4F82C55B4F82C0500F02F
:1010900007FC78B1B4F82C0500F012FC014648B901
:1010A000B4F82C0500F014FCB4F82C350133A4F886
:1010B0002C35EAE738BD00BFF822002010B50A4BF6
:1010C0000A4A1A6003F5805393F870203AB9DC6E2F
:1010D0002CB1204600F088FF204601F0C5F8BDE89D
:1010E0001040034800F080BF30280020C84F00089F
:1010F000883800202DE9F04F8FB000AF05460C4630
:1011000002F052F900284BD1237E022B1BD1E38A37
:10111000012B18D101F0F4FD0646FFF7F5FD03465B
:101120004FF4C870DFF8D482B3FBF0F206F5167600
:1011300002FB103316FA83F3C8F80030E37E33B9AC
:10114000A74B00221A703C37BD46BDE8F08F07F16F
:101150002401204600F072FD0028F4D107F11400AC
:10116000FFF7EAFD97F8264007F11401224607F140
:10117000270003F0BDFE0028E2D10F2C08D8984BC1
:101180001C70D8F80030A3F51673C8F80030DAE701
:1011900097F824100029D6D0284602F0FDF8D2E7AF
:1011A000E38A282B33D010D8012B2BD0052BCAD1A2
:1011B000BFF34F8F8B498C4BCA6802F4E062134334
:1011C000CB60BFF34F8F00BFFDE7302BBBD1874E05
:1011D000E17E327A9142B6D1607E3146002291F8AA
:1011E000DC50854200F0AD800132042A01F58A719D
:1011F000F5D1326840F6B831FA328A4294BF326093
:101200003160A0E721462846FFF7A6FD9BE721466F
:101210002846FFF7F9FD96E7B2F8EC507B6005F140
:1012200003094FEA99094FEA8902D11DC908A8EBC1
:10123000C1039D46EB460021584600F0A9FB04F18E
:10124000EE012A463144584600F090FB7B6813B902
:10125000012000F013FB96F8D20000F021FB0446B9
:1012600030B9307200F046FB204600F007FBB0E0DA
:10127000D6F8D4203AB996F8D200B6F82C25824296
:1012800001D8FFF7F9FED6F8D4202A44944208D2B8
:1012900096F8D200B6F82C250130824201D8FFF72B
:1012A000EBFE70685FFA89F2594600F079FB08B9E5
:1012B000C54679E0726896F8D2002A447260D6F882
:1012C000D42005EB0209C6F8D49000F0E9FA814574
:1012D00009D396F8D220D6F8D4000132001B86F844
:1012E000D220C6F8D400FF2D0FD80024347200F0AD
:1012F00001FB204600F0C2FA00F0F8FD3C4B1881DB
:1013000008B9FFF737FAC5461DE7BB6896F8D9005C
:101310000AFB0362FB68D2F8E41082F8E83001F5BA
:101320008061C2F8E030C2F8E410FFF7CBFDFFF7B0
:1013300019FE96F8D920013202F0030286F8D9206E
:10134000B6E74FF48A7A0AFB02F505F1EA01314467
:10135000204600F06FFDF86000287FF4F4AE3544BD
:10136000012285F8E82001F0CBFCD5F8E020D6ED8D
:10137000007ADFED206A801A192838BF192040F65C
:10138000B832904228BF1046B8EE677A07EE900A4E
:10139000F8EEE77A67EEA67ADFED176AE7EE267ACF
:1013A000FCEEE77AC6ED007A96F8D9307168BB603A
:1013B0000AFB03F4321992F8E8505DB1D2F8E43038
:1013C0008B42E8463FF428AF002182F8E810C2F8CB
:1013D000E010C5467368064A9B0A01331381B2E6E2
:1013E000C122002000ED00E00400FA05F8220020F0
:1013F000B0120020CDCCCC3D6666663FC4220020F2
:10140000014B1870704700BFBC12002038B54FF078
:101410000054144B22689A4221D1607DF0B1124BE6
:10142000124918701248237D03724FF48073C0F87C
:10143000F8314FF40073C0F80C3300254FF44073BB
:10144000C0F82034C0F8E450C922093000F08EFA08
:10145000E0222946204600F09BFA012038BD0020FA
:10146000FCE700BF9AAD44C5BC1200201600002066
:10147000F822002037B500F039FD184D18492881B1
:10148000022318486B7101F0DFFA00230193164B19
:10149000164900931648174B4FF4805201F054FF41
:1014A000154B197811B1124801F076FF01F028FCB4
:1014B0000446FFF729FC4FF4C873B0FBF3F202FBBC
:1014C000130304F5167010FA83F00C4B186003F048
:1014D00033FB08B10F232B8103B030BDB0120020C5
:1014E00040420F0030280020F10F0008C0120020F9
:1014F000C8220020F5100008BC120020C4220020E1
:101500002DE9F04F2DED028B8AA7D7E900670FF286
:101510002C29D9E90089824C95B00DAD9FED7E8BC9
:10152000FFF720FDDFF81CB200230C93ADF83C3030
:101530000D936B6000230DF125028DED008B4FF0B4
:10154000010A09A958468DF825308DF824A001F02C
:1015500029FA9DF824200023002A40F0AB80204681
:1015600001F022FF0546002847D1DFF8DCB101F089
:10157000C7FBDBF8003098423FD301F0C1FB079076
:10158000FFF7C2FB079A4FF4C873B0FBF3F101FBFE
:10159000130302F5167010FA83F0CBF80000DFF8A1
:1015A000ACB19BF800100791002914BF2B4653469D
:1015B00010A88DF83030FFF7BFFB0799C1F110027A
:1015C000D2B2062A10AB28BF062219440DF1310011
:1015D000079200F0CBF9079A0CAB03931823029300
:1015E0000132504BD2B2CDE900A304923B463246C1
:1015F000204601F01FFF8BF8005001F081FB4A4AA2
:101600004A4D1368C31AB3F57A7F32D3106001F0E4
:1016100079FB02460B46204601F0A4FF204601F06C
:10162000C3FE30B32B7ADFF828A1002B14BF0323AD
:1016300002238AF8053001F063FB0DF1400B4FF4F3
:101640007A730122B0FBF3F05946CAF80000504605
:1016500000F0CCFA18230293354B019380B240F28C
:101660005513CDE903B0009342464B46204601F0A6
:10167000E1FE2B7ACBB101F043FB4FF0000A834629
:101680004FF48A7295F8D900504400F0030002FB31
:10169000005393F8E81059B30AF1010ABAF1040FA4
:1016A000F0D12B7A002B7FF438AF15B0BDEC028B54
:1016B000BDE8F08F1946102210A800F069F90DF16D
:1016C00026030AAA0CA9584600F0F6FE95E8030086
:1016D00011AB83E803009DF83C308DF84C300C9B37
:1016E000109310A9DDE90A23204602F00FF921E743
:1016F000D3F8E01049B12B68FA2B38BFFA23ABEBD3
:1017000001010533B1EB430FC6D3FFF7DBFB4FF409
:101710008A720028C0D1C4E7000000000000000069
:10172000C8220020C022002028280020F822002003
:101730002C280020401DA12026812A0BF1C6A7C11C
:10174000D068080F30280020C4220020C1220020C9
:10175000B012002008B5054800F04CFFBDE8084075
:10176000034A0449002003F09FBB00BF302800203B
:1017700068390020BD1000082DE9F041164B1B7898
:101780000133DBB2012B06460C4615461ED8134B1F
:1017900000274FF47A7C40F2E7303946D3F80080D6
:1017A000E5FB0C014FF47A720023FEF701FDD8F837
:1017B00000200346156A314622464046A847844227
:1017C00004D1074B01201F70BDE8F081012002F019
:1017D0001BFF0020F8E700BF181100201C1100209B
:1017E0005C39002007B50023024601210DF10700F6
:1017F0008DF80730FFF7C0FF20B19DF8070003B058
:101800005DF804FB4FF0FF30F9E700000A4608B529
:101810000421FFF7B1FF80F00100C0B2404208BDD3
:1018200030B4074B0A461978064B53F82140236819
:10183000DD690146AC462046642330BC604700BFEA
:101840005C3900201C11002070B502F0B5FF094E74
:10185000094D3080002428683388834208D902F07B
:10186000A7FF2B6804440133B4F5D04F2B60F2D3AB
:1018700070BD00BF5E3900201839002003F02AB87F
:1018800000F1006000F5C040D0F80008704700008B
:1018900000F10060920000F5D04002F0C9BF0000E6
:1018A000054B1A68054B1B889B1A834202D91044CA
:1018B00002F07EBF00207047183900205E390020FA
:1018C000024B1B68184402F07BBF00BF1839002090
:1018D000024B1B68184402F085BF00BF1839002076
:1018E0000020704700F10050A0F58050D0F8AC0700
:1018F00070470000064991F8243033B10023086A8C
:1019000081F824300822FFF7C3BF0120704700BFD1
:101910001C390020014B1868704700BF002004E00C
:1019200030B50D4B1B680138C3F30B03084453B9A2
:101930000A4D0A46824213460BD215F9014B2CB1CF
:1019400002F8014BF6E781420B4602D22C2203F843
:10195000012B581A30BD00BF002004E0804F000862
:1019600070470000704700007047000010B500236A
:10197000934203D0CC5CC4540133F9E710BD00009E
:1019800003460246D01A12F9011B0029FAD170470A
:1019900002440346934202D003F8011BFAE7704762
:1019A0002DE9F8431F4D144695F824200746884634
:1019B00052BBDFF870909CB395F824302BB92022ED
:1019C000FF2148462F62FFF7E3FF95F82400C0F19E
:1019D0000802A24228BF2246D6B24146920005EB39
:1019E0008000FFF7C3FF95F82430A41B1E44F6B215
:1019F000082E17449044E4B285F82460DBD1FFF749
:101A000079FF0028D7D108E02B6A03EB82038342D9
:101A1000CFD0FFF76FFF0028CBD10020BDE8F883BF
:101A20000120FBE71C390020024B1A78024B1A7088
:101A3000704700BF5C3900201811002003494FF4A3
:101A4000E1330B60024B186802F0BABC4439002045
:101A50001C110020094B10B518220446002118461D
:101A6000FFF796FF064A074B127804600146BDE86F
:101A7000104053F8220002F0A3BC00BF44390020FC
:101A80005C3900201C1100202DE9F3470D46044667
:101A900000219046284640F27912FFF779FF23464D
:101AA00020220021284601F0D3FE231D02222021FE
:101AB000284601F0CDFE631D03222221284601F0B5
:101AC000C7FEA31D03222521284601F0C1FE04F113
:101AD000080310222821284601F0BAFE04F1100361
:101AE00008223821284601F0B3FE04F11103082230
:101AF0004021284601F0ACFE04F1120308224821DF
:101B0000284601F0A5FE04F11403202250212846A6
:101B100001F09EFE04F1180340227021284601F0D6
:101B200097FE04F120030822B021284601F090FE20
:101B300004F121030822B821284601F089FE04F1AE
:101B40002207C0263B46314608222846083601F0C7
:101B50007FFEB6F5A07F07F10107F3D194F832308C
:101B60008DF8073031460DF107030822284601F0B1
:101B70006FFE002604F1330A9DF807304FEAC609CC
:101B80009E4209F5A47720D394F83231502B28BF18
:101B900050238DF80730B8F1000F08D139460DF108
:101BA00007030722284601F053FE09F24F170026CB
:101BB00004F233149DF807309E4207EBC6010DD3A3
:101BC0000731C80802B0BDE8F0870AEB0603082217
:101BD0003946284601F03CFE0136CDE7A31908221C
:101BE000284601F035FE0136E4E7000013B504464F
:101BF0000846002101602346C0F80310202201900E
:101C000001F026FE0198231D0222202101F020FE72
:101C10000198631D0322222101F01AFE0198A31DE1
:101C20000322252101F014FE019804F1080310227B
:101C3000282101F00DFE072002B010BDF7B5047F8A
:101C400005460E462CB1838A122B02D9012003B01F
:101C5000F0BD0023194607220096284601F0BCFC7F
:101C6000731C0093012200230721284601F0B4FCD5
:101C7000D4B9B31C0093052223460821284601F05D
:101C8000ABFC0D24B378102BE0D83746B278BB1BE1
:101C9000934210D32B7FA88A0734E408B3B9844257
:101CA00094BF00200120D2E7AB8ADB00083BDB08B1
:101CB000B3700824E6E7FB1C0093214600230822AA
:101CC000284601F089FC08340137DFE7201A18BFE5
:101CD0000120BCE7F7B5047F05460E462CB1838A88
:101CE000CA2B02D9012003B0F0BD0023194600968B
:101CF0000822284601F070FC731CD4B90822009316
:101D000011462346284601F067FC10247378C82B3F
:101D1000E8D8012372785F1C013B934210D32B7FDC
:101D2000A88A0734E408B3B9844294BF0020012094
:101D3000D9E7AB8ADB00083BDB0873700824E5E7D2
:101D4000F3190093214600230822284601F044FCA1
:101D500008343B46DEE7201A18BF0120C3E7000025
:101D6000F7B50D4604460021164628468122FFF7A6
:101D70000FFE234608220021284601F069FD94F950
:101D800001206378002AB8BF7F238DF807309EB901
:101D90000DF1070307220821284601F059FD0F27FE
:101DA000002602349DF807309E4207EBC60105D39A
:101DB0000731C80803B0F0BD0827F1E7A3190822CE
:101DC000284601F045FD0136ECE70000F7B50E4668
:101DD0000546002114463046CE22FFF7D9FD2B469A
:101DE00028220021304601F033FD2B7AC82B28BF72
:101DF000C8238DF807308CB90DF10703082228217C
:101E0000304601F025FD30242F469DF807207B1B2E
:101E1000934205D3E01DC00803B0F0BD2824F3E7CA
:101E200007F1090321460822304601F011FD08346C
:101E30000137EAE7F7B5047F05460E4634B1838AD9
:101E4000B3F5827F02D9012003B0F0BD00960123D3
:101E500010220021284601F0BFFBDCB9B31C00931F
:101E6000092223461021284601F0B6FB1924738865
:101E7000B3F5807FE7D837467288BB1B934210D3F7
:101E80002B7FA88A0734E408B3B9844294BF0020AA
:101E90000120D9E7AB8ADB00103BDB0873801024FC
:101EA000E5E73B1D0093214600230822284601F068
:101EB00093FB08340137DFE7201A18BF0120C3E77E
:101EC00030B5094D0A4491420DD011F8013B5840FC
:101ED000082340F30004013B2C4013F0FF0384EA85
:101EE0005000F6D1EFE730BD2083B8EDF7B5384AA2
:101EF000106851686B4603C36A4636493648082362
:101F000003F006F80446002833D10A25334A106846
:101F100051686B4603C36A4631492F48082302F0D3
:101F2000F7FF0446002849D00369B3F5F32F45D8DD
:101F3000B0F8661040F2CD4291423FD1294A0244A6
:101F400002F15C018B4239D35C3B234900209E1A8D
:101F5000FFF7B6FF3246074604F164010020FFF7A1
:101F6000AFFFA3689F4229D1E368984208BF0025CC
:101F700024E00369B3F5F32F27D8418B40F2CD421B
:101F8000914220D1174A024402F110018B4218D32A
:101F9000103B114900209D1AFFF792FF2A46064682
:101FA00004F118010020FFF78BFFA3689E4202D1C5
:101FB000E368984201D00D25A8E70025284603B024
:101FC000F0BD1025A2E70C25A0E70B259EE700BF7A
:101FD0008C4F0008DC97070000680008954F000848
:101FE000909707000898FFF710B5037C044613B9D3
:101FF000006802F075FF204610BD00000023BFF30B
:102000005B8FC360BFF35B8FBFF35B8F8360BFF3F6
:102010005B8F7047BFF35B8F0068BFF35B8F7047C8
:1020200070B505460C30FFF7F5FF05F108060446CC
:102030003046FFF7EFFFA04206D930466D68FFF744
:10204000E9FF2544281A70BD3046FFF7E3FF201A48
:10205000F9E7000070B50546406898B105F1080041
:10206000FFF7D8FF05F10C0604463046FFF7D2FF14
:102070008442304694BF6D680025FFF7CBFF013CDA
:102080002C44201A70BD000038B50C460546FFF7F9
:10209000C7FFA04210D305F10800FFF7BBFF0444BF
:1020A0006868B4FBF0F100FB1144BFF35B8F0120C3
:1020B000AC60BFF35B8F38BD0020FCE72DE9F04139
:1020C000144607460D46FFF7C5FF844228BF044665
:1020D000D4B1B84658F80C6B4046FFF79BFF30442C
:1020E000286040467E68FFF795FF331A9C4203D86C
:1020F0006C600120BDE8F0816B60A41B3B68AB60A5
:102100002044E8600220F5E72046F3E738B50C46A6
:102110000546FFF79FFFA04210D305F10C00FFF723
:1021200079FF04446868B4FBF0F100FB1144BFF38D
:102130005B8F0120EC60BFF35B8F38BD0020FCE7B4
:102140002DE9FF41884669460746FFF7B7FF6C4611
:1021500006B204EBC6060025B44209D062682068C6
:1021600008EB0501FFF702FC636808341D44F3E740
:1021700029463846FFF7CAFF284604B0BDE8F0817B
:10218000F8B505460C300F46FFF744FF05F1080689
:1021900004463046FFF73EFFA042304688BF6C68D9
:1021A000FFF738FF201A386020B130462C68FFF75F
:1021B00031FF2044F8BD000073B5144606460D46B5
:1021C000FFF72EFF844228BF04460190DCB101A92D
:1021D0003046FFF7D5FF019B33B93268C5E90233BA
:1021E000C5E9002401200CE09C4238BF019428601E
:1021F000019868608442F5D93368AB60241AEC60BA
:10220000022002B070BD2046FBE700002DE9FF412F
:102210000F466946FFF7D0FF6C4600B204EBC005DD
:102220000026AC4209D0D4F8048054F8081BB81931
:102230004246FFF79BFB4644F3E7304604B0BDE857
:10224000F081000038B50546FFF7E0FF044601467F
:102250002846FFF719FF204638BD000001218842BB
:1022600038BF084602F026BE08B102F039BE7047FA
:1022700003685B6818470000002070477047000043
:102280000020704700F5805090F8D800C0F340005F
:102290007047000000F5805090F9E00070470000A2
:1022A00000F58050C0F8DC1001207047F7B50C68CD
:1022B000BDF8207014F0005473D10D7B082D70D838
:1022C000302585F31188056AAE6876010CD4AC68B8
:1022D000240108D4AC6814F0805460D184F31188D0
:1022E000204603B0F0BD01240E6804F1180C002E46
:1022F000B8BFF6004FEA0C1CB4BF46F004067605E2
:1023000045F80C600E680FFA84FC16F0804F18BF79
:1023100005EB0C1E05EB0C1C1EBFDEF8806146F0C1
:102320000206CEF880610E7BCCF8846105EB0415C3
:102330008E68C5F88C614E68C5F88861DCF88051FC
:1023400045F00105CCF8805141F2780500EB441CC2
:10235000660105EB4414AC440444CCE900230D466B
:10236000083401F10C0C55F804EB44F804EB654516
:10237000F9D12D882580841904F5805407F00305D0
:1023800094F8946026F00B06354384F894500024AA
:1023900084F31188009700F003FD0120A1E70224D7
:1023A000A2E74FF0FF309CE713B500F58054019190
:1023B000E06EFFF74FFE1F280AD90199E06E202238
:1023C000FFF7BEFEA0F120035842584102B010BDF5
:1023D0000020FBE708B5302383F3118800F5805017
:1023E000C06EFFF70BFE002383F3118808BD0000C9
:1023F00000220260828142608260704710B5002234
:102400000023C0E900230023044603810C30FFF7BA
:10241000EFFF204610BD0000F0B5054600F58050E6
:102420000C4690F8D83013F0040FC3F3800108BFB6
:10243000114661F3820380F8D83005EB441303F5AD
:102440008453103389B01B79D8074FEA44162FD52F
:1024500082B319072ED46846FFF7D0FF05EB44136B
:1024600003F5845303AA03F1080718685968144652
:1024700003C40833BB422246F7D1186820609B880A
:10248000A380DDE90E23CDE900230123ADF8083058
:102490002B6869469B6B28469847354405F584555B
:1024A00010352B791A075CBF43F008032B7101E04C
:1024B000002AF2D109B0F0BD2DE9F0479A4688B064
:1024C000074688469146302383F3118807F58054E8
:1024D0006846FFF793FFE06EFFF7A2FD1F282AD999
:1024E000E06E20226946FFF7ADFE202823D103AD20
:1024F000444605AB2E4603CE9E42206061603546C1
:1025000004F10804F6D130682060B388A380DDE9C7
:102510000023C9E90023BDF80830AAF800300023E1
:1025200083F3118853464A464146384608B0BDE811
:10253000F04700F0F3BB002080F3118808B0BDE83D
:10254000F08700002DE9F84F182204460F460430AA
:102550000021FFF71DFA2046234B40F8243BFFF7EC
:1025600047FF04F13800FFF749FF04F1580804F56C
:1025700082554646183530462036FFF73FFFAE42BB
:10258000F9D104F580554FF480534FF00009C5E9A7
:102590001739C5F858800123EE6604F5875804F50D
:1025A0008456C5F8649085F8683085F87030183620
:1025B00008F118084FF0000A4FF0000B46E908AB8D
:1025C000A6F11800FFF714FF203646F8289C464570
:1025D000F4D185F8E07017B1044800F08BFB044B90
:1025E00023622046BDE8F88FC84F0008A04F0008BE
:1025F0000064004010B5044B197804464A1C1A7058
:10260000FFF7A0FF204610BD643900202DE9F043FC
:1026100000294FD0284B2948B0FBF1F099428CBFDC
:102620000A2311235D1EB0FBF3F703FB1703ECB283
:102630002BB1022D2B46F5D80020BDE8F0837E1E7D
:10264000B6F5806FF8D2C4EBC40C0CF103034FEA6B
:10265000E308C3F3C703A4EB030E08F101094FF429
:102660007A755FFA8EF008FB055559FA8EFEB5FBB8
:10267000FEF5B5F5617FC1BF0CF1FF33C3F3C703AE
:10268000E01AC0B25C1C50FA84F40C4D7C43B5FBDC
:10269000F4F4A142D0D1013BDBB20F2BCCD80138EE
:1026A000C0B20728C8D80021107116809170D3706D
:1026B0000120C2E70846C0E73F420F000048E8019A
:1026C00070B505460E464FF47A742B6A5B6803F0CA
:1026D0000103B3424FF0010004D001F095FF013C2B
:1026E000F3D1204670BD000070B5026A936913F003
:1026F000700F17D000230C4D936141F2900400EB52
:102700004312224411794E0709D5890707D5016A7A
:1027100055F823608E60117941F004011171013385
:10272000032BECD170BD00BFB44F000873B51D463C
:10273000036A16469A68D207044609D59A680121A9
:102740009960C2F34002CDE900650021FFF764FE05
:10275000236A9A68D1050BD59A684FF48071996005
:10276000C2F34022CDE9006501212046FFF754FE67
:10277000236A9A68D2030BD59A684FF48031996026
:10278000C2F34042CDE9006502212046FFF744FE36
:1027900004F58053D3F8DC0010B103681B69984737
:1027A000204602B0BDE87040FFF79EBFF8B5044672
:1027B000066A002977D106F10C073868800775D0C2
:1027C00006EB01153868D5F8B00110F0040FD5F804
:1027D000B0011ABFC00840F00040400D6062D5F85B
:1027E000B0C11CF0020F1CBF40F080406062D5F801
:1027F000B40106EB011100F00F0084F83000D1F8AD
:10280000B80184F82800D1F8B801000A84F829003A
:10281000D1F8B801000C84F82A00D1F8B801000EF4
:1028200084F82B00D1F8BC0184F82C00D1F8BC014D
:10283000000A84F82D00D1F8BC01000C84F82E00A9
:10284000D1F8BC11090E84F82F103821396004F139
:10285000440004F1240104F1300551F8046B40F800
:10286000046BA942F9D109880180C4E90E232146ED
:102870000023A4F8403051F8383B20469B6B984722
:1028800004F5805393F8D820D3F8DC0042F004021A
:1028900083F8D82010B103681B6998472046BDE82B
:1028A000F840FFF721BF06F1100786E7F8BD0000EA
:1028B00010B5044600F026FA02460B4652EA030120
:1028C00002D0013A63F100030449086820B12146AF
:1028D000BDE81040FFF76ABF10BD00BF603900209F
:1028E000F0B5302181F31188DFF848E000F583511D
:1028F0001831002441F2900C00EB441565442E7908
:1029000077070ED4F6060CD5D1E9007697429E41A2
:1029100007D2066A5EF82470B7602E7946F0040686
:102920002E710134032C01F12001E5D1002383F342
:102930001188F0BDB44F000808B5302383F3118827
:10294000FFF7D2FE002383F3118808BD036A9B685A
:1029500013F0E05F14BF01200020704708B530235A
:1029600083F3118800F58050C06EFFF759FB0023F8
:1029700083F3118843090CBF0120002008BD00002B
:10298000F8B51E46002313700F4605461446FFF7A0
:10299000E5FF80F0010038701EB12846FFF7D6FF32
:1029A0002070F8BD2DE9B8410C4615461F468046FB
:1029B00000F0A8F90B462178024609B9287850B1F1
:1029C0004046FFF78DFFFFF7B7FF3B462A462146FB
:1029D000FFF7D6FF0120BDE8B881000070B53026B2
:1029E00086F31188174BDA6942F00072DA611A69CE
:1029F00042F000721A611A6922F000721A61002313
:102A000083F3118800F5805494F8D83013F0010551
:102A100016D1A9B186F311880321132001F012FB0E
:102A20000321142001F00EFB0321152001F00AFB05
:102A300094F8D83043F0010384F8D83085F3118836
:102A400070BD00BF001002402DE9F04300F5805535
:102A500089B095F8E030012B04460F467ED8DFF8A8
:102A6000F88158F823200AB948F82300D8F80090D4
:102A7000E761B9F1000F64D095F8E030012B6FD019
:102A800001212046FFF7AAFF302383F31188226A31
:102A9000136823F002031360226A136843F00103F2
:102AA0001360236A00265E6186F3118801212046A7
:102AB000FFF706FE002800F09080E86EFFF79EFA10
:102AC00004F58358B14608F1180820220021684611
:102AD000FEF75EFF02A8FFF78BFCCDF818906A4660
:102AE00008EB06030DF1180E9446BCE80300F4450C
:102AF00018605960624603F10803F5D1DCF8000064
:102B0000186020369CF804201A71602EDDD195F8EB
:102B1000D8306FF38203002685F8D8306A463946EC
:102B20002046ADF80060ADF802608DF80460FFF754
:102B30006DFD236A50BB4FF400421A6009B0BDE836
:102B4000F08341F2E800FFF789FB064610B14946E1
:102B5000FFF7F8FCC8F80060002E8DD10020EDE7EB
:102B6000D8F8000003689B6A98470146002887D17F
:102B7000D8F80000FFF732FFD8F8000003683946A4
:102B80005B68984700287FF47BAFE7E765221A600F
:102B90009DF802309DF80310226A1B06090401F417
:102BA000702103F040730B43BDF80010C1F309011D
:102BB0000B439DF80410090501F4E0010B43D361B8
:102BC000236A13225A61226A136823F001031360F7
:102BD00031462046FFF774FD08B9236AABE795F844
:102BE000E02092BB216AD1F8003243F00103C1F822
:102BF0000032216AD1F8003223F47C5323F00E0313
:102C0000C1F80032216AD1F8003243F46063C1F8A0
:102C10000032236AC3F81422236AC3F80422236A09
:102C200041F6FF71C3F80C12236AC3F84022236AED
:102C3000C3F84422236A0122C3F81C22226AD2F874
:102C4000003223F00103C2F8003295F8D83043F087
:102C5000020385F8D83071E76039002008B500F02C
:102C600051F850EA0103024602D0421E61F1000110
:102C7000044B186810B10B46FFF758FDBDE808403B
:102C800001F0A2B86039002008B50020FFF710FE5F
:102C9000BDE8084001F098B808B50120FFF708FE2C
:102CA000BDE8084001F090B800B59BB0EFF3098192
:102CB00068226846FEF75AFEEFF30583014B9B6BD3
:102CC000FEE700BF00ED00E008B5FFF7EDFF0000F4
:102CD00000B59BB0EFF3098168226846FEF746FE17
:102CE000EFF30583014B5B6BFEE700BF00ED00E0F7
:102CF000FEE700000FB408B5029801F035FCFEE7CE
:102D000001F066BE01F012BE0139C9B202299EBFB0
:102D100000EBC1000023C0E9013370472DE9F843FF
:102D20001E461B885B070546884618D4044600F1FA
:102D300018094C4513D063686BB12B6828465B6B50
:102D400098473388A768C1B243F0040360684246DD
:102D5000B8470834EDE7A368002BEED1F9E701206E
:102D6000BDE8F88373B56C4684E80600014600228E
:102D70004E68D5B26EB98E685EB900EBC200021D16
:102D800094E80300013582E803001D70012002B0C1
:102D900070BD0132032A01F10801E9D10020F6E7F4
:102DA0002DE9F04F2DED028B89B09FED258BBDF8FD
:102DB000508004468B46054600F11809002708F0AC
:102DC000040AA94536D06B680BB9AB6863B1BAF198
:102DD000000F0BD1236820465B6B98474346C1B276
:102DE0005A46D5E90106B0470835EAE7002FFBD17E
:102DF0008DED008BADF808705B4603AA0BF1080C53
:102E000018685968174603C7083363453A46F7D12F
:102E1000186838609B88BB80FFF774FF0423ADF807
:102E200008302368CDE900019B6B6946204698472E
:102E30000127D9E7012009B0BDEC028BBDE8F08F76
:102E400000000000000000002DE9F041456A15B9BE
:102E50004162BDE8F0814B6823F06047C3F38A46C6
:102E60004FEAD37EC3F3807816EA230638BF3E4686
:102E7000AC462B465A68BEEBD27F22F060440AD0A3
:102E8000002A18DAA40CB44217D19D420FD10D606C
:102E9000DEE71346EEE7A74207D102F08044C2F313
:102EA000807242450BD054B1EFE708D2EDE7CCF881
:102EB00000100B60CDE7B44201D0B442E5D81A68E7
:102EC0009C46002AE5D11960C3E700002DE9F047D0
:102ED000089D01F007044FEAD508224405F00705D4
:102EE00000EBD1004FF47F49944201D1BDE8F08757
:102EF00004F0070705F0070A57453E4638BF564617
:102F0000C6F10806111B8E4228BF0E46E10808EBE9
:102F1000D50E415C13F80EC0B94029FA06F721FA24
:102F20000AF1FFB28CEA010147FA0AF739408CEA4C
:102F3000010C03F80EC034443544D5E780EA012083
:102F4000082341F2210201B24000002980B203F1BE
:102F5000FF33B8BF504013F0FF03F4D170470000B7
:102F600038B50C468D18A54200D138BD14F8011BA8
:102F7000FFF7E4FFF7E7000042684AB113684360D7
:102F80004389818901339BB29942438138BF838150
:102F90001046704770B588B0202204460D4668463A
:102FA0000021FEF7F5FC20460495FFF7E5FF0246F9
:102FB00058B16B46054608AE1C4603CCB4422860A7
:102FC0006960234605F10805F6D1104608B070BDCA
:102FD000082817D909280CD00A280CD00B280CD0A7
:102FE0000C280CD00D280CD00E2814BF4020302007
:102FF00070470C207047102070471420704718202D
:103000007047202070470000082817D90C280CD9D9
:1030100010280CD914280CD918280CD920280CD920
:1030200030288CBF0F200E207047092070470A20DF
:1030300070470B2070470C2070470D207047000030
:103040002DE9F843078C072F04461ED9D0E90298D2
:1030500000254FF6FF73C5F12006A5F1200029FADF
:1030600005F108FA06F628FA00F031430143C9B227
:103070001846FFF763FF0835402D0346EBD1E169A1
:103080003A46BDE8F843FFF76BBF4FF6FF70BDE867
:10309000F883000010B54B6823B9CA8A63F30902AC
:1030A000CA8210BD04691A681C600361C38A013BAF
:1030B000C3824A60EFE700002DE9F84F1D46CB8A36
:1030C0000F46C3F309010529814692460B4630D0CD
:1030D0000020AAB207F11A049EB2042E1FFA80F84B
:1030E0000FD8904503F1010306D3FB8A0A4462F32B
:1030F0000903FB8201201AE01AF80060E65401304F
:10310000EAE79045F1D2A1F1050B1C237C68BBFBDB
:10311000F3F203FB12BB1FFA8BF6002C45D1484695
:10312000FFF72AFF044638B978606FF00200BDE867
:10313000F88F4FF00008E6E7002606607860ADB231
:103140004FF0000B454510D90AEB0803221D13F878
:10315000011B9155B1B208F101081B291FFA88F82B
:103160002BD0454506F10106F1D8FB8AC3F30902CD
:10317000154465F30903BCE7013292B21C4623688B
:10318000002BF9D16B1F0B441C21B3FBF1F301336E
:103190009BB29A42D3D2BBF1000FD0D14846FFF781
:1031A000EBFE20B9C4F800B0BFE70122E7E7C0F8A2
:1031B00000B05E4620600446C1E74545D5D9484683
:1031C000FFF7DAFE08B92060AFE7C0F800B00026CC
:1031D00020600446B6E700002DE9F04F2DED028B8C
:1031E0001C4683B05B69019207468846002B00F0BD
:1031F000A780238C2BB1E269002A00F0A180072B65
:1032000035D807F10C00FFF7B7FE054638B96FF067
:103210000205284603B0BDEC028BBDE8F08F1422F6
:103220000021FEF7B5FB228CE16905F10800FEF7ED
:103230009DFB208C013080B2FFF7E6FEFFF7C8FE51
:10324000013880B22084013028746369228C1B7895
:103250002A4403F01F0363F03F0348F00041137258
:10326000384669602946FFF7EFFD0125D1E70233B3
:103270009BB20722C18A0633B3FBF2F3828A521A49
:103280009BB292B29342C2D800F10C034FF00009F6
:1032900008EE103A4FF0800A4E464D4618EE100ADE
:1032A000FFF76AFE83460028B1D014220021FEF702
:1032B0006FFB002E3AD1019BABF8083002220BF1D4
:1032C000080E1FFA82FC0CF10100BCF1060F218CE4
:1032D00080B201D88E422BD3FFF796FEFFF778FE1F
:1032E00062691278013802F01F028E4208BF4FF067
:1032F000400A42EA49121BFA80F14AEA020A013006
:1033000048F0004281F808A08BF81000CBF80420A8
:1033100059463846FFF798FD238C0135B3422DB24C
:1033200089F001094FF0000AB8D172E70022C6E720
:10333000E169895D0EF802100136B6B20132C0E7CC
:103340006FF0010565E70000F8B515460E4630221E
:10335000002104461F46FEF71BFB069B6360B5F584
:10336000001F079BA76034BF6A094FF6FF72A36274
:1033700097B2E66104F1100000239A4206D80023B8
:103380000360A782E3822383E360F8BD0660013314
:1033900030462036F1E7000003781BB94BB2002B12
:1033A000C8BF01707047000000787047F8B50C4640
:1033B000C969074611B9238C002B37D1257E1F2DF3
:1033C00034D8387828BB228C072A2CD8268A36F0A5
:1033D00003032BD14FF6FF70FFF7C2FD20F0010071
:1033E0003102400441EA0561400C41EA40254FF6B4
:1033F000FF72234629463846FFF7EEFE002807DD18
:10340000626913780133DBB21F2B88BF002313706E
:10341000F8BD218A2D0645EA012505432046FFF720
:103420000FFE0246E5E76FF00300F1E76FF00100E1
:10343000EEE7000070B58AB0044616460021282247
:1034400068461D46FEF7A4FABDF83830ADF81030D6
:103450000F9B05939DF840308DF81830119B079312
:103460006946BDF84830ADF820302046CDE9026508
:10347000FFF79CFF0AB070BD2DE9F041D369054606
:103480000C4616460BB9138C5BBB377E1F2F28D812
:1034900095F80080B8F1000F26D03046FFF7D0FD38
:1034A0003378210241EAC33141EA0801338A41EA13
:1034B000076141EA03410246334641F08001284654
:1034C000FFF78AFE00280ADD3378012B07D17269E5
:1034D00013780133DBB21F2B88BF00231370BDE8C4
:1034E000F0816FF00100FAE76FF00300F7E70000EA
:1034F000F0B58BB004460D461746002128226846D9
:103500001E46FEF745FA9DF84C305A1E5342534171
:103510008DF800309DF84030ADF81030119B0593C8
:103520009DF848308DF81830149B07936A46BDF813
:103530005430ADF8203029462046CDE90276FFF719
:103540009BFF0BB0F0BD0000406A00B10430704733
:10355000436A1A68426202691A600361C38A013BC6
:10356000C38270472DE9F041D0F82080194E1446EF
:103570001D464146002709B9BDE8F081D1E9022383
:10358000A21A65EB0303964277EB03031ED2036A8C
:103590008B420DD1FFF77EFD036A1B68036203694E
:1035A0000B60C38A0161016A013BC3828846E2E77E
:1035B000FFF770FD0B68C8F8003003690B60C38A21
:1035C0000161013BC382D8F80010D4E7884609683E
:1035D000D1E700BF80841E002DE9F04F8BB00D466F
:1035E000DDF8509014469B468046002800F0198173
:1035F000B9F1000F00F01581531E3F2B00F211812D
:10360000012A03D1BBF1000F40F00B810023CDE96B
:103610000833B8F81430B5EBC30F4FEAC30703D330
:1036200000200BB0BDE8F08F2B199F42D8F80C306A
:103630003ABF7F1BFFB227461BB9D8F81030002BCA
:103640007AD0272D4ED8C5F12806B7424FF0000397
:103650002CBFF6B23E4600932946D8F8080008ABC6
:103660003246FFF733FCA7EB060A35445FFA8AFAC5
:10367000B8F8143003F10053053BDB000493D8F88D
:103680000C3003932821039B13B1BAF1000F2CD106
:10369000D8F8100040B1BAF1000F05D0009608AB81
:1036A0005246691AFFF712FC38B2002FB8D06607ED
:1036B0000AD00AAB03EBD401624211F8083C02F0D5
:1036C0000702134101F8083C082C3CD9102C40F2A9
:1036D000B580202C40F2B780BBF1000F00F09C8039
:1036E000082334E0BA460026C2E7049BE02B28BF3B
:1036F000E02306930B44AB42059314D95A1B03985D
:103700000096924534BF5246D2B2691A08AB0430D3
:103710000792FFF7DBFB079A1644AAEB020A15444F
:10372000F6B25FFA8AFA049B069A05999B1A0493EB
:10373000039B1B680393A6E70093D8F8080008AB27
:103740003A462946AEE7BBF1000F13D00123B4EB94
:10375000C30F6CD0082C12D89DF82030621E23FABB
:1037600002F2D50706D54FF0FF3202FA04F42343E4
:103770008DF820309DF8203089F8003051E7102C6A
:1037800012D8BDF82030621E23FA02F2D10706D506
:103790004FF0FF3202FA04F42343ADF82030BDF8B5
:1037A0002030A9F800303CE7202C0FD80899631E80
:1037B00021FA03F3DA0705D54FF0FF3202FA04F4D9
:1037C0000C430894089BC9F800302AE7402C2BD002
:1037D000DDE90865611EC4F12102A4F1210326FA86
:1037E00001F105FA02F225FA03F311431943CB075D
:1037F00012D50122A4F12003C4F1200102FA03F33F
:1038000022FA01F1A240524243EA010363EB43036F
:1038100032432B43CDE90823DDE90823C9E900231E
:10382000FFE66FF00100FCE66FF00800F9E6082CF7
:10383000A0D9102CB3D9202CEED8C3E7BBF1000FD0
:10384000ADD0022383E7BBF1000FBBD004237EE79A
:1038500030B5012A144638BF0124402C85B028BF5A
:1038600040240025012ACDE9025518D81B788DF88F
:10387000083063070AD004AB03EBD405624215F8A5
:10388000083C02F00702934005F8083C009103460B
:103890002246002102A8FFF719FB05B030BD082A17
:1038A000E4D9102A03D81B88ADF80830E1E7202AB4
:1038B0008DBFD3E900231B680293CDE90223D8E72B
:1038C00010B5CB681BB98B600B618B8210BD04698E
:1038D0001A681C600361C38A013BC382CA60F0E7B7
:1038E00003064CBFC0F3C0300220704708B5024643
:1038F000FFF7F6FF022806D15306C2F30F2001D1CD
:1039000000F0030008BDC2F30740FBE72DE9F04FCC
:1039100093B0CDE904230A6804461046FFF7E0FFA0
:10392000022814BFC2F306260026002A0D4682464E
:1039300080F2028212F0C04940F0FE81097B00292A
:1039400000F0FA81022803D02378B34240F0F781D7
:10395000C2F304630693104602F07F030393FFF75C
:10396000C5FF039B29444FEA834848EA0A4848EACE
:103970004668CE7800230022CDE90823F309834668
:1039800048EA0008029367D0039B009302466768E9
:10399000534608A92046B847002868D0276A4FB97F
:1039A000414604F10C00FFF7F5FA074690B96FF0B5
:1039B00002006AE03B6998450DD03F68002FF9D1BD
:1039C000414604F10C00FFF7E5FA07460028EED067
:1039D000236A3B60276297F817C006F01F08CCF3F4
:1039E000840CACEB08001FFA80FE0028B8BF0EF173
:1039F0002000A8EB0C031FFA83FED7E90221B8BF11
:103A000000B2002B0793BEBF0EF120031BB2079339
:103A100052EA010342D0049BDFF834E39A1A059B73
:103A20004FF0000C63EB010196457CEB010335D3AD
:103A30006B7B97F81AE0734521D1029B002B00F0B5
:103A4000848001282ADC786840BBDFF800C39445F5
:103A500070EB010343D21EE0276A5FB9039B00931A
:103A6000656853465A4608A92046A84768BB6FF0C8
:103A70000B000AE03B699845ADD03F68EDE7B348DD
:103A800090427CEB010303D3002013B0BDE8F08F1C
:103A9000029B002BF8D0079B0F2B19DCFA7DB3009B
:103AA00002F0030203F07C031343FB753946204602
:103AB000FFF7F0FA6B7BBB76029B4BB9FB7DC3F340
:103AC0008402013262F38603FB756FF00C00DCE7C1
:103AD0006A7BBB7E9A42D7D1029B002B35D0B309BB
:103AE000022B32D0049BBB60059BFB60142200219B
:103AF0000DA8FDF74DFF049B0A93059B0B932B1D0F
:103B00000C932B7BADF83EB0013BDBB2ADF83C3003
:103B1000069B8DF84230039B8DF8433094F82C308F
:103B20008DF840A083F001038DF844308DF841807A
:103B3000A3680AA920469847FB7DC3F38403013399
:103B400003F01F039B02FB829EE7FB7DC6F340123E
:103B5000B2EBD31F40F0F680C3F38403434540F03B
:103B6000F980029A2B7BB609002A52D016F0010682
:103B700061D1032B40F2F180049BBB60059BFB608D
:103B8000FB8A66F30903FB822B7BAE1D033BDBB292
:103B90003246394604F10C00FFF78EFA00280CDAA1
:103BA00039462046FFF776FAFB7DC3F384030133E1
:103BB00003F01F039B02FB82F9E6DDE90884AB8872
:103BC0003B834FF6FF73C9F12000A9F1200228FAC8
:103BD00009F104FA00F0014324FA02F211431846F5
:103BE000C9B2FFF7ABF909F10809B9F1400F034673
:103BF000E9D1B8822A7B033AD2B23146FFF7B0F955
:103C0000FB7DB882DA43C2F3C01262F3C713FB75BF
:103C10003AE786B92E1D013BDBB23246394604F144
:103C20000C00FFF749FA0028BADB2A7BB88A013A70
:103C3000D2B23146E2E7F98AC1F30901013B042916
:103C4000DAB25BD8281D002307F11B069A4208D977
:103C500010F801CB06F801C0013101330529DBB2B0
:103C6000F4D104990A9105990B91934207F11B0134
:103C70000C9138BF043379680D9134BF55FA83F342
:103C800000230E93FB8AADF83EB0C3F309031A4438
:103C9000069B8DF84230039B8DF8433094F82C300E
:103CA000ADF83C2083F001038DF8443000238DF8FB
:103CB00040A08DF841807B602A7BB88A013A291D9B
:103CC000FFF74EF93B8BB882834203D1A3680AA960
:103CD0002046984720460AA9FFF7F2FDFB7DBA8AE5
:103CE000C3F38403013303F01F039B02FB823B8B6E
:103CF0009A420CBF00206FF01000C6E67B68002BD4
:103D0000AFD0052001E01C3033461E68002EFAD1EA
:103D1000091A081D2E1D184401EB090CBCF11B0FDC
:103D20005FFA89F39DD89A429BD916F8013B00F8B7
:103D3000013B09F10109EFE76FF00900A5E66FF01B
:103D40000A00A2E66FF00D009FE600BF40420F00A0
:103D500080841E006FF00E0097E66FF00F0094E66F
:103D6000EFF3098305494A6B22F001024A63683385
:103D700083F30988002383F31188704700EF00E084
:103D8000302080F3118862B60C4B0D4AD96821F4BB
:103D9000E0610904090C0A43DA60D3F8FC20094900
:103DA00042F08072C3F8FC200A6842F001020A6007
:103DB0002022DA7783F82200704700BF00ED00E090
:103DC0000003FA05001000E010B5302383F31188DA
:103DD0000E4B5B6813F4006314D0F1EE103AEFF36E
:103DE0000984683C4FF08073E361094BDB6B236609
:103DF00084F3098800F07CFB10B1064BA36110BD71
:103E0000054BFBE783F31188F9E700BF00ED00E005
:103E100000EF00E003060008060600080268436899
:103E20001143016003B1184770470000024A13684C
:103E300043F0C003136070470048004013B50F4CB7
:103E4000204600F0B1FA04F114000D49009400235B
:103E5000202200F06FF904F138000A4B0A4900945F
:103E6000202200F0E9F9094A094B0C212720C4E976
:103E7000172302B0BDE8104000F0E4B86C39002010
:103E8000D83900202D3E0008F839002000480040B5
:103E90000048E80130B5037C1F4C002918BF0C46D0
:103EA000012B08D11D4B984205D11D4BDA6942F414
:103EB0008022DA61DB692268036EC16D846603EBE0
:103EC0005203B3FBF2F36268150442BF23F0070507
:103ED00003F0070343EA4503CB60A36843F04003C4
:103EE0004B60E36843F001038B6042F4967343F048
:103EF00001030B604FF0FF330B62510505D512F043
:103F0000102205D0B2F1805F04D080F8643030BD5B
:103F10007F23FAE73F23F8E7045000086C390020BC
:103F2000001002402DE9F047C66D3768F46934622D
:103F30002107054619D014F0080118BF4FF480710D
:103F4000E20748BF41F02001A30748BF41F040010C
:103F5000600748BF41F08001302383F31188281D9A
:103F6000FFF75CFF002383F31188E2050AD53023B5
:103F700083F311884FF48061281DFFF74FFF002362
:103F800083F311884FF030094FF0000A14F0200835
:103F900038D13B0616D54FF0300905F1380A200616
:103FA00010D589F31188504600F07AF9002836DAE6
:103FB0000821281DFFF732FF27F08003336000231C
:103FC00083F31188790614D5620612D5302383F362
:103FD0001188D5E913239A4208D12B6C33B11021F3
:103FE000281D27F04007FFF719FF3760002383F3F0
:103FF0001188E30619D5AA6E1369B3B1BDE8F0477D
:104000005069184789F31188B38C95F864102846D5
:10401000194000F0E3F98AF31188F469B6E780B239
:10402000308588F31188F469B9E7BDE8F0870000AE
:1040300008B50348FFF776FFBDE80840FFF7C4BEA8
:104040006C39002000F1604303F561430901C9B2F6
:1040500083F80013012200F01F039A4043099B00DC
:1040600003F1604303F56143C3F880211A60704790
:1040700000F16040090100F56D40C9B2017670475A
:10408000F8B5154682680669AA420B46816938BFB1
:104090008568761AB54204460BD218462A46FDF7C3
:1040A00065FCA3692B44A361A3685B1BA36028463E
:1040B000F8BD0CD918463246FDF758FCAF1BE16835
:1040C0003A463044FDF752FCE3683B44EBE71846C0
:1040D0002A46FDF74BFCE368E5E70000836893425E
:1040E000F7B51546044638BF8568D0E90460361A2E
:1040F000B5420BD22A46FDF739FC63692B44636154
:10410000A36828465B1BA36003B0F0BD0DD93246FF
:104110000191FDF72BFC0199E068AF1B3A46314451
:10412000FDF724FCE3683B44E9E72A46FDF71EFC63
:10413000E368E4E710B50A440024C361029B84608D
:10414000C0E90000C0E90511C1600261036210BD51
:1041500008B5D0E90532934201D1826882B98268FC
:10416000013282605A1C42611970D0E904329A42CD
:1041700024BFC3684361002100F062FA002008BD3B
:104180004FF0FF30FBE7000070B5302304460E46C9
:1041900083F31188A568A5B1A368A269013BA36058
:1041A000531CA36115782269934224BFE368A3617D
:1041B000E3690BB120469847002383F31188284612
:1041C00007E03146204600F02BFA0028E2DA85F3BA
:1041D000118870BD2DE9F74F04460E4617469846E4
:1041E000D0F81C904FF0300A8AF311884FF0000B82
:1041F000154665B12A4631462046FFF741FF034682
:1042000060B94146204600F00BFA0028F1D00023A7
:1042100083F31188781B03B0BDE8F08FB9F1000F6C
:1042200003D001902046C847019B8BF31188ED1AFB
:104230001E448AF31188DCE7C0E90511C160C3613F
:104240001144009B8260C0E9000001610362704775
:10425000F8B504460D461646302383F31188A76847
:10426000A7B1A368013BA36063695A1C62611D701A
:10427000D4E904329A4224BFE3686361E3690BB175
:1042800020469847002080F3118807E031462046F9
:1042900000F0C6F90028E2DA87F31188F8BD0000C3
:1042A000D0E905239A4210B501D182687AB98268B3
:1042B000013282605A1C82611C7803699A4224BFD1
:1042C000C3688361002100F0BBF9204610BD4FF0A8
:1042D000FF30FBE72DE9F74F04460E461746984698
:1042E000D0F81C904FF0300A8AF311884FF0000B81
:1042F000154665B12A4631462046FFF7EFFE0346D4
:1043000060B94146204600F08BF90028F1D0002327
:1043100083F31188781B03B0BDE8F08FB9F1000F6B
:1043200003D001902046C847019B8BF31188ED1AFA
:104330001E448AF31188DCE7026843681143016078
:1043400003B11847704700001430FFF743BF000067
:104350004FF0FF331430FFF73DBF00003830FFF758
:10436000B9BF00004FF0FF333830FFF7B3BF000094
:104370001430FFF709BF00004FF0FF311430FFF792
:1043800003BF00003830FFF763BF00004FF0FF327B
:104390003830FFF75DBF0000012914BF6FF0130034
:1043A00000207047FFF74ABD044B03600023C0E9BB
:1043B0000233436001230374704700BF1C500008A0
:1043C00010B53023044683F31188FFF763FD022301
:1043D0002374002080F3118810BD000038B5C36934
:1043E00004460D461BB904210844FFF7A5FF2946E2
:1043F00004F11400FFF7ACFE002806DA201D4FF48C
:104400000061BDE83840FFF797BF38BD0023037552
:10441000826803691B6899689142FBD25A680360FD
:10442000426010605860704700230375826803691A
:104430001B6899689142FBD85A680360426010601B
:104440005860704708B50846302383F311880B7D08
:10445000032B05D0042B0DD02BB983F3118808BD95
:104460008B6900221A604FF0FF338361FFF7CEFFA4
:104470000023F2E7D1E9003213605A60F3E700004D
:10448000FFF7C4BF38B50A4BDD681C682875226881
:104490001A605360DC60A36801229342227501D147
:1044A00000F054FB29462046BDE83840FCF794B89C
:1044B000183A002030B50C4BDD684B1C87B0044621
:1044C0000FD02B46094A684600F0DEF82046FFF779
:1044D000D9FF009B13B1684600F0E0F8A86907B067
:1044E00030BDFFF7CFFFF9E7183A00204544000838
:1044F000044B1A68DB6890689B68984294BF002060
:1045000001207047183A002038B50B4B1C68DD6855
:1045100022681A60536001222275DC60AB68934206
:1045200001D100F015FB2846FFF77EFF014620462B
:10453000BDE83840FCF750B8183A002038B5074CB1
:1045400007490848012300252370656000F026FB19
:104550000223237085F3118838BD00BF403C002042
:1045600048500008183A002008B572B6044B186588
:1045700000F0C4F900F0AAFA024B03221A70FEE719
:10458000183A0020403C002000F09AB88B600223CB
:1045900008618B82084670478368A3F1840243F860
:1045A000142C026943F8442C426943F8402C094A10
:1045B00043F8242CC26843F8182C022203F80C2C70
:1045C000002203F80B2C044A43F8102CA3F120001E
:1045D000704700BFF1050008183A002008B5FFF742
:1045E000DBFFBDE80840FFF74BBF0000024BDB6874
:1045F00098610F20FFF746BF183A0020302383F35D
:104600001188FFF7F3BF000008B50146302383F39C
:1046100011880820FFF74EFF002383F3118808BD9F
:10462000064BDB6839B1426818605A60136043601A
:104630000420FFF73FBF4FF0FF307047183A0020CB
:104640000368984206D01A68026050609961184663
:10465000FFF716BF7047000010B50A4C23699A682F
:1046600091420CD85A6881600360426010609A6879
:104670005860511A99604FF0FF33A36110BD1B6859
:10468000891AECE7183A002010B4C0E9032300238C
:104690005DF8044B4361FFF7DFBF000003688168EA
:1046A0009A680A449A60426813605A600023036063
:1046B000024B4FF0FF329A61704700BF183A00205A
:1046C00070B5124DEB692A460133EB6152F8103F89
:1046D000934206D09A68013A9A6030262C69A36802
:1046E00003B170BDD4E900210A605160236083F3F7
:1046F0001188D4E903312046984786F3118861690F
:104700000029EBD02046FFF7A7FFE7E7183A002083
:10471000054A30B5D369D2E908451B1B181945F184
:104720000001C2E9080130BD183A0020002070479E
:10473000FEE70000704700004FF0FF3070470000B8
:10474000BFF34F8F024AD368DB07FCD4704700BF2A
:104750000020024008B5074B1B7853B9FFF7F0FF64
:10476000054B1A69120641BF044A5A6002F18832A9
:104770005A6008BD583C00200020024023016745D4
:1047800008B5054B1B7833B9FFF7DAFF034A136905
:1047900043F08003136108BD583C00200020024014
:1047A000FF289ABF00F58030C0020020704700004B
:1047B0004FF40060704700004FF4807070470000B5
:1047C000FF2808B50BD8FFF7EBFF00F50063026880
:1047D000013204D104308342F9D1012008BD002008
:1047E000FCE70000FF2810B504461CD8FFF7A8FF1F
:1047F000FFF7B0FF0D4BF322DA6002221A61FFF7D8
:10480000CFFF58611A6942F040021A614FF400610B
:10481000FFF796FF00F056F9FFF7B2FF2046BDE81C
:104820001040FFF7CDBF002010BD00BF00200240A8
:104830002DE9F84312F00103144606D01F4B40F255
:1048400046321A600020BDE8F88385181C4A95425C
:1048500004D91A4A40F24B311160F3E7FFF77AFFAF
:10486000FFF76EFFDFF86880451A4FF00109012C51
:1048700005EB01060F4603D8FFF782FF0120E2E7B0
:104880003B88C8F8109033800020FFF759FFC8F824
:104890001000338831F8022B9BB29A420CD0074BA0
:1048A00040F262321A60074B1E60074B1C60074BD8
:1048B0001F60FFF765FFC6E7023CD8E7543C0020C5
:1048C00000000808483C0020503C00204C3C0020E0
:1048D00000200240084908B50B7828B11BB9FFF742
:1048E00039FF01230B7008BD002BFCD0BDE8084048
:1048F0000870FFF745BF00BF583C002008B50648C8
:104900004FF47F4100F0E0F8BDE808404FF48041EB
:104910004FF0805000F0D8B8000100200846114642
:1049200000F0C8BA084600F0DBBA000038B5EFF373
:104930001185BDBBEFF30584C4F308043023C4B173
:1049400083F31188FFF7E4FE4C014201121A44EA96
:10495000D06464EB01049300A4001B1844EA927431
:1049600041EB0401C900D80041EA537185F3118875
:1049700038BD83F31188FFF7CBFE4D014201121AB7
:1049800045EAD06565EB01059300AD001B1845EACB
:10499000927541EB0501C900D80041EA537184F3D7
:1049A000118838BDFFF7B4FE4B014401241A43EAD5
:1049B000D06363EB0103A2009B00121843EA9473D7
:1049C00041EB0301C900D00041EA527138BD00BF7C
:1049D00038B5FFF7ABFF114C114AC00840EA4170EF
:1049E000A0FB025EC908A0FB040C1CEB050CA1FB9C
:1049F00004404FF000035B41A1FB02121CEB040CCE
:104A000043EB000011EB0E0142F10002411842F1AC
:104A10000000090941EA007038BD00BFCFF753E339
:104A2000A59BC42010B50244064BD2B2904200D1DF
:104A300010BD441C00B253F8200041F8040BE0B252
:104A4000F4E700BF502800400F4B30B51C6A240427
:104A500007D41C6A44F400741C621C6A44F40044C9
:104A60001C620A4C236843F4807323600244084BA1
:104A7000D2B2904200D130BD441C00B251F8045B68
:104A800043F82050E0B2F4E700100240007000400C
:104A90005028004007B5012201A90020FFF7C2FFFE
:104AA000019803B05DF804FB13B50446FFF7F2FF6D
:104AB000A04205D0012201A900200194FFF7C4FF04
:104AC00002B010BD70470000704700007047000042
:104AD000074B45F255521A6003225A6040F2FF72AA
:104AE0009A604CF6CC421A60024B01221A70704751
:104AF00000300040603C0020034B1B781BB1034B8F
:104B00004AF6AA221A607047603C0020003000403C
:104B1000044B1A682AB902F1804202F50432526A43
:104B20001A6070475C3C0020024B4FF080725A6262
:104B3000704700BF0010024008B5FFF7E9FF024BC5
:104B40001868C0F3407008BD5C3C0020704700004E
:104B50007047000070470000FEE700000A4B0B485A
:104B60000B4A90420BD30B4BDA1C121AC11E22F0D7
:104B700003028B4238BF00220021FCF709BF53F823
:104B8000041B40F8041BECE7CC510008643C0020F7
:104B9000643C0020643C0020FEE7000070B51B4B25
:104BA00001630025044686B0586085620E46FFF713
:104BB000E7F804F11003C4E904334FF0FF33A361B5
:104BC000134BE561D969A5600A462B46C4E9082361
:104BD00004F13401C4E900440E4AE56225658023EE
:104BE0002046FFF7D3FC0123E0600B4A03750092D7
:104BF00072680192B268CDE90223084B6846CDE99C
:104C00000435FFF7EBFC06B070BD00BF403C002050
:104C1000183A00205450000859500008994B0008D9
:104C20004B6843608B688360CB68C3600B694361EA
:104C30004B6903628B6943620B6803607047000035
:104C400008B5214B9A6A42F47F029A629A6A22F46A
:104C50007F029A629A6A5A6942F47F025A611B4A39
:104C60005B6911464FF09040FFF7DAFF02F11C013B
:104C700000F58060FFF7D4FF02F1380100F5806095
:104C8000FFF7CEFF02F1540100F58060FFF7C8FF87
:104C900002F1700100F58060FFF7C2FF02F18C01A4
:104CA00000F58060FFF7BCFF02F1A80100F580600D
:104CB000FFF7B6FF02F1C40100F58060FFF7B0FF17
:104CC000BDE8084000F05AB80010024060500008EB
:104CD00008B500F0B7F8FFF731FCBDE80840FFF772
:104CE00017BF00007047000010B5214CA36A63F4A1
:104CF0007F03A362A36A03F47F03A3624FF0FF3232
:104D0000A36A236922612369002323612169E16881
:104D1000E260E268E360E268E269164942F08052CC
:104D2000E261E2690A6842F480720A60226A02F46F
:104D30004072B2F5007F1EBF4FF4803222622362C0
:104D4000236A1B0407D4236A43F400732362236A93
:104D500043F40043236200F055F8A369064A43F088
:104D60000103A361A369136843F02003136010BD1E
:104D70000010024000700040000001401E4B1A6805
:104D800042F001021A601A689007FCD55A6822F0B6
:104D900003025A605A6812F00C02FBD1196801F044
:104DA000F90119605A605A6A42F001025A625A6A5D
:104DB0009107FCD5114A5A604FF40452DA6230224E
:104DC0001A631A6842F080721A601A689201FCD560
:104DD0000B4912220A600A6802F00702022AFAD17D
:104DE0005A6842F002025A605A6802F00C02082A1D
:104DF000FAD11A6B1A637047001002400024380081
:104E000000200240062108B50846FFF71BF90621DD
:104E10000720FFF717F906210820FFF713F90621ED
:104E20000920FFF70FF906210A20FFF70BF90621E9
:104E30001720FFF707F9BDE8084006212820FFF7F3
:104E400001B9000008B5FFF74FFF00F00BF8FFF7BE
:104E5000A9FAFFF747FFBDE8084000F001B80000DD
:104E600000F002B8704700004FF0E0234FF6FF1249
:104E70005A6100229A6107221A6108210B20FFF76C
:104E8000F7B8000008B5302383F31188FFF77CFBE7
:104E9000002383F3118808BD08B5FFF7F3FFBDE8D1
:104EA0000840FEF791BF00000B460146184600F08F
:104EB00009B80000024B0A4601461868FFF72EBDEC
:104EC0002011002010B5054C13462CB10A460146AE
:104ED0000220AFF3008010BD2046FCE70000000078
:104EE000024B01461868FFF71DBD00BF20110020CE
:104EF00010B501390244904201D1002005E0037849
:104F000011F8014FA34201D0181B10BD0130F2E788
:104F10002DE9F041A3B1C91A17780144044603F101
:104F2000FF3C8C42204601D9002009E00578BD42B3
:104F300004F10104F5D10CEB0405D618A54201D10A
:104F4000BDE8F08115F8018D16F801EDF045F5D0BA
:104F5000E7E70000034611F8012B03F8012B002AB4
:104F6000F9D1704712100000121100001213000056
:104F700046726565666C79494F2D626C00000000D1
:104F800053544D33324633787800000040A2E4F1A8
:104F9000646891060041A3E5F2656992070000008C
:104FA0004261642043414E496661636520696E64D5
:104FB00065782E0080000000008000000000800066
:104FC000000000000000000071220008492A0008CB
:104FD000A5290008A1220008AD220008B924000874
:104FE00079220008812200087D220008D5230008CC
:104FF00085220008652D0008092D0008952200086B
:10500000A923000800960000000000000000000036
:105010000000000000000000000000000000000090
:1050200065430008514300088D4300087943000898
:1050300085430008714300085D43000849430008A8
:10504000994300086330000044500008703A002083
:10505000403C00206D61696E0069646C6500000071
:105060000000802A00000000AAAAAAAA00000024CA
:10507000FFFF000000000000009009000000A000F9
:1050800000000000AAAAAAAA00005000FFFF00002A
:105090000000000000770000000000000000000099
:1050A000AAAAAAAA00000000FFFF0000000000005A
:1050B000000000000000000000000000AAAAAAAA48
:1050C00000000000FFFF00000000000000000000E2
:1050D0000000000000000000AAAAAAAA0000000028
:1050E000FFFF0000000000000000000000000000C2
:1050F00000000000AAAAAAAA00000000FFFF00000A
:10510000000000000000000000000000000000009F
:10511000AAAAAAAA00000000FFFF000000000000E9
:105120000000000000000000000000000A00000075
:10513000000000000300000000000000000000006C
:10514000A0B0FF7F01000000CD04000000000000BF
:105150000098070000000000FE2A0100D2040000B1
:10516000FF0000006C390020241100200000000026
:10517000000000000000000000000000000000002F
:10518000000000000000000000000000000000001F
:10519000000000000000000000000000000000000F
:1051A00000000000000000000000000000000000FF
:1051B00000000000000000000000000000000000EF
:0C51C000000000000000000000000000E3
:00000001FF
