:020000040800F2
:1000000000210020C10500080D3500081135000849
:1000100069350008113500083D350008C3050008A2
:10002000C3050008C3050008C305000825480008EB
:10003000C3050008C3050008C3050008C305000880
:10004000C3050008C3050008C3050008C305000870
:10005000C3050008C3050008D17D0008FD7D000828
:10006000297E0008557E0008817E0008C30500082F
:10007000C3050008C3050008C3050008C305000840
:10008000C3050008C3050008C3050008E52F0008E4
:10009000FD3000086D30000885310008AD7E000895
:1000A000C3050008C3050008C3050008C305000810
:1000B000C3050008C3050008C3050008C305000800
:1000C000C3050008C3050008C3050008C3050008F0
:1000D000C3050008C3050008857F0008997F000854
:1000E000117F0008C3050008C3050008C305000808
:1000F000C3050008C3050008C3050008C3050008C0
:10010000C3050008C3050008AD7F0008C30500084B
:10011000C3050008C3050008C3050008C30500089F
:10012000C3050008C3050008C3050008C30500088F
:10013000C3050008C3050008C3050008C30500087F
:10014000C3050008C3050008C3050008C30500086F
:10015000C3050008C3050008C3050008C30500085F
:10016000C3050008C3050008C3050008C30500084F
:10017000C3050008F5730008C3050008C30500089F
:10018000C3050008C3050008C3050008C30500082F
:10019000C3050008C3050008C3050008C30500081F
:1001A000C3050008C3050008C3050008C30500080F
:1001B000C3050008C3050008C3050008C3050008FF
:1001C000C3050008C3050008C3050008C3050008EF
:1001D000C3050008E1730008C3050008C305000853
:1001E000C3050008C3050008C3050008C3050008CF
:1001F000C3050008C3050008C3050008C3050008BF
:10020000C3050008C3050008C3050008C3050008AE
:10021000C3050008C3050008C3050008C30500089E
:10022000C3050008C3050008C3050008C30500088E
:10023000C3050008C3050008C3050008C30500087E
:10024000C3050008C3050008C3050008C30500086E
:10025000C3050008C3050008C3050008C30500085E
:10026000C3050008C3050008C3050008C30500084E
:10027000C3050008C3050008C3050008C30500083E
:10028000C3050008C3050008C3050008C30500082E
:10029000C3050008C3050008C3050008C30500081E
:1002A000991D000815320008000000000000000041
:1002B00053B94AB9002908BF00281CBF4FF0FF31CD
:1002C0004FF0FF3000F07AB9ADF1080C6DE904CEC3
:1002D00000F006F8DDF804E0DDE9022304B0704721
:1002E0002DE9F0478C460D460446089E002B51D15F
:1002F0008A4217466DD9B2FA82FEBEF1000F0BD0CA
:10030000CEF1200C01FA0EF520FA0CFC02FA0EF7E1
:100310004CEA050C00FA0EF44FEA174A250CBCFB18
:10032000FAF81FFA87F90AFB18CC45EA0C4508FBD6
:1003300009F3AB420AD9ED1908F1FF3280F02381AD
:10034000AB4240F22081A8F102083D44ED1AA4B26C
:10035000B5FBFAF00AFB105544EA054400FB09F925
:10036000A14509D9E41900F1FF3380F00A81A145C4
:1003700040F2078102383C44A4EB090440EA0840FB
:100380000021002E61D024FA0EF400233460736043
:10039000BDE8F0878B4207D9002E54D0002186E8B3
:1003A00021000846BDE8F087B3FA83F1002940F048
:1003B0008E80AB4202D3824200F2FA80841A65EB4F
:1003C00003050120AC46002E3FD086E81010BDE8A2
:1003D000F08712B90127B7FBF2F7B7FA87FEBEF133
:1003E000000F34D1EB1B3A0C1FFA87FC0121B3FB41
:1003F000F2F8250C02FB183345EA03450CFB08F321
:10040000AB4207D9ED1908F1FF3002D2AB4200F23E
:10041000D1808046ED1AA3B2B5FBF2F002FB105575
:1004200043EA05440CFB00FCA44507D9E41900F19C
:10043000FF3302D2A44500F2B8801846A4EB0C04A6
:1004400040EA08409DE731463046BDE8F087CEF1EE
:10045000200405FA0EF307FA0EF720FA04F83A0C16
:1004600025FA04F448EA0308B4FBF2F14FEA184510
:1004700002FB11441FFA87FC45EA044501FB0CF31B
:10048000AB4200FA0EF409D9ED1901F1FF3080F00A
:100490008A80AB4240F2878002393D44EB1A1FFA52
:1004A00088F5B3FBF2F002FB103345EA034500FB8D
:1004B0000CF3AB4207D9ED1900F1FF386FD2AB4214
:1004C0006DD902383D44EB1A40EA01418FE7C1F192
:1004D000200722FA07F88B4005FA01F448EA0303E3
:1004E00020FA07FE4FEA134CFD404EEA040EB5FB1E
:1004F000FCF94FEA1E440CFB19551FFA83F844EA35
:10050000054509FB08F4AC4202FA01F200FA01FACF
:1005100008D9ED1809F1FF3043D2AC4241D9A9F115
:1005200002091D442D1B1FFA8EFEB5FBFCF00CFBCF
:1005300010554EEA054400FB08F8A04507D9E41819
:1005400000F1FF3529D2A04527D902381C4440EAE2
:100550000940A4EB0804A0FB02894C45C6464D4661
:1005600015D312D056B1BAEB0E0364EB050404FAAE
:1005700007F7CB401F43CC40376074600021BDE8D3
:10058000F0871846F8E69046E0E6C245EAD2B8EBB6
:10059000020E69EB03050138E4E72846D7E7404639
:1005A00091E78146BEE7014678E702383C4445E7DB
:1005B000084608E7A8F102083D442BE7704700BF52
:1005C00002E000F000F8FEE772B6394880F30888D0
:1005D000384880F3098838484EF60851CEF20001B9
:1005E000086040F20000CCF200004EF63471CEF20A
:1005F00000010860BFF34F8FBFF36F8F40F2000020
:10060000C0F2F0004EF68851CEF200010860BFF350
:100610004F8FBFF36F8F4FF00000E1EE100A4EF6E0
:100620003C71CEF200010860062080F31488BFF30D
:100630006F8F06F06DF807F059F94FF055301F49EC
:100640001B4A91423CBF41F8040BFAE71C49194A86
:1006500091423CBF41F8040BFAE71A491A4A1B4B76
:100660009A423EBF51F8040B42F8040BF8E7002011
:100670001749184A91423CBF41F8040BFAE706F0CB
:100680008BF807F0FFF9144C144DAC4203DA54F820
:10069000041B8847F9E700F041F8114C114DAC42BA
:1006A00003DA54F8041B8847F9E706F073B8000032
:1006B000002100200081002000000008000100202F
:1006C000002100203085000800810020BC8100202E
:1006D000C081002050E50020A0020008A802000808
:1006E000A8020008A80200082DE9F04F2DED108A9D
:1006F000C1F80CD0D0F80CD0BDEC108ABDE8F08F5A
:10070000002383F311882846A047002005F002FB50
:10071000FEE705F04FFA00DFFEE7000038B501F014
:10072000D7FC18B12D4B4FF460229A6005F074FF8E
:10073000044605F0E7FF08BB294B9C4248D0013333
:100740009C423ED024F0FF02264B9A4233D041F225
:10075000883401F0E7F801F0D7F840BB00200446E8
:1007600005F060FF01F00CFD01F006F901F0A6FBB9
:10077000204600F031F900F06BF8F9E701F0D2F80B
:1007800001F0C2F848B9184B9C42E7D005F0B2FF1F
:10079000002005F047FF0024E4E7134B9C42F5D10D
:1007A0000020002405F03EFF00F052F8DAE70020B8
:1007B00005F038FFD6E7E0B242F2107401F09EF87F
:1007C000C7E701F0AFF801F09FF80028E8D1C5E7CE
:1007D00001F0A8F801F098F8C0E700BF0081002000
:1007E000010007B0000008B0263A09B010B5202378
:1007F00083F311881248C3680BB105F045FB002351
:10080000104A4FF47A710E4805F0E0FA002383F3A2
:1008100011880D4C236813B12368013B2360636882
:1008200013B16368013B6360084B1B7833B963689D
:1008300023B9022001F052FC3223636010BD00BFD7
:10084000C0810020ED070008DC820020D481002058
:10085000584B1A68013215D0574953F8042F01320A
:1008600010D08B42F9D1554A2DE9F041544C236800
:10087000934205D9534A4F4D92682A44934202D37A
:10088000BDE8F081704705F007FF05F01BFF002071
:1008900001F032FB02234C4A1846137001F01CFC95
:1008A0004A4B0022D3F8E810C3F8E820D3F810111F
:1008B000C3F81021D3F81011D3F8EC10C3F8EC20D2
:1008C000D3F81411C3F81421D3F81411D3F8F0108D
:1008D000C3F8F020D3F81811C3F81821D3F8181171
:1008E000D3F8801041F00061C3F88010D3F8801075
:1008F00021F00061C3F88010D3F88010D3F8801085
:1009000041F00071C3F88010D3F8801021F000711D
:10091000C3F88010D3F8803072B62D4BD4F8008025
:100920001D60D5F800C0BFF34F8FBFF36F8F294C08
:10093000C4F88420BFF34F8F636923F4803363616D
:10094000BFF34F8FD4F8803043F6E07EC3F3C9067F
:10095000C3F34E33B7075D0105EA0E003946324650
:1009600041EA0003013A01F14041C4F87432531CDA
:10097000F6D1203D15F1200FEED1BFF34F8FBFF31D
:100980006F8FBFF34F8FBFF36F8F6369002223F424
:1009900000336361C4F85022BFF34F8FBFF36F8FF2
:1009A000202383F31188E5468CF308884047BDE88F
:1009B000F08100BF000002081C000208FFFF0108D0
:1009C0000400020800810020D48100200044025865
:1009D00008ED00E000ED00E02DE9F04FDFF80083C6
:1009E0009DB020220746D8F8083014A8FF210193B3
:1009F00001F0B2FBB44A1378002B6AD0B34D07B1B3
:100A00002F600023DFF8DC923C46DFF8C4A21E46CC
:100A10009B46009302936B6089F80030012001F03F
:100A20005BFB02E0089B002B0FDA002014B12B685F
:100A3000002B4BD001F00EFA0890089B002BF1DA46
:100A400001F006F8089B002BEFDB012001F042FBD0
:100A5000089B213B122BE1D801A252F823F000BFE2
:100A6000F50B00081B0C00084D0C00081D0A0008BF
:100A70001D0A00081D0A0008E90C0008FF0A00080A
:100A8000790D0008E90D0008290E0008690E00081C
:100A90001D0A0008890E00081D0A0008C30E000880
:100AA000650B00081D0A0008970B00081A4614A8D9
:100AB000FF2101F051FB864B1CA802211B8820F866
:100AC000343D01F0E5F9834805F030F91DB0BDE88B
:100AD000F08F0121804811702022C36082F31188B9
:100AE000C3680BB105F0D0F900237C4A4FF47A714A
:100AF000794805F06BF9002383F311887EE73220F3
:100B000001F0A8F9031E7BDB9A0779D1029AD8F885
:100B100008109A188A4273D80220039301F09AF9B8
:100B20002028039B6CD19B101CD002999A0004973B
:100B30000B4605951144254617461C460391204651
:100B4000043401F0DBF904210E900EA801F0A0F9A5
:100B5000039BA342F3D13A46029B2C46049F1344C5
:100B6000059D02930FAB039301F000FB039BBBF1C8
:100B7000000F07D0009A02F00B020B2A4FF0010B76
:100B800008BF0024BAF8002018460221ADF83C2026
:100B900001F07EF942E7BBF1000F31D0009B03F07A
:100BA0000B030B2B2CD11CAB0022642143F8342DFA
:100BB0001846039301F062F9039B10BB03900220D7
:100BC000049301F047F92028039A049B19D1BAF83D
:100BD00000301CA80221144620F8543D01F058F9B9
:100BE00041F2883005F0A2F80F9801F00BFB01F0FC
:100BF000BDFA13E7022001F02DF9202800F0C08192
:100C00000FABBAF8042018460221002E08BF3C465C
:100C1000ADF83C2001F03CF900E74FF47A7001F0A8
:100C200019F9031EECDB0220039301F013F92028CD
:100C3000039BE5D1013B0393042B00F2F381DFE832
:100C400013F094018E01880182016201BBF1000F53
:100C5000D6D0009B03F00B030B2BD1D1022001F067
:100C6000F9F82028CCD10120002601F045F9022016
:100C700089F8000001F030FA05E0204601F054F94F
:100C8000002800F0CA81F4B20136204601F03CF998
:100C90000028F2D101230446022089F8003001F037
:100CA00019FAD8F8083033B9CAE10434D8F8083052
:100CB000A34240F2C581204601F020F90130F4D072
:100CC00001945E46002414E1D8820020DC820020DA
:100CD0007C810008A0860100C0810020ED0700088B
:100CE00000810020D4810020BBF1000F88D0009B40
:100CF00003F00B030B2B83D10223184689F8003035
:100D000001F0EAF9322001F0A5F8031E0393FFF683
:100D100077AF039B99077FF473AF019A0398131879
:100D2000D8F80820B0F5807F98BF93428CBF01238C
:100D3000002300F23881002800F03A81BB4A039B6F
:100D4000511C0497013B2746059514460B441D464C
:100D500005E0089A04F8012FA54200F026814FF41F
:100D60007A7001F077F80890089A002AF1DA3C4688
:100D7000059D049F0FAB44E7022001F06BF820288B
:100D80007FF43EAF01F0EAF800283FF439AFD8F81D
:100D90000820002A00F04481002303960494194699
:100DA0000FAB0A460C461E4611E0149B013315D0CA
:100DB00051F8201C0F91104604223146144402F0D1
:100DC000F1FBD8F808100246A14240F2E08024F07E
:100DD00003011CAB1F2C20461944E6D9059201F0F3
:100DE0008DF8059A0F90E6E71CAB0022642143F8CA
:100DF000342D1846039301F041F8039B00287FF43B
:100E000000AF022001F026F82028039B7FF4F9AE02
:100E10000F9801F09BF81CAA042142F8480D1046D7
:100E200001F036F8039B9EE61CAB0022642143F8D8
:100E3000342D1846039301F021F8039B00287FF41A
:100E4000E0AE022001F006F82028039B7FF4D9AE23
:100E50000F9801F07DF81CAA042142F8440D1046B9
:100E600001F016F8039B7EE6022000F0F3FF202835
:100E70007FF4C6AE01F0D6F81CAB042143F8400D58
:100E8000184601F005F86DE6022000F0E3FF202887
:100E90000FAB7FF4B6AE19461420049301F0C8F8E6
:100EA00002461CA8042140F83C2D039200F0F0FFFC
:100EB000049B039A18460393114600F0E9FF039B35
:100EC00051E64FF47A7000F0C5FF20287FF498AE09
:100ED000039001F043F860B1149A01323FF4EBAD96
:100EE000082214A9002001F043F8039B00287FF496
:100EF000DDAD1CABBAF80820022123F8342D1846CA
:100F000000F0C6FF8AE51C220FAB02972746049526
:100F100014461D462046043400F0F0FF04210F90D3
:100F2000284600F0B5FF2C2CF4D13C462B46029FFE
:100F3000049D00210122029103998A4000990A43ED
:100F4000D2B200920FE60421394800F0A1FF0FABA6
:100F5000EFE70421374800F09BFF0FABE9E70421DE
:100F6000354800F095FF0FABE3E71CAB05220421E9
:100F700043F8342D1846029300F08AFF029BD8E70D
:100F800001F0F4F8009A0FAB02F00B02F5E53346DE
:100F9000049C039E1CA80421039340F84C2D00F0F0
:100FA00077FF039BDFE59B462AE63C46059D049FB1
:100FB000C82000F04FFF20287FF422AE019A1F2A9C
:100FC00014D8C2F1200322F00300039A1B49934274
:100FD00028BF134614AA10441A46049301F080F85F
:100FE000049BFF2115481A4601F0B6F8039B1349EC
:100FF0009B100198DAB2039300F0BAFF00283FF487
:1010000078AF019B834600241A46039B02EB8303BF
:10101000019301F0ABF80FABB4E504465E4668E718
:101020000FABB7E7002302930FABEAE5D7810020AF
:10103000088100200481002000810020D881002048
:1010400000220FAB5E4603931446019289F80020FC
:101050006A6001F08BF8039B94E500BF10B4002296
:10106000064C0346026042608260C26007CC186092
:1010700059609A605DF8044B704700BF00E8F11FAB
:101080002DE9F041264EBAB002F088FAB368C31ACF
:10109000F92B02D83AB0BDE8F08106AF04463346DA
:1010A000282200213846B46003F064FB06F10E00EC
:1010B00001F046F85FFA80F8B8F1000F29D000235C
:1010C00028251C4600E0154601340E330822294627
:1010D000E4B23344384603F04DFB444505F10802C1
:1010E0002346F0DB0F35C5F3CF050E4A302301242C
:1010F000082001920093317B029005950497039498
:10110000094805A3D3E9002302F0A0FD3AB0BDE8E9
:10111000F0810525E9E700BF78F6339F93CACD8DAE
:1011200020BC00202DBC0020FC9200202DE9F041C5
:101130000E4CDFF83C8004F58B65A5F52457A5F52A
:10114000A455C5F80080237E3BB96669304626B1B8
:1011500002F0A2F8304606F079FF2046A4F5A45428
:1011600002F09AF8BD42EAD1BDE8F081C8B700208C
:10117000BC82000870B50E4614461D4602F0AAFC5B
:1011800070B9022D08BF012C0CBF0120002006D130
:1011900016A3D3E90023C6E9002370BD002070BD6B
:1011A000052C12D018D9282C08D0302CF6D10120CB
:1011B00010A3D3E90023C6E9002370BD0FA3D3E930
:1011C00000230120C6E9002370BD0EA3D3E900234C
:1011D0000120C6E9002370BD012CDFD120460BA3FE
:1011E000D3E90023C6E9002370BD00BF401DA12044
:1011F00026812A0B78F6339F93CACD8D26417272D1
:10120000DF25D7B7F017304A39059E569E6AC421AC
:10121000818A46EE70B5354984B0354E082302AC5C
:1012200003C9224684E803003046324906F036FFFF
:101230000446002852D00169B1F5F01F37D8438B1E
:1012400040F22252934228D100F10805AB1B03F172
:101250001002914234D3A1F110051A463146002004
:10126000ED1A02F09FF904F1180106462A46002003
:1012700002F098F9A3680546E2689E4201D19042C7
:1012800027D01D490D20334608811C48A1680095D0
:1012900001F0E6FF002004B070BD174C0C25194684
:1012A0001748258101F0DCFF002004B070BD124B0F
:1012B0000B2214481A8101F0D3FF002004B070BD46
:1012C0000D4B102210481A8101F0CAFF002004B013
:1012D00070BD0E4801F0C4FF0120E6E7064B0A226C
:1012E0000B481A8101F0BCFF2046DEE78881000828
:1012F00000000208DCFF1D00E4820020F0810008ED
:10130000B08100089C810008D08100081C82000880
:10131000908100082DE9F04FADF5017D40F2791282
:1013200080460F4621AE0EAD00210DF15A09304620
:101330004FF0000B00F010FF48220021284600F07B
:101340000BFF784C02F02AF9774B0121774AA3FB77
:1013500000034FF0220A29749B0985F811B013602D
:1013600007CA85E807004846FFF778FE05221923DB
:101370000DF11C0E85F8202085F83C30C5F840E0C2
:1013800085F821A00FCCAEE80F0094E807002B46AB
:10139000C024AEE803005946AEF8002030462022B3
:1013A00003F0E8F995F804E030460FABBEF1030F07
:1013B0004FF002024FF0200128BF4FF0030E85F8D6
:1013C00004E003F0D7F995F805E051463046BEF148
:1013D000070F0DF13D034FF0030228BF4FF0070E3A
:1013E00085F805E003F0C6F995F806E030460DF102
:1013F0003E03BEF1070F4FF003024FF0250128BF57
:101400004FF0070E85F806E003F0B4F9304610AB54
:101410001022282103F0AEF9304612AB0822382101
:1014200003F0A8F930460DF149030822402103F0EA
:10143000A1F930460DF14A030822482103F09AF938
:10144000304613AB2022502103F094F9304614AB00
:101450004022702103F08EF9304616AB0822B021ED
:1014600003F088F930460DF159030822B82103F042
:1014700081F9214608344B460822304609F101091A
:1014800003F078F9B4F5A07FF3D121461BAB082215
:10149000304603F06FF995F834304FF4A4747BB103
:1014A0004FF00009AB6B2146082230464B4409F14E
:1014B000010903F05FF995F8343008344B45F1D851
:1014C00095F83C307BB14FF000092B6C2146082287
:1014D00030464B4409F1010903F04CF995F83C30D2
:1014E00008344B45F1D80734BA7EF97E0123193709
:1014F0000025C4F3CF040292049640460594039558
:101500008DE8880005A3D3E9002302F09FFB0DF5C9
:10151000017DBDE8F08F00BFAFF300809E6AC4215B
:10152000818A46EE2C820008D34D6210E4820020AE
:101530002DE9F04FADB00D46064606AF02F0CAFAEF
:1015400030B92B7E022B20D09C37BD46BDE8F08FF2
:10155000EB8A052B00F0948040F28780282B00F066
:101560009C80302BF0D16B7EE946CB4C0133627B03
:10157000DBB2934204D1EA7E237B9A4200F0D6800C
:101580009C37CD46BD46BDE8F08FEB8A012BDBD101
:10159000DFF81CA3044602F001F844F25061DAF8C7
:1015A00000204FF4C87CBD4B1FFA82FEDFF8048395
:1015B000120C01FB0E2EBA4A49F269011FFA8EF98C
:1015C000CAF800E0A3FB09E3D2F800E0DB090CFB5A
:1015D00013931FFA8EF94FEA1E4E95F81BC09BB26B
:1015E00001FB09E103F5167311600344C8F80030EC
:1015F000BCF1000F00F06D81AB8A012B00F05C8123
:1016000004F1010E3B1D082228461C444FEACE017E
:101610000023009401F0F8015FFA8EF402F01EFF3F
:10162000AB8A013B9C42EBD307F11400FFF716FD98
:10163000224607F11401381D06F020FD024600285D
:1016400040F047810F2C40F33B8107F1980413468B
:101650001146284604F8952D0722009402F0FEFE5C
:101660003046F97802F02EFA6EE7012B7FF46CAF6A
:1016700029463046FFF74EFE9C37BD46BDE8F08F49
:10168000BFF34F8F8749884BCA6802F4E062134367
:10169000CB60BFF34F8F00BFFDE7AB8A013B9BB22E
:1016A000C92B3FF651AF7C4C94F80C80B8F1000F79
:1016B00000F0BB80002407F114083B1D08222146DE
:1016C0004046BC607C60FC6003F054F83B7A5BB33E
:1016D000A146082400E01446FB6808222146404643
:1016E0004B4409F1010903F045F83B7A04F1080283
:1016F0004B45F0D804F10F03C3F3CF030022E97E7A
:1017000005F11904059303922823CDF81080304683
:10171000AA7E0093029201945DA3D3E9002302F014
:1017200095FAFFF7ADFC0FE70123E7E707F1980013
:101730004FF000080123102220F8848D41460090CC
:10174000284602F08BFEAE8A023EB6B2F31C23F0AE
:1017500003030A3323F00703ADEB030D0DF1180A61
:1017600096B14FF0100B0AEB080008F1010859463A
:1017700000231FFA88F800900822284602F06EFE27
:1017800046450BF1080BEEDC94F8D70000F0BCFBEB
:10179000D4F8D83080462BB994F8D70000F0C4FBB9
:1017A000D4F8D8303344984504D294F8D7000130A7
:1017B00000F0BAFB5FEA960B0ED000231D46013500
:1017C0009B0020680122ADB20AEB0301184400F02F
:1017D000CFFB5D452B46F2DBD4E90023D4F8D810CB
:1017E000921994F8D70006EB010543F10003C4F801
:1017F000D850C4E9002300F087FB85420AD394F84F
:10180000D720D4F8D8300132A3EB080384F8D720CE
:10181000C4F8D830FF2E60D923680021234A9B0AE0
:10182000A16001331381CD468EE604F10C004346DE
:10183000082241460090284602F010FEAB8A012B98
:1018400015DD4FF0080908F10E0E08220023494665
:10185000A6442846914408F10108CDF800E002F0C2
:10186000FDFDAB8A5FFA88F8013B9845EBDB00236E
:1018700000200021227BA36084F8D730C4F8D83040
:10188000C4E90001002A7FF415AFEB7E237311E752
:1018900026417272DF25D7B720BC00201F85EB518F
:1018A0001081002000ED00E00400FA05E482002031
:1018B0000C810020F892002007F11400FFF7CEFB06
:1018C000D8F800300C4AA3F516731470C8F800302D
:1018D0003AE6094B00221A7036E60023237300F023
:1018E0003DFB237B002B97D1FFF794FC002893D07E
:1018F000FEF7AEFF90E700BFF5920020014B187095
:10190000704700BFF0820020044B1B7B23B1044BC7
:101910000E2200201A817047FFF77CBC20BC0020FB
:10192000E48200204FF000530F4A1968914205D01D
:10193000E02200214FF0005000F00EBC10B50B4922
:10194000C922587D0A4C08701B7D04F10E0009491C
:10195000237300F0C5FBE02200214FF00050BDE8EA
:10196000104000F0F9BB00BF9AAD44C5F0820020E2
:1019700020BC0020160000202DE9F0410223274C56
:1019800082B0012226492748637100F0C7FF26482C
:101990000122234903681B6898470021234B4FF419
:1019A0008052019100932249224B234802F05AF8B9
:1019B000224B197871BBDFF8948001F0EFFD44F2FF
:1019C00050661F4BD8F800204FF4C87E1D4D49F2D9
:1019D000690791B2120C06FB01212A681A4E1FFA00
:1019E00081FCC8F80010A3FB0C1391B2120CDB09A8
:1019F00007FB01220EFB13C32A609BB203F516738B
:101A00001844306004F07EFE08B10F23238102B039
:101A1000BDE8F081084802F055F8CCE7E4820020E8
:101A200040420F0020930020A0A70020751100085D
:101A3000F482002031150008FC920020F082002082
:101A40001F85EB5110810020F89200200C810020AE
:101A50002DE9F04FDFF82CB395B0BD4FBD4802F033
:101A600085F90346002839D00024014611AA14AE96
:101A7000109425468DF84C40A04611941294007B9A
:101A80008DF84C0051F8040F496803C21B6843F0FD
:101A9000004346F8103DB2465BF804300BEB0409F6
:101AA00004F5A454DE6801F07BFDAB4A0023CDF8B9
:101AB0000080121848464B415146B0470028C8BF25
:101AC00045F00105B4F5245FE6D1002D6AD1A04AA6
:101AD0001378072B00F35A810133137000234FF062
:101AE00001080C938DF83C300D930E93002407945D
:101AF0004FF000094FF0000A5BF8047000250BEB73
:101B000004068DF824808DF825502B4630460DF1C3
:101B1000250209A9CDE9009A7F68B8479DF824708D
:101B2000EFB904F5A454B4F5245FE1D1DDF81C90BD
:101B3000B9F1000FDAD1874801F0CCFF002800F09E
:101B4000A58001F02BFD854B1B68C31AB3F57A7F86
:101B500036D2834B1B7B5BBB15B0BDE8F08F109575
:101B60000DF1260311950AAA12950CA9139530467A
:101B70005BF804500DF1400A07972D69A8470C9BAC
:101B80009DF83C2011AD10930DAB8DF84C2093E8DF
:101B90000300DDE90A2385E8030051466D4802F0A1
:101BA000F3F8BEE76B4802F0E5F887F8008055E7E8
:101BB000FFF766FA6A4B1B7B002B7FF44EAFCBE737
:101BC000664B186001F0ECFC02460B46614802F0DF
:101BD000E5FB604801F07EFF0028BAD0604B10ADF5
:101BE000604C1B7B002B14BF03230223637101F0A5
:101BF000D5FC5D49064623462846A1FB0616202251
:101C00000021B609266002F0B5FD26792346284654
:101C10000222032E4FF0200128BF032603F8046F91
:101C200002F0A8FD667923462846072E4FF00302EE
:101C30004FF0220128BF072603F8056F02F09AFD36
:101C4000A67923462846072E4FF003024FF02501C0
:101C500028BF072603F8066F02F08CFD04F1080385
:101C6000284610222821414C02F084FD0723182029
:101C700040F25511049302900395364830A3D3E9FE
:101C800000238DE8120001F027FF62E7384D01F0D4
:101C900085FC2B689842FFF454AF01F07FFCDFF81D
:101CA000E8E044F250644FF4C871DEF8002049F2D5
:101CB0006907304E93B28DF83090120C04FB032369
:101CC00032682D4C1FFA83FCCEF800302B4BA3FB5F
:101CD0000CE3DB0901FB13C391B2120C9BB207FBAF
:101CE0000122277803F51673326003442B6017B97D
:101CF00001238DF8303010AD0CAE2846FFF7AEF959
:101D0000C7F11003E9190DF13100DDB21C4F062DAA
:101D100028BF06252A46013500F0E2F918230121E3
:101D20000495029303960B4807A3D3E900238DE89B
:101D3000820001F0D1FE0023237002E7AFF30080A0
:101D4000F1C6A7C1D068080F401DA12026812A0B2B
:101D500005BD0020FC92002040420F0000BD002085
:101D600020BC0020E4820020D34D621004BD00207E
:101D7000F892002010810020F59200201F85EB5181
:101D8000F4920020209300200C810020014801F0F3
:101D9000F1FFA3E6FC92002010B5074C204600F0AE
:101DA00085FD04F5A45000F081FD044A044900209B
:101DB000BDE8104006F044B92093002098BD0020F3
:101DC0002D1100082DE9F84F4FF47A7582460F4621
:101DD000002402FB05F5134EDFF8509096F9003011
:101DE0005FFA84F85A1C0BD0A34209D00134032CAB
:101DF000F4D14FF4FA7003F099FF0020BDE8F88F9A
:101E000059F824002B463A465146D0F800E0DEF857
:101E100020B0D8478742E9D1034B012083F80080E6
:101E2000BDE8F88F148100204CBD002048820008D6
:101E3000064B20220648194630B400251C6A83F858
:101E40002450204430BC04F0C9BA00BF0CBD0020AF
:101E50000000020810B582B000240246012102AB46
:101E600003F8014D1846FFF7ADFF18B19DF80700C4
:101E700002B010BD4FF0FF30FAE700BF0A46042160
:101E800008B5FFF79FFF80F00100C0B2404208BDD7
:101E9000074B0A46014610B4064C1878064B54F816
:101EA00020000468E469A4465DF8044B604700BF65
:101EB0004CBD002048820008A0860100F8B504F05F
:101EC0000FFA0A4D0A4E82B22B680024094F328065
:101ED00000E032889A42184607D904F0FDF92B68D1
:101EE00004440133BC422B60F3D9F8BD08BD002087
:101EF0004EBD0020FFFF010004F00CBB014BC05899
:101F0000704700BF00000208054A064B12681B8894
:101F10009B1A834201D800207047104404F0DCB9BA
:101F200008BD00204EBD002038B5074D0446286886
:101F3000204404F0D7F900B138BD28682044BDE83A
:101F4000384004F0D5B900BF08BD0020002070471C
:101F5000014BC058704700BF00E8F11F034B93F8D6
:101F600024300BB901207047FFF762BF0CBD002081
:101F70002DE9F0412A4E884682B0074696F8241093
:101F8000336A03EB8103834201D000293FD1FF254F
:101F9000002A38D096F824304BB9214B376203F130
:101FA000200103F8015B8B42FBD196F82430C3F18A
:101FB00008019800914228BF11465FFA81FE89000E
:101FC0000CD00138434608EB010C304413F8014BA8
:101FD000634500F8014FF9D196F824307344A2EB21
:101FE0000E020F448844DBB2D2B2082B86F82430AC
:101FF000CED10192FFF71CFF019A0028C8D1002022
:1020000002B0BDE8F081012002B0BDE8F08101928C
:10201000FFF70EFF019A0028B9D10020F0E700BFBA
:102020000CBD0020014B1868704700BF0010005C19
:10203000254B264AF0B41B681788C3F30B05546878
:102040001B0C92F90860BD4202D09789BD4237D07F
:1020500041F20102934229D041F20302934218D087
:1020600042F20102934223D15826451E0D44A94253
:1020700024D294F9002072B10B4602E014F9012F2A
:1020800052B103F8012B9D42F8D11846401AF0BC1A
:1020900070475926E9E70B46581C2C2285421A70D6
:1020A000F4D9981C5E70401AF0BC70475A26DCE7E1
:1020B00042F20302934208BF5626D6E70B46E4E7F6
:1020C000146992F91460C3E70010005C18810020C5
:1020D00000207047704700BF704700BF704700BFC7
:1020E00052B1431E0A4410B411F8014B914203F857
:1020F000014FF9D15DF8044B704700BF30B490F93F
:1021000000301BB191F900409C4206D012B191F908
:1021100000505A1B104630BC704772B1013A4C1C3B
:1021200010F9013F2146002BF0D014F9015BAB42BE
:10213000ECD112F1FF32F3D2EBE71D46E9E700BF25
:1021400090F90010431C21B1191A13F9012B002A30
:10215000FAD10846704700BF32B1C9B20244034603
:1021600003F8011B9342FBD1704700BF024A034BA7
:1021700012781A70704700BF4CBD002014810020F7
:1021800038B5194C194D204602F0CAFF29462046A1
:1021900002F0F6FF2D681648D5F89020D2F80438E2
:1021A00043F00203C2F8043803F0C0FD2846114989
:1021B00003F024F9D5F890200F484FF46145D2F888
:1021C00004380E49A04223F002030D60C2F804381F
:1021D00001D002F0FBFE0A48A04204D00749BDE846
:1021E000384002F0F3BE38BDB0C80020D4830008E8
:1021F00040420F00008400081CBE002034BD0020B7
:1022000088BE00200C4B0D4A30B4197805460C4BA3
:1022100052F8210098420DD00A4C0021234604F1C7
:10222000180203F8011B9342FBD12560054930BC1D
:1022300002F0CCBE30BC70474CBD00204882000884
:10224000B0C8002034BD002001207047704700BF97
:10225000704700BF41F25143C05C704741F24A43AE
:10226000C05C70472DE9F04341F254450446BDF887
:102270001C70405901306051086810F0005002D1C4
:102280000D7B082D08DD41F258424FF0FF30A35876
:102290000133A350BDE8F08341F24A45655D002D4E
:1022A000F1D0202585F3118862B6656AD5F8C4603F
:1022B000B6020AD541F25842A3580133A350002375
:1022C00083F3118862B6BDE8F08308689946D5F8B3
:1022D000C45090460028E669C5F30445B4BF40F0F9
:1022E0008040800406EB051630600868430003D583
:1022F000306840F00050306091F80CC04FEA056E35
:1023000001204EEA0C4E41F2480CC6F804E004EB02
:10231000451E4B68F44441F2500EB3608B680EEBDF
:10232000451EF36000FA05F6636AC3F8D06005F154
:10233000830604EB0E037201CCE900890E68D1F824
:102340000480D1F808C044F80E60A618C3F80480D1
:10235000C7F3400EC3F808C0097B19733379A55041
:1023600067F300036EF3410303F0FB0343F0100334
:102370006FF3C3033371002383F3118862B6BDE8A2
:10238000F08300BF50207047F0B4202383F31188FE
:1023900062B641F2704541F2744341F26C4241F23F
:1023A0005844475941F26441C35800F5A355865833
:1023B00000223B440459415898192B682044084492
:1023C000184482F3118862B6F0BC70472DE9F043DF
:1023D000054689B00C4690461F464FF0200989F308
:1023E000118862B60020002141F23C060023CDE9AD
:1023F0000001A8590593ADF8083003938DF8183003
:10240000049300F053FF1F2808D80023002282F312
:10241000118862B6184609B0BDE8F0834A4669469D
:10242000A85901F067F82028EFD141F24A43EB5C4C
:10243000002BEAD003ABBDF8085007CB20606160E9
:102440001E780123A2602673DDE90001C8E90001BE
:102450003D80DBE708B5202383F3118862B641F2A3
:102460003C03C05800F03EFF002383F3118862B69E
:1024700008BD00BF2DE9F84341F24A43C55C002D79
:102480006CD1037A032B02D02846BDE8F883002ADA
:1024900000F00981AE462F462B4604E00133013798
:1024A000DBB293420FDA1CB251F8346001EBC40482
:1024B000002EF3DB6468002CF0DA01330EF1010E1C
:1024C000DBB29342EFDB0446202383F3118862B62C
:1024D000BEF1000F46D0BEF14F0F00F2D180DFF801
:1024E000D8C14FEA0E467348DCF800300EEB030803
:1024F00046EA83061844636ACCF80080CEF1500E99
:10250000C3F884608000666AE060D6F8803043F0EB
:102510003003C6F88030D4F80C8062B34FF0000C62
:10252000DFF8A091634603E00133DBB2934222DA85
:1025300018B251F8306001EBC000002EF4DB4068A7
:102540000028F1DA00F07F0009EA064640F0084072
:10255000064348F82C600CF1010CE5E700252846FD
:10256000BDE8F883406A4FF0500ED0F8803043F059
:102570000203C0F8803077BB626A4F49D2F88030DE
:102580000F6843F00103C2F880304A4B4B4A3B448A
:102590009B009342236200F28980626A936923F070
:1025A0000103936100F0FAFF064604E000F0F6FF35
:1025B000801BFA2808D8636A9B69DB07F6D40123DD
:1025C00041F24A421D46A354002383F3118862B6A8
:1025D0002846BDE8F883B7EB5E0F3ED2DFF8D8E0BF
:1025E0003E043448DEF8003046EA8306184403EB24
:1025F0004707636A8000C3F88860666A2061D6F87E
:102600008030CEF8007043F00C03C6F88030D4F868
:1026100010C0002AB9D000273B461EB251F8360040
:1026200001EBC6060028766801DB002E0EDB20F0E9
:10263000604026F060460CEBC70840F0005046F0C2
:1026400000464CF837000137C8F804600133DBB2AC
:102650009342E2DBDEF8007097E7626A936923F049
:102660000103936100F09AFF064604E000F096FF34
:10267000801BFA28A8D8636A9B69DA07A4D5F5E716
:10268000426A936923F00103936100F087FF0646D5
:1026900004E000F083FF801BFA2895D8636A9B69E9
:1026A000D90791D5F5E7964617460CE7044800F0A0
:1026B0006FFF00BF002B00105CBD0020FCB5004088
:1026C000748200080000FF07304B9842F0B545D9EE
:1026D00009260A2233462E4CB4FBF0F4B4FBF2F583
:1026E00002FB154212B90BE0022B35D9013BDBB2DC
:1026F0005A1C1E46B4FBF2F502FB1542002AF3D128
:102700006F1EB7F5806F27D2C6EBC6064FF47A7EF0
:10271000F21CD2105FFA82FC0132A3EB0C040EFB18
:1027200002FEE4B222449EFBF2F292B2B2F5617F65
:1027300009DDB6F1010C48BF06F1060CCCF3C70C5D
:10274000A3EB0C03DCB20CEB0403114A03FB0555AD
:10275000B2FBF5F5A84205D00020F0BD10261122ED
:102760003346B8E70CF1FF33621EDBB2D2B20F2B57
:1027700098BF072A94BF0120002005D800240F80AD
:10278000CB700A718C70F0BDF0BD00BF3F420F00EE
:1027900080F0FA02F0B541F264460022012700F50C
:1027A0008354064402F18303013200EB4313197989
:1027B0008D0713D5490711D42168456A07FA01F13D
:1027C000D5F8CCE011EA0E0F08D0C5F8D41019796D
:1027D00041F004011971336801333360202A04F198
:1027E0002004DFD1F0BD00BFF8B5064641F2380045
:1027F000DFF8B4E00024374606F138033044002502
:10280000002247F828EB23F8082C203343F8242C27
:1028100003F8182C43F8202C43F81C2C43E90C45F2
:102820008342F0D141F228044FF4805E41F23C052E
:1028300041F254033751344441F2300741F25440DD
:10284000C4F804E041F2340EF251012746F80E209C
:102850003344277406EB050E7451304400220024E3
:1028600000258EF8047043F8042C203303F8182C4C
:1028700043F8202C43F81C2C43F8142C43E90B4557
:102880008342F0D141F250430129F15405DC044B5D
:10289000304653F821307362F8BD024800F078FEEC
:1028A00098820008A0820008BC820008044B10B582
:1028B000197804464A1C1A70FFF796FF204610BD8F
:1028C00059BD0020F8B5114E114B3168446A8D0096
:1028D0000B4401F168020F4F9B0045F4D0159200A4
:1028E000E831C4F8A05003F5D075436103F568736F
:1028F00042F00052446ABB423160C4F8C020C56156
:10290000036200D8F8BD044800F042FE5CBD002020
:10291000002B0010FCB500407482000841F25043C7
:102920002DE9F047C35C88B0022B00F3B1809C4CCA
:1029300054F82350002D00F0DE809A4D41602C7831
:102940000272DCB9202383F3118862B6964B01270B
:10295000D3F8EC6046F48076C3F8EC60D3F894606A
:1029600046F48076C3F89460D3F8946026F48076B9
:10297000C3F894602F7084F3118862B641F2494322
:10298000914688460746C35C002B00F086802023D2
:1029900083F3118862B67A6A936923F01003936116
:1029A00000F0FCFD044605E000F0F8FD001BFA28ED
:1029B00000F290807B6A98690007F5D49A6942F02A
:1029C00001029A6100F0EAFD044604E000F0E6FD31
:1029D000001BFA287ED87B6A9A69D107F6D59A69D6
:1029E000002642F002029A617B6A5E6586F31188D6
:1029F00062B641F2480541F2484A41F23C033D4487
:102A0000BA44F85800F06EFC6C462022002168465B
:102A1000FFF7A2FB02968DF814602035039604960A
:102A20000FCC45F8200C45F81C1C45F8182C45F82F
:102A3000143C07CC237845F8100C05F8043C45F805
:102A40000C1C45F8082CAA45DED141F2484241F25F
:102A50004B43ADF80060BE548DF802608DF8036002
:102A60008DF80460FE54B8F1000F47D17A6A93697B
:102A700023F00103936100F091FD044604E000F0AF
:102A80008DFD001BFA2803D87B6A9B69DA07F6D410
:102A90000024204608B0BDE8F087202383F3118886
:102AA00062B641F25043414AC35CD35CD3B1012BBF
:102AB00007D10221142002F0C3F80221162002F0EF
:102AC000BFF841F2494201210023B95483F3118830
:102AD00062B65CE7002484F3118862B6204608B031
:102AE000BDE8F0870221132002F0AAF80221152088
:102AF00002F0A6F8E5E744F823001EE769464046E1
:102B0000FFF7E2FD04460028B0D09DF803303846B8
:102B10009DF802101B029DF804E0BDF8005043EA46
:102B200041617A6A2D0441EA0E012B432943204D6D
:102B300043EA0E13D1617A6AD3607B6AC3F8BC6042
:102B4000FFF7C0FE7B6A41F251416FF040424FF007
:102B500002207E544FF0FF311A6503227B6A9145B3
:102B60005D657B6A98657B6AC3F8E0107B6ADA650D
:102B70008FD07A6A936923F00103936100F00EFD10
:102B8000054604E000F00AFD401BFA2880D87B6A65
:102B90009B69DB07F6D441F24A430122FA5478E7F5
:102BA00050BD002058BD002000440258708200082B
:102BB000550200022DE9F04F41F2500841F25C4904
:102BC00089B0054616461F4680440024814441F2E0
:102BD0004C4A0BE055F80A3041F2784213B1AB5839
:102BE0000133AB50202C08F120083ED06B6A04F171
:102BF0008302D3F8D83005EB4212E340013413F0DE
:102C0000010FEFD013791907ECD4D9F8003041F255
:102C10004B410133C9F80030137943F008031371B5
:102C2000DB07D7D56B5C002BD4D0D8F8000003AB02
:102C3000D8F8082041F23C0BD8F804104FF0010EF0
:102C400007C398F80C2055F80B001A70ADF808E08F
:102C5000CDE9006700F052FB1F28BBD955F80B00E7
:102C60002022694600F0B2FBB4E709B0BDE8F08F5E
:102C70002DE9F0410F468CB0064600F091FC044669
:102C80000D46DFB9D6F824E0DEF8A03013F4FE0FCD
:102C900016D0DEF8A430990104D541F27042B35841
:102CA0000133B350DEF8A4305A0609D0DEF8A43060
:102CB0007069C3F3052C00EB0C1020E0012F03D04A
:102CC00000200CB0BDE8F081D6F824E0DEF8B0308A
:102CD00013F4FE0FF4D0DEF8B4309B0104D541F2BA
:102CE0007042B3580133B350DEF8B4305806E7D021
:102CF000DEF8B430B069C3F3052C00EB0C100268A9
:102D00000023510000938DF80C300193029335D4C9
:102D1000C2F38A430093930003D5009B43F08043A2
:102D20000093C188C31D01AA0F3001F00F018DF877
:102D30000C1013F8011F984202F8011BF9D11FBBB8
:102D4000CEF8A8C007AF41F23C084FF0000E9DE856
:102D50000F0007C756F808003B70ADF818E0CDE942
:102D6000044500F0CBFA1F2813D841F26C42012031
:102D7000B3580344B3500CB0BDE8F08122F0604377
:102D800043F000430093C6E7012FDBD1CEF8B8C073
:102D9000D8E756F80800202204A900F017FB2028E5
:102DA000E3D141F268420120B3580344B3500CB060
:102DB000BDE8F081F8B541F24B4504460E460127C7
:102DC000054400E02F7031462046FFF751FF0028F0
:102DD000F8D141F24C43E35823B141F27842A35871
:102DE0000133A350F8BD00BF08B5202383F3118839
:102DF00062B6416A0B6CC3F307432BB1096C41F215
:102E00007C43C150FFF7C6FC002383F3118862B6F0
:102E100008BD00BF2DE9F04F99469046202383F36B
:102E2000118862B641F2480200F5A35E0024012534
:102E3000024404F1830300EB431319794E071AD4BB
:102E4000C90618D59169476A05FA01F1D7F8CC602F
:102E5000314210D0D2E900ABCB4508BFC2450AD2FF
:102E6000C7F8D410197941F004011971DEF8003067
:102E70000133CEF8003001342032202CD9D1002388
:102E800083F3118862B6BDE8F08F00BF2DE9F041F1
:102E900000241F461546064688461470202383F3F7
:102EA000118862B641F23C03C05800F0FFF984F388
:102EB000118862B61F2894BF0020012088F8000006
:102EC00037B1726AD2F8C03013F07C5302D12B7044
:102ED000BDE8F081D2F8C43083F40013C3F340534B
:102EE000F5E700BF2DE9F04F994685B00B780E4607
:102EF0001746804602931378DDE90EAB039300F08A
:102F00004FFB337804460D460BB93B78DBB12246C4
:102F10002B464046FFF77EFF4046FFF765FF41F234
:102F2000514318F80320002A48D14B463A4631460F
:102F30004046FFF7ABFF33784BB1029B3BB101201A
:102F400005B0BDE8F08F002005B0BDE8F08F3B78FC
:102F500013B1039B002BF2D15D4508BF5445F2D25B
:102F600041F24C4358F803000028ECD0434401934D
:102F700010E03B7813B1039B002BE0D100F010FB75
:102F8000594504460D4608BF5045DCD2019B1868E0
:102F90000028D8D0BAEB040201686BEB0503C968BE
:102FA00088474B463A4631464046FFF76FFF337835
:102FB000002BDED0029B002BDBD0C0E7D8F824E04A
:102FC00041F274410020DEF8182022F00102CEF810
:102FD000182058F8012008F80300013248F80120B1
:102FE000A3E700BF38B51F4C2368002B2ED01E4A24
:102FF000116DC90726D51C4A0525184600211565FF
:10300000FFF7D8FE2368184A116DCD0602D4126D61
:10301000500607D5144A5025184601211565FFF7BB
:10302000C9FE2368596A0A6CC2F3074232B1096CBF
:1030300041F27C4218469950FFF7ACFBBDE838409E
:1030400001F02ABC126D5207D5D4DCE7064B0120F3
:1030500010214FF48052186519651A65BDE8384093
:1030600001F01ABC50BD002000A0004010B5214C5A
:103070002368002B32D0204A116D890513D41E4AD3
:10308000116D880106D54FF0007441F251410120C5
:1030900014655854596A0A6CC2F30742B2B9BDE8C4
:1030A000104001F0F9BB4FF40073136500F078FA9B
:1030B00002460B4652EA030103D012F1FF3243F1FC
:1030C000FF332068FFF776FD2368D8E7096C41F2EB
:1030D0007C4218469950FFF75DFBE0E7064B012064
:1030E00010214FF48052186519651A65BDE810402B
:1030F00001F0D2BB50BD002000A0004038B51F4CED
:103100006368002B2ED01E4A116DC90726D51C4AB4
:103110000525184600211565FFF74CFE6368184A1F
:10312000116DCD0602D4126D500607D5144A5025F4
:10313000184601211565FFF73DFE6368596A0A6C60
:10314000C2F3074232B1096C41F27C4218469950F1
:10315000FFF720FBBDE8384001F09EBB126D52071F
:10316000D5D4DCE7064B012010214FF480521865BE
:1031700019651A65BDE8384001F08EBB50BD0020CE
:1031800000A4004010B5214C6368002B32D0204AC7
:10319000116D890513D41E4A116D880106D54FF0B3
:1031A000007441F25141012014655854596A0A6C67
:1031B000C2F30742B2B9BDE8104001F06DBB4FF455
:1031C0000073136500F0ECF902460B4652EA030166
:1031D00003D012F1FF3243F1FF336068FFF7EAFCDE
:1031E0006368D8E7096C41F27C4218469950FFF7B2
:1031F000D1FAE0E7064B012010214FF48052186508
:1032000019651A65BDE8104001F046BB50BD0020AD
:1032100000A40040F0B50F4B002201204FF0320E09
:103220000D4F332602250D4C1A60DA619A60DA6080
:103230001A615A619A6183F800E05F601E779D779A
:103240001C625A629A62DA621A635A635870987002
:103250005877F0BD60BD00200D1002580E100258C6
:103260000FB4002004B07047BFF35B8F8368BFF3D7
:103270005B8FBFF35B8FC268BFF35B8F934203F139
:10328000FF3394BF42680022BFF35B8FC0681344D2
:10329000BFF35B8F181A704710B5037C044613B94F
:1032A000006804F0E3FE204610BD00BFBFF35B8F53
:1032B000C368BFF35B8FBFF35B8F8268BFF35B8F25
:1032C0009A4206D8BFF35B8F8068BFF35B8F181AF2
:1032D00070474268BFF35B8F8068BFF35B8F134416
:1032E000181A70470023BFF35B8FC360BFF35B8F77
:1032F000BFF35B8F8360BFF35B8F704743680BB98D
:1033000018467047FFF7B0BF10B50446FFF7CEFF71
:10331000884201D2002010BDBFF35B8FA368BFF3CA
:103320005B8F62681944BFF35B8F0120B1FBF2F33E
:1033300002FB1311A160BFF35B8F10BD38B543686A
:103340000BB9002038BD15460446FFF78DFFA84293
:1033500028BF28460028F4D02368BFF35B8FE268BB
:10336000BFF35B8F13440B606268BFF35B8FE3684E
:10337000BFF35B8FD21A824206D24A60821A236858
:103380000220CA608B6038BD4860012038BD00BF94
:1033900010B543680446ABB9994201D9002010BD6D
:1033A000BFF35B8FE368BFF35B8F62681944BFF3C1
:1033B0005B8F0120B1FBF2F302FB1311E160BFF35D
:1033C0005B8F10BDFFF750FF0346E5E72DE9F043A3
:1033D00085B0884681466946FFF7B0FF0746C0B111
:1033E00000246E4625465DF834000134726808EB0F
:1033F0000501FEF775FE7368BC4206F108061D4420
:10340000F1DB48462946FFF7C3FF284605B0BDE873
:10341000F0830546F5E700BFBFF35B8FC368BFF3DA
:103420005B8FBFF35B8F8268BFF35B8F9A4288BF6D
:103430004368BFF35B8F8268BFF35B8F9B1A0B609F
:103440003BB10368BFF35B8F8068BFF35B8F1844A9
:1034500070471846704700BF70B5144682B00646E4
:10346000FFF724FF8442019028BF044614B9204688
:1034700002B070BD0D46304601A9FFF7CDFF019A9D
:103480007AB1A242286008D86A6012D23368A41ABE
:103490000220AB60EC6002B070BD01206C6002B035
:1034A00070BD33680120AA60EA6085E8180002B0A8
:1034B00070BD0120DCE700BFF0B585B00F4669465E
:1034C000FFF7CAFF064680B1002425460DEBC40372
:1034D0005DF83410013478195A681544FEF700FE7F
:1034E000B442F3DB284605B0F0BD0546284605B0DA
:1034F000F0BD00BF38B50546FFF7DEFF04460146C4
:103500002846FFF701FF204638BD00BFFEE700BF99
:1035100000B59BB0EFF3098168226846FEF7E0FD35
:10352000EFF30583044B9A6BDA6A9A6A9A6A9A6A8D
:103530009A6A9A6A9B6AFEE700ED00E000B59BB0CC
:10354000EFF3098168226846FEF7CAFDEFF30583B1
:10355000044B9A6B9A6A9A6A9A6A9A6A9A6A9B6AFE
:10356000FEE700BF00ED00E000B59BB0EFF309817E
:1035700068226846FEF7B4FDEFF30583034B5A6BF0
:103580009A6A9A6A9A6A9A6A9B6AFEE700ED00E074
:103590000FB408B5029802F059FBFEE703F00CB82F
:1035A00002F0F6BF0A44914230B4094D0DD011F833
:1035B000013B0824584040F30003013C03EA0503A3
:1035C00083EA5000F7D19142F1D130BC704700BF7F
:1035D0002083B8ED2DE9F043B1F81690C9F3090442
:1035E000062C00F0AE80052CA1461FFA83F800F2ED
:1035F000CA80B8F1000F00F09C802546561E0024BA
:1036000002E0444500F0958005F1010C4F190134AA
:1036100016F801EF1FFA8CF5A4B287F81AE0062D10
:10362000EFD1A04540F28580A9F10606DFF85CE104
:103630004F68B508AEFB05E5C5EBC505A6EB8505EE
:103640001FFA85F8002F00F08280D7F800E0BEF165
:10365000000F00F09580012500E0B6460135DEF848
:103660000060ADB2002EF8D19E1F484F4E44B60800
:10367000A7FB06760136B6B2AE4215D9B8F1000FF7
:1036800012D10768002F75D0C588B0F808C0013581
:103690003E68ADB20660AC45C58056D300253D609E
:1036A000A846CEF80070BE461FFA83FC4FF0000912
:1036B00064452ED208F10103165D0EEB08050134B6
:1036C0009BB2A4B22E711C2B0CD05D1C64450EEB7A
:1036D000030704F10106ABB2EAD0155D1C2BB4B2AE
:1036E0003D71F2D16445E3D20668E6B1C38807892B
:1036F000013335689BB205609F42C38000D20381CD
:103700006445C6F800904FF00008CEF80060B64659
:10371000D0D3CB8A0120C3F3090294446CF309038C
:10372000CB82BDE8F0836FF00200CEF80060BDE808
:10373000F083CB8AC844012068F30903CB82BDE83B
:10374000F083C9F3090900246EE70581A6E707683D
:1037500097B1C588B0F808E001353E68ADB20660A3
:10376000AE45C58000D205810025BE463D60A84615
:103770004F6099E7CEF800706FF00200BDE8F0836B
:10378000BE46012570E700244BE700BF254992247F
:103790002DE9F04F01F00705099C2A44954230D0ED
:1037A000C90804F0070E4FEAD4084FF47F490844D3
:1037B0000EF0070A05F0070B561BE908D3455C46D7
:1037C000415C08EBDE0C38BF544601FA0BF113F8EC
:1037D0000C70C4F1080421FA0AF1B44281EA07012D
:1037E00028BF344629FA04F62544A644F4B2AA4276
:1037F00044FA0AF401EA040187EA010703F80C70AD
:10380000D6D1BDE8F08F00BF0368A3B110B4C28861
:10381000018901321C6892B204609142C28038BFB3
:103820000281002218461A605A609A60DA601A61B2
:103830005DF8044B70471846704700BF70B588B0FC
:1038400004460E46202268460021FEF785FC2568C6
:103850000496A5B1E3882289013329689BB22160CF
:103860009A42E38038BF23816C460FCC28606960A0
:10387000AA60EB600FCC28616961AA61EB61284600
:1038800008B070BD2DE9F04188460168002944D098
:10389000D8F804300A460F4623F0604EDE0FC3F31B
:1038A000807C4FEA9E4515EA230538BF754653686C
:1038B000B6EBD37F23F0604413D0002B1CDBAC426B
:1038C00005D023469D422CBF00230123BBB91368BA
:1038D0001746E3B11A465368B6EBD37F23F0604432
:1038E000EBD1C3F38073634501D07445EED07445CA
:1038F00094BF00230123E9E7A30CAB42E2D191423C
:1039000009D0C7F80080C8F80020BDE8F081C2F8EF
:103910000080BDE8F081C8F80010C0F80080BDE864
:10392000F08100BF2DE9F04F85B0DDF838A0BDF87B
:103930003C50002A00F092801DB1BAF1000F00F057
:103940008D80072D009202938946804664D9002617
:1039500000F10C021B0A4FF0800B374634460192EF
:1039600003930198FFF750FF864600284ED0002CA5
:1039700048D19DF808200223027219469DF80C20B8
:1039800042720322A54201D816E019464B1C04F1ED
:10399000010C0EEB01021AF80400DBB21FFA8CF4E2
:1039A0001072062B94BF01220022A54298BF00226C
:1039B000002AEAD10231CAB20099A54208BF4FF0ED
:1039C000400B734449F0004C08787146013600F012
:1039D0001F0036B240EA471087F001074BEA000BA0
:1039E00008F11C0083F808B04FF0000B8EF810208F
:1039F000CEF804C0FFF746FFA542B2D1304605B06D
:103A0000BDE8F08F002301221946BBE76FF00206E4
:103A1000304605B0BDE8F08F0C30FFF7F5FE0446E8
:103A20000028F3D0012651462A460830FEF758FBFD
:103A3000AA1949F000432544227408F11C00009A99
:103A40002146127802F01F0262F03F022A72636080
:103A5000FFF718FF304605B0BDE8F08F6FF00106A4
:103A6000CCE700BF2DE9F04190460C46242200210E
:103A700007461D46069E4FEA5818FEF76DFB4FF6A7
:103A8000FF71434600228845BD607E6028BF0B461B
:103A900007993A7039629DB207F10C0153B15A018E
:103AA0002346A0180B60194620338342FAD1A2F1B5
:103AB0002003E11800230B607B82BB823D82BDE8BE
:103AC000F08100BF03781BB94BB2002BC8BF017057
:103AD000704700BF007870472DE9F04782B00D9E17
:103AE000BDF83870B6FA86F1BDF82890002F0B9D0E
:103AF0004FEA51119DF830C008BF0021002940F065
:103B00009E80BCF11F0F94BF00240124002C40F0C4
:103B10009680017809BB072F00F2948039F00303E7
:103B200040F08D8006EB070834464FF6FF7341F2F4
:103B3000210E444563D014F8011B082283EA0123B7
:103B400004E08BB2013A12F0FF02F2D059001B04DC
:103B5000F7D58BB283EA0E03F4E741EA0921072F78
:103B600041EA0C6168D9A04641F221094FF6FF7481
:103B7000C8F1200E22FA08FCA8F1200A03FA0EFE72
:103B800023FA0AFA4CEA0E0C4FF0080E4CEA0A0C23
:103B90005FFA8CFC84EA0C2406E00EF1FF3E1FFA6B
:103BA0008CF41EF0FF0E0CD04FEA440C2404F4D524
:103BB0000EF1FF3E1FFA8CF41EF0FF0E84EA09049A
:103BC000F2D108F10808B8F1400FD1D106EB07088F
:103BD000B64641F2210CF0451ED01EF8012B0823F9
:103BE00084EA022404E094B2013B13F0FF03F2D014
:103BF00062002404F7D594B284EA0C04F4E74FEA97
:103C0000092147F6FE724FF6FF7401F440711A4025
:103C100041EA0C6C4CEA42212346019700962A4661
:103C2000FFF780FE2B780133DBB21F2B88BF002308
:103C30002B7002B0BDE8F0874FF6FF74ECE76FF031
:103C40000100F6E76FF00300F3E700BF2DE9F0474E
:103C500082B0DDF838E0BDF83CC0BEFA8EF49DF8C5
:103C60002880BCF1000F9DF830504FEA54149DF8A5
:103C7000347008BF0024002C71D11F2D94BF002484
:103C80000124002C6BD10678002E6BD00902BCF108
:103C9000070F41F0800141EAC73141EA084141EA9A
:103CA000060141EA056142D9A04641F221094FF6D9
:103CB000FF74C8F1200522FA08F6A8F1200A03FAD9
:103CC00005F523FA0AFA2E43082546EA0A06F6B253
:103CD00084EA062404E0013DB4B215F0FF0509D0E2
:103CE00066002404F7D5013DB4B215F0FF0584EA5F
:103CF0000904F5D108F10808B8F1400FD9D10EEB4D
:103D00000C08754641F22106454512D015F8012BE5
:103D1000082384EA022404E094B2013B13F0FF0379
:103D2000F2D062002404F7D594B27440F5E74FF660
:103D3000FF74CDF804C02346CDF800E00B9AFFF7DE
:103D4000F1FD012F08D10B9B0B9A1B780133DBB2DD
:103D50001F2B88BF0023137002B0BDE8F0876FF0FF
:103D60000100F9E76FF00300F6E700BFC06900B19A
:103D700004307047C269C3681168C1611360438A27
:103D8000C260013B438270472DE9F04F0E681D462B
:103D900091B01446C6F3C013002B41D1002E4FF052
:103DA000020943DA16F0C04F40D10A7B002A3DD009
:103DB000B9F1020F00F0F68007789F4240F093823D
:103DC000C6F30467C6F3074A069706F07F07029713
:103DD0000A440E46CDE904455D0692F80380029B35
:103DE000044645EA094545EA0A0545EA83455FEA8E
:103DF000D813039340F01981876967B13B699D42ED
:103E000022D0DDF808B003E03B699D4200F0C78096
:103E10003F68002FF8D16FF00C0011B0BDE8F08FB3
:103E2000002EC6F3C039C6F30623BBDB6FF00900D2
:103E300011B0BDE8F08F0830402840F09981DDF8DE
:103E40001C80CDF808B0BA8297F817C008F01F059B
:103E5000CCF38401D7E90223691A52EA03001FFA5E
:103E600081FB0CBF4FF0010E4FF0000EDDE90401A5
:103E7000801A61EB03010246A8480B4600219942D3
:103E80000FFA8BF308BF904234BF01220022002BAF
:103E9000C0F2E080BEF1000F05D122B9012B7ADD1E
:103EA000039B002B77D0FA7D7B6868F386026FF363
:103EB000C712FA7573B1DDF808B0E26819681A60C4
:103EC000628AE3600B46013A628279600029F4D18C
:103ED000CDF808B0FB8A6FF30903FB82039B002B2C
:103EE00000F0408218F0400F40F0C58197F817C0ED
:103EF000C8F34013B3EBDC1F40F0F881CCF384002F
:103F0000A84240F01382039B002B59D15FEA98131B
:103F100000F04D81B7F816C0327BCCF3090C013AA2
:103F2000BCF1050FD2B240F29D807B68002B00F0FF
:103F3000B3801868002800F022820621DDF808B05E
:103F400000E0184603681C31002BFAD1CDF808B008
:103F5000ACEB0101002A00F003821B2900F2008271
:103F600001F1040E0023DDF808B0704401E09A422C
:103F70000AD906EB030E013101339EF804E01B2938
:103F8000DBB200F801EBF2D9B7F816C0CDF808B0F3
:103F9000CCF3090C80E0039B002BA9D0A2E7CDF85D
:103FA00008B051E7C6F30467C6F30F2A069706F078
:103FB0007F07760602977FF40BAF0AF0030A07E744
:103FC00018F0400FA6D1337B032B40F2D581B51DED
:103FD000394604F10C002A46DDE90489C7E9028963
:103FE000337B033BDBB2FFF7F5FA0028C0F2A18177
:103FF000B38841F22100BA8A3B83347B033C55FAF3
:1040000084F4A54200F02D8115F8011B082382EAF3
:10401000012204E08AB2013B13F0FF03F1D051000A
:104020001204F7D58AB24240F5E7002000210DF1D5
:10403000400E029B524600934B4667686EE90801AA
:1040400020467146B84700286AD16FF00B0011B0C6
:10405000BDE8F08F0BF120031BB2BEF1000F3FF45F
:104060001CAF20E76146002A00F07A810CF11A00AB
:104070000023DDF808B0384401E09A420AD906EB83
:10408000030E013101339EF804E00529DBB200F88C
:1040900001EBF2D9CDF808B007F11A0E9342DDE931
:1040A0000401CDF828E0CDE9080179680B9180F092
:1040B000D6800433334462444FF0000E0C93331D1A
:1040C000ADF8342041F221019DF818201846ADF8D2
:1040D00036A08DF83A209DF808208DF838908DF89C
:1040E00039508DF83B20C7F804E0367BBA8A013E90
:1040F0001E44B04200F0858010F8015B082382EA7C
:10410000052204E0AAB2013B13F0FF03F1D05500F1
:104110001204F7D5AAB24A40F5E700BF80841E001A
:10412000A769002F00F02E81DDF808B03B699D42A1
:1041300000F013813F68002FF8D1294604F10C00EC
:10414000CDF808B0FFF77AFB0746002800F023817E
:10415000A3693B60A761089B0020CDF81C804FF647
:10416000FF72DDF824C041F2210EDDF808B0984658
:10417000C0F1200328FA00F1A0F120050CFA03F3A6
:104180002CFA05F5194308232943C9B282EA012212
:1041900005E08AB2013B13F0FF033FF44CAE150477
:1041A0004FEA4201F5D58AB282EA0E02F2E7337B8A
:1041B00006F10408394604F10C00013B4246DBB22B
:1041C000FFF708FA0028C0F29480357B4046BA8A8F
:1041D00041F22104013D58FA85F5A84241D010F87A
:1041E000011B082382EA012204E08AB2013B13F09A
:1041F000FF03F2D016044FEA4201F6D58AB26240BC
:10420000F4E73B8BBA82934200F0A2800B9B5BB138
:10421000E0681A6818601846618AE360134601393D
:104220000B926182002AF4D10022ADF83420FB7D8C
:10423000BC8AC3F38401388B0131844214BF11203E
:10424000104661F38603FB75FB8A62F30903190AC2
:10425000FB8262F3C711F97511B0BDE8F08F00233E
:1042600029E7FB7D0020BA82DA43C2F3C01262F371
:10427000C713FB75D1E52022002104360DEB0200A7
:10428000DDE904BCC7E902BCFDF766FF337A9DF89F
:1042900018202046013B08A98DF83A20DBB29DF892
:1042A0000820ADF836A08DF83B20ADF834308DF8FD
:1042B0003890A3688DF839500A96DDE904BCCDE941
:1042C00008BC9847FB7D0020C3F38402013262F3EF
:1042D0008603FB75FB8A6FF309031A0AFB826FF3EF
:1042E000C712FA7599E56FF00A0096E56FF00D00B8
:1042F00093E57B6853B1E26819681A60628AE360EB
:104300000B46013A628279600029F4D1FA8A0320CF
:104310006FF30902C2F30723FA82C3F38402013266
:1043200062F386036FF3C713FB7576E56FF00E003B
:1043300073E57B68002BE9D0E26819681A60628A2D
:10434000E3600B46013A628279600029F4D1DDE72F
:10435000A36808A92046984758E7CDF808B0FAE6C0
:10436000002399E6FB7D6FF00C00C3F38402013259
:1043700062F38603FB7550E56FF00F004DE51846BC
:104380000621E5E5294604F10C00FFF757FA074638
:1043900000287FF4DFAE6FF002003EE52DE9F04328
:1043A000D0F818E0BEF1000F30D016461F46714617
:1043B000DFF8A4804FF00009D1E90245341B67EB18
:1043C0000505A94508BFA04540D283698B424B68CB
:1043D0001ED053B1C2681C681A60428AC36023466B
:1043E000013A42824C60002BF4D1CA8A0B686FF309
:1043F0000902CA82CEF80030C3680B60438AC160EC
:10440000013B4382DEF800100029D5D1BDE8F083DE
:1044100053B1C2681C681A60428AC3602346013ADD
:1044200042824C60002BF4D1CB8A6FF30903CB821C
:104430008269C368126882610B60438AC160013B74
:10444000816943828E460029B6D1DFE78E4609682E
:104450000029B1D1DAE700BF80841E002DE9F04FBA
:104460008BB0039205930490002800F02081149DE6
:10447000002D00F01C810C461146013A1E46D3B2B5
:1044800007923F2B00F213813346012914BF00230A
:1044900003F00103002B40F00A81818A0893CA00CF
:1044A0000993944280F0B880039BE3189A42C0F0CD
:1044B0009180039B0693049BDE68002E00F016811A
:1044C0002F2C40F2AD80069F002317F1000A0293C3
:1044D00018BF4FF0010AA64B0B444FEAC308002E49
:1044E00000F04181BAF1000F00F03D8130210CE075
:1044F00017F1000A3668A8EB0908294618BF4FF0E3
:10450000010A8EB3BAF1000F2ED0B8F1E00FC14608
:104510003A4628BF4FF0E00909EB0105A542A5EB9B
:104520000403E5D94FF0000A9F42D34608D3DAB21C
:10453000A7EB020B17461BF0FF0B18BF4FF0010A49
:10454000029B08A8611A144400930346301DA8EB8F
:104550000908FFF71DF9029B36682946FB185F46DC
:10456000DBB20293002ECDD1049B186910B1BAF1D1
:10457000000F6CD1069B18B2002B4DD0039A550743
:104580000BD00AA9534201EBD20203F0070312F841
:10459000081C41FA03F302F8083C039B082B1DD9C1
:1045A000102B68D8059A0223E2B9039B012B2CD06B
:1045B000039B082B29D9039B102B71D9039B202B1C
:1045C00040F290801499DDE90823C1E900230BB083
:1045D000BDE8F08F121BD3B206936CE70123059A56
:1045E000002AE2D00399B1EBC30F65D0082947D860
:1045F0009DF82030079A23FA02F2D40705D54FF030
:10460000FF328A4013438DF820309DF82030149AF1
:1046100013700BB0BDE8F08F00200BB0BDE8F08F39
:104620000698C4F130039842024618D24FF0000AAF
:10463000069B57460293049D002108ABA868009191
:1046400021461444FFF7A4F8A98AEE6843E7029BC9
:104650003A46611B009308ABFFF79AF88AE7DBB292
:10466000C71A02931A4617F0FF0714BF4FF0010A4A
:104670004FF0000ADFE7212B34BF04230823AEE705
:104680000399102920D8BDF82030079A23FA02F2A6
:10469000D20705D54FF0FF328A401343ADF82030E2
:1046A000BDF82030149A13800BB0BDE8F08F6FF086
:1046B00001000BB0BDE8F08F039B082BA5D9039B2D
:1046C000102B3FF67CAFEBE7039920291BD8089A03
:1046D000079B22FA03F3DB0704D54FF0FF338B402F
:1046E00013430893089B149A136092E71A69002AEF
:1046F0007FF4E6AE049B2146986808AB0092069AC8
:10470000FFF746F836E7039F402F2ED0079DA7F10D
:1047100021010023C5F12006DDE9088928FA05F208
:1047200009FA06F629FA01F132430A4302F00102BE
:1047300013433FF447AF3E460121203F3446C6F1C4
:10474000200601FA07F301FA04F221FA06F65242B2
:1047500043EA060363EB430348EA020449EA03051C
:10476000CDE908452EE73025FEE66FF0080050E75A
:10477000FAFFFF1F402AF0B5864685B019D83ABB2C
:1047800002A8029242601D780722012400238DF8BE
:10479000085004AD2B4413F8085C05FA02F203F844
:1047A000082C0091734622460021FEF7F1FF05B068
:1047B000F0BD4024002502A82246D3E90067CDE9D8
:1047C0000267002DEDD06542D30805F00702E0E74F
:1047D000002402A8012A02944460D4D0082A08D8F0
:1047E0001B7802F0070514468DF80830002DD8D04C
:1047F000E9E7102A08D81B8802F007051446ADF82F
:104800000830002DCDD0DEE7202A07D81B6802F043
:10481000070514460293002DC3D0D4E702F0070524
:104820001446CAE7EFF30983054968334A6822F062
:1048300001024A6083F30988002383F311887047DB
:1048400030EF00E0F0B4202484F3118862B60D4B01
:104850004FF6FF020C491026D8680C4D10400C4F43
:104860000C4A0143D960E96841F08071E960C2F8FF
:10487000B07F116841F001011160DE7783F82240BA
:10488000F0BC704700ED00E00003FA05F0ED00E039
:1048900055CEACC5001000E0202383F311880F4BE8
:1048A0005B6813F4006302D183F31188704710B57D
:1048B000F1EE103AEFF309844FF08072683C084B38
:1048C000E261DB68236684F3098801F067F910B1BF
:1048D000044BA36110BD044BA36110BD00ED00E0CB
:1048E00030EF00E01307000816070008054B002210
:1048F00003F180011A60083343F8042C8B42F9D18C
:10490000704700BF9CBD0020024A136843F0C003FB
:104910001360704700440040024A136843F0C0032C
:10492000136070470048004070B51B4D82B01B4CAF
:1049300028461B4E00F03EFB05F1140000950023B5
:104940004FF40072174900F0F9F905F138004FF4FF
:10495000007215490095154B00F078FA144B20466B
:104960002E66EB6500F026FB04F114000094002392
:104970004FF400720F4900F0E1F9009404F138009F
:104980000D4B4FF400720D4900F060FA0C4B266697
:10499000E36502B070BD00BF1CBE002088BE0020D1
:1049A00000E1F505F4BE0020F4C20020094900082A
:1049B00000440040F4C0002019490008F4C400205D
:1049C000004800402DE9F043002938D0037C40F234
:1049D0002D154A680F68012B8E6802F4004CCC68D4
:1049E0004FEA570345EA020502F4806E46F040069E
:1049F00044F001044BD08166016E0B44C16DB3FBE2
:104A0000F7F3BCF1000F05D023F0070703F007030D
:104A100043EA47034FF0FF37CB604E608C600D6078
:104A20000F62BEF1000F22D012F010224CD0B2F172
:104A3000805F45D13F2380F86430BDE8F083047C7B
:104A4000012C19D0036E40262A49012503F596430F
:104A5000C26D294F40F22D14A1FB03134FF0FF311B
:104A600087661B0BD3605660956014601162FF234C
:104A700080F86430BDE8F0838E468C460A4640F2EA
:104A80002D1540264FF496434FF416471A49DFF888
:104A90006C8040451DD0DFF868804045ABD1DFF821
:104AA0006480D8F8E89049F48029C8F8E890D8F8EC
:104AB000109149F48029C8F81091D8F810819AE72C
:104AC00080F86470BDE8F0837F2380F86430BDE82F
:104AD000F083DFF83080D8F8E89049F40039C8F85E
:104AE000E890D8F8109149F40039C8F81091D8F836
:104AF000108180E7B5814E1BF08200081CBE0020AB
:104B000088BE0020004402582DE9F047C56D0646D6
:104B1000D5F80090EC6921072C6262D1E1050DD532
:104B2000202383F311887368B26843F400737360C1
:104B30000AB1301D9047002383F31188A20610D5D7
:104B40004FF02008002788F311886B6A304696F8EA
:104B50006410194000F048FA87F31188EC69A30645
:104B6000F1D419F0800F22D0200620D506F13808A4
:104B700020274FF0000A05E0A8628AF31188EC694B
:104B8000210614D587F31188404600F097F90028D4
:104B9000F2DA7368B26843F0080373600AB1301D3B
:104BA000904729F0800300222B6082F3118819F0CE
:104BB000400F0BD0620609D5202383F31188F26CD5
:104BC000336D9A422DD0002383F31188E30606D576
:104BD000B26E13691BB15069BDE8F0471847BDE8D4
:104BE000F08714F0080F14BF80230023E2074FF072
:104BF000200248BF43F02003A70748BF43F040030B
:104C0000600748BF43F4807382F311887268301DD7
:104C1000B1681343736001B18847002383F311889F
:104C20007CE7336C002BCED07368B26843F010037E
:104C300073600AB1301D904729F040032B60C2E732
:104C400030B4094A440900F01F050901012310444A
:104C5000C9B2AB4002EB840580F80013C5F880317F
:104C600042F8243030BC704700E100E0F8B515464A
:104C7000826804460B46AA4200D28568A16926696B
:104C8000761AB54219D30AD818462A46FDF728FAEB
:104C9000E368A361A36828465D1BA560F8BDAF1B50
:104CA00032461846FDF71CFA3A463044E168FDF7F3
:104CB00017FAE2683A44A261ECE718462A46FDF783
:104CC0000FFAA3692B44A361E4E700BF8368934212
:104CD0002DE9F04104460F4612D2856826696069C5
:104CE000361AB54212D319D839462A46FDF7F8F9D3
:104CF000E3686361A36828465D1BA560BDE8F08199
:104D0000606915462669361AB542ECD239462A46FC
:104D1000FDF7E6F963692B446361EBE7A5EB060851
:104D200032463946FDF7DCF94246B919E068FDF72D
:104D3000D7F9E26842446261DCE700BF30B4029C0C
:104D400000250A4400608560046240600261C16021
:104D500081614161C36130BC704700BF43698269B2
:104D6000934211D0826810B501325C1C82604461AC
:104D70001970426903699A4201D3C36843610021F3
:104D800000F0F4FF002010BD8268002AEAD04FF046
:104D9000FF30704770B5202304460E4683F3118818
:104DA00003E000F0CFFF002819DBA568314620465C
:104DB000002DF6D0A169A3684A1C2069013B8242FC
:104DC000A261A3600D7801D3E368A361E3690BB12D
:104DD00020469847002383F31188284670BD85F349
:104DE000118870BD2DE9F04F83B09A46C7694FF026
:104DF0002008019288F31188BAB106460D46144680
:104E00004FF00009224629463046FFF72FFF834620
:104E1000A0B1304607B1B84789F31188A4EB0B0461
:104E20005D4488F31188002CECD10024002383F327
:104E30001188019B181B03B0BDE8F08F5146304626
:104E400000F080FF0028DDD0F0E700BF30B4029C06
:104E50008D1800600561046240608260C1608161FC
:104E60004161C36130BC7047F8B504460F46164631
:104E7000202383F3118803E000F064FF002819DB8E
:104E8000A56831462046002DF6D06269A368511C02
:104E9000013B6161A3601770626923699A4201D383
:104EA000E3686361E3690BB120469847002080F313
:104EB0001188F8BD85F31188F8BD00BF38B5426987
:104EC00083699A420FD08268591C05690132816159
:104ED000A94282601C7801D3C3688361002100F07D
:104EE00045FF204638BD8268002AECD04FF0FF30E5
:104EF00038BD00BF2DE9F04F83B09A46C7694FF027
:104F00002008019288F31188BAB106460D4614466E
:104F10004FF00009224629463046FFF7D7FE834668
:104F2000A0B1304607B1B84789F31188A4EB0B0450
:104F30005D4488F31188002CECD10024002383F316
:104F40001188019B181B03B0BDE8F08F5146304615
:104F500000F0F8FE0028DDD0F0E700BF1430FFF7C6
:104F600041BF00BF14304FF0FF33FFF73BBF00BF1E
:104F70003830FFF7BFBF00BF38304FF0FF33FFF7C7
:104F8000B9BF00BF1430FFF705BF00BF14304FF0AA
:104F9000FF31FFF7FFBE00BF3830FFF765BF00BF2E
:104FA00038304FF0FF32FFF75FBF00BF002070477F
:104FB000FFF7BABC00230449012201600274436078
:104FC0008360C360704700BF0883000810B52023CA
:104FD000044683F31188FFF7F5FC022200232274B4
:104FE00083F3118810BD00BFC36910B5044682B0B9
:104FF0004BB94368826843F0040343601AB104303C
:1050000001919047019904F11400FFF7A7FE0028D1
:1050100001DB02B010BD6368201DA26843F4806309
:105020006360002AF5D002B0BDE81040104700BF11
:1050300030B5446B41F6A40583B062591368197802
:10504000042901D003B030BD217C0229FAD11079A6
:105050000122198902FA00F30B42F3D101A904F1EC
:105060004C0002F027FB64590246019B217920681D
:1050700000F01EFAE6E700BF143002F085BA00BF68
:1050800014304FF0FF3302F07FBA00BF4C3002F013
:105090007DBB00BF4C304FF0FF3302F077BB00BF49
:1050A000143002F041BA00BF14304FF0FF3102F06B
:1050B0003BBA00BF4C3002F037BB00BF4C304FF062
:1050C000FF3202F031BB00BF70B541F6A406835930
:1050D0001A681178042901D0012070BD017C0229D1
:1050E000FAD11979012354898B401C40F4D105462B
:1050F000143002F0DFF90028EED0AD5902464FF42B
:1051000040732868697900F0BDF9204670BD00BF82
:10511000406BFFF7D9BF00BF00207047704700BF4A
:10512000F0B5002385B00446012504261149124F2D
:1051300000F184020290143040F8141C294640F813
:10514000103CA360E3604FF4407325748DE8C00009
:1051500002F08AF9094B294604F69442019304F1BE
:105160004C004FF440730294009602F07DFA05B0B3
:10517000F0BD00BF30830008115100083150000815
:1051800010B420230A6883F311880B790B3342F89B
:1051900023004B79133342F823008B7913B10B337F
:1051A00042F8230041F6A4040222002301510274B4
:1051B00083F311885DF8044B704700BF38B5037F57
:1051C00013B190F85430D3B943680446826843F071
:1051D000020343600AB104309047012504F1140032
:1051E0006FF00101257700F0D1FD84F8545004F1EF
:1051F0004C006FF00101BDE8384000F0C7BD38BD7C
:105200004368826843F0010310B5044643600AB165
:10521000043090470023237784F8543010BD00BF3A
:1052200038B504460025143002F036F9257704F12C
:105230004C0002F031FA6368A26843F0010384F87D
:10524000545063600AB1201D90472046BDE83840A5
:10525000FFF73ABF90F8803003F06003202B01D0B5
:105260000020704710B490F881300246212B0DD0F9
:10527000222B05D0202B09D000205DF8044B70476D
:105280000023012053679367D367F6E7044C072197
:105290000023012054679167D3675DF8044B704782
:1052A0003081002070B541F6A40582B042591368E0
:1052B0001978042901D002B070BD017C0229FAD10D
:1052C00014790122198902FA04F30B42F3D100F197
:1052D0004C060446304602F0C7FA0028EBD001A97C
:1052E000304602F0E7F964590246019B21792068B3
:1052F00000F0DEF8DFE700BF01F10B03F0B550F876
:10530000234083B00CB306460D46202383F3118857
:105310006368A26843F0080363600AB1201D9047E8
:1053200006EB85074C34FB685B691B68FBB92046BC
:1053300001A902F0BFF950B1024629463046019B4F
:1053400000F0B6F8002383F3118803B0F0BDFB68CA
:105350005A691268002AF5D01B8A013B1340F1D12B
:10536000294606F18002304600F0A2F8EAE720461E
:1053700002F0AEF9DBE700BF133138B550F8214039
:1053800004B3202383F3118841F6A403E258136881
:10539000527903EB8203DB689B695D6865B16368E2
:1053A000A26843F0040363600AB1201D90472946B8
:1053B00004F1140002F08AF82046FFF785FE00236E
:1053C00083F3118838BD00BF704700BF01F062BA97
:1053D00030B40121002500F1500400F130030170C8
:1053E0002A462146456043F8042BA34241F8042B8A
:1053F000F9D10281428130BC704700BF38B5054603
:10540000202383F31188002400F1080300F12C020B
:10541000416043F8044F9342FBD1284601F05CFA07
:1054200002232B7084F3118838BD00BF10B4536978
:1054300000EB8104E26023B100241C605C609C608E
:10544000DC60936923B100221A605A609A60DA60C6
:105450005DF8044B01F094BB30B405890021448908
:1054600000F1100305F0010500F1300204F0010421
:105470000581448143F8041B9342FBD130BC01F009
:105480002FBC00BFF0B500EB810C0124B0F80AE09E
:105490000027DCF80C508C40AD6944EA0E044481CE
:1054A000AA6085E88800BDE8F04001F07BBC00BF41
:1054B000F0B500EB810C0124B0F808E00027DCF81F
:1054C0000C508C406D6944EA0E040481AA6085E8A2
:1054D0008800BDE8F04001F0F5BC00BF70B504469F
:1054E0000020022504F1080304F12C010246257076
:1054F000A4F8880084F88A0084F88B0020816081F9
:1055000043F8042F8B42FBD184F87020204601F031
:10551000C1FA63681B6823B120460021BDE87040D2
:10552000184770BD4368052201781B6880F88C100D
:10553000027010B504460BB1042198470023238163
:10554000638110BD426890F88C10126801700AB136
:1055500005211047704700BFF8B590F87030044639
:1055600013B1002380F8703004F18002204601F06E
:105570000FFC63689B685BB32046984740B3A16FFC
:1055800094F8803094F8870094F8862042EA00224C
:105590008A422CBF0A46A267190600F18B80002AB6
:1055A00058D10B22202384F8702083F3118822899C
:1055B0000025E368204642F0010229465B6922810A
:1055C0009D601D605D6001F07DFC85F31188F8BD74
:1055D00094F8803013F060061A4611D0002120465E
:1055E00001F01EFF0021204601F00EFF63681B68DA
:1055F00013B1062120469847062384F87030F8BD81
:1056000094F8810003F07F0540F2023145EA00255D
:105610008D4200F0FF8036D8022D00F0E48040F289
:10562000CE80B5F5817F00F00881B5F5407F00F0B0
:105630008680B5F5807FD1D194F88230012BCDD111
:10564000B4F88830666723F00203A667E667A4F81B
:1056500088305AE01522202384F8702083F31188C3
:1056600062890025E3682046676F42F001029B696A
:105670002946A66F62819F601E605D6001F092FB0B
:1056800085F31188F8BD40F201618D422CD9B5F542
:10569000106F63D040F60242954200F09C80B5F551
:1056A000006F9BD104F18B010122E667616711460F
:1056B000A26767E762B30922202384F8702083F38E
:1056C000118822890025E3682046676F42F00102B5
:1056D0005B692946A66F22819F601E605D6001F0B4
:1056E000F1FB85F31188F8BDB5F5C06F4ED2B5F565
:1056F000A06F7FF473AFB4F88030B3F5A06F00F003
:10570000BB8000236367A367E36713067FF549AF98
:105710001422202384F8702083F3118862890025E5
:10572000E368204642F0010229469B6962819D6040
:105730001D605D6001F036FB85F31188F8BD94F8BB
:105740008230012B7FF44AAFB4F88830666743F0AB
:105750000203A667E667A4F88830D6E72378042B0F
:1057600000F09C8094F882304BB16168042284F888
:105770008B300B68227013B102212046984700231A
:1057800094F880206367A367E367BEE794F88520F9
:105790002046616894F884304D6843EA022394F807
:1057A000831094F88220A84700283FF417AF90E8B0
:1057B0000A00E6676367A16794F88030E2E63DB9C6
:1057C00004F188010222E56761671146A267D9E604
:1057D000012D7FF403AF404902220020616711468A
:1057E000A267E067CEE694F88410204611F0800F9F
:1057F00001F00F0134D101F0AFFA012834D00228B2
:105800007FF4ECAE354B0146A0676367E66794F81A
:105810008030B7E694F88230002B7FF4DFAE94F846
:10582000843013F00F013FF46CAF1D0620464ED4B8
:1058300001F0EAFD94F8802063E794F88230002BB1
:105840007FF4CCAE94F8843013F00F013FF459AFDD
:105850001E06204636D401F0EFFD94F8802050E774
:1058600001F088FA0128CAD11D4B2946A567636754
:10587000E66794F8803085E694F88230204684F814
:105880008A3001F06FF963681B6813B1012120466B
:105890009847032394F88020237032E7202383F372
:1058A00011882046FFF7D8FD86F31188636803212D
:1058B00084F88B601B682170002B3FF453AF2046A7
:1058C00098474FE701F0C4FD94F8802019E701F0F4
:1058D000A7FD94F8802014E760830008588300082F
:1058E0005C83000838B590F870300446152B1CD83E
:1058F000DFE803F00B1B1B1B1B1B0B1B1B1C2C4390
:105900001B1B1B1B1B1B1B1B0B0B002101F088FD12
:105910000021204601F078FD63681B6813B1062161
:1059200020469847062384F8703038BD90F88710D9
:1059300090F88630826F43EA0123934206D9C36808
:105940001B8AB2FBF3F503FB1525EDB114222023CE
:1059500084F8702083F3118862890025E36820466B
:1059600042F0010229469B6962819D601D605D6075
:1059700001F018FA85F3118838BDC36F03B1984759
:10598000002384F8703038BD202383F31188028906
:105990002946C36842F001025B6902819D601D6077
:1059A0005D6001F08FFA85F311880A2384F8703066
:1059B00038BD00BF90F87020152A0DD840F641611F
:1059C00038B50123044693400B4212D113F48015DD
:1059D00003D19B021ED438BD7047C3689B695B68C6
:1059E000002BF8D1C36F03B19847002384F87030BF
:1059F00038BD002101F014FD0021204601F004FD16
:105A000063681B6813B1062120469847062384F873
:105A1000703038BD0B22202380F8702083F311886A
:105A200002892946C36842F001025B6902819D60D8
:105A30001D605D6001F046FA85F3118838BD00BF36
:105A4000202383F31188037C032B22D0042B1AD04C
:105A5000B3B100228168114B027410B44FF0FF34CF
:105A600044611B689A688A42FBD25A68002103602D
:105A700042601060586081F311885DF8044B7047F4
:105A800083F31188704790E80C001A600268536035
:105A9000DFE7436900221A60DBE700BFF4C600209D
:105AA000024B00221B605B609A607047F4C60020C6
:105AB00010B400220446084B816802741B689A687F
:105AC0008A42FBD25A6820462360626014605C60A0
:105AD0005DF8044B704700BFF4C60020074B1A68FE
