:020000040800F2
:1000000000060020F505000825310008DD30000855
:1000100005310008DD300008FD300008F705000854
:10002000F7050008F7050008F7050008E540000897
:10003000F7050008F7050008F7050008F7050008B0
:10004000F7050008F7050008F7050008F7050008A0
:10005000F7050008F7050008716B00089D6B0008A4
:10006000C96B0008F56B0008216C0008F705000853
:10007000F7050008F7050008F7050008F705000870
:10008000F7050008F7050008F7050008BD3000086F
:10009000F7050008CD300008F70500084D6C000892
:1000A000F7050008F7050008F7050008F705000840
:1000B000F7050008F7050008F7050008F705000830
:1000C000F7050008F7050008F7050008F705000820
:1000D000F7050008F7050008F7050008F705000810
:1000E000B16C0008F7050008F7050008F7050008DF
:1000F000F7050008F7050008F7050008F7050008F0
:10010000F7050008F7050008256D0008F705000849
:10011000F7050008F7050008F7050008F7050008CF
:10012000F7050008F7050008F7050008F7050008BF
:10013000F7050008F7050008F7050008F7050008AF
:10014000F7050008F7050008F7050008F70500089F
:10015000F7050008F7050008F7050008F70500088F
:10016000F7050008F7050008F7050008F70500087F
:10017000F7050008F9610008F7050008F705000811
:10018000F7050008F7050008F7050008F70500085F
:10019000F7050008F7050008F7050008F70500084F
:1001A000F7050008F7050008F7050008F70500083F
:1001B000F7050008F7050008F7050008F70500082F
:1001C000F7050008F7050008F7050008F70500081F
:1001D000F7050008E5610008F7050008F7050008C5
:1001E000F7050008F7050008F7050008F7050008FF
:1001F000F7050008F7050008F7050008F7050008EF
:10020000F7050008F7050008F7050008F7050008DE
:10021000F7050008F7050008F7050008F7050008CE
:10022000F7050008F7050008F7050008F7050008BE
:10023000F7050008F7050008F7050008F7050008AE
:10024000F7050008F7050008F7050008F70500089E
:10025000F7050008F7050008F7050008F70500088E
:10026000F7050008F7050008F7050008F70500087E
:10027000F7050008F7050008F7050008F70500086E
:10028000F7050008F7050008F7050008F70500085E
:10029000F7050008F7050008F7050008F70500084E
:1002A000F7050008F7050008F7050008F70500083E
:1002B000F7050008F7050008F7050008F70500082E
:1002C000F7050008F7050008F7050008F70500081E
:1002D000F7050008F7050008F7050008F70500080E
:1002E00041180008000000000000000000000000AD
:1002F00053B94AB9002908BF00281CBF4FF0FF318D
:100300004FF0FF3000F074B9ADF1080C6DE904CE88
:1003100000F006F8DDF804E0DDE9022304B07047E0
:100320002DE9F047089D04468E46002B4DD18A42A8
:10033000944669D9B2FA82F252B101FA02F3C2F1DB
:10034000200120FA01F10CFA02FC41EA030E94406C
:100350004FEA1C48210CBEFBF8F61FFA8CF708FB8D
:1003600016E341EA034306FB07F199420AD91CEB65
:10037000030306F1FF3080F01F81994240F21C8197
:10038000023E63445B1AA4B2B3FBF8F008FB1033DF
:1003900044EA034400FB07F7A7420AD91CEB040414
:1003A00000F1FF3380F00A81A74240F207816444E4
:1003B000023840EA0640E41B00261DB1D440002369
:1003C000C5E900433146BDE8F0878B4209D9002DCD
:1003D00000F0EF800026C5E9000130463146BDE857
:1003E000F087B3FA83F6002E4AD18B4202D38242C1
:1003F00000F2F980841A61EB030301209E46002D70
:10040000E0D0C5E9004EDDE702B9FFDEB2FA82F2C4
:10041000002A40F09280A1EB0C014FEA1C471FFA22
:100420008CFE0126200CB1FBF7F307FB131140EA09
:1004300001410EFB03F0884208D91CEB010103F1D6
:10044000FF3802D2884200F2CB804346091AA4B298
:10045000B1FBF7F007FB101144EA01440EFB00FE6C
:10046000A64508D91CEB040400F1FF3102D2A645D1
:1004700000F2BB800846A4EB0E0440EA03409CE770
:10048000C6F12007B34022FA07FC4CEA030C20FA1D
:1004900007F401FA06F31C43F9404FEA1C4900FA3D
:1004A00006F3B1FBF9F8200C1FFA8CFE09FB1811BA
:1004B00040EA014108FB0EF0884202FA06F20BD92D
:1004C0001CEB010108F1FF3A80F08880884240F27D
:1004D0008580A8F102086144091AA4B2B1FBF9F0C1
:1004E00009FB101144EA014100FB0EFE8E4508D9BC
:1004F0001CEB010100F1FF346CD28E456AD9023841
:10050000614440EA0840A0FB0294A1EB0E01A14225
:10051000C846A64656D353D05DB1B3EB080261EB93
:100520000E0101FA07F722FA06F3F1401F43C5E96D
:10053000007100263146BDE8F087C2F12003D840A3
:100540000CFA02FC21FA03F3914001434FEA1C47E5
:100550001FFA8CFEB3FBF7F007FB10360B0C43EAD7
:10056000064300FB0EF69E4204FA02F408D91CEB87
:10057000030300F1FF382FD29E422DD90238634485
:100580009B1B89B2B3FBF7F607FB163341EA034125
:1005900006FB0EF38B4208D91CEB010106F1FF3874
:1005A00016D28B4214D9023E6144C91A46EA00466B
:1005B00038E72E46284605E70646E3E61846F8E6FD
:1005C0004B45A9D2B9EB020864EB0C0E0138A3E746
:1005D0004646EAE7204694E74046D1E7D0467BE727
:1005E000023B614432E7304609E76444023842E79F
:1005F000704700BF02E000F000F8FEE772B637482F
:1006000080F30888364880F3098836483649086000
:1006100040F20000CCF200004EF63471CEF2000140
:100620000860BFF34F8FBFF36F8F40F20000C0F23E
:10063000F0004EF68851CEF200010860BFF34F8FF4
:10064000BFF36F8F4FF00000E1EE100A4EF63C71E1
:10065000CEF200010860062080F31488BFF36F8F8C
:1006600005F036F806F044F84FF055301F491B4AA4
:1006700091423CBF41F8040BFAE71D49184A9142E8
:100680003CBF41F8040BFAE71A491B4A1B4B9A423C
:100690003EBF51F8040B42F8040BF8E7002018495C
:1006A000184A91423CBF41F8040BFAE705F04EF8B6
:1006B00006F0A2F8144C154DAC4203DA54F8041BB2
:1006C0008847F9E700F042F8114C124DAC4203DACA
:1006D00054F8041B8847F9E705F036B800060020F7
:1006E000002200200000000808ED00E000000020CB
:1006F000000600203073000800220020C8220020DD
:10070000C8220020A8690020E0020008E4020008D6
:10071000E4020008E40200082DE9F04F2DED108AF4
:10072000C1F80CD0D0F80CD0BDEC108ABDE8F08F29
:10073000002383F311882846A047002004F0A2FA82
:10074000FEE704F0FBF900DFFEE70000F8B504F077
:1007500043FF074604F0B2FF0546B8BB204B9F425B
:1007600034D001339F4234D027F0FF021D4B9A4210
:1007700032D12E4642F21074F8B200F0B3FE00F00F
:10078000B7FE08B10024264601F05CFB20B100242E
:10079000032000F07BF8264635B1134B9F4203D06F
:1007A000002404F083FF2646002004F01FFF0EB152
:1007B00000F082F801F00CFA00F0BEFE01F0A6F89D
:1007C000204600F029F900F077F8F9E72E460024DA
:1007D000D5E704460126D2E7064641F28834CEE743
:1007E000010007B0000008B0263A09B008B501F0D2
:1007F0005FF8A0F120035842584108BD07B541F207
:100800001203022101A8ADF8043001F06FF803B023
:100810005DF804FB38B5302383F31188174803686B
:100820000BB104F0FBFA0023154A4FF47A71134818
:1008300004F0EAFA002383F31188124C236813B101
:100840002368013B2360636813B16368013B636005
:100850000D4D2B7833B963687BB9022001F02AF97A
:10086000322363602B78032B07D163682BB90220F6
:1008700001F020F94FF47A73636038BDC82200207C
:1008800015080008E8230020E0220020084B18701B
:1008900003280CD8DFE800F008050208022001F068
:1008A000F9B8022001F0E6B8024B00225A60704706
:1008B000E0220020E8230020F8B501F0C3FA30B1AF
:1008C0004D4B03221A7000224C4B5A60F8BD4C4B22
:1008D0004C4A1C4619680131F8D004339342F9D1CF
:1008E0006268494B9A42F1D9484B9B6803F1006317
:1008F00003F500339A42E9D204F0ACFE04F0BEFEE8
:10090000002001F029F80220FFF7C0FF404B002132
:10091000D3F8E820C3F8E810D3F81021C3F8101179
:10092000D3F81021D3F8EC20C3F8EC10D3F814213D
:10093000C3F81411D3F81421D3F8F020C3F8F01041
:10094000D3F81821C3F81811D3F81821D3F8802050
:1009500042F00072C3F88020D3F8802022F00072A9
:10096000C3F88020D3F8803072B64FF0E023C3F88C
:10097000084DD4E90004BFF34F8FBFF36F8F254AB2
:10098000C2F88410BFF34F8F536923F4803353614F
:10099000BFF34F8FD2F8803043F6E076C3F3C9053A
:1009A000C3F34E335B0103EA060C29464CEA817718
:1009B0000139C2F87472F9D2203B13F1200FF2D141
:1009C000BFF34F8FBFF36F8FBFF34F8FBFF36F8FA7
:1009D000536923F4003353610023C2F85032BFF34C
:1009E0004F8FBFF36F8F302383F31188854680F3D9
:1009F000088820476AE700BFE0220020E8230020A3
:100A00000000020820000208FFFF01080022002069
:100A10000044025800ED00E02DE9F04F93B0B74BD1
:100A20002022FF2100900AA89D6801F07BF8B44ABB
:100A30001378A3B90121B34811700360302383F305
:100A4000118803680BB104F0E9F90023AE4A4FF4B2
:100A50007A71AC4804F0D8F9002383F31188009B25
:100A600013B1AA4B009A1A60A94A1378032B03D03A
:100A700000231370A54A53604FF0000A009CD34630
:100A80005646D146012001F005F824B19F4B1B6862
:100A9000002B00F02C82002000F00AFF0390039B43
:100AA000002B01DA00F090FD039B002BEDDB012011
:100AB00000F0E0FF039B213B1F2BE3D801A252F87B
:100AC00023F000BF450B00086D0B0008010C000867
:100AD000850A0008850A0008850A0008930C0008AA
:100AE000630E00087D0D0008DF0D0008070E0008EA
:100AF0002D0E0008850A00083F0E0008850A000830
:100B0000B10E0008E50B0008850A0008F50E000884
:100B1000510B0008E50B0008850A0008DF0D0008EE
:100B2000850A0008850A0008850A0008850A000869
:100B3000850A0008850A0008850A0008850A000859
:100B4000010C00080220FFF751FE002840F0F98157
:100B5000009B022105A8BAF1000F08BF1C4641F214
:100B60001233ADF8143000F0C1FE8BE74FF47A7009
:100B700000F09EFE071EEBDB0220FFF737FE002889
:100B8000E6D0013F052F00F2DE81DFE807F0030A1F
:100B90000D1013360523042105A8059300F0A6FEC9
:100BA00017E004215548F9E704215A48F6E70421E3
:100BB0005948F3E74FF01C08404608F1040800F0DC
:100BC000CDFE0421059005A800F090FEB8F12C0F91
:100BD000F2D101204FF0000900FA07F747EA0B0BAA
:100BE0005FFA8BFB00F0EAFF26B10BF00B030B2B37
:100BF00008BF0024FFF702FE44E704214748CDE781
:100C0000002EA5D00BF00B030B2BA1D10220FFF778
:100C1000EDFD074600289BD00120002600F09CFE39
:100C20000220FFF733FE5FFA86F8404600F0A4FE8C
:100C30000446B0B1039940460136A1F14002514249
:100C4000514100F0A9FE0028EDD1BA46044641F218
:100C50001213022105A83E46ADF8143000F046FEFE
:100C600010E725460120FFF711FE244B9B68AB429D
:100C700007D9284600F072FE013040F06781043544
:100C8000F3E70025224BBA463E461D701F4B5D60C0
:100C9000A8E7002E3FF45CAF0BF00B030B2B7FF4A7
:100CA00057AF0220FFF7F2FD322000F001FEB0F155
:100CB0000008FFF64DAF18F003077FF449AF0F4A65
:100CC00008EB0503926893423FF642AFB8F5807F88
:100CD0003FF73EAF124BB845019323DD4FF47A70D6
:100CE00000F0E6FD0390039A002AFFF631AF039A65
:100CF0000137019B03F8012BEDE700BF0022002024
:100D0000E4230020C822002015080008E823002062
:100D1000E022002004220020082200200C220020D3
:100D2000E4220020C820FFF761FD074600283FF4B9
:100D30000FAF1F2D11D8C5F120020AAB25F003001B
:100D400084494245184428BF4246019200F0C4FE3F
:100D5000019AFF217F4800F0E5FE4FEAA803C8F39F
:100D600087027C492846019300F0E4FE06460028ED
:100D70003FF46DAF019B05EB830533E70220FFF7DE
:100D800035FD00283FF4E4AE00F024FE00283FF4D7
:100D9000DFAE0027B846704B9B68BB4218D91F2FA7
:100DA00011D80A9B01330ED027F0030312AA134473
:100DB00053F8203C05934046042205A9043701F06E
:100DC0002BF88046E7E7384600F0C8FD0590F2E7CB
:100DD000CDF81480042105A800F088FD02E7002367
:100DE000642104A8049300F077FD00287FF4B0AEDE
:100DF0000220FFF7FBFC00283FF4AAAE049800F0A5
:100E0000DFFD0590E6E70023642104A8049300F0C9
:100E100063FD00287FF49CAE0220FFF7E7FC00286A
:100E20003FF496AE049800F0CDFDEAE70220FFF70C
:100E3000DDFC00283FF48CAE00F0DCFDE1E7022091
:100E4000FFF7D4FC00283FF483AE05A9142000F07E
:100E5000D7FD07460421049004A800F047FD394659
:100E6000B9E7322000F024FD071EFFF671AEBB0784
:100E70007FF46EAE384A07EB0903926893423FF65F
:100E800067AE0220FFF7B2FC00283FF461AE27F006
:100E900003074F44B9453FF4A5AE484609F104099C
:100EA00000F05CFD0421059005A800F01FFDF1E7AE
:100EB0004FF47A70FFF79AFC00283FF449AE00F037
:100EC00089FD002844D00A9B01330BD008220AA9CF
:100ED000002000F02FFE00283AD02022FF210AA88F
:100EE00000F020FEFFF78AFC1C4803F0D1FE13B08F
:100EF000BDE8F08F002E3FF42BAE0BF00B030B2B55
:100F00007FF426AE0023642105A8059300F0E4FCDD
:100F1000074600287FF41CAE0220FFF767FC8046DE
:100F200000283FF415AEFFF769FC41F2883003F06A
:100F3000AFFE059800F076FE46463C4600F03EFEC9
:100F4000A0E506464EE64FF0000901E6BA467EE609
:100F500037467CE6E422002000220020A086010023
:100F6000094A49F26900136899B21B0C00FB01336E
:100F700044F250611360054B186882B2000C01FB0B
:100F80000200186080B27047142200201022002056
:100F90000021102210B5044600F0C4FD034B03CB22
:100FA000206061601868A06010BD00BF00E8F11FFC
:100FB0002DE9F041ADF54C7D0D46002140F2751252
:100FC0006AAC07460CA80B9100F0ACFD4FF4C4725C
:100FD0000021204600F0A6FD0DF12C0802F0AAF831
:100FE0004FF47A72244B0DF2DB26B0FBF2F018605E
:100FF00093E80700012384E807000DF5E5702382DC
:10100000FFF7C6FF42F605131C4906A8238405F026
:1010100073FF10230DF1280C84F8323106AB1A4609
:10102000083603CA624546F8080C46F8041C134605
:10103000F5D141460122204600F0F6FD002380B2A2
:10104000E97E0393AB7E029305F11903019301231B
:10105000009307A3D3E90023CDE90480384602F0CA
:1010600021FC0DF54C7DBDE8F08100BFAFF30080A1
:101070009E6AC421818A46EEF0230020286F000872
:101080002DE9F043224DBBB002F054F840F2ED22BE
:10109000AB68C31A934232D906AF2B4628220021EF
:1010A000A860384602F0AEFD05F10E0000F032FDFA
:1010B000002604465FFA80F905F10E08F3B2F1004C
:1010C000994501F1280107D908EB060308223846A3
:1010D000013602F097FDF1E7082301220534297B50
:1010E0000C48A4B2CDE902320B4B01933023CDE979
:1010F0000474009304A3D3E9002302F0D3FB3BB0B4
:10110000BDE8F083AFF3008078F6339F93CACD8DAE
:10111000E848002008340020F5480020F0B58B8A0C
:10112000C9B006460C46013B9BB2C92B47D8274D98
:101130002F7B27BB05F10C030822394600933B4661
:10114000204602F023FC7B1CFAB2D9001F46A38A7A
:10115000013B9A4205DA0E3200232A44009208220B
:10116000EEE700230022C5E900230023AB6085F8E9
:10117000D730C5F8D8302B7B0BB9E37E2B7306AD87
:101180008122002127A800F0CDFC0122294627A8B2
:1011900000F016FE002380B2E17E0393A37E02934B
:1011A00004F1190301932823CDE90450009330463C
:1011B00004A3D3E9002302F075FBFFF761FF49B0F8
:1011C000F0BD00BF26417272DF25D7B7E848002086
:1011D00070B50D4614461E4602F0C6FA50B9022EEE
:1011E00010D1012C0ED112A3D3E900230120C5E9AF
:1011F000002307E0282C10D005D8012C09D0052C9D
:101200000FD0002070BD302CFBD10BA3D3E90023FD
:10121000ECE70BA3D3E90023E8E70BA3D3E9002312
:10122000E4E70BA3D3E90023E0E700BFAFF30080BE
:10123000401DA12026812A0B78F6339F93CACD8DBD
:101240009E6AC421818A46EE26417272DF25D7B795
:10125000F017304A39059E562DE9F04F8DB0804683
:101260000D4602AF02F080FA044600285BD12B7EC7
:10127000022B1BD1EB8A012B18D101F05BFF064634
:10128000FFF76EFE03464FF4C87006F51676DFF8DA
:101290001892B3FBF0F202FB103316FA83F3C9F88D
:1012A0000030EB7E33B97B4B00221A702C37BD46E1
:1012B000BDE8F08FAB8AE6B20134013BB3420CD9F2
:1012C00007F10803E100082228461E4401F0F80156
:1012D0000023009602F05AFBECE707F11800FFF735
:1012E00057FE324607F1180107F1080005F086FDA8
:1012F0000028D8D10F2E08D8664B1E70D9F80030C0
:10130000A3F51673C9F80030D0E7FB1DF87101464C
:10131000072200930346284602F038FBF97940463D
:1013200002F01AFAC2E7EB8A282B26D010D8012B3C
:101330001ED0052BBAD1BFF34F8F5749574BCA6800
:1013400002F4E0621343CB60BFF34F8F00BFFDE7B1
:10135000302BABD16B7EE946514C0133627BDBB263
:10136000934203D1EA7E237B9A420BD0CD469DE780
:1013700029464046FFF71CFE98E729464046FFF7FE
:10138000CDFE93E74FF0000807F11803102228461E
:10139000A7F8188041460093012302F0F7FAAE8ABD
:1013A000023EB6B2F31C9B109B000733DB08A9EB8F
:1013B000C3039D460DF1080A1FFA88F34FEAC801DE
:1013C0009E4201F110010AD90AEB080308222846BF
:1013D00008F101080093002302F0D8FAECE794F832
:1013E000D70000F0C9FAD4F8D810054619B994F816
:1013F000D70000F0D1FAD4F8D83033449D4205D25A
:1014000094F8D7000021013000F0C6FA4FEA960B9D
:101410004FF000081FFA88F18B45D4E9003209D952
:101420000AEB8801012203EB880008F1010800F0B3
:1014300081FBEFE7F31894F8D70042F10002C4E90A
:101440000032D4F8D83006EB0308C4F8D88000F096
:1014500093FA804509D394F8D730D4F8D8000133F3
:10146000401B84F8D730C4F8D800FF2E0D4D09D8A2
:101470000023237300F0AEFA00F0E4FC288108B9E1
:10148000FFF71AFA23689B0A01332B810023A3601C
:101490006CE700BF0134002000ED00E00400FA0515
:1014A000E8480020F0230020043400200A4B0B4AB7
:1014B00010B51A6003F5805393F848203AB95C6C74
:1014C0002CB1204600F03CFD204605F07FFC04488E
:1014D000BDE8104000F034BD38340020CC6F000867
:1014E00068440020014B1870704700BFFC230020A7
:1014F00010B54FF040540C4B22689A4212D1627DD5
:101500000A4B0B481A70C922237D0E30094900F896
:10151000023C00F0E1FAE0220021204600F002FB4C
:10152000012010BD0020FCE79AAD44C5FC2300203B
:10153000E84800201600003037B500F083FC194D54
:1015400002230022184928816B710123174801F0FA
:10155000D5F9002316494FF480520193154B1648D4
:101560000093164B02F0D2F8154B197811B11248BE
:1015700002F0F2F801F0DEFD0446FFF7F1FC4FF453
:10158000C873B0FBF3F202FB130304F5167010FAF4
:1015900083F00C4B186004F091F808B10F232B81F5
:1015A00003B030BDF023002040420F00383400204B
:1015B00000240020D111000808340020591200082E
:1015C000FC230020043400202DE9F04F904C2DED39
:1015D000028B0FF22429D9E9008993B08D4E8E4FEA
:1015E000204602F08BF9034660B30025DFF848A2DD
:1015F0000E95ADF84450CDE90F55027B8DF844208F
:101600000FAA9968406803C21B6843F000430E9319
:1016100001F092FD82190095384641F100030EA9B0
:1016200000F012FEA84205DD204602F06BF98AF8B0
:101630000050D5E79AF80030072B00F2B58001334F
:101640008AF8003000230BAE734FDFF8F0A10A9345
:10165000ADF834300B9373609FED698B4FF0000B46
:1016600001250DF11D0207A95B4638468DF81C5077
:101670008DF81DB08DED008B01F0C4FC9DF81C3081
:10168000002B40F09580204602F06EF806460028B8
:1016900045D1624F01F04EFD3B6898423FD301F0C7
:1016A00049FD8246FFF75CFC4FF4C8730AF5167AD1
:1016B000B0FBF3F202FB13030EA81AFA83F33B60AC
:1016C000574F97F800B0CBF1100ABBF1000F14BFD1
:1016D00033462B465FFA8AFA8DF82830FFF758FC1C
:1016E0000EABBAF1060F0DF1290003EB0B0128BF79
:1016F0004FF0060A524600F0EFF90AAB0AF1010278
:10170000204603931823D2B20293464B0492CDE9AC
:1017100000533DA3D3E9002302F068F83E7001F0C6
:1017200009FD414A414D1368C31AB3F57A7F2ED3A0
:10173000106001F001FD02460B46204602F0ECF875
:10174000204602F011F810B32B7B0EAF384E002B61
:1017500014BF03230223737101F0ECFC4FF47A737E
:1017600001223946B0FBF3F03060304600F000FB58
:10177000182380B2424602932E4B019340F2551338
:10178000CDE90370009320464B4602F02FF82B7BE7
:101790002BB1FFF775FC2B7B002B7FF41FAF13B031
:1017A000BDEC028BBDE8F08F204602F0ABF849E7B4
:1017B000DAF81430594610220EA883F40063CAF8F0
:1017C000143000F0AFF90DF11E0308AA0AA938463B
:1017D00000F042FF0FAB96E8030083E803009DF89A
:1017E00034300EA920468DF844300A9B0E93DDE973
:1017F000082302F04FFA31E7F1C6A7C1D068080FFD
:101800000000000000000000401DA12026812A0BDE
:101810000834002040420F003834002004340020F7
:101820000134002000340020C8490020E84800208E
:10183000F0230020CC490020CD49002000100258A0
:1018400008B5054800F0AEFF044A05490020BDE890
:10185000084005F0B5BA00BF383400200C4A00201B
:10186000AD1400080F4B70B51B780C460133DBB28A
:10187000012B11D80C4D4FF47A732968A2FB033267
:1018800022460E6A01462846B047844204D1074BDF
:10189000002201201A7070BD4FF4FA7003F0F8F9BD
:1018A0000020F8E718220020804C0020FC4900208E
:1018B000002307B5024601210DF107008DF807301E
:1018C000FFF7D0FF20B19DF8070003B05DF804FBDF
:1018D0004FF0FF30F9E700000A46042108B5FFF792
:1018E000C1FF80F00100C0B2404208BD30B4054CD9
:1018F0000A46014623682046DD69034BAC4630BCEE
:10190000604700BF804C0020A086010070B5104CDD
:101910000025104E03F0DAFC2080306823888342D3
:101920000CD800252088013803F0CCFC238805441E
:10193000013BB5F5802F2380F4D370BD03F0C2FCCA
:10194000336805440133B5F5003F3360E5D3E8E77C
:10195000FE490020D049002003F096BD00F1006050
:1019600000F500300068704700F10060920000F55B
:10197000003003F00DBD0000054B1A68054B1B88B5
:101980009B1A834202D9104403F09CBC002070478C
:10199000D0490020FE49002038B50446074D29B142
:1019A00028682044BDE8384003F0A4BC28682044DF
:1019B00003F08EFC0028F3D038BD00BFD0490020D2
:1019C0000020704700F1FF5000F58F10D0F800089C
:1019D00070470000064991F8243033B100230822F3
:1019E000086A81F82430FFF7BFBF0120704700BFAD
:1019F000D4490020014B1868704700BF0010005CFC
:101A0000194B01380322084470B51D68174BC5F304
:101A10000B042D0C1E88A6420BD15C680A46013CC3
:101A2000824213460FD214F9016F4EB102F8016BD6
:101A3000F6E7013A03F10803ECD181420B4602D2EA
:101A40002C2203F8012B0424094A1688AE4204D143
:101A5000984284BF967803F8016B013C02F10402BE
:101A6000F3D1581A70BD00BF0010005C1C2200208A
:101A7000686F0008022804D1054B4FF400629A6198
:101A800070470128FCD1024B4FF48052F7E700BFAA
:101A900000100258022804D1054B4FF000629A61F1
:101AA00070470128FCD1024B4FF08052F7E700BF8E
:101AB00000100258022805D1064A536983F40063D6
:101AC000536170470128FCD1024A536983F4805363
:101AD000F6E700BF00100258002310B5934203D070
:101AE000CC5CC4540133F9E710BD0000013810B5D7
:101AF00010F9013F3BB191F900409C4203D11AB16A
:101B00000131013AF4E71AB191F90020981A10BD99
:101B10001046FCE703460246D01A12F9011B0029C1
:101B2000FAD1704702440346934202D003F8011BE6
:101B3000FAE770472DE9F8431F4D144607468846DB
:101B400095F8242052BBDFF870909CB395F82430B0
:101B50002BB92022FF2148462F62FFF7E3FF95F8BB
:101B600024004146C0F1080205EB8000A24228BFD4
:101B70002246D6B29200FFF7AFFF95F82430A41B9F
:101B800017441E449044E4B2F6B2082E85F824604F
:101B9000DBD1FFF71FFF0028D7D108E02B6A03EB4A
:101BA00082038342CFD0FFF715FF0028CBD100205E
:101BB000BDE8F8830120FBE7D4490020024B1A78E6
:101BC000024B1A70704700BFFC4900201822002009
:101BD00010B5104C104802F079FB21460E4802F077
:101BE000A1FB24680D48D4F89020D2F8043843F0C3
:101BF0000203C2F8043803F04BF80949204602F00A
:101C00009FFCD4F89020D2F8043823F00203C2F8E5
:101C1000043810BDB8700008804C002040420F000E
:101C2000C0700008704700002DE9F0470D460446DB
:101C300000219046284640F27912FFF773FF2346B1
:101C400020220021284604F1220701F0DBFF231D9A
:101C5000022220212846C02601F0D4FF631D032262
:101C60002221284601F0CEFFA31D0322252128466C
:101C700001F0C8FF04F1080310222821284601F0D2
:101C8000C1FF04F1100308223821284601F0BAFFF1
:101C900004F1110308224021284601F0B3FF04F1AA
:101CA000120308224821284601F0ACFF04F1140376
:101CB00020225021284601F0A5FF04F118034022FC
:101CC0007021284601F09EFF04F120030822B02174
:101CD000284601F097FF04F121030822B821284685
:101CE00001F090FF314608363B460822284601376E
:101CF00001F088FFB6F5A07FF4D1002704F1330A84
:101D000004F1320308223146284601F07BFF94F8A3
:101D100032304FEAC7099F4209F5A47615D3B8F1CE
:101D2000000F08D1314609F24F1604F599730722C6
:101D3000284601F067FF27463B1B94F83221934267
:101D40000CD3F01DC008BDE8F0870AEB070308229A
:101D500031462846013701F055FFD8E707F2331323
:101D60003146082228460836013701F04BFFE3E7E9
:101D700013B5044608460021202223460190016045
:101D8000C0F8031001F03EFF231D0198022220211C
:101D900001F038FF631D01980322222101F032FF78
:101DA000A31D01980322252101F02CFF019804F1C5
:101DB00008031022282101F025FF072002B010BDE2
:101DC000F8B50E4605461446002181223046FFF73D
:101DD000A9FE2B4608220021304601F013FF7CB9F2
:101DE0000F246B1C07220821304601F00BFF012352
:101DF0005F1C6A78013B934204D3E01DC008F8BD24
:101E00000824F4E7EB1921460822304601F0FAFED7
:101E100008343B46ECE7000030B50A44084D9142D7
:101E20000DD011F8013B5840082340F30004013B5A
:101E30002C4013F0FF0384EA5000F6D1EFE730BDE9
:101E40002083B8ED384A73B510686B4651686A460E
:101E500003C308233549364804F0E0FF044670B94F
:101E6000344A6B46106851686A4603C308233249F6
:101E70002F4804F0D3FF044630BB0A2022E0036958
:101E8000B3F5F01FECD8418B40F229529142E7D1D3
:101E90002A4A024402F110018B42E1D3103B24494B
:101EA00000209D1AFFF7B8FF04F1180106462A46E4
:101EB0000020FFF7B1FFA3689E42D1D1E3689842AA
:101EC000CED1002002B070BD0369B3F5F01F22D857
:101ED000B0F8661040F2295291421ED1174A0244CE
:101EE00002F15C018B421AD35C3B114900209D1A20
:101EF000FFF792FF04F1640106462A460020FFF72F
:101F00008BFFA268034696420BD1E068834214BF60
:101F10000D200020D6E70B20D4E70C20D2E71020BC
:101F2000D0E70D20CEE700BF786F0008DCFF1D0072
:101F300000000208816F000890FF1D000800FEF7F6
:101F400010B5037C044613B9006804F04FFF204627
:101F500010BD00000023BFF35B8FC360BFF35B8F36
:101F6000BFF35B8F8360BFF35B8F7047BFF35B8F03
:101F70000068BFF35B8F704770B505460C30FFF704
:101F8000F5FF044605F108063046FFF7EFFFA042D3
:101F900006D96D683046FFF7E9FF2544281A70BD61
:101FA0003046FFF7E3FF201AF9E7000070B5054659
:101FB0004068A0B105F10C0605F10800FFF7D6FF57
:101FC00004463046FFF7D2FF844204F1FF34304626
:101FD00094BF6D680025FFF7C9FF2C44201A70BD1F
:101FE00038B50C460546FFF7C7FFA04210D305F1F0
:101FF0000800FFF7BBFF04446868BFF35B8FB4FBC6
:10200000F0F100FB11440120AC60BFF35B8F38BDE1
:102010000020FCE72DE9F041144607460D46FFF786
:10202000C5FF844228BF0446D4B1B84658F80C6BAB
:102030004046FFF79BFF3044286040467E68FFF72C
:1020400095FF331A9C4203D801206C60BDE8F081F3
:10205000A41B6B603B682044AB60E8600220F5E79E
:102060002046F3E738B50C460546FFF79FFFA04230
:1020700010D305F10C00FFF779FF04446868BFF343
:102080005B8FB4FBF0F100FB11440120EC60BFF367
:102090005B8F38BD0020FCE72DE9FF41884669468B
:1020A00007466C46FFF7B6FF002506B204EBC606EE
:1020B000B4420AD0626808EB050120680834FFF7D3
:1020C0000BFD54F8043C1D44F2E729463846FFF75F
:1020D000C9FF284604B0BDE8F0810000F8B5054608
:1020E0000C300F46FFF742FF05F108060446304664
:1020F000FFF73CFFA042304688BF6C68FFF736FF11
:10210000201A386020B12C683046FFF72FFF20449A
:10211000F8BD000073B5144606460D46FFF72CFFC8
:102120008442019028BF0446DCB101A93046FFF784
:10213000D5FF019B33B93268C5E90233C5E90024F4
:1021400001200CE09C42286038BF01940198844231
:102150006860F5D93368241A0220AB60EC6002B0E5
:1021600070BD2046FBE700002DE9FF410F466946A0
:102170006C46FFF7CFFF00B2002604EBC005AC426F
:1021800009D0D4F80480B81954F8081B42464644D4
:10219000FFF7A2FCF3E7304604B0BDE8F081000091
:1021A00038B50546FFF7E0FF044601462846FFF72D
:1021B00017FF204638BD0000302383F3118862B634
:1021C00070470000002383F3118862B67047000057
:1021D000012070477047000010B41346026814686D
:1021E0000022A4465DF8044B6047000000F58050D3
:1021F00090F859047047000000F5805090F85204A0
:102200007047000000F5805090F9580470470000B6
:102210004E20704700F5805208B5FFF7CDFFD2F889
:102220009834D2F894041844D2F890341844D2F870
:1022300078341844D2F888341844D2F884341844D6
:10224000FFF7C0FF08BD00002DE9F74F0C4600F571
:1022500080511F46054691F852349046BDF83090A3
:102260009BB1D1F874340133C1F8743423689A00F7
:1022700006D4237B082B0BD9627B0AB10F2B07D91D
:10228000D1F878340133C1F878344FF0FF300FE0E3
:10229000FFF792FFEB6AD3F8C42012F4001A0AD0B9
:1022A000D1F87C3400200133C1F87C34FFF78AFF79
:1022B00003B0BDE8F08F22684FF0480BD3F8C4603C
:1022C000002A6B6AC6F30446B4BF42F0804292040F
:1022D0001BFB063BCBF8002023685B004FEA06633C
:1022E00044BF42F00052CBF80020227B43EA024375
:1022F0007201CBF80430607B18B343F44013CBF881
:102300000430D1F8A4340133C1F8A434AB1803F578
:102310008353197B41F020011973207B019200F057
:1023200067FF0330019A80105FFA8AF30AF1010A0D
:1023300083420DDA04EB83010BEB83034968996058
:10234000F2E7AB1803F58353197B60F34511E3E71C
:102350000121EB6A04F10C00B140C3F8D010AB18B6
:10236000214603F58253C3E9048705EB461303F5C1
:102370008253183351F804CB814243F804CBF9D18E
:1023800009882A442846198041F26803D65002F58C
:10239000805209F0030392F86C1043F0100321F00F
:1023A0001F010B43214682F86C304246FFF70AFFBB
:1023B0003B46CDF8309003B0BDE8F04F00F0DEBEF4
:1023C0002DE9F04700F58056044696F85254002D4A
:1023D00040F00181037C032B40F092802B4628467D
:1023E0002F465FFA83FC944510DA01EBCC0E51F8CE
:1023F0003CC0BCF1000F04DBDEF804C0BCF1000FF0
:1024000002DB01370133ECE70130FBE7FFF7D4FED5
:10241000E36AF0B9D3F8800040F00200C3F880000E
:102420004E23E06A002F6ED1D0F8803043F00103D4
:10243000C0F88030694B6A4A1B6803F1805303F58A
:102440002C539B009342A36240F2AF80654800F09A
:102450006BFE4D2842D8DFF884814FEA004EDFF84A
:102460008891D8F800C04EEA8C0EC3F884E00CF1D5
:10247000805303F52C539B00636100EB0C03D4F8ED
:102480002CC0C8F80030C0F14E03DCF8800040F0EA
:102490003000CCF880004FF0000CD4F81480E646F1
:1024A0005FFA8CF08242BCDD01EBC00A51F83000CB
:1024B000002810DBDAF804A0BAF1000F0BDA09EA01
:1024C00000400AF07F0A40EA0A0040F0084048F85D
:1024D0002E000EF1010E0CF1010CE1E79A6922F0D9
:1024E00001029A6100F026FE0646E36A9B69D9075D
:1024F00004D500F01FFE831BFA2BF6D9FFF762FE0E
:102500002846BDE8F087B7EB530F3DD2DFF8CCE0AB
:102510004FEA074CDEF800304CEA830CC0F888C064
:1025200003F1805003EB4703002700F52C50CEF851
:102530000030BC468000A061E06AD0F8803043F0F3
:102540000C03C0F88030D4F818E0FBB29A427FF751
:1025500071AF51F8330001EBC3080028D8F80430FC
:1025600001DB002B0EDB20F0604023F0604340F0E5
:10257000005043F000434EF83C000EEBCC000CF151
:10258000010C43600137E0E7836923F001038361B5
:1025900000F0D0FD0646E36A9B69DA07AED500F08D
:1025A000C9FD831BFA2BF6D9A8E7E26A936923F0E9
:1025B0000103936100F0BEFD0746E36A9B69DB07F8
:1025C00005D500F0B7FDC31BFA2BF6D996E7012518
:1025D00086F8525492E7002592E700BF084A00208F
:1025E000FCB500408C6F00080000FF0713B500F534
:1025F00080540191606CFFF7D9FC1F280AD9202272
:102600000199606CFFF748FDA0F120035842584142
:1026100002B010BD0020FBE700F5805008B5FFF7C1
:10262000CBFD406CFFF796FCBDE80840FFF7CABD44
:102630000022026082814260826070470022002393
:1026400010B5C0E90023002304460C3020F8043CF8
:10265000FFF7EEFF204610BD2DE9F047074688B092
:102660009A46884607F5805468469146FFF7A4FDD0
:10267000FFF7E4FF606CFFF77FFC1F282DD92022B5
:102680006946606CFFF78CFD202826D194F85234FF
:102690001BB303AD444605AB2E46083403CE9E4221
:1026A00044F8080C44F8041C3546F5D1306841461E
:1026B00020603846B388A380DDE90023C9E9002300
:1026C000BDF808304A46AAF80030FFF77BFD5346B4
:1026D00008B0BDE8F04700F03FBD0020FFF772FDF5
:1026E00008B0BDE8F08700002DE9F84F002306464A
:1026F00000F58154054688461034C0E90133264B65
:1027000046F8303B374638462037FFF797FFA74259
:10271000F9D105F580544FF4805305F5A3594FF0D6
:10272000000A26630026676405F5835709F110093E
:102730004FF0000B1037E663C4E90D36012384F82F
:10274000403084F84830A7F11800203747E910AB33
:10275000FFF76EFF47F8286C4F45F4D184F8588492
:10276000A4F85A64A4F85C64A4F85E6484F8606415
:10277000A4F86264A4F86464A4F8666484F86864E5
:10278000B8F1000F02D0054800F0CEFC044B2846FB
:10279000EB62BDE8F88F00BFCC6F0008B06F000897
:1027A00000A00040044B10B5197804464A1C1A706A
:1027B000FFF79AFF204610BD054A00202DE9F0479B
:1027C00000295FD0304F3148B7FBF1F581428CBF13
:1027D0000A201120431EB5FBF0FC00FB1C50DCB2AC
:1027E00020B1022B1846F5D8002037E00CF1FF3558
:1027F000B5F5806F32D2C4EBC4094FF47A7009F199
:1028000003034FEAE308C3F3C70308F1010AA4EB8B
:10281000030E08FB00085FFA8EF65AFA8EFEB8FB2C
:10282000FEFEBEF5617F1BDC1FFA8EF4581C56FAC3
:1028300080F00CFB00FCB7FBFCFC6145D4D1013BF4
:10284000DBB20F2BD0D8711E0020C9B2072905D8E2
:10285000107101201480558053719171BDE8F0878B
:1028600009F1FF334FEAE30EC3F3C7030EF101088A
:10287000E41A0EFB0000E6B258FA84F4B0FBF4F45C
:10288000A4B2D3E70846E9E700B4C4043F420F000E
:1028900038B540F27772C36A154CC3F8BC200722E2
:1028A000C36AC3F8C8202268C16A930043F4C023F6
:1028B000C1F8A03002F1805302F16C01C56A03F542
:1028C0002C53EA3289009B00226041F0E061094A02
:1028D000C361C5F8C01003F5D87103F56A7341628E
:1028E0009342836202D9044800F01EFC38BD00BF49
:1028F000084A0020FCB500408C6F00082DE9F04F1D
:1029000000F58055994689B0044695F858348A46B2
:102910009046012B04D90027384609B0BDE8F08F56
:10292000974A52F8231009B942F823009549C4F890
:102930000CA00B7884F81090C3B9FFF73DFC924BC4
:10294000D3F8EC2042F48072C3F8EC20D3F8942042
:1029500042F48072C3F89420D3F8942022F4807259
:10296000C3F8942001230B70FFF72CFC95F8513429
:1029700073B903211320FFF71FFC01F015FC03219D
:10298000152001F011FC012385F85134FFF71AFCE2
:10299000FFF712FCE26A936923F01003936100F0E1
:1029A000C9FB0746E36A9E6916F0080607D000F0E7
:1029B000C1FBC31BFA2BF5D9FFF704FCABE79A69FF
:1029C00042F001029A6100F0B5FB0746E36A9A699A
:1029D000D00705D400F0AEFBC31BFA2BF6D9EBE70A
:1029E0009A69002704F5825B42F002020BF1100B9A
:1029F0009A61E36A5F65FFF7E5FB686CFFF7AAFA87
:102A0000202200216846FFF78DF802A8FFF710FE8C
:102A10006A460BEB06030DF1180E06979446083331
:102A2000BCE80300F44543F8080C43F8041C624674
:102A3000F4D1DCF8000020361860B6F5806F9CF801
:102A400004201A71DCD1002304F5A252514620461D
:102A50001A3285F8503485F85334FFF7AFFE074635
:102A600090B9E26A936923F00103936100F062FB7D
:102A70000546E36A9B69D9077FF54DAF00F05AFB25
:102A8000431BFA2BF5D946E795F85F6495F85E2469
:102A90003602C5F86CA4E36A46EA426695F86024FB
:102AA0001643B5F85C2446EA0246DE61B8F1000F31
:102AB00029D004F5A352414620460232FFF77EFE9C
:102AC00090B9E26A936923F00103936100F032FB4D
:102AD0000546E36A9B69DA077FF51DAF00F02AFB24
:102AE000431BFA2BF5D916E795F8683495F8671467
:102AF0001B01C5F87084E26A43EA0123B5F8641447
:102B000043EA0143D360E36A00262046C3F8BC6071
:102B1000FFF7BEFE85F859646FF04042E36AB9F1F1
:102B2000030F1A65194AE36A5A654FF00222E36AF5
:102B30009A654FF0FF32E36AC3F8E0204FF00302DA
:102B4000E36ADA65E26A936943F4407393613FF4A0
:102B5000E3AEE26A936923F00103936100F0EAFABD
:102B60000646E36A9B69DB0705D500F0E3FA831BA1
:102B7000FA2BF6D9CFE6012385F85234CCE600BF14
:102B8000004A0020044A0020004402585502000276
:102B90002DE9F04F054689B090469946002741F24D
:102BA000680A00F58056EB6AD3F8D830FB40D807A6
:102BB0004AD505EB47124FEA471B524413791907D0
:102BC00042D4D6F880340133C6F8803413799A069B
:102BD00005EB0B0248BFD6F8A834524444BF01337A
:102BE000C6F8A834137943F008031371DB0723D523
:102BF00096F8533403B305F582546846FFF71EFD7B
:102C000003AB18345C4404F1080C2068083454F811
:102C1000041C1A46644503C21346F6D1206869466F
:102C200010602846A2889A800123ADF808302B68EE
:102C3000CDE90089DB6B9847D6F8543423B1D6F838
:102C40009C340133C6F89C340137202FABD109B036
:102C5000BDE8F08F2DE9F04F0F468DB0044600F02F
:102C60006BFA82468946002F5BD1E36AD3F8A02035
:102C700012F4FE0F03D100200DB0BDE8F08FD3F8A1
:102C8000A420920141BF04F58051D1F8942401326F
:102C9000C1F89424D3F8A4205606ECD0D3F8A4505D
:102CA000E669C5F305254823E8464FF0000B03FB12
:102CB00005664046FFF7BCFC326851004ABF22F06F
:102CC0006043C2F38A4343F00043920048BF43F09D
:102CD00080430093736813F400131BBF012304F5B2
:102CE00080528DF80D308DF80D301EBFD2F8AC3407
:102CF0000133C2F8AC34F38803F00F038DF80C30C5
:102D00009DF80C0000F074FA5FFA8BF3984225D915
:102D1000F2180CA90BF1010B127A0B4403F82C2CBE
:102D2000EEE7012FA7D1E36AD3F8B02012F4FE0F2B
:102D3000A1D0D3F8B420950141BF04F58051D1F85A
:102D400094240132C1F89424D3F8B420500692D0D0
:102D5000D3F8B450266AC5F30525A4E7EFB9E36AB2
:102D6000C3F8A85004A807ADFFF768FC98E80F0067
:102D700007C52B800023204604A9ADF8183023682E
:102D800004F58054DB6BCDE904A9984758B1D4F819
:102D90008C340133C4F88C346EE7012FE2D1E36A3E
:102DA000C3F8B850DEE7D4F8903401200133C4F8FA
:102DB000903461E7F8B505460F4600F580540126CA
:102DC00039462846FFF746FF10B184F85364F7E709
:102DD000D4F8543423B1D4F89C340133C4F89C346F
:102DE000F8BD0000C36AF0B51A6C12F47F0F2BD047
:102DF0001B6C00F5805441F268054FF0010CC4F8DB
:102E0000A0340023471900EB43125E012A441179D4
:102E100011F0020F15D0490713D4B959C66A0CFA3C
:102E200001F1D6F8CCE011EA0E0F0AD0C6F8D410A2
:102E3000117941F004011171D4F888240132C4F8E9
:102E400088240133202BDED1F0BD000010B5264CC4
:102E5000264B22680AB340B31A6D92050FD54FF482
:102E600000721A6500F068F950EA01020B4602D0C0
:102E7000013861F1000302462068FFF789FE1B4A12
:102E8000136D9B012AD523684FF0007103F5805321
:102E90001165012283F8592420E001221A651022CD
:102EA0001A654FF480521A6510BD196DC80702D417
:102EB000196D490705D50521104619650021FFF751
:102EC00079FF0A4B1A6DD00602D41A6D510605D54A
:102ED000502201211A652068FFF76CFF2068BDE8C9
:102EE0001040FFF77FBF00BF004A002000A0004055
:102EF00008B5FFF761F9FFF775FFBDE80840FFF778
:102F000061B90000C36AD3F8C00010F07C5005D04E
:102F1000D3F8C40080F40010C0F3405070470000A4
:102F200000F5805008B5FFF747F9406CFFF724F82B
:102F3000FFF748F943090CBF0120002008BD00003D
:102F400000F5805393F8592462B1C16A8A6922F06E
:102F500001028A61D3F898240132C3F89824002230
:102F600083F85924704700002DE9F74300F582519A
:102F700098460025FFF720F9103141F2680E4FF016
:102F8000010900F5805C00EB4514744423795E0769
:102F90001CD4DB061AD58E69C36A09FA06F6D3F883
:102FA000CC703E4212D04F6801970F689742019F44
:102FB00077EB08070AD2C3F8D460237943F00403FF
:102FC0002371DCF884340133CCF8843401352031AA
:102FD000202DD8D103B0BDE8F043FFF7F3B80000CF
:102FE000F8B51E4600230F46054613701446FFF73A
:102FF00097FF80F0010038701EB12846FFF782FF6E
:103000002070F8BD2DE9F04F85B099460D468046F9
:10301000164691F800B0DDE90EA3029313780193F0
:1030200000F08AF82B7804460F4613B93378002B4A
:1030300042D022463B464046FFF796FFFFF758FF37
:10304000FFF77EFF4B4632462946FFF7C9FF2B7834
:1030500033B1BBF1000F03D0012005B0BDE8F08F04
:10306000337813B1019B002BF6D108F580530393FD
:103070005445029B77EB03031ED2039BD3F8540401
:10308000D0B10368AAEB0401DB6889B298474B46CC
:10309000324629464046FFF7A3FF2B7813B1BBF118
:1030A000000FD9D1337813B1019B002BD4D100F09C
:1030B00043F804460F46DBE70020CEE708B50020C2
:1030C000FFF7C4FEBDE8084001F044B808B5012090
:1030D000FFF7BCFEBDE8084001F03CB800B59BB06E
:1030E000EFF3098168226846FEF7F6FCEFF30583EB
:1030F000014B9B6BFEE700BF00ED00E008B5FFF75A
:10310000EDFF000000B59BB0EFF30981682268462F
:10311000FEF7E2FCEFF30583014B5B6BFEE700BFBC
:1031200000ED00E0FEE700000FB408B5029801F0E2
:103130003BFDFEE702F0F0B902F0C8B902F0C6B9F3
:1031400013B56C46031D84E8060094E8030083E889
:103150000500012002B010BD73B58568019155B11D
:103160001B885B0707D4D0E900369B6B9847019A10
:10317000C1B23046A847012002B070BDF0B58668E4
:1031800089B005460C465EB1BDF838305B070AD4FD
:10319000D0E900379B6B98472246C1B23846B0470A
:1031A000012009B0F0BD0022002301F10806CDE99D
:1031B000002300230A46ADF8083003AB106808323C
:1031C00052F8041C1C46B24203C42346F6D11068D0
:1031D00020609288A280FFF7B1FF0423ADF8083089
:1031E0002B68CDE90001DB6B694628469847D7E795
:1031F000082817D909280CD00A280CD00B280CD085
:103200000C280CD00D280CD00E2814BF40203020E4
:1032100070470C207047102070471420704718200A
:1032200070472020704700002DE9F041056A15B96C
:103230000162BDE8F0814B68AC4623F06047C3F300
:103240008A464FEAD37EC3F3807816EA230638BF56
:103250003E462B465A68BEEBD27F22F060440AD02D
:10326000002A18DAA40CB44217D19D420FD10D6088
:10327000DEE71346EEE7A74207D102F08044C2F32F
:10328000807242450BD054B1EFE708D2EDE7CCF89D
:1032900000100B60CDE7B44201D0B442E5D81A6803
:1032A0009C46002AE5D11960C3E700002DE9F047EC
:1032B000089D01F0070400EBD1004FF47F494FEA6D
:1032C000D508224405F00705944201D1BDE8F087F6
:1032D00004F0070705F0070A111B08EBD50E574548
:1032E0003E4613F80EC038BF5646C6F108068E4259
:1032F00028BF0E46E108415C34443544B94029FA00
:1033000006F721FA0AF1FFB28CEA010147FA0AF73F
:1033100039408CEA010C03F80EC0D5E780EA0120A1
:10332000082341F2210201B2013B4000002980B292
:10333000B8BF504013F0FF03F5D1704738B50C46C5
:103340008D18A54200D138BD14F8011BFFF7E6FF28
:10335000F7E7000002684AB1136801890360C38877
:1033600001339BB29942C38038BF03811046704736
:1033700070B588B0044620220D4668460021FEF74D
:10338000D1FB20460495FFF7E5FF024660B16B468E
:10339000054608AE1C46083503CCB44245F8080C77
:1033A00045F8041C2346F5D1104608B070BD000056
:1033B000082817D909280CD00A280CD00B280CD0C3
:1033C0000C280CD00D280CD00E2814BF4020302023
:1033D00070470C2070471020704714207047182049
:1033E0007047202070470000082817D90C280CD9F6
:1033F00010280CD914280CD918280CD920280CD93D
:1034000030288CBF0F200E207047092070470A20FB
:1034100070470B2070470C2070470D20704700004C
:103420002DE9F843078C0446072F1ED900254FF6D7
:10343000FF73D0E90298C5F12006A5F1200029FA12
:1034400005F1083508FA06F628FA00F03143014381
:103450001846C9B2FFF762FF402D0346EBD13A464A
:10346000E169BDE8F843FFF769BF4FF6FF70BDE8BB
:10347000F883000010B54B6823B9CA8A63F30902C8
:10348000CA8210BDC4681A681C60C360438A013BCD
:1034900043824A60EFE700002DE9F84F1D46CB8AD2
:1034A0000F468146C3F30901924605290B4630D0E9
:1034B0000020AAB207F11A049EB21FFA80F8042E67
:1034C0000FD8904503F1010306D30A44FB8A62F347
:1034D00009030120FB821AE01AF800600130E6546B
:1034E000EAE79045F1D2A1F1050B1C237C68BBFBF8
:1034F000F3F203FB12BB1FFA8BF6002C45D14846B2
:10350000FFF728FF044638B978606FF00200BDE885
:10351000F88F4FF00008E6E7002606607860ADB24D
:103520004FF0000B454510D90AEB0803221D13F894
:10353000011B08F101089155B1B21FFA88F81B2947
:103540002BD0454506F10106F1D8FB8AC3F30902E9
:10355000154465F30903BCE701321C4692B22368A7
:10356000002BF9D16B1F0B441C21B3FBF1F301338A
:103570009BB29A42D3D2BBF1000FD0D14846FFF79D
:10358000E9FE20B9C4F800B0BFE70122E7E7C0F8C0
:1035900000B05E4620600446C1E74545D5D948469F
:1035A000FFF7D8FE08B92060AFE7C0F800B00026EA
:1035B00020600446B6E700002DE9F04F1C460746A0
:1035C00088462DED028B83B05B690192002B00F0E1
:1035D0009A80238C2BB1E269002A00F09480072B9B
:1035E00035D807F10C00FFF7B5FE054638B96FF086
:1035F0000205284603B0BDEC028BBDE8F08F142213
:103600000021FEF78FFA228CE16905F10800FEF730
:1036100063FA208C48F00041013080B2FFF7E4FEED
:10362000FFF7C6FE013880B2208401302874384686
:103630006369228C1B782A4403F01F0363F03F0365
:10364000137269602946FFF7EFFD0125D1E74FF0BE
:10365000000900F10C034FF0800A4E464D4608EE7B
:10366000103A18EE100AFFF775FE83460028BED008
:1036700014220021FEF756FA002E3AD1019B0222B5
:10368000ABF808300BF1080E1FFA82FC218C0CF10C
:103690000100BCF1060F80B201D88E422BD3FFF798
:1036A000A3FE8E4208BF4FF0400AFFF781FE626919
:1036B0000138013512781BFA80F1013002F01F0247
:1036C0002DB242EA491289F001094AEA020A48F099
:1036D000004281F808A059468BF810003846CBF814
:1036E00004204FF0000AFFF79FFD238CB342B8D1AE
:1036F0007FE70022C6E7E169895D01360EF8021016
:10370000B6B20132C0E76FF0010572E7F8B51546B1
:103710000E462C22002104461F46FEF703FA069BA4
:10372000B5F5001FA760636004F10C00079B34BF70
:103730006A094FF6FF72A6616362002397B29A424C
:1037400005D80023036027826382A382F8BD066048
:10375000013330462036F2E703781BB94BB2002B19
:10376000C8BF01707047000000787047F8B50C467C
:10377000C969074609B9238CABBB257E1F2D32D8FA
:10378000387818BB228C072A2AD8268A36F00303F9
:1037900029D14FF6FF70FFF7D1FD20F00100310273
:1037A0004FF6FF72400441EA0561400C41EA4025B2
:1037B000234629463846FFF7FFFE62691378013336
:1037C000DBB21F2B88BF00231370F8BD218A2D06A2
:1037D00045EA012505432046FFF722FE0246E7E7BA
:1037E0006FF00300F1E76FF00100EEE770B58AB00B
:1037F000044616460021282268461D46FEF792F927
:10380000BDF8383069462046ADF810300F9B05935F
:103810009DF840308DF81830119B0793BDF8483063
:10382000CDE90265ADF82030FFF7A0FF0AB070BD0A
:103830002DE9F041D36905460C4616460BB9138CA9
:103840004BBB377E1F2F26D895F80080B8F1000FAC
:1038500024D03046FFF7E4FD3378210202462846A3
:1038600041EAC331338A41EA080141EA076141EA8A
:103870000341334641F08001FFF79EFE3378012B70
:1038800007D1726913780133DBB21F2B88BF002385
:103890001370BDE8F0816FF00100FAE76FF00300EC
:1038A000F7E70000F0B58BB004460D46174600213F
:1038B000282268461E46FEF735F99DF84C30294609
:1038C00020465A1E534253416A468DF800309DF8F7
:1038D0004030ADF81030119B05939DF848308DF8BD
:1038E0001830149B0793BDF85430CDE90276ADF83B
:1038F0002030FFF79DFF0BB0F0BD0000006A00B163
:1039000004307047036A1A680262C2681A60C360B2
:10391000438A013B438270472DE9F041D0F81C8077
:1039200014461D46184E4146002709B9BDE8F081EE
:10393000D1E90223A21A65EB0303964277EB030356
:103940001ED2C3698B420DD1FFF794FDC3691B687A
:10395000C361C3680B60438AC160013BC169438294
:103960008846E2E7FFF786FD0B68C8F80030C368B9
:103970000B60438AC160013B4382D8F80010D4E752
:1039800088460968D1E700BF80841E002DE9F04F0A
:103990008BB00D4614469B46DDF8509080460028BB
:1039A00000F01881B9F1000F00F01481531E3F2B75
:1039B00000F21081012A03D1BBF1000F40F00A810F
:1039C0000023CDE90833B8F81430B5EBC30F4FEA44
:1039D000C30703D300200BB0BDE8F08F2B199F4223
:1039E000D8F80C3036BF7F1B2746FFB21BB9D8F87A
:1039F0001030002B7AD0272D4DD8C5F12806002392
:103A00002946B742009308ABD8F808002CBFF6B29D
:103A10003E46A7EB060A354432465FFA8AFAFFF7BC
:103A200045FCB8F81430282103F10053053BDB00B6
:103A30000493D8F80C300393039B13B1BAF1000F31
:103A40002CD1D8F8100040B1BAF1000F05D008AB66
:103A50005246691A0096FFF729FC38B2002FB9D0F8
:103A600066070AD00AAB624203EBD40102F00702F8
:103A700011F8083C134101F8083C082C3DD9102CE2
:103A800040F2B580202C40F2B780BBF1000F00F06F
:103A90009C80082335E0BA460026C2E7049BE02B51
:103AA00028BFE02306930B44AB42059315D95A1B5C
:103AB0000398691A0096924508AB00F1040034BFE0
:103AC0005246D2B20792FFF7F1FB079A1644AAEBCF
:103AD000020A1544F6B25FFA8AFA049B069A05991F
:103AE0009B1A0493039B1B680393A5E700933A4634
:103AF00008AB2946D8F80800ADE7BBF1000F13D09A
:103B00000123B4EBC30F6BD0082C12D89DF82030E2
:103B1000621E23FA02F2D50706D54FF0FF3202FAF1
:103B200004F423438DF820309DF8203089F80030CC
:103B300051E7102C12D8BDF82030621E23FA02F291
:103B4000D10706D54FF0FF3202FA04F42343ADF853
:103B50002030BDF82030A9F800303CE7202C0FD8E9
:103B60000899631E21FA03F3DA0705D54FF0FF32F7
:103B700002FA04F40C430894089BC9F800302AE7C1
:103B8000402C2AD0611EC4F12102A4F12103DDE9F9
:103B9000086526FA01F105FA02F225FA03F311434A
:103BA0001943CB0711D50122A4F12003C4F1200150
:103BB00002FA03F322FA01F1A2400B43524263EBF3
:103BC000430332432B43CDE90823DDE90823C9E948
:103BD000002300E76FF00100FDE66FF00800FAE651
:103BE000082CA1D9102CB4D9202CEED8C4E7BBF1F5
:103BF000000FAED0022384E7BBF1000FBCD004233A
:103C00007FE70000012A30B5144638BF012485B093
:103C10000025402C28BF4024012ACDE9025518D8A0
:103C20001B788DF8083063070AD004AB624203EBBF
:103C3000D40502F0070215F8083C934005F8083C4B
:103C4000034600912246002102A8FFF72FFB05B092
:103C500030BD082AE4D9102A03D81B88ADF80830F3
:103C6000E1E7202A95BF1B68D3E900230293CDE941
:103C70000223D8E710B5CB681BB98B600B618B8230
:103C800010BDC4681A681C60C360438A013B43824C
:103C9000CA60F0E72DE9F04F93B004460D46CDE938
:103CA00003230B681806C3F3C01147BFC3F3C03B1F
:103CB000C3F306264FF0020B0E46002B80F2FF8165
:103CC00013F0C04940F0FB812A7B002A00F0F78105
:103CD000BBF1020F03D02078B04240F0F381C3F370
:103CE0000460079003F07F00059059B3C3F3074ABF
:103CF0007606059B2A4446EA0B4692F8038000228A
:103D000046EA83460023CDE908235FEAD81346EA52
:103D10000A06029369D0059B524608A920460093E3
:103D20005B466768B847002800F0CF81E76987B92C
:103D3000314604F10C00FFF71BFB0746C8B96FF0D2
:103D4000020056E0C3F30F2A590608BF0AF0030A1F
:103D5000CEE73B699E420DD03F68002FF9D1314636
:103D600004F10C00FFF704FB07460028E7D0E369E5
:103D70003B60E761FE7D08F01F03C6F384060693EF
:103D8000F01A9B1B1FFA80FC0028B8BF0CF1200022
:103D90001FFA83FCB8BF00B2002BD7E90221BCBFD9
:103DA0000CF120031BB252EA010636D0039EDFF865
:103DB000D8C2B21A049E66EB01010026944576EB48
:103DC000010C2AD395F80DE097F81AC0E64518D1F2
:103DD000029E002E79D001281FDC7868E8B9A94E30
:103DE000964270EB010216D337E0E76927B96FF00E
:103DF0000C0013B0BDE8F08F3B699E42BAD03F681B
:103E0000F4E7A048904276EB010201D30020F0E7EE
:103E1000029A002AFAD00F2B18DCFA7D4FEA8803A9
:103E20003946204602F0030203F07C031343FB757E
:103E3000FFF720FB6B7BBB76029B3BB9FB7DC3F39B
:103E40008402013262F38603FB75D0E76A7BBB7E96
:103E50009A42DBD1029B002B37D04FEA9813022BFA
:103E600033D0039B142200210DA8BB60049BFB6090
:103E7000FDF758FE039B0AA920460A93049BADF860
:103E80003EA00B932B1D8DF840B00C932B7B013B78
:103E9000DBB2ADF83C30069B8DF84130079B8DF8C6
:103EA0004230059B8DF8433094F8283083F00103AD
:103EB0008DF84430A3689847FB7DC3F38403013336
:103EC00003F01F039B02FB82A0E7FB7DC8F34012B7
:103ED000B2EBD31F40F0FC80C3F38403069A9342F5
:103EE00040F0F98002994FEA98122B7B00294DD0BF
:103EF000D2075DD4032B40F2F180039BAE1D3946FF
:103F000004F10C00BB603246049BFB602B7B033B3F
:103F1000DBB2FFF7C1FA00280CDA39462046FFF77A
:103F2000A9FAFB7DC3F38403013303F01F039B0253
:103F3000FB8204E7AB88DDE908843B834FF6FF731F
:103F4000C9F12000A9F1200228FA09F109F10809B4
:103F500004FA00F024FA02F2014318461143C9B2F0
:103F6000FFF7DCF9B9F1400F0346E9D1B8823146D9
:103F70002A7B033AD2B2FFF7E1F9FB7DB882DA433C
:103F8000C2F3C01262F3C713FB753FE782B92E1D5F
:103F9000013B394604F10C00DBB23246FFF77CFAF4
:103FA0000028BADB2A7B3146B88A013AD2B2E2E76E
:103FB000F98A013BC1F30901DAB204295CD8281D52
:103FC000002307F11B069A4208D910F801CB0133F0
:103FD00006F801C00131DBB20529F4D103999342FF
:103FE0000A9138BF043304992CBF002355FA83F398
:103FF0000B9107F11B010C9179680E930D91291D0E
:10400000FB8AADF83EA0C3F309038DF840B01A4413
:10401000069B8DF84130079BADF83C208DF842306F
:10402000059B8DF8433094F8283083F001038DF818
:1040300044300023B88A7B602A7B013AFFF77EF97F
:104040003B8BB882834203D1A3680AA920469847D4
:1040500020460AA9FFF70EFEFB7DBA8AC3F384034C
:10406000013303F01F039B02FB823B8B9A420CBF80
:1040700000206FF01000BCE67B68002BAED005205E
:1040800006E000BF40420F0080841E001C30334613
:104090001E68002EFAD1091A2E1D081D184401EBC6
:1040A000090C5FFA89F3BCF11B0F97D89A4295D996
:1040B00016F8013B09F1010900F8013BEFE76FF049
:1040C000090096E66FF00A0093E66FF00B0090E6A9
:1040D0006FF00D008DE66FF00E008AE66FF00F00B6
:1040E00087E600BFEFF30983054968334A6B22F086
:1040F00001024A6383F30988002383F31188704720
:1041000000EF00E0302080F3118862B60D4B0E4ABC
:10411000D96821F4E0610904090C0A430B49DA600B
:10412000D3F8FC2042F08072C3F8FC20084AC2F8A1
:10413000B01F116841F0010111602022DA7783F885
:104140002200704700ED00E00003FA0555CEACC533
:10415000001000E0302310B583F311880E4B5B682C
:1041600013F4006314D0F1EE103AEFF309844FF02A
:104170008073683CE361094BDB6B236684F3098839
:1041800000F0D0FC10B1064BA36110BD054BFBE75E
:1041900083F31188F9E700BF00ED00E000EF00E0D5
:1041A0004307000846070008090100F160430122A7
:1041B00003F56143C9B283F8001300F01F039A406E
:1041C00043099B0003F1604303F56143C3F8802179
:1041D0001A607047026843681143016003B11847D1
:1041E0007047000013B5406B00F58054D4F8A43834
:1041F0001A681178042914D1017C022911D1197986
:10420000012312898B4013420BD101A94C3002F0DB
:1042100025F9D4F8A4480246019B2179206800F0D2
:10422000DFF902B010BD0000143002F0A7B80000A2
:104230004FF0FF33143002F0A1B800004C3002F010
:1042400079B900004FF0FF334C3002F073B9000031
:10425000143002F075B800004FF0FF31143002F056
:104260006FB800004C3002F045B900004FF0FF324B
:104270004C3002F03FB900000020704710B500F547
:104280008054D4F8A4381A681178042917D1017C15
:10429000022914D15979012352898B4013420ED13E
:1042A000143002F007F8024648B1D4F8A4484FF49D
:1042B000407361792068BDE8104000F07FB910BDFF
:1042C000406BFFF7DBBF0000704700007FB5124B6B
:1042D00001250426044603600023057400F18402CE
:1042E00043602946C0E902330C4B0290143001931D
:1042F0004FF44073009601F0B9FF094B04F6944265
:10430000294604F14C000294CDE900634FF4407358
:1043100002F080F804B070BD0C700008C1420008C3
:10432000E54100080A68302383F311880B790B33C9
:1043300042F823004B79133342F823008B7913B1F1
:104340000B3342F8230000F58053C3F8A41802236E
:104350000374002080F311887047000038B5037F94
:10436000044613B190F85430ABB90125201D022149
:10437000FFF730FF04F114006FF00101257700F022
:10438000AFFC04F14C0084F854506FF00101BDE81B
:10439000384000F0A5BC38BD10B5012104460430FA
:1043A000FFF718FF0023237784F8543010BD000076
:1043B00038B504460025143001F070FF04F14C00BC
:1043C000257702F03FF8201D84F854500121FFF7B3
:1043D00001FF2046BDE83840FFF750BF90F880301D
:1043E00003F06003202B06D190F881200023212ABE
:1043F00003D81F2A06D800207047222AFBD1C0E923
:104400001D3303E0034A426707228267C367012026
:10441000704700BF3422002037B500F58055D5F82D
:10442000A4381A68117804291AD1017C022917D1FD
:104430001979012312898B40134211D100F14C04E8
:10444000204602F0BFF858B101A9204602F006F854
:10445000D5F8A4480246019B2179206800F0C0F8F5
:1044600003B030BD01F10B03F0B550F8236085B007
:1044700004460D46FEB1302383F3118804EB850713
:10448000301D0821FFF7A6FEFB6806F14C005B69B2
:104490001B681BB1019001F0EFFF019803A901F027
:1044A000DDFF024648B1039B2946204600F098F8FC
:1044B000002383F3118805B0F0BDFB685A691268C8
:1044C000002AF5D01B8A013B1340F1D104F1800290
:1044D000EAE70000133138B550F82140ECB1302341
:1044E00083F3118804F58053D3F8A4281368527914
:1044F00003EB8203DB689B695D6845B104216018AA
:10450000FFF768FE294604F1140001F0DDFE2046A5
:10451000FFF7B4FE002383F3118838BD7047000015
:1045200001F0AAB901234022002110B5044600F889
:10453000303BFDF7F7FA0023C4E9013310BD00005A
:1045400010B53023044683F31188242241600021F2
:104550000C30FDF7E7FA204601F0B0F90223002005
:10456000237080F3118810BD70B500EB8103054600
:1045700050690E461446DA6018B110220021FDF78A
:10458000D1FAA06918B110220021FDF7CBFA31460B
:104590002846BDE8704001F097BA000083682022E9
:1045A000002103F0011310B5044683601030FDF7BD
:1045B000B9FA2046BDE8104001F012BBF0B4012565
:1045C00000EB810447898D40E4683D43A46945813F
:1045D00023600023A2606360F0BC01F02FBB0000E9
:1045E000F0B4012500EB810407898D40E4683D4368
:1045F0006469058123600023A2606360F0BC01F060
:10460000A5BB000070B502230025044624220370D8
:104610002946C0F888500C3040F8045CFDF782FA57
:10462000204684F8705001F0E3F963681B6823B1F9
:1046300029462046BDE87040184770BD0378052B19
:1046400010B504460AD080F88C3005230370436807
:104650001B680BB1042198470023A36010BD000024
:104660000178052906D190F88C20436802701B68F8
:1046700003B118477047000070B590F870300446D9
:1046800013B1002380F8703004F18002204601F05D
:10469000CBFA63689B68B3B994F8803013F0600577
:1046A00035D00021204601F0BDFD0021204601F05B
:1046B000ADFD63681B6813B10621204698470623A9
:1046C00084F8703070BD204698470028E4D0B4F8D4
:1046D0008630A26F9A4288BFA36794F98030A56F95
:1046E000002B4FF0300380F20381002D00F0F280A8
:1046F000092284F8702083F3118800212046D4E930
:104700001D23FFF76DFF002383F31188DAE794F888
:10471000812003F07F0343EA022340F202329342F6
:1047200000F0C58021D8B3F5807F48D00DD8012B8B
:104730003FD0022B00F09380002BB2D104F188020D
:1047400062670222A267E367C1E7B3F5817F00F0E9
:104750009B80B3F5407FA4D194F88230012BA0D187
:10476000B4F8883043F0020332E0B3F5006F4DD067
:1047700017D8B3F5A06F31D0A3F5C063012B90D843
:104780006368204694F882205E6894F88310B4F839
:104790008430B047002884D0436863670368A36708
:1047A0001AE0B3F5106F36D040F6024293427FF420
:1047B00078AF5C4B63670223A3670023C3E794F8D9
:1047C0008230012B7FF46DAFB4F8883023F0020300
:1047D000A4F88830C4E91D55E56778E7B4F880305F
:1047E000B3F5A06F0ED194F88230204684F88A3059
:1047F00001F05CF963681B6813B1012120469847FA
:10480000032323700023C4E91D339CE704F18B03C9
:1048100063670123C3E72378042B10D1302383F38C
:1048200011882046FFF7BAFE85F3118803216368DB
:1048300084F88B5021701B680BB12046984794F880
:104840008230002BDED084F88B3004232370636821
:104850001B68002BD6D0022120469847D2E794F857
:10486000843020461D0603F00F010AD501F0CEF971
:10487000012804D002287FF414AF2B4B9AE72B4B6E
:1048800098E701F0B5F9F3E794F88230002B7FF454
:1048900008AF94F8843013F00F01B3D01A06204605
:1048A00002D501F0D7FCADE701F0C8FCAAE794F807
:1048B0008230002B7FF4F5AE94F8843013F00F01B2
:1048C000A0D01B06204602D501F0ACFC9AE701F00F
:1048D0009DFC97E7142284F8702083F311882B46FF
:1048E0002A4629462046FFF769FE85F31188E9E646
:1048F0005DB1152284F8702083F3118800212046D1
:10490000D4E91D23FFF75AFEFDE60B2284F8702040
:1049100083F311882B462A4629462046FFF760FE7E
:10492000E3E700BF3C7000083470000838700008EE
:1049300038B590F870300446002B3ED0063BDAB212
:104940000F2A34D80F2B32D8DFE803F03731310883
:10495000223231313131313131313737856FB0F871
:1049600086309D4214D2C3681B8AB5FBF3F203FB69
:1049700012556DB9302383F311882B462A462946F8
:10498000FFF72EFE85F311880A2384F870300EE0BD
:10499000142384F87030302383F3118800232046D9
:1049A0001A461946FFF70AFE002383F3118838BD23
:1049B000C36F03B198470023E7E70021204601F0C9
:1049C00031FC0021204601F021FC63681B6813B113
:1049D0000621204698470623D7E7000010B590F837
:1049E00070300446142B29D017D8062B05D001D8D7
:1049F0001BB110BD093B022BFBD80021204601F062
:104A000011FC0021204601F001FC63681B6813B112
:104A1000062120469847062319E0152BE9D10B23E0
:104A200080F87030302383F3118800231A4619462A
:104A3000FFF7D6FD002383F31188DAE7C3689B698B
:104A40005B68002BD5D1C36F03B19847002384F86E
:104A50007030CEE700238268037503691B6899688C
:104A60009142FBD25A680360426010605860704700
:104A700000238268037503691B6899689142FBD81B
:104A80005A680360426010605860704708B5084675
:104A9000302383F311880B7D032B05D0042B0DD01D
:104AA0002BB983F3118808BD8B6900221A604FF07F
:104AB000FF338361FFF7CEFF0023F2E7D1E9003235
:104AC00013605A60F3E70000FFF7C4BF054BD968D5
:104AD00008751868026853601A600122D860027570
:104AE000FBF71ABE104A00200C4B30B5DD684B1C9A
:104AF00087B004460FD02B46094A684600F084F977
:104B00002046FFF7E3FF009B13B1684600F086F9EB
:104B1000A86907B030BDFFF7D9FFF9E7104A0020B8
:104B20008D4A0008044B1A68DB6890689B689842BD
:104B300094BF002001207047104A0020084B10B598
:104B40001C68D868226853601A600122DC602275F4
:104B5000FFF78EFF01462046BDE81040FBF7DCBDA5
:104B6000104A0020044B1A68DB6892689B689A42DE
:104B700001D9FFF7E3BF7047104A002038B5074C52
:104B800001230025064907482370656001F058FDA0
:104B90000223237085F3118838BD00BF784C0020B4
:104BA00044700008104A002008B572B6044B18651E
:104BB00000F07EFC00F04CFD024B03221A70FEE771
:104BC000104A0020784C002000F05EB9EFF311800D
:104BD00020B9EFF30583302282F31188704700007B
:104BE00010B530B9EFF30584C4F3080414B180F3B1
:104BF000118810BDFFF7B6FF84F31188F9E70000B4
:104C0000034A516853685B1A9842FBD8704700BF4B
:104C1000001000E08B600223086108468B82704719
:104C20008368A3F1840243F8142C026943F8442CEE
:104C3000426943F8402C094A43F8242CC268A3F186
:104C4000200043F8182C022203F80C2C002203F851
:104C50000B2C034A43F8102C704700BF31070008A3
:104C6000104A002008B5FFF7DBFFBDE80840FFF75A
:104C70002BBF0000024BDB6898610F20FFF726BFB7
:104C8000104A0020302383F31188FFF7F3BF0000A0
:104C900008B50146302383F311880820FFF724FF6D
:104CA000002383F3118808BD064BDB6839B14268E5
:104CB00018605A60136043600420FFF715BF4FF07F
:104CC000FF307047104A00200368984206D01A68E7
:104CD0000260506018469961FFF7F6BE7047000009
:104CE00038B504460D462068844200D138BD0368BB
:104CF00023605C608561FFF7E7FEF4E7036810B5A9
:104D00009C68A2420CD85C688A600B604C60216091
:104D1000596099688A1A9A604FF0FF33836010BD1A
:104D2000121B1B68ECE700000A2938BF0A2170B586
:104D300004460D460A26601901F07AFC01F062FC77
:104D4000041BA54203D8751C04462E46F3E70A2E21
:104D500004D90120BDE8704001F0B2BC70BD000074
:104D6000F8B5144B0D460A2A4FF00A07D96103F132
:104D70001001826038BF0A2241601969144601603F
:104D800048601861A81801F043FC01F03BFC431B8C
:104D90000646A34206D37C1C28192746354601F057
:104DA00047FCF2E70A2F04D90120BDE8F84001F0E2
:104DB00087BCF8BD104A0020F8B506460D4601F044
:104DC00021FC0F4A134653F8107F9F4206D12A4612
:104DD00001463046BDE8F840FFF7C2BFD169BB6865
:104DE000441A2C1928BF2C46A34202D92946FFF7A2
:104DF0009BFF224631460348BDE8F840FFF77EBFDF
:104E0000104A0020204A0020C0E90323002310B4E8
:104E10005DF8044B4361FFF7CFBF000010B5194C9C
:104E2000236998420DD08168D0E9003213605A603E
:104E30009A680A449A60002303604FF0FF33A3612D
:104E400010BD0268234643F8102F53600022026011
:104E500022699A4203D1BDE8104001F0E3BB936898
:104E600081680B44936001F0CDFB2269E16992688F
:104E7000441AA242E4D91144BDE81040091AFFF7D0
:104E800053BF00BF104A00202DE9F047DFF8BC8077
:104E900008F110072C4ED8F8105001F0B3FBD8F8E9
:104EA0001C40AA68031B9A423ED814444FF00009E4
:104EB000D5E90032C8F81C4013605A60C5F800906C
:104EC000D8F81030B34201D101F0ACFB89F311885E
:104ED000D5E9033128469847302383F311886B695D
:104EE000002BD8D001F08EFB6A69A0EB0409824642
:104EF0004A450DD2022001F0E3FB0022D8F8103021
:104F0000B34208D151462846BDE8F047FFF728BF15
:104F1000121A2244F2E712EB09092946384638BF33
:104F20004A46FFF7EBFEB5E7D8F81030B34208D099
:104F30001444C8F81C00211AA960BDE8F047FFF727
:104F4000F3BEBDE8F08700BF204A0020104A0020D1
:104F500000207047FEE70000704700004FF0FF3070
:104F60007047000002290CD0032904D0012907480A
:104F700018BF00207047032A05D8054800EBC2007F
:104F80007047044870470020704700BF1C7100083C
:104F900044220020D070000870B59AB0054608463B
:104FA000144601A900F0C2F801A8FCF7B3FD431CA8
:104FB0000022C6B25B001046C5E90034237003230B
:104FC000023404F8013C01ABD1B202348E4201D864
:104FD0001AB070BD13F8011B013204F8010C04F87B
:104FE000021CF1E708B5302383F311880348FFF76B
:104FF00013FA002383F3118808BD00BF804C002002
:1050000090F8803003F01F02012A07D190F8812028
:105010000B2A03D10023C0E91D3315E003F0600320
:10502000202B08D1B0F884302BB990F88120212AA8
:1050300003D81F2A04D8FFF7D1B9222AEBD0FAE708
:10504000034A426707228267C3670120704700BF97
:105050003B22002007B5052917D8DFE801F0191613
:1050600003191920302383F31188104A012101907C
:10507000FFF77AFA019802210D4AFFF775FA0D48F9
:10508000FFF796F9002383F3118803B05DF804FB62
:10509000302383F311880748FFF760F9F2E73023E4
:1050A00083F311880348FFF777F9EBE77070000886
:1050B00094700008804C002038B50C4D0C4C2A46EA
:1050C0000C4904F10800FFF767FF05F1CA0204F17B
:1050D00010000949FFF760FF05F5CA7204F11800D6
:1050E0000649BDE83840FFF757BF00BF58650020AC
:1050F00044220020507000085A70000865700008B3
:1051000070B5044608460D46FCF704FDC6B22046BD
:10511000013403780BB9184670BD32462946FCF7B6
:10512000E5FC0028F3D10120F6E700002DE9F84F57
:1051300005460C46FCF7EEFC2C49C6B22846FFF7A4
:10514000DFFF08B10236F6B229492846FFF7D8FF3B
:1051500008B11036F6B2632E0DD8DFF89080DFF874
:105160009090244FDFF894A0DFF894B02E7846B9E1
:105170002670BDE8F88F29462046BDE8F84F01F0BB
:10518000BBBE252E2ED1072241462846FCF7AEFC99
:1051900070B9DBF800300735093444F8093CDBF816
:1051A000043044F8053C9BF8083004F8013CDDE786
:1051B000082249462846FCF799FC98B9A21C0E4BD8
:1051C000197802320909C95D02F8041C13F8011BA1
:1051D00001F00F015345C95D02F8031CF0D11834EA
:1051E0000835C3E7013504F8016BBFE73C710008DF
:1051F000657000084E71000800E8F11F0CE8F11F0F
:1052000044710008BFF34F8F044B1A695107FCD15A
:10521000D3F810215207F8D1704700BF0020005288
:1052200008B50D4B1B78ABB9FFF7ECFF0B4BDA68F9
:10523000D10704D50A4A5A6002F188325A60D3F87D
:105240000C21D20706D5064AC3F8042102F18832A0
:10525000C3F8042108BD00BFB6670020002000523B
:105260002301674508B5114B1B78F3B9104B1A6938
:10527000510703D5DA6842F04002DA60D3F8102112
:10528000520705D5D3F80C2142F04002C3F80C2197
:10529000FFF7B8FF064BDA6842F00102DA60D3F894
:1052A0000C2142F00102C3F80C2108BDB6670020B2
:1052B000002000520F289ABF00F5806040040020B3
:1052C000704700004FF40030704700001020704716
:1052D0000F2808B50BD8FFF7EDFF00F50033026883
:1052E000013204D104308342F9D1012008BD0020ED
:1052F000FCE700000F2870B5054645D8FFF766FCAF
:10530000224CFFF77FFF0646FFF78AFF4FF0FF337F
:10531000072D6361C4F8143120D82361FFF772FFB1
:105320002B0243F02403E360E36843F08003E3606F
:1053300023695A07FCD42846FFF764FF4FF4003175
:10534000FFF7B8FF00F060F93046FFF78BFFFFF77B
:1053500047FC2846BDE87040FFF7BABFC4F81031DB
:10536000FFF750FFA5F108031B0243F02403C4F824
:105370000C31D4F80C3143F08003C4F80C31D4F86C
:1053800010315B07FBD4D6E7002070BD002000522F
:105390002DE9F84F40EA020305460C461746D806A9
:1053A00002D00020BDE8F88F27F01F07DFF8D4B047
:1053B000FFF736FF2744BC4203D10120FFF752FF1D
:1053C000F0E720222946204601F018FD10B92035CB
:1053D0002034F0E72B4605F120021E68711CE0D155
:1053E00004339A42F9D1FFF7F1FB05F17843234AE0
:1053F000B3F5801F224B28BF9A4603F1040338BF40
:105400009046A2F1080228BF9846A3F108033ABFCC
:105410009146DA469946FFF7F5FEC8F80060A5EB1D
:10542000040CD9F8002004F11C0142F00202C9F872
:105430000020221FDAF8006016F00506FAD152F8B3
:10544000043F8A424CF80230F4D1BFF34F8FFFF78C
:10545000D9FE4FF0FF32C8F80020D9F8002022F022
:105460000202C9F80020FFF7BBFB20222146284694
:1054700001F0C4FC0028AAD030469FE71420005257
:10548000102100521020005210B5084C237828B18A
:105490001BB9FFF7C5FE0123237010BD002BFCD004
:1054A0002070BDE81040FFF7DDBE00BFB6670020EA
:1054B00038B5054D00240334696855F80C0B00F02D
:1054C000B5F8122CF7D138BD6071000870B5104ED8
:1054D00082B0FFF77BFB054601F094F83268034683
:1054E0009042336037BF0B4A0A495168146836BF8F
:1054F0000131D1E9004151600419284641F1000110
:105500000191FFF76DFB2046019902B070BD00BF0D
:10551000B8670020C067002070B5124E82B0FFF758
:1055200055FB054601F06EF8326803469042336041
:1055300037BF0D4A0C495168146836BF0131D1E9B3
:10554000004151600419284641F100010191FFF723
:1055500047FB4FF47A72002320460199FAF7C8FE00
:1055600002B070BDB8670020C06700200244074B3E
:10557000D2B210B5904200D110BD441C00B253F815
:10558000200041F8040BE0B2F4E700BF504000589F
:105590000E4B30B51C6F240405D41C6F1C671C6FA8
:1055A00044F400441C670A4C02442368D2B243F41A
:1055B00080732360074B904200D130BD441C51F8EA
:1055C000045B00B243F82050E0B2F4E70044025814
:1055D000004802585040005807B5012201A9002098
:1055E000FFF7C4FF019803B05DF804FB13B5044650
:1055F000FFF7F2FFA04205D0012201A9002001948B
:10560000FFF7C6FF02B010BD0144BFF34F8F064B3A
:10561000884204D3BFF34F8FBFF36F8F7047C3F837
:105620005C022030F4E700BF00ED00E00144BFF36E
:105630004F8F064B884204D3BFF34F8FBFF36F8F5A
:105640007047C3F870022030F4E700BF00ED00E0BF
:1056500070470000074B45F255521A6002225A600B
:1056600040F6FF729A604CF6CC421A600122024B5F
:105670001A70704700480058CC670020034B1B7815
:105680001BB1034B4AF6AA221A607047CC67002070
:1056900000480058034B1A681AB9034AD2F8D024BC
:1056A0001A607047C867002000400258024B4FF450
:1056B0008032C3F8D02470470040025808B5FFF785
:1056C000E9FF024B1868C0F3806008BDC86700207E
:1056D00070B5BFF34F8FBFF36F8F1A4A0021C2F826
:1056E0005012BFF34F8FBFF36F8F536943F40033F2
:1056F0005361BFF34F8FBFF36F8FC2F88410BFF3B6
:105700004F8FD2F8803043F6E074C3F3C900C3F37F
:105710004E335B0103EA0406014646EA817501390E
:10572000C2F86052F9D2203B13F1200FF2D1BFF33F
:105730004F8F536943F480335361BFF34F8FBFF3EF
:105740006F8F70BD00ED00E0FEE70000214B2248A6
:10575000224A70B5904237D3214BC11EDA1C121A6F
:1057600022F003028B4238BF00220021FCF7DAF955
:105770001C4A0023C2F88430BFF34F8FD2F8803028
:1057800043F6E074C3F3C900C3F34E335B0103EA8D
:105790000406014646EA81750139C2F86C52F9D215
:1057A000203B13F1200FF2D1BFF34F8FBFF36F8F68
:1057B000BFF34F8FBFF36F8F0023C2F85032BFF398
:1057C0004F8FBFF36F8F70BD53F8041B40F8041B5D
:1057D000C0E700BFF8730008A8690020A86900208E
:1057E000A869002000ED00E0074BD3F8D81021EAAB
:1057F0000001C3F8D810D3F8002122EA0002C3F850
:105800000021D3F8003170470044025870B5D0E948
:10581000244300224FF0FF359E6804EB42135101F0
:10582000D3F80009002805DAD3F8000940F08040D9
:10583000C3F80009D3F8000B002805DAD3F8000BF1
:1058400040F08040C3F8000B013263189642C3F861
:105850000859C3F8085BE0D24FF00113C4F81C38B4
:1058600070BD0000890141F02001016103699B06C0
:10587000FCD41220FFF7C4B910B50A4C2046FEF73D
:1058800051FE094BC4F89030084BC4F89430084CD2
:105890002046FEF747FE074BC4F89030064BC4F88D
:1058A000943010BDD067002000000840CC71000883
:1058B0006C68002000000440D871000870B50378BF
:1058C0000546012B5CD1434BD0F89040984258D10B
:1058D000414B0E216520D3F8D82042F00062C3F876
:1058E000D820D3F8002142F00062C3F80021D3F899
:1058F0000021D3F8802042F00062C3F88020D3F862
:10590000802022F00062C3F88020D3F88030FEF7B8
:105910004BFC324BE360324BC4F800380023D5F81F
:105920009060C4F8003EC02323604FF40413A363C7
:105930003369002BFCDA01230C203361FFF760F997
:105940003369DB07FCD41220FFF75AF93369002BC7
:10595000FCDA00262846A660FFF758FF6B68C4F8FB
:105960001068DB68C4F81468C4F81C6883BB1D4B5E
:10597000A3614FF0FF336361A36843F00103A360A9
:1059800070BD194B9842C9D1134B4FF08060D3F8CA
:10599000D82042F00072C3F8D820D3F8002142F09A
:1059A0000072C3F80021D3F80021D3F8802042F020
:1059B0000072C3F88020D3F8802022F00072C3F870
:1059C0008020D3F88030FFF70FFF0E214D209EE797
:1059D000064BCDE7D0670020004402584014004039
:1059E00003002002003C30C06C680020083C30C03E
:1059F000F8B5D0F89040054600214FF000662046EB
:105A0000FFF730FFD5F8941000234FF001128F6894
:105A10004FF0FF30C4F83438C4F81C2804EB4312AC
:105A200001339F42C2F80069C2F8006BC2F808094E
:105A3000C2F8080BF2D20B68D5F89020C5F8983060
:105A4000636210231361166916F01006FBD1122051
:105A5000FFF7D6F8D4F8003823F4FE63C4F8003812
:105A6000A36943F4402343F01003A3610923C4F85E
:105A70001038C4F814380B4BEB604FF0C043C4F837
:105A8000103B094BC4F8003BC4F81069C4F8003956
:105A9000D5F8983003F1100243F48013C5F898202C
:105AA000A362F8BDA871000840800010D0F89020D3
:105AB00090F88A10D2F8003823F4FE6343EA011309
:105AC000C2F80038704700002DE9F84300EB81036D
:105AD000D0F890500C468046DA680FFA81F94801F8
