:020000040800F2
:1000000000070020B5050008A92E0008292E0008C9
:10001000812E0008292E0008552E0008B70500087B
:10002000B7050008B7050008B7050008593C0008E7
:10003000B7050008B7050008B7050008B7050008B0
:10004000B7050008B7050008B7050008B7050008A0
:10005000B7050008B7050008156C0008416C0008DA
:100060006D6C0008996C0008C56C0008B7050008A5
:10007000B7050008B7050008B7050008B705000870
:10008000B7050008B7050008B7050008892B000868
:10009000B7050008992B0008B7050008F16C0008A7
:1000A000B7050008B7050008B7050008B705000840
:1000B000B7050008B7050008B7050008B705000830
:1000C000B7050008B7050008B7050008B705000820
:1000D000B7050008B7050008B7050008B705000810
:1000E000556D0008B7050008B7050008B7050008FA
:1000F000B7050008B7050008B7050008B7050008F0
:10010000B7050008B7050008F16D0008B70500083D
:10011000B7050008B7050008B7050008B7050008CF
:10012000B7050008B7050008B7050008B7050008BF
:10013000B7050008B7050008B7050008B7050008AF
:10014000B7050008B7050008B7050008B70500089F
:10015000B7050008B7050008B7050008B70500088F
:10016000B7050008B7050008B7050008B70500087F
:10017000B7050008A9620008B7050008B705000820
:10018000B7050008B7050008C96D0008DD6D000857
:10019000B7050008B7050008B7050008B70500084F
:1001A000B7050008B7050008B7050008B70500083F
:1001B000B7050008B7050008B7050008B70500082F
:1001C000B7050008B7050008B7050008B70500081F
:1001D000B705000895620008B7050008B7050008D4
:1001E000B7050008B7050008B7050008B7050008FF
:1001F000B7050008B7050008B7050008B7050008EF
:10020000B7050008B7050008B7050008B7050008DE
:10021000B7050008B7050008B7050008B7050008CE
:10022000B7050008B7050008B7050008B7050008BE
:10023000B7050008B7050008B7050008B7050008AE
:10024000B7050008B7050008B7050008B70500089E
:10025000B7050008B7050008B7050008B70500088E
:10026000B7050008B7050008B7050008B70500087E
:10027000B7050008B7050008B7050008B70500086E
:10028000B7050008B7050008B7050008B70500085E
:10029000B7050008B7050008B7050008B70500084E
:1002A000D519000800000000000000000000000058
:1002B00053B94AB9002908BF00281CBF4FF0FF31CD
:1002C0004FF0FF3000F074B9ADF1080C6DE904CEC9
:1002D00000F006F8DDF804E0DDE9022304B0704721
:1002E0002DE9F047089D04468E46002B4DD18A42E9
:1002F000944669D9B2FA82F252B101FA02F3C2F11C
:10030000200120FA01F10CFA02FC41EA030E9440AC
:100310004FEA1C48210CBEFBF8F61FFA8CF708FBCD
:1003200016E341EA034306FB07F199420AD91CEBA5
:10033000030306F1FF3080F01F81994240F21C81D7
:10034000023E63445B1AA4B2B3FBF8F008FB10331F
:1003500044EA034400FB07F7A7420AD91CEB040454
:1003600000F1FF3380F00A81A74240F20781644424
:10037000023840EA0640E41B00261DB1D4400023A9
:10038000C5E900433146BDE8F0878B4209D9002D0D
:1003900000F0EF800026C5E9000130463146BDE897
:1003A000F087B3FA83F6002E4AD18B4202D3824201
:1003B00000F2F980841A61EB030301209E46002DB0
:1003C000E0D0C5E9004EDDE702B9FFDEB2FA82F205
:1003D000002A40F09280A1EB0C014FEA1C471FFA63
:1003E0008CFE0126200CB1FBF7F307FB131140EA4A
:1003F00001410EFB03F0884208D91CEB010103F117
:10040000FF3802D2884200F2CB804346091AA4B2D8
:10041000B1FBF7F007FB101144EA01440EFB00FEAC
:10042000A64508D91CEB040400F1FF3102D2A64511
:1004300000F2BB800846A4EB0E0440EA03409CE7B0
:10044000C6F12007B34022FA07FC4CEA030C20FA5D
:1004500007F401FA06F31C43F9404FEA1C4900FA7D
:1004600006F3B1FBF9F8200C1FFA8CFE09FB1811FA
:1004700040EA014108FB0EF0884202FA06F20BD96D
:100480001CEB010108F1FF3A80F08880884240F2BD
:100490008580A8F102086144091AA4B2B1FBF9F001
:1004A00009FB101144EA014100FB0EFE8E4508D9FC
:1004B0001CEB010100F1FF346CD28E456AD9023881
:1004C000614440EA0840A0FB0294A1EB0E01A14266
:1004D000C846A64656D353D05DB1B3EB080261EBD4
:1004E0000E0101FA07F722FA06F3F1401F43C5E9AE
:1004F000007100263146BDE8F087C2F12003D840E4
:100500000CFA02FC21FA03F3914001434FEA1C4725
:100510001FFA8CFEB3FBF7F007FB10360B0C43EA17
:10052000064300FB0EF69E4204FA02F408D91CEBC7
:10053000030300F1FF382FD29E422DD902386344C5
:100540009B1B89B2B3FBF7F607FB163341EA034165
:1005500006FB0EF38B4208D91CEB010106F1FF38B4
:1005600016D28B4214D9023E6144C91A46EA0046AB
:1005700038E72E46284605E70646E3E61846F8E63D
:100580004B45A9D2B9EB020864EB0C0E0138A3E786
:100590004646EAE7204694E74046D1E7D0467BE767
:1005A000023B614432E7304609E76444023842E7DF
:1005B000704700BF02E000F000F8FEE772B63A486C
:1005C00080F30888394880F3098839484EF6085185
:1005D000CEF20001086040F20000CCF200004EF6BE
:1005E0003471CEF200010860BFF34F8FBFF36F8FFD
:1005F00040F20000C0F2F0004EF68851CEF2000149
:100600000860BFF34F8FBFF36F8F4FF00000E1EE34
:10061000100A4EF63C71CEF200010860062080F30D
:100620001488BFF36F8F05F047F905F0DBF806F08B
:10063000B7F84FF055301F491B4A91423CBF41F873
:10064000040BFAE71C49194A91423CBF41F8040BDC
:10065000FAE71A491A4A1B4B9A423EBF51F8040B5B
:1006600042F8040BF8E700201749184A91423CBFB2
:1006700041F8040BFAE705F0F3F806F009F9144C19
:10068000144DAC4203DA54F8041B8847F9E700F034
:1006900041F8114C114DAC4203DA54F8041B884761
:1006A000F9E705F0DBB80000000700200023002078
:1006B000000000080001002000070020E874000886
:1006C00000230020C8230020C8230020247300201A
:1006D000A0020008A4020008A4020008A402000866
:1006E0002DE9F04F2DED108AC1F80CD0D0F80CD0C8
:1006F000BDEC108ABDE8F08F002383F311882846F3
:10070000A047002004F080FBFEE704F0D9FA00DFE8
:10071000FEE70000F8B501F093FA30B1244B002257
:100720000E211A725A729972DA7204F0F5FF0746B6
:1007300005F052F8044688BB1E4B9F422ED0013371
:100740009F422ED027F0FF021B4B9A422CD1264607
:1007500042F21075F8B200F08BFD00F093FF00F04C
:100760008DFD08B90646054634B1144B9F4203D0AF
:10077000002505F029F82E46002004F0D7FF0EB121
:1007800000F064F801F0F8FA00F0A0FF01F09EF923
:10079000284600F00FF900F059F8F9E72646002541
:1007A000DBE705460126D8E7064640F6B835D4E72C
:1007B00000230020010007B0000008B0263A09B06D
:1007C00008B501F04FF9A0F120035842584108BD87
:1007D00007B541F21203022101A8ADF8043001F07F
:1007E0005FF903B05DF804FB202310B583F3118893
:1007F000124803680BB104F0AFFB0023104A4FF41A
:100800007A710E4804F098FB002383F311880D4C95
:10081000236813B12368013B2360636813B16368E5
:10082000013B6360084B1B7833B9636823B902202E
:1008300001F01CFA3223636010BD00BFC823002002
:10084000E9070008E8240020E0230020F8B5524B17
:10085000524A1C461968013100F09D8004339342CE
:10086000F8D162684E4B9A4240F295804D4B9B689E
:1008700003F1006303F500339A4280F08C8004F0AA
:1008800089FF002001F03CF90220474B187001F06D
:10089000E3F9464B0021D3F8E820C3F8E810D3F879
:1008A0001021C3F81011D3F81021D3F8EC20C3F8AD
:1008B000EC10D3F81421C3F81411D3F81421D3F891
:1008C000F020C3F8F010D3F81821C3F81811D3F8AA
:1008D0001821D3F8802042F00062C3F88020D3F8BA
:1008E000802022F00062C3F88020D3F88020D3F863
:1008F000802042F00072C3F88020D3F8802022F0DC
:100900000072C3F88020D3F8803072B64FF0E02335
:10091000C3F8084DD4E90004BFF34F8FBFF36F8FC6
:10092000234AC2F88410BFF34F8F536923F48033F6
:100930005361BFF34F8FD2F8803043F6E076C3F3B4
:10094000C905C3F34E335B0103EA060C29464CEAA2
:1009500081770139C2F87472F9D2203B13F1200F6C
:10096000F2D1BFF34F8FBFF36F8FBFF34F8FBFF342
:100970006F8F536923F4003353610023C2F8503260
:10098000BFF34F8FBFF36F8F202383F3118885460A
:1009900080F308882047F8BD000002082000020804
:1009A000FFFF010800230020E0230020004402583C
:1009B00000ED00E02DE9F04F93B0AC4B2022FF2179
:1009C00000900AA89D6801F081F9A94A1378A3B99B
:1009D0000121A84811700360202383F31188036864
:1009E0000BB104F0B9FA0023A34A4FF47A71A1487D
:1009F00004F0A2FA002383F31188009B9F4A03B1FD
:100A0000136000239E49009C98469B461E469A46CA
:100A10000B705360012001F01FF924B1974B1B6844
:100A2000002B00F01C82002001F01CF80390039BB7
:100A3000002B01DA00F08EFE039B002BEDDB012082
:100A400001F000F9039B213B162BE3D801A252F8D9
:100A500023F000BFB10A0008D90A00086D0B000896
:100A6000150A0008150A0008150A0008010C0008FC
:100A7000D30D0008ED0C00084F0D0008770D00089D
:100A80009D0D0008150A0008AF0D0008150A0008A2
:100A9000210E0008510B0008150A0008650E000819
:100AA000BD0A0008510B0008150A00084F0D000888
:100AB0000220FFF785FE002840F0FB81009B022109
:100AC00005A8B8F1000F08BF1C4641F21233ADF87B
:100AD000143000F0E5FF9DE74FF47A7000F0C2FF9C
:100AE000071EEBDB0220FFF76BFE0028E6D0013F7C
:100AF000052F00F2E081DFE807F0030A0D1013363E
:100B00000523042105A8059300F0CAFF17E004217E
:100B10005648F9E704215B48F6E704215A48F3E711
:100B20004FF01C09484609F1040900F0EBFF0421CD
:100B3000059005A800F0B4FFB9F12C0FF2D1012007
:100B40004FF0000A00FA07F747EA0B0B5FFA8BFB3E
:100B500001F008F926B10BF00B030B2B08BF0024A2
:100B6000FFF736FE56E704214848CDE7002EA5D012
:100B70000BF00B030B2BA1D10220FFF721FE074640
:100B800000289BD001203E4E00F0BAFF4FF0000835
:100B90000220307001F060F85FFA88F9484600F0F2
:100BA000BFFF044690B1484608F1010800F0C8FFB5
:100BB0000028F1D1B846044641F21213022105A8DB
:100BC0003E46ADF8143000F06BFF23E701232546C5
:100BD0000220337001F036F8244B9B68AB4207D9F2
:100BE000284600F08FFF013040F068810435F3E7BC
:100BF0000025234BB8463E461D70204B5D60A7E79D
:100C0000002E3FF45BAF0BF00B030B2B7FF456AFC2
:100C100002201B4B187001F01FF8322000F022FF59
:100C2000B0F10009FFF64AAF19F003077FF446AFB1
:100C30000E4A09EB0503926893423FF63FAFB9F5C0
:100C4000807F3FF73BAF124BB945019322DD4FF454
:100C50007A7000F007FF0390039A002AFFF62EAF88
:100C6000039A0137019B03F8012BEDE700230020D5
:100C7000E4240020C8230020E9070008E82400201D
:100C8000E023002004230020082300200C23002060
:100C9000E4230020C820FFF793FD074600283FF417
:100CA0000DAF1F2D11D8C5F120020AAB25F00300AE
:100CB00084494A45184428BF4A46019200F0E0FFA3
:100CC000019AFF217F4801F001F84FEAA903C9F317
:100CD00087027C492846019301F000F80646002867
:100CE0003FF46AAF019B05EB830531E70220FFF774
:100CF00067FD00283FF4E2AE00F03EFF00283FF41D
:100D0000DDAE0027B946704B9B68BB4218D91F2F38
:100D100011D80A9B01330ED027F0030312AA134403
:100D200053F8203C05934846042205A9043702F0F5
:100D3000C7F88146E7E7384600F0E4FE0590F2E7A1
:100D4000CDF81490042105A800F0AAFE00E70023C6
:100D5000642104A8049300F099FE00287FF4AEAE4D
:100D60000220FFF72DFD00283FF4A8AE049800F004
:100D7000F9FE0590E6E70023642104A8049300F03F
:100D800085FE00287FF49AAE0220FFF719FD0028A7
:100D90003FF494AE049800F0E7FEEAE70220FFF784
:100DA0000FFD00283FF48AAE00F0F6FEE1E70220D6
:100DB000FFF706FD00283FF481AE05A9142000F0DE
:100DC000F1FE07460421049004A800F069FE3946AC
:100DD000B9E7322000F046FE071EFFF66FAEBB07F4
:100DE0007FF46CAE384A07EB0A03926893423FF6F1
:100DF00065AE0220FFF7E4FC00283FF45FAE27F069
:100E000003075744BA453FF4A3AE50460AF1040A1B
:100E100000F078FE0421059005A800F041FEF1E7FE
:100E20004FF47A70FFF7CCFC00283FF447AE00F097
:100E3000A3FE002844D00A9B01330BD008220AA944
:100E4000002000F04BFF00283AD02022FF210AA802
:100E500000F03CFFFFF7BCFC1C4803F0DBFF13B0C5
:100E6000BDE8F08F002E3FF429AE0BF00B030B2BE7
:100E70007FF424AE0023642105A8059300F006FE4C
:100E8000074600287FF41AAE0220FFF799FC81463E
:100E900000283FF413AEFFF79BFC41F2883003F0CB
:100EA000B9FF059800F0AAFF4E463C4600F05AFFF5
:100EB000B0E506464CE64FF0000AFFE5B8467BE693
:100EC000374679E6E423002000230020A0860100B5
:100ED000094A49F26900136899B21B0C00FB0133FF
:100EE00044F250611360054B186882B2000C01FB9C
:100EF0000200186080B270471423002010230020E5
:100F00000021102210B5044600F0E0FE034B03CB95
:100F1000206061601868A06010BD00BF00E8F11F8C
:100F20002DE9F043204DBBB001F0C6FFAB68C31AFA
:100F3000F92B32D906AF2B4628220021A86038466B
:100F400002F052FC05F10E0000F0B8FE0026044647
:100F50005FFA80F905F10E08F3B2F100994501F14D
:100F6000280107D908EB060308223846013602F0AB
:100F70003BFCF1E7082301220534297B0B48A4B28E
:100F8000CDE902320A4B01933023CDE9047400937A
:100F900003A3D3E9002302F03FFA3BB0BDE8F0839E
:100FA00078F6339F93CACD8DB049002008350020D4
:100FB000BD49002070B50D4614461E4602F0C2F928
:100FC00050B9022E10D1012C0ED112A3D3E9002367
:100FD0000120C5E9002307E0282C10D005D8012CFA
:100FE00009D0052C0FD0002070BD302CFBD10BA3F5
:100FF000D3E90023ECE70BA3D3E90023E8E70BA335
:10100000D3E90023E4E70BA3D3E90023E0E700BF23
:10101000AFF30080401DA12026812A0B78F6339F74
:1010200093CACD8D9E6AC421818A46EE2641727292
:10103000DF25D7B7F017304A39059E5613B5044659
:101040000846202200212346019002F0CDFB2279A0
:1010500023460198032A4FF0200128BF032203F8FA
:10106000042F022202F0C0FB627923460198072A6E
:101070004FF0220128BF072203F8052F032202F0B8
:10108000B3FBA27923460198072A4FF0250128BF18
:10109000072203F8062F032202F0A6FB019804F1B1
:1010A00008031022282102F09FFB382002B010BD57
:1010B0002DE9F04FFDB00F46002140F275120AAE47
:1010C00080461EA81D9100F001FE482200213046F6
:1010D00000F0FCFD1DAD01F0EFFE4FF47A72544BB1
:1010E0000DF14A09B0FBF2F0186093E80700012304
:1010F00086E807000DF14A003382FFF701FF42F254
:1011000005234C49338406AB184605F065FF0F22D2
:1011100029463064304686F83C20FFF78FFF0EAB3F
:10112000044601460822284602F05EFB08220DF123
:1011300039032846A11804F1880A02F055FB0DF185
:101140003A03082204F11001284604F5847B02F0DA
:101150004BFB0FAB202204F11801284602F044FBA0
:1011600010AB402204F13801284602F03DFB12ABDF
:10117000082204F17801284602F036FB0DF14903FC
:10118000082204F18001284602F02EFB51460AF1A4
:10119000080A4B460822284609F1010902F024FBFF
:1011A000D345F3D104F588744FF0000917AB08223A
:1011B0005946284602F018FB96F834304B450AD9B8
:1011C000B36B2146082228464B44083409F1010933
:1011D00002F00AFBF0E74FF0000996F83C3004EB10
:1011E000C9014B4508D9336C082228464B4409F104
:1011F000010902F0F9FAF0E70023073140460393B2
:10120000C1F3CF01BB7E029307F1190301930123C0
:10121000CDE904510093F97E03A3D3E9002302F042
:10122000FBF87DB0BDE8F08F9E6AC421818A46EE4E
:10123000F0240020087000080A4B0B4A10B51A6011
:1012400003F5805393F840203AB9DC6B2CB120466B
:1012500001F0AEFC204605F029FE0448BDE8104030
:1012600001F0A6BC303500201C7100085845002054
:10127000014B1870704700BFFC240020334BF0B5C1
:101280001C7B85B034B1324B0E221A8100242046DB
:1012900005B0F0BD2F4A02AB1068516803C30823A4
:1012A0002D492E480DEB030205F028FE054630B906
:1012B000274B0A222A481A8101F076FCE6E70169E9
:1012C000B1F5F01F06D9224B0B2226481A8101F0F6
:1012D0006BFCDCE7438B40F22252934207D01C495F
:1012E0000C2008811946204801F05EFCCFE71F4A18
:1012F000024402F11003994204D2154B10221C48FB
:101300001A81E4E7103920468E1A144901F0D8FDFD
:1013100005F1180107463246204601F0D1FDAB68C1
:101320009F4202D1EB6898420AD0094B0D221A81E4
:101330003B4600900F48D5E9021201F035FCA5E7C5
:101340000D48012401F030FCA1E700BFB0490020A6
:10135000F0240020A9700008DCFF1D000000020836
:101360001870000824700008367000080800FEF7A6
:1013700054700008717000089A7000082DE9F04F51
:10138000ADB080460C4606AF01F0DCFF05460028F4
:1013900059D1237E022B1BD1E38A012B18D101F0F6
:1013A0008BFD0646FFF794FD03464FF4C87006F523
:1013B0001676DFF8CC92B3FBF0F202FB103316FA8C
:1013C00083F3C9F80030E37E33B9A84B00221A70CA
:1013D0009C37BD46BDE8F08FA38AEEB20135013BD4
:1013E000B3420BD93B1DE900082220461E4401F000
:1013F000F8010023009602F0BBF8EDE707F11400B6
:10140000FFF77EFD324607F11401381D05F066FD39
:101410000028DAD10F2E08D8944B1E70D9F800306E
:10142000A3F51673C9F80030D2E7FB1CF87001462B
:10143000072200930346204602F09AF8F9784046C6
:1014400001F078FFC4E7E38A282B26D010D8012BBF
:101450001ED0052BBCD1BFF34F8F8549854BCA6881
:1014600002F4E0621343CB60BFF34F8F00BFFDE790
:10147000302BADD1637EE9467F4D01336A7BDBB211
:10148000934203D1E27E2B7B9A4265D0CD469FE703
:1014900021464046FFF70CFE9AE7A38A013B9BB228
:1014A000C92B95D8744D2E7B26BB05F10C03082261
:1014B000314600933346204602F05AF8731CF2B2CC
:1014C000D9001E46A38A013B9A4205DA0E32002358
:1014D0002A4400920822EEE700230022C5E90023F7
:1014E0000023AB6085F8D730C5F8D8302B7B0BB91B
:1014F000E37E2B73002507F114093B1D08222946C2
:101500004846FD60C7E9015502F06EF93B7A05F1E6
:10151000010AAB424FEACA0608D9FB6808223146E5
:1015200048462B44554602F05FF9EFE7C6F3CF0675
:101530000023E17E193403934046CDE90496637895
:10154000019402932823009346A3D3E9002301F0DA
:1015500063FFFFF7E5FC3BE74FF0000807F11403DA
:1015600010222046A7F8148041460093012301F081
:10157000FFFFA68A023EB6B2F31C9B109B00073306
:10158000DB08A9EBC3039D460DF1180A1FFA88F387
:101590004FEAC801B34201F110010AD20AEB080375
:1015A0000822204608F101080093002301F0E0FF23
:1015B000ECE795F8D70000F0B3FAD5F8D830044638
:1015C0001BB995F8D70000F0BBFAD5F8D8303344F2
:1015D0009C4204D295F8D700013000F0B1FA4FEAEE
:1015E000960B4FF000081FFA88F18B45D5E90032C1
:1015F00009D90AEB8801012203EB880008F10108F0
:1016000000F06CFBEFE7F31895F8D70042F1000209
:10161000C5E90032D5F8D83006EB0308C5F8D88004
:1016200000F07EFA804509D395F8D730D5F8D80078
:101630000133001B85F8D730C5F8D800FF2E08D835
:1016400000232B7300F098FAFFF718FE08B1FFF79C
:10165000FDF82B68094A9B0A013313810023AB6014
:1016600014E700BF26417272DF25D7B7013500208D
:1016700000ED00E00400FA05B0490020F02400204D
:101680000435002008B54FF000530C4A1968914208
:101690000BD1597D0A4A0B481170C9221B7D0E30AF
:1016A000094900F8023C00F0EBFAE02200214FF07B
:1016B0000050BDE8084000F009BB00BF9AAD44C52A
:1016C000FC240020B04900201600002037B502237A
:1016D000174D0122174918486B7100F0CBFE00230B
:1016E00016494FF4805216480193164B0093164B3F
:1016F00001F0FAFD154B197811B1114801F01AFEED
:1017000001F0DAFB0446FFF7E3FB4FF4C873B0FBCC
:10171000F3F202FB130304F5167010FA83F00C4B7E
:10172000186004F059F808B10F232B8103B030BDC5
:10173000F024002040420F0030350020002500201A
:1017400008350020B50F00087D130008FC24002098
:10175000043500202DE9F04F924C2DED028B0FF255
:101760002C29D9E9008993B08F4E904F204601F083
:10177000B7FE034660B30025DFF850A20E958DF842
:101780004450CDE90F55027B8DF844200FAA99688B
:10179000406803C21B6843F000430E9301F08EFBC8
:1017A00082190095384641F100030EA900F080FB34
:1017B000A84205DD204601F097FE8AF80050D5E7E3
:1017C0009AF80030072B00F2B68001338AF8003017
:1017D00000230BAE754FDFF8F8A10A938DF8343073
:1017E0000B9373609FED6B8B4FF0000B01250DF198
:1017F0001D0207A95B4638468DF81C508DF81DB0B8
:101800008DED008B01F066F99DF81C30002B40F047
:101810009680204601F096FD0646002845D1644F8B
:1018200001F04AFB3B6898423FD301F045FB8246FA
:10183000FFF74EFB4FF4C8730AF5167AB0FBF3F2CC
:1018400002FB13030EA81AFA83F33B60594F97F873
:1018500000B0CBF1100ABBF1000F14BF33462B468A
:101860005FFA8AFA8DF82830FFF74AFB0EABBAF11F
:10187000060F0DF1290003EB0B0128BF4FF0060AFC
:10188000524600F0FDF90AAB0AF10102204603932B
:101890001823D2B20293484B0492CDE900533FA3E0
:1018A000D3E9002301F050FD3E7001F005FB434AEF
:1018B000434D1368C31AB3F57A7F2FD3106001F03C
:1018C000FDFA02460B46204601F018FE204601F0C4
:1018D00039FD18B32B7B0EAF3A4E002B14BF0323F8
:1018E0000223737101F0E8FA4FF47A733946B0FBC2
:1018F000F3F030603046FFF7A1FB18230730424673
:101900000293314BC0F3CF00019340F25513CDE960
:101910000370009320464B4601F016FD2B7B2BB144
:10192000FFF7FEFA2B7B002B7FF41EAF13B0BDEC4C
:10193000028BBDE8F08F204601F0D6FD48E7DAF8CB
:101940001430594610220EA883F40073CAF81430DC
:1019500000F0BCF90DF11E0308AA0AA9384600F0F0
:1019600069FC0FAB96E8030083E803009DF8343070
:101970000EA920468DF844300A9B0E93DDE908231A
:1019800001F07AFF30E700BFAFF30080F1C6A7C1D6
:10199000D068080F0000000000000000401DA120DA
:1019A00026812A0B0835002040420F0030350020E8
:1019B000043500200135002000350020904A002029
:1019C000B0490020F0240020944A0020954A0020CD
:1019D0000010025808B5054800F0B6FC044A054955
:1019E0000020BDE8084005F05BBA00BF303500209C
:1019F000EC4A0020391200082DE9F84F4FF47A73B1
:101A000006460D46002402FB03F7DFF85080DFF89E
:101A1000509098F900305FFA84FA5A1C01D0A34222
:101A200010D159F824002A4631460368D3F820B073
:101A30003B46D847854205D1074B012083F800A0DB
:101A4000BDE8F88F0134032CE3D14FF4FA7003F0B2
:101A5000E1F90020F4E700BFDC4A00201823002051
:101A6000D0700008002307B5024601210DF10700E0
:101A70008DF80730FFF7C0FF20B19DF8070003B0D5
:101A80005DF804FB4FF0FF30F9E700000A4604213F
:101A900008B5FFF7B1FF80F00100C0B2404208BDB9
:101AA000074B0A4630B41978064B53F821400146DB
:101AB00023682046DD69044BAC4630BC604700BF5C
:101AC000DC4A0020D0700008A086010070B50A4EE4
:101AD00000240A4D03F094FC308028683388834248
:101AE00008D903F089FC2B6804440133B4F5003FA6
:101AF0002B60F2D370BD00BFDE4A0020984A002060
:101B000003F04EBD00F1006000F500300068704742
:101B100000F10060920000F5003003F0CDBC000041
:101B2000054B1A68054B1B889B1A834202D9104447
:101B300003F062BC00207047984A0020DE4A002073
:101B400038B5074D04462868204403F05BFC28B9EB
:101B500028682044BDE8384003F066BC38BD00BFAB
:101B6000984A00200020704700F1FF5000F58F10C8
:101B7000D0F8000870470000064991F8243033B1CE
:101B800000230822086A81F82430FFF7C1BF012032
:101B9000704700BF9C4A0020014B1868704700BF87
:101BA0000010005C244BF0B51A680446234BC2F3C6
:101BB0000B06120C1F885868BE4293F9085028D0B3
:101BC0009F89BE4206D101200C2505FB00335868D1
:101BD00093F9085041F201039A421CD041F20303E9
:101BE0009A421AD042F201039A4218D042F20303F9
:101BF0009A4208BF5625621E0B46441E0A44934271
:101C00000FD214F9016F581C6EB1034600F8016C35
:101C1000F5E70020D8E75A25EDE75925EBE75825E9
:101C2000E9E7184605E02C2482421C7001D9981C73
:101C30005D70401AF0BD00BF0010005C1C23002046
:101C400000207047022803D1024B4FF400729A61C2
:101C5000704700BF00100258022803D1024B4FF01A
:101C600000729A61704700BF00100258022804D128
:101C7000024A536983F4007353617047001002589D
:101C8000002310B5934203D0CC5CC4540133F9E770
:101C900010BD0000013810B510F9013F3BB191F9BA
:101CA00000409C4203D11AB10131013AF4E71AB164
:101CB00091F90020981A10BD1046FCE70346024631
:101CC000D01A12F9011B0029FAD1704702440346C9
:101CD000934202D003F8011BFAE770472DE9F8435D
:101CE0001F4D14460746884695F8242052BBDFF85E
:101CF00070909CB395F824302BB92022FF214846E0
:101D00002F62FFF7E3FF95F824004146C0F1080277
:101D100005EB8000A24228BF2246D6B29200FFF710
:101D2000AFFF95F82430A41B17441E449044E4B23E
:101D3000F6B2082E85F82460DBD1FFF71DFF0028DE
:101D4000D7D108E02B6A03EB82038342CFD0FFF7A1
:101D500013FF0028CBD10020BDE8F8830120FBE76A
:101D60009C4A0020024B1A78024B1A70704700BF41
:101D7000DC4A00201823002038B5194C194D2046A4
:101D800002F06AFB2946204602F092FB2D681648B5
:101D9000D5F89020D2F8043843F00203C2F8043892
:101DA00003F038F81149284602F090FCD5F890204D
:101DB0000F48D2F804380F49A04223F00203C2F8BA
:101DC00004384FF4E1330B6001D002F0A3FA0A4863
:101DD000A04204D00749BDE8384002F09BBA38BDA4
:101DE000005600203C72000840420F004472000878
:101DF000F04A0020C44A0020584B002038B50B4B55
:101E000004461A780A4B53F822500A4B9D420CD0D4
:101E1000094B002118221846FFF758FF04600146BD
:101E20002846BDE8384002F075BA38BDDC4A0020CB
:101E3000D070000800560020C44A0020202383F3FD
:101E4000118862B670470000002383F3118862B6E0
:101E50007047000001207047704700007047000085
:101E600000F5805090F851047047000000F5805054
:101E700090F84A04704700005020704700F58052E7
:101E800008B5FFF7DBFFD2F87434D2F870041844B9
:101E9000D2F86C341844D2F858341844D2F8643468
:101EA0001844D2F860341844FFF7CEFF08BD000094
:101EB000F8B500F580551F46D5F854340133C5F800
:101EC00054340C6814F0005461D10B7B082B5ED89D
:101ED00095F84A34002B5AD0FFF7B0FF436AD3F885
:101EE000C460B60208D5D5F8583420460133C5F889
:101EF0005834FFF7A9FFF8BD0D68D3F8C440C66990
:101F0000002DC4F30444B4BF45F08045AD0406EB96
:101F1000041635600B685B004FEA046344BF45F06C
:101F2000005535600D7B43EA054373604B68B36031
:101F30008B68F3600123456AA340C5F8D03000EBFD
:101F4000441303F58253C3E9022700EB441301F164
:101F50000C0203F58253103351F8045B914243F8AD
:101F6000045BF9D10A781A7004F18302530100EB83
:101F70004212C4500120BDF81830117903F0030358
:101F800021F01F0143F010030B431371B1E7D5F8A3
:101F900058344FF0FF300133C5F85834ABE7000038
:101FA0002DE9F04700F58056044696F84A54002D76
:101FB00040F00181037A032B40F092802B462846A3
:101FC0002F465FFA83FC944510DA01EBCC0E51F8F2
:101FD0003CC0BCF1000F04DBDEF804C0BCF1000F14
:101FE00002DB01370133ECE70130FBE7FFF726FFA7
:101FF000636AF0B9D3F8800040F00200C3F88000B3
:102000005023606A002F6ED1D0F8803043F0010376
:10201000C0F88030694B6A4A1B6803F1805303F5AE
:102020002C539B009342236240F2AF80654800F03E
:102030003DFF4F2842D8DFF884814FEA004EDFF899
:102040008891D8F800C04EEA8C0EC3F884E00CF1F9
:10205000805303F52C539B00E36000EB0C03D4F892
:1020600024C0C8F80030C0F15003DCF8800040F014
:102070003000CCF880004FF0000CD4F80C80E6461D
:102080005FFA8CF08242BCDD01EBC00A51F83000EF
:10209000002810DBDAF804A0BAF1000F0BDA09EA25
:1020A00000400AF07F0A40EA0A0040F0084048F881
:1020B0002E000EF1010E0CF1010CE1E79A6922F0FD
:1020C00001029A6100F0F8FE0646636A9B69D9072F
:1020D00004D500F0F1FE831BFA2BF6D9FFF7B4FE0E
:1020E0002846BDE8F087B7EB530F3DD2DFF8CCE0D0
:1020F0004FEA074CDEF800304CEA830CC0F888C089
:1021000003F1805003EB4703002700F52C50CEF875
:102110000030BC4680002061606AD0F8803043F017
:102120000C03C0F88030D4F810E0FBB29A427FF77D
:1021300071AF51F8330001EBC3080028D8F8043020
:1021400001DB002B0EDB20F0604023F0604340F009
:10215000005043F000434EF83C000EEBCC000CF175
:10216000010C43600137E0E7836923F001038361D9
:1021700000F0A2FE0646636A9B69DA07AED500F05E
:102180009BFE831BFA2BF6D9A8E7626A936923F0BA
:102190000103936100F090FE0746636A9B69DB07C9
:1021A00005D500F089FEC31BFA2BF6D996E7012569
:1021B00086F84A5492E7002592E700BFE84A0020DB
:1021C000FCB50040DC7000080000FF0713B50446B2
:1021D000019100F023FD1F280AD9202201992046F1
:1021E00000F092FDA0F120035842584102B010BD0A
:1021F0000020FBE700F5805008B5FFF71FFEC06B1D
:1022000000F0E0FCBDE80840FFF71EBE00220260BF
:1022100002734260826070470022002310B5C0E95B
:102220000023002304460C3020F8043CFFF7EEFFA7
:10223000204610BD2DE9F041054688B01F460C46EA
:1022400005F5805568469046FFF7F8FDFFF7E4FF77
:10225000E86B00F0C9FC1F2805D80020FFF7F4FD4B
:1022600008B0BDE8F08120226946E86B00F0D0FD9F
:102270002028F2D195F84A34002BEED003AD05ABFF
:102280002E46083403CE9E4244F8080C44F8041C41
:102290003546F5D130682060012033792371DDE9BE
:1022A0000023C8E90023BDF808303B80D6E70000D2
:1022B0002DE9F84F8046214B00F58155044648F83A
:1022C000283B0F464646083530462036FFF7A4FF28
:1022D000AE42F9D104F580554FF480534FF0000918
:1022E0004FF0000AC5F8288004F5A358EE6304F502
:1022F000835608F108084FF0000B0836C5F83490F3
:10230000C5E90B39012385F8383085F84030A6F14E
:102310001800203646E910ABFFF778FF46F8289CF6
:102320004645F4D185F8507417B1054800F0BEFD5C
:10233000044B20466362BDE8F88F00BF1C710008A3
:102340000071000800A00040044B10B51978044645
:102350004A1C1A70FFF7ACFF204610BDE54A00206A
:102360002DE9F047002952D02A4F2B4BB7FBF1F54E
:1023700099428CBF0A231123581EB5FBF3FC03FBC3
:102380001C53C4B22BB102280346F5D80020BDE887
:10239000F0870CF1FF36B6F5806FF7D2C4EBC40EB0
:1023A0004FF47A750EF103034FEAE309C3F3C70351
:1023B00009F1010AA4EB030809FB05555FFA88F04F
:1023C0005AFA88F8B5FBF8F5B5F5617FC2BF0EF192
:1023D000FF33C3F3C703E01A03F10104C8BFC0B25F
:1023E00050FA84F40CFB04F4B7FBF4F4A142CDD111
:1023F000013BDBB20F2BC9D80138C0B20728C5D8C2
:1024000000211071168001209170D370BFE708463B
:10241000BDE700BF00A24A043F420F0038B5124C8E
:10242000416A2268930043F4D013C1F8A03002F14E
:10243000805302F16801456A03F52C53E8328900A4
:102440009B00226041F00051084A4361C5F8C0106A
:1024500003F5D07103F56873C1619342036202D939
:10246000034800F023FD38BDE84A0020FCB50040D9
:10247000DC7000082DE9F04700F5805588B004466F
:10248000884695F850341646012B4DD8844A52F8A8
:10249000231009B942F823008249C4F804800B785C
:1024A0002672C3B9FFF7CAFC7F4BD3F8EC2042F485
:1024B0008072C3F8EC20D3F8942042F48072C3F801
:1024C0009420D3F8942022F48072C3F8942001233E
:1024D0000B70FFF7B9FC95F8493473B9022113204A
:1024E000FFF7ACFC01F064FD0221152001F060FD56
:1024F000012385F84934FFF7A7FCFFF79FFC626AC8
:10250000936923F01003936100F0D6FC8146636A5F
:102510009F6917F008070AD000F0CEFCA0EB090372
:10252000FA2BF4D9FFF790FC4FF00008B4E09A6959
:1025300042F001029A6100F0BFFC8146636A9A6929
:10254000D10706D400F0B8FCA0EB0903FA2BF5D9AB
:10255000E8E79A694FF0000904F5825A42F0020256
:102560000AF1080A9A61636AC3F85490FFF76CFC99
:10257000E86B00F027FB202200216846FFF7A6FB4E
:1025800002A8FFF743FE6A460AEB07030DF1180E97
:10259000CDF8189094460833BCE80300F44543F89E
:1025A000080C43F8041C6246F4D1DCF80000203724
:1025B0001860B7F5806F9CF804201A71DBD10027F2
:1025C0006A464146204685F8487485F84B74ADF854
:1025D0000070ADF802708DF80470FFF7C1FE626AFA
:1025E000804680B9936923F00103936100F064FC95
:1025F0000546636A9B69DA0796D500F05DFC431BCC
:10260000FA2BF6D990E79DF802309DF803E05B06BF
:102610009DF80400BDF800C04FEA0E2143EA0E23E6
:10262000034343EA0C43D36141EA0C43626A43EA41
:1026300000132046D360636AC3F8BC70FFF7EEFE58
:1026400085F851746FF04042636A1A65174A636AED
:102650005A654FF00222636A9A654FF0FF32636A4F
:10266000C3F8E0200322636A9642DA6514D0626AF6
:10267000936923F00103936100F01EFC0646636A30
:102680009B69DB0705D500F017FC831BFA2BF6D9F5
:102690004AE7012385F84A34404608B0BDE8F08790
:1026A000E04A0020E44A002000440258550200029B
:1026B0002DE9F043074689B090469946002600F57B
:1026C00080557B6AD3F8D830F340D9073FD506F15F
:1026D000830307EB43131A79120738D4D5F85C2427
:1026E0000132C5F85C241A7942F008021A71D30746
:1026F00025D595F84B3413B307F582546846FFF798
:102700008BFD0DF10C0C103404EB461404F108029F
:102710002068083454F8041C6346944203C39C4662
:10272000F6D120686946186023798CF804300123BB
:10273000E86BADF80830CDE90089FFF747FDD5F823
:102740004C3423B1D5F878340133C5F878340136E8
:10275000202EB6D109B0BDE8F08300002DE9F04786
:102760008A468CB0044600F0A9FB81468846BAF13F
:10277000000F5FD1636AD3F8A02012F4FE0F03D1DB
:1027800000200CB0BDE8F087D3F8A420970141BF2A
:1027900004F58051D1F870240132C1F87024D3F8C7
:1027A000A4205606ECD0D3F8A4606569C6F30526CC
:1027B0006F4605EB06153846FFF728FD2A685100DD
:1027C0004ABF22F06043C2F38A4343F000439200C1
:1027D00001AA48BF43F080430093EB8803F00F0346
:1027E0008DF80C30EB1D0F3513F8011FAB4202F8CA
:1027F000011BF9D1BAF1000F3AD1636AC3F8A8609E
:1028000004A807ADFFF708FD04F5805497E80F0012
:1028100007C52B70002304A9E06BADF81830CDE993
:102820000498FFF7D3FC50B3D4F868340133C4F8EC
:102830006834A6E7BAF1010FA2D1636AD3F8B020D9
:1028400012F4FE0F9CD0D3F8B420950141BF04F5DB
:102850008051D1F870240132C1F87024D3F8B4202B
:1028600050068DD0D3F8B460A569C6F305269FE75E
:10287000BAF1010FC4D1636AC3F8B860C0E7D4F8F5
:102880006C3401200133C4F86C347AE7F8B505469E
:102890000F4600F58054012639462846FFF75EFFB3
:1028A00010B184F84B64F7E7D4F84C3423B1D4F872
:1028B00078340133C4F87834F8BD0000436AF0B5C9
:1028C0001A6C12F47F0F29D01B6C00F5805400F5B0
:1028D00083560127C4F87C34002303F1830200EB04
:1028E000421211798D0716D5490714D45901456A4A
:1028F0007158D5F8CCC007FA01F111EA0C0F0AD0D3
:10290000C5F8D410117941F004011171D4F8642490
:102910000132C4F864240133202BDED1F0BD000065
:1029200010B5264C264B22680AB340B31A6D9205A7
:102930000FD54FF400721A6500F0C0FA50EA010298
:102940000B4602D0013861F1000302462068FFF710
:10295000AFFE1B4A136D9B012AD523684FF000710F
:1029600003F580531165012283F8512420E00122F0
:102970001A6510221A654FF480521A6510BD196D40
:10298000C80702D4196D490705D5052110461965F8
:102990000021FFF77BFF0A4B1A6DD00602D41A6D97
:1029A000510605D5502201211A652068FFF76EFFF8
:1029B0002068BDE81040FFF781BF00BFE04A00205B
:1029C00000A0004008B5FFF739FAFFF777FFBDE830
:1029D0000840FFF739BA0000436AD3F8C00010F08E
:1029E0007C5005D0D3F8C40080F40010C0F34050F0
:1029F0007047000000F5805008B5FFF71FFAC06B64
:102A000000F0F2F8FFF720FA43090CBF0120002084
:102A100008BD000000F5805393F8512462B1416A6B
:102A20008A6922F001028A61D3F874240132C3F862
:102A30007424002283F85124704700002DE9F341EB
:102A400000F5825198460025FFF7F8F908314FF05C
:102A5000010E00F5805C05F1830400EB441423793A
:102A60005E071CD4DB061AD58E69436A0EFA06F699
:102A7000D3F8CC703E4212D04F6801970F6897424E
:102A8000019F77EB08070AD2C3F8D460237943F09B
:102A900004032371DCF860340133CCF86034013571
:102AA0002031202DD7D102B0BDE8F041FFF7CCB9DD
:102AB000F8B51E4600230F46054613701446FFF76F
:102AC00099FF80F0010038701EB12846FFF784FF9F
:102AD0002070F8BD2DE9F04F994685B00B780E4671
:102AE0008046174601931378DDE90EBA029300F091
:102AF000E5F9337804460D4613B93B78002B41D0F5
:102B000022462B464046FFF799FFFFF75BFFFFF792
:102B100081FF4B463A463146FFF7CAFF33782BB167
:102B2000019B1BB1012005B0BDE8F08F3B7813B1CC
:102B3000029B002BF6D108F5805303935C4575EB9F
:102B40000A031FD2039BD3F84C04D8B1BBEB040299
:102B50000368D9686AEB050388474B463A46314615
:102B60004046FFF7A5FF337813B1019B002BD9D165
:102B70003B7813B1029B002BD4D100F09FF904469F
:102B80000D46DBE70020CEE708B50020FFF7C8FEC2
:102B9000BDE8084001F098B808B50120FFF7C0FE75
:102BA000BDE8084001F090B80FB4002004B07047B1
:102BB00010B5037C044613B9006804F087F9204679
:102BC00010BD00000023BFF35B8FC360BFF35B8FBA
:102BD000BFF35B8F8360BFF35B8F7047BFF35B8F87
:102BE0000068BFF35B8F704770B505460C30FFF788
:102BF000F5FF044605F108063046FFF7EFFFA04257
:102C000006D96D683046FFF7E9FF2544281A70BDE4
:102C10003046FFF7E3FF201AF9E7000070B50546DC
:102C20004068A0B105F10C0605F10800FFF7D6FFDA
:102C300004463046FFF7D2FF844204F1FF343046A9
:102C400094BF6D680025FFF7C9FF2C44201A70BDA2
:102C500038B50C460546FFF7C7FFA04210D305F173
:102C60000800FFF7BBFF04446868BFF35B8FB4FB49
:102C7000F0F100FB11440120AC60BFF35B8F38BD65
:102C80000020FCE72DE9F041144607460D46FFF70A
:102C9000C5FF844228BF0446D4B1B84658F80C6B2F
:102CA0004046FFF79BFF3044286040467E68FFF7B0
:102CB00095FF331A9C4203D801206C60BDE8F08177
:102CC000A41B6B603B682044AB60E8600220F5E722
:102CD0002046F3E738B50C460546FFF79FFFA042B4
:102CE00010D305F10C00FFF779FF04446868BFF3C7
:102CF0005B8FB4FBF0F100FB11440120EC60BFF3EB
:102D00005B8F38BD0020FCE72DE9FF41884669460E
:102D100007466C46FFF7B6FF002506B204EBC60671
:102D2000B4420AD0626808EB050120680834FEF757
:102D3000A7FF54F8043C1D44F2E729463846FFF744
:102D4000C9FF284604B0BDE8F0810000F8B505468B
:102D50000C300F46FFF742FF05F1080604463046E7
:102D6000FFF73CFFA042304688BF6C68FFF736FF94
:102D7000201A386020B12C683046FFF72FFF20441E
:102D8000F8BD000073B5144606460D46FFF72CFF4C
:102D90008442019028BF0446DCB101A93046FFF708
:102DA000D5FF019B33B93268C5E90233C5E9002478
:102DB00001200CE09C42286038BF019401988442B5
:102DC0006860F5D93368241A0220AB60EC6002B069
:102DD00070BD2046FBE700002DE9FF410F46694624
:102DE0006C46FFF7CFFF00B2002604EBC005AC42F3
:102DF00009D0D4F80480B81954F8081B4246464458
:102E0000FEF73EFFF3E7304604B0BDE8F081000076
:102E100038B50546FFF7E0FF044601462846FFF7B0
:102E200017FF204638BD000000B59BB0EFF30981C5
:102E300068226846FEF724FFEFF30583044B9A6B84
:102E4000DA6A9A6A9A6A9A6A9A6A9A6A9B6AFEE740
:102E500000ED00E000B59BB0EFF309816822684601
:102E6000FEF70EFFEFF30583044B9A6B9A6A9A6A9A
:102E70009A6A9A6A9A6A9B6AFEE700BF00ED00E0D0
:102E800000B59BB0EFF3098168226846FEF7F8FEB3
:102E9000EFF30583034B5A6B9A6A9A6A9A6A9A6AA5
:102EA0009B6AFEE700ED00E0FEE700000FB408B506
:102EB000029801F03BFFFEE702F0CEBB02F0A6BB9A
:102EC00030B50A44084D91420DD011F8013B5840ED
:102ED000082340F30004013B2C4013F0FF0384EA75
:102EE0005000F6D1EFE730BD2083B8ED2DE9F04179
:102EF000C56915B9C161BDE8F0814B68AC4623F0E6
:102F00006047C3F38A464FEAD37EC3F3807816EA5C
:102F1000230638BF3E462B465A68BEEBD27F22F0CE
:102F200060440AD0002A18DAA40CB44217D19D429A
:102F30000FD10D60DEE71346EEE7A74207D102F09E
:102F40008044C2F3807242450BD054B1EFE708D2FF
:102F5000EDE7CCF800100B60CDE7B44201D0B442ED
:102F6000E5D81A689C46002AE5D11960C3E700003D
:102F70002DE9F047089D01F0070400EBD1004FF464
:102F80007F494FEAD508224405F00705944201D154
:102F9000BDE8F08704F0070705F0070A111B08EBEE
:102FA000D50E57453E4613F80EC038BF5646C6F1FB
:102FB00008068E4228BF0E46E108415C3444354481
:102FC000B94029FA06F721FA0AF1FFB28CEA0101A9
:102FD00047FA0AF739408CEA010C03F80EC0D5E72E
:102FE00080EA0120082341F2210201B2013B4000A6
:102FF000002980B2B8BF504013F0FF03F5D17047ED
:1030000038B50C468D18A54200D138BD14F8011B07
:10301000FFF7E6FFF7E7000002684AB1136801898D
:103020000360C38801339BB29942C38038BF0381D8
:103030001046704770B588B0044620220D46684699
:103040000021FEF743FE20460495FFF7E5FF024608
:1030500060B16B46054608AE1C46083503CCB44249
:1030600045F8080C45F8041C2346F5D1104608B075
:1030700070BD000010B54B6823B9CA8A63F309021A
:10308000CA8210BDC4681A681C60C360438A013BD1
:1030900043824A60EFE700002DE9F84F1D46CB8AD6
:1030A0000F468146C3F30901924606290B4630D0EC
:1030B0000020AAB207F119049EB21FFA80F8052E6B
:1030C0000FD8904503F1010306D30A44FB8A62F34B
:1030D00009030120FB821AE01AF800600130E6546F
:1030E000EAE79045F1D2A1F1060B1C237C68BBFBFB
:1030F000F3F203FB12BB1FFA8BF6002C45D14846B6
:10310000FFF78AFF044638B978606FF00200BDE827
:10311000F88F4FF00008E6E7002606607860ADB251
:103120004FF0000B454510D90AEB0803221D13F898
:10313000011B08F101089155B1B21FFA88F81B294B
:103140002BD0454506F10106F1D8FB8AC3F30902ED
:10315000154465F30903BCE701321C4692B22368AB
:10316000002BF9D1AB1F0B441C21B3FBF1F301334E
:103170009BB29A42D3D2BBF1000FD0D14846FFF7A1
:103180004BFF20B9C4F800B0BFE70122E7E7C0F861
:1031900000B05E4620600446C1E74545D5D94846A3
:1031A000FFF73AFF08B92060AFE7C0F800B000268B
:1031B00020600446B6E700002DE9F04F2DED028BAC
:1031C00083B080469246BDF83C40CDE90013002A0A
:1031D00000F087802CB10E9B002B00F08280072C22
:1031E0002BD808F10C00FFF717FF054638B96FF030
:1031F0000205284603B0BDEC028BBDE8F08F142217
:103200000021FEF763FD22460E9905F10800FEF746
:1032100037FD631C2C4440462B749AF8003003F0B1
:103220001F0363F03F032372009B43F0004169607A
:103230002946FFF75BFE0125DBE74FF0000900F1AF
:103240000C034FF0800B4E464D4608EE103A18EE38
:10325000100AFFF7E1FE07460028C8D0142200211B
:10326000FEF734FD002E3AD1019B02223B810E9BDA
:1032700002F1080103EB060C57FA81F11046B44243
:1032800002F10102D2B201D8024607E01CF8010B9C
:103290000136062AB6B201F8010BEFD99AF80010F0
:1032A000B44208BF4FF0400BB818013201F01F01C3
:1032B000013541EA491189F001092DB24BEA0103B8
:1032C00039464FF0000B03724046009B3A7443F0BE
:1032D00000437B60FFF70AFEB442B8D189E70022C1
:1032E000C5E76FF0010584E7F8B515460E462422C0
:1032F000002104461F46FEF7E9FC069BB5F5001FBA
:10330000A760636004F10C00079B34BF6A094FF6A5
:10331000FF722362002397B29A4205D8002303600C
:1033200027826382A382F8BD0660013330462036CF
:10333000F2E7000003781BB94BB2002BC8BF017045
:1033400070470000007870472DE9F74FDDF83C909A
:10335000804692469B46BDF830500D9E9DF8384001
:10336000BDF84070B9F1000F01D1002F51D11F2CD1
:103370004FD898F80000B0B9072F47D835F00303AD
:1033800047D13A4649464FF6FF702D02FFF738FE07
:1033900020F0010045EA04644004400C44EA402463
:1033A0004FF6FF7321E040EA0520072F40EA04644E
:1033B000F6D900254FF6FF73C5F12000A5F12002D4
:1033C0002AFA05F108350BFA00F02BFA02F2014354
:1033D00018461143C9B2FFF703FE402D0346EBD157
:1033E0003A464946FFF70CFE034632462146404620
:1033F000CDE90097FFF7E0FE33780133DBB21F2BF6
:1034000088BF0023337003B0BDE8F08F6FF0030076
:10341000F9E76FF00100F6E72DE9F04F85B092462D
:1034200006469B46DDF848800F9D9DF840209DF89C
:103430004490BDF84C70B8F1000F01D1002F49D174
:103440001F2A47D83378002B47D00C029DF838103C
:10345000072F44EA026444EAC93444EA014444EAD6
:10346000030444F0800432D900234FF6FF72C3F105
:10347000200CA3F120002AFA03F103930BFA0CFCB1
:103480002BFA00F041EA0C0101431046C9B2FFF7E4
:10349000A7FD039B02460833402BE8D13A4641463C
:1034A000FFF7AEFD03462A4621463046CDE90087A8
:1034B000FFF782FEB9F1010F06D12B780133DBB2A1
:1034C0001F2B88BF00232B7005B0BDE8F08F4FF68F
:1034D000FF73E8E76FF00100F6E76FF00300F3E732
:1034E000C06900B104307047C3691A68C261C2681C
:1034F0001A60C360438A013B438270472DE9F04163
:10350000D0F8188014461D46184E4146002709B9C8
:10351000BDE8F081D1E90223A21A65EB03039642CC
:1035200077EB03031ED283698B420DD1FFF7A2FD17
:1035300083691B688361C3680B60438AC160013B78
:10354000816943828846E2E7FFF794FD0B68C8F87B
:103550000030C3680B60438AC160013B4382D8F8E6
:103560000010D4E788460968D1E700BF80841E00B8
:103570002DE9F04F8BB00D4614469B46DDF8509078
:103580008046002800F01881B9F1000F00F0148186
:10359000531E3F2B00F21081012A03D1BBF1000F13
:1035A00040F00A810023CDE90833B8F81430B5EBB8
:1035B000C30F4FEAC30703D300200BB0BDE8F08F61
:1035C0002B199F42D8F80C3036BF7F1B2746FFB21D
:1035D0001BB9D8F81030002B7AD02F2D4DD8C5F15B
:1035E000300600232946B742009308ABD8F80800FC
:1035F0002CBFF6B23E46A7EB060A354432465FFAC8
:103600008AFAFFF7B5FCB8F81430302103F1005303
:10361000063BDB000493D8F80C300393039B13B1F3
:10362000BAF1000F2CD1D8F8100040B1BAF1000F58
:1036300005D008AB5246691A0096FFF799FC38B2DC
:10364000002FB9D066070AD00AAB624203EBD4015F
:1036500002F0070211F8083C134101F8083C082C5D
:103660003DD9102C40F2B580202C40F2B780BBF140
:10367000000F00F09C80082335E0BA460026C2E720
:10368000049BE02B28BFE02306930B44AB42059339
:1036900015D95A1B0398691A0096924508AB00F198
:1036A000040034BF5246D2B20792FFF761FC079A7A
:1036B0001644AAEB020A1544F6B25FFA8AFA049B92
:1036C000069A05999B1A0493039B1B680393A5E72D
:1036D00000933A4608AB2946D8F80800ADE7BBF19D
:1036E000000F13D00123B4EBC30F6BD0082C12D8FA
:1036F0009DF82030621E23FA02F2D50706D54FF05E
:10370000FF3202FA04F423438DF820309DF8203074
:1037100089F8003051E7102C12D8BDF82030621E15
:1037200023FA02F2D10706D54FF0FF3202FA04F471
:103730002343ADF82030BDF82030A9F800303CE735
:10374000202C0FD80899631E21FA03F3DA0705D558
:103750004FF0FF3202FA04F40C430894089BC9F8B6
:1037600000302AE7402C2AD0611EC4F12102A4F1C6
:103770002103DDE9086526FA01F105FA02F225FACE
:1037800003F311431943CB0711D50122A4F1200300
:10379000C4F1200102FA03F322FA01F1A2400B4323
:1037A000524263EB430332432B43CDE90823DDE967
:1037B0000823C9E9002300E76FF00100FDE66FF080
:1037C0000800FAE6082CA1D9102CB4D9202CEED888
:1037D000C4E7BBF1000FAED0022384E7BBF1000FBA
:1037E000BCD004237FE70000012A30B5144638BF5F
:1037F000012485B00025402C28BF4024012ACDE9B2
:10380000025518D81B788DF8083063070AD004AB2E
:10381000624203EBD40502F0070215F8083C93401E
:1038200005F8083C034600912246002102A8FFF754
:103830009FFB05B030BD082AE4D9102A03D81B88A5
:10384000ADF80830E1E7202A95BF1B68D3E90023D3
:103850000293CDE90223D8E710B5CB681BB98B6082
:103860000B618B8210BDC4681A681C60C360438AF8
:10387000013B4382CA60F0E72DE9F04FD1F80080A8
:1038800093B004460D4618F0800FCDE90323C8F32A
:10389000C01219BFC8F3C03BC8F306264FF0020B95
:1038A0001646B8F1000F80F2C58118F0C0430593A9
:1038B00040F0C0810B7B002B00F0BC81BBF1020FFC
:1038C00003D00178B14240F0B88108F07F01069141
:1038D0006AB3C8F3074A2B447606069A46EA0B46B3
:1038E00093F8039046EA82465FEAD91346EA0A064D
:1038F000079300F090800022002367680AA9204601
:10390000CDE90A23069B524600935B46B847002840
:103910007ED0A7699FB9314604F10C00FFF78AFBFE
:103920000746E0B96FF0020013B0BDE8F08FC8F3AE
:103930000F2A18F07F0F08BF0AF0030ACBE73B6994
:103940009E420DD03F68002FF9D1314604F10C00A2
:10395000FFF770FB07460028E4D0A3693B60A7612E
:1039600000264FF6FF70DDE90A23C6F1200E22FA89
:1039700006F1A6F1200C083603FA0EFE099223FA8E
:103980000CFC089341EA0E0141EA0C01C9B2FFF7B1
:1039900027FB402EDDE90832E7D1B882FB7D09F034
:1039A0001F06C8F30468C3F38403F31A98B2002B0C
:1039B000D7E90221BCBF00F120031BB252EA01008B
:1039C0000FD00398821A049860EB0101A14890423D
:1039D0004FF000028A4104D3079A002A55D0012BE8
:1039E00023DDFA7D4FEA89033946204602F00302BF
:1039F00003F07C031343FB75FFF73CFB079BA3B964
:103A0000FB7DC3F38402013262F38603FB7504E09D
:103A10006FF00B0088E7A76917B96FF00C0083E718
:103A20003B699E42BAD03F68F6E719F0400F2CD0B0
:103A3000039B142200210DA8BB60049BFB60FEF7D2
:103A400045F9039B0AA920460A93049BADF83EA0C2
:103A50000B932B1D8DF840B00C932B7B8DF84160A0
:103A6000013B8DF84280DBB2ADF83C30069B8DF80F
:103A70004330A3689847FB7DC3F38403013303F00D
:103A80001F039B02FB8200204EE7FB7DC9F340121F
:103A9000B2EBD31F40F0D480C3F38403B34240F0B1
:103AA000D28007994FEA99122B7B002934D0D20794
:103AB00041D4032B40F2CA80039BAE1D394604F16A
:103AC0000C00BB603246049BFB602B7B033BDBB2EC
:103AD000FFF7E2FA00280DDA20463946FFF7CAFA66
:103AE000FB7D0320C3F38403013303F01F039B0218
:103AF000FB8219E7AB883B832A7B033AD2B2B88AB0
:103B00003146FFF77DFAFB7DB882DA43C2F3C0127B
:103B100062F3C713FB75B6E76AB92E1D013B394640
:103B200004F10C00DBB23246FFF7B6FA0028D3DB13
:103B30002A7B013AE2E7F98A013BC1F30901DAB2D3
:103B4000052953D8281D002307F11A0C9A4208D9D9
:103B500010F801EB01330CF801E00131DBB206296A
:103B6000F4D1039993420A9138BF043304992CBFCE
:103B7000002355FA83F30B9107F11A010C91796830
:103B80000E930D91291DFB8AADF83EA0C3F30903E6
:103B90008DF840B08DF841601A44069B8DF8428044
:103BA0008DF843300023ADF83C207B602A7BB88A37
:103BB000013AFFF725FA3B8BB882834203D1A36811
:103BC0000AA92046984720460AA9FFF745FEFB7D33
:103BD000B88AC3F38403013303F01F039B02FB8203
:103BE0003B8B984214BF112000209DE67B68002B80
:103BF000B7D0062001E01C306346D3F800C0BCF10A
:103C0000000FF8D1091A05F1040C081D00EB030997
:103C100005989DF8143001EB000EBEF11B0FA0D8E3
:103C20009A429ED91CF8013B09F8013B059B0133E0
:103C30000593EDE76FF0090076E66FF00A0073E692
:103C40006FF00D0070E66FF00E006DE66FF00F0084
:103C50006AE600BF80841E00EFF3098305496833DC
:103C60004A6B22F001024A6383F30988002383F33D
:103C70001188704700EF00E0202080F3118862B6C1
:103C80000D4B0E4AD96821F4E0610904090C0A437E
:103C90000B49DA60D3F8FC2042F08072C3F8FC20B4
:103CA000084AC2F8B01F116841F0010111601022EA
:103CB000DA7783F82200704700ED00E00003FA0590
:103CC00055CEACC5001000E0202310B583F3118859
:103CD0000E4B5B6813F4006314D0F1EE103AEFF36F
:103CE00009844FF08073683CE361094BDB6B23660A
:103CF00084F3098800F0D8FF10B1064BA36110BD12
:103D0000054BFBE783F31188F9E700BF00ED00E006
:103D100000EF00E00B0700080E0700080268436888
:103D20001143016003B1184770470000024A13684D
:103D300043F0C0031360704700780040024A1368E4
:103D400043F0C00313607047007C004013B5194C6A
:103D5000204600F0D3FA04F11400009400234FF43D
:103D60000072154900F094F94FF40072134904F100
:103D700038000094124B00F00DFA124BE365124C20
:103D8000204600F0BBFA04F1140000234FF4007247
:103D90000E49009400F07CF90D4B4FF400720D4970
:103DA00004F13800009400F0F5F90B4BE36502B024
:103DB00010BD00BFF04A0020C04B0020C04F0020C3
:103DC0002D3D000800780040584B0020C04D0020D9
:103DD0003D3D0008C0510020007C0040037C30B510
:103DE0002C4C002918BF0C46012B4DD12A4B984270
:103DF0003BD12A4BD3F8E82042F08042C3F8E820B8
:103E0000D3F8102142F08042C3F81021D3F81031CA
:103E1000234B2268C16D03EB52034466B3FBF2F3FC
:103E20006268150442BF23F0070503F0070343EA65
:103E30004503CB60A36843F040034B60E36843F065
:103E400001038B6042F4967343F001030B604FF063
:103E5000FF330B62510505D512F0102216D0B2F1D6
:103E6000805F15D080F8603030BD0E4B98420BD18A
:103E70000A4BD3F8E82042F00042C3F8E820D3F818
:103E8000102142F00042BFE70023C2E77F23E9E7A9
:103E90003F23E7E750710008F04A00200044025831
:103EA00000E1F505584B00202DE9F047C66D0546A9
:103EB0003768F4692107346219D014F0080118BF7B
:103EC0008021E20748BF41F02001A3074FF0200303
:103ED00048BF41F04001600748BF41F4807183F35F
:103EE0001188281DFFF71AFF002383F31188E205CC
:103EF0000AD5202383F311884FF40071281DFFF7A2
:103F00000DFF002383F311884FF020094FF0000AC2
:103F100014F0200838D13B0616D54FF0200905F1E2
:103F2000380A200610D589F31188504600F066F94A
:103F3000002836DA0821281DFFF7F0FE27F080035D
:103F40003360002383F31188790614D5620612D5F5
:103F5000202383F31188D5E913239A4208D12B6CCF
:103F600033B127F040071021281DFFF7D7FE376037
:103F7000002383F31188E30618D56A6E1369ABB189
:103F80005069BDE8F047184789F31188736A2846DD
:103F900095F86010194000F0CBF98AF31188F469A4
:103FA000B6E7B06288F31188F469BAE7BDE8F08734
:103FB000090100F16043012203F56143C9B283F8AE
:103FC000001300F01F039A4043099B0003F1604374
:103FD00003F56143C3F880211A607047F8B51546B0
:103FE000826804460B46AA4200D28568A169266908
:103FF000761AB5420BD218462A46FDF741FEA36950
:104000002B44A3612846A3685B1BA360F8BD0CD9B1
:10401000AF1B18463246FDF733FE3A46E16830449E
:10402000FDF72EFEE3683B44EBE718462A46FDF712
:1040300027FEE368E5E7000083689342F7B504468E
:10404000154600D28568D4E90460361AB5420BD211
:104050002A46FDF715FE63692B4463612846A36871
:104060005B1BA36003B0F0BD0DD93246AF1B0191BD
:10407000FDF706FE01993A46E0683144FDF700FE7F
:10408000E3683B44E9E72A46FDF7FAFDE368E4E725
:1040900010B50A440024C361029B8460C1600261C0
:1040A0000362C0E90000C0E9051110BD08B5D0E900
:1040B0000532934201D1826882B9826801328260FE
:1040C0005A1C426119700021D0E904329A4224BF7F
:1040D000C368436100F0BAFE002008BD4FF0FF3016
:1040E000FBE7000070B5202304460E4683F31188D9
:1040F000A568A5B1A368A269013BA360531CA36195
:1041000015782269934224BFE368A361E3690BB188
:1041100020469847002383F31188284607E031465C
:10412000204600F083FE0028E2DA85F3118870BD96
:104130002DE9F74F04460E4617469846D0F81C90D6
:104140004FF0200A8AF311884FF0000B154665B135
:104150002A4631462046FFF741FF034660B94146F3
:10416000204600F063FE0028F1D0002383F311887D
:10417000781B03B0BDE8F08FB9F1000F03D00190B8
:104180002046C847019B8BF31188ED1A1E448AF321
:104190001188DCE7C160C361009B82600362C0E9F3
:1041A00005111144C0E9000001617047F8B50446EB
:1041B0000D461646202383F31188A768A7B1A3688C
:1041C000013BA36063695A1C62611D70D4E904322B
:1041D0009A4224BFE3686361E3690BB120469847C4
:1041E000002080F3118807E03146204600F01EFED3
:1041F0000028E2DA87F31188F8BD0000D0E9052332
:1042000010B59A4201D182687AB9826800210132E0
:1042100082605A1C82611C7803699A4224BFC36879
:10422000836100F013FE204610BD4FF0FF30FBE726
:104230002DE9F74F04460E4617469846D0F81C90D5
:104240004FF0200A8AF311884FF0000B154665B134
:104250002A4631462046FFF7EFFE034660B9414645
:10426000204600F0E3FD0028F1D0002383F31188FD
:10427000781B03B0BDE8F08FB9F1000F03D00190B7
:104280002046C847019B8BF31188ED1A1E448AF320
:104290001188DCE7026843681143016003B11847E5
:1042A000704700001430FFF743BF00004FF0FF33AA
:1042B0001430FFF73DBF00003830FFF7B9BF0000F2
:1042C0004FF0FF333830FFF7B3BF00001430FFF773
:1042D00009BF00004FF0FF311430FFF703BF0000AB
:1042E0003830FFF763BF00004FF0FF323830FFF780
:1042F0005DBF000000207047FFF728BD044B03603E
:1043000000234360C0E9023301230374704700BFF8
:104310006871000810B52023044683F31188FFF765
:104320005DFD02232374002383F3118810BD000078
:1043300038B5C36904460D461BB904210844FFF78C
:10434000A9FF294604F11400FFF7B0FE002806DAA1
:10435000201D4FF48061BDE83840FFF79BBF38BD9A
:10436000026843681143016003B1184770470000B9
:1043700013B5406B00F58054D4F8A4381A6811784E
:10438000042914D1017C022911D119790123128940
:104390008B4013420BD101A94C3002F0B7F8D4F88E
:1043A000A4480246019B2179206800F0DFF902B0A1
:1043B00010BD0000143002F039B800004FF0FF3398
:1043C000143002F033B800004C3002F00BB900009A
:1043D0004FF0FF334C3002F005B90000143002F00A
:1043E00007B800004FF0FF31143002F001B80000B0
:1043F0004C3002F0D7B800004FF0FF324C3002F0E2
:10440000D1B800000020704710B500F58054D4F8F2
:10441000A4381A681178042917D1017C022914D113
:104420005979012352898B4013420ED1143001F087
:1044300099FF024648B1D4F8A4484FF4407361791B
:104440002068BDE8104000F07FB910BD406BFFF759
:10445000DBBF0000704700007FB5124B012504262A
:10446000044603600023057400F18402436029467A
:10447000C0E902330C4B0290143001934FF44073A7
:10448000009601F04BFF094B04F69442294604F1D3
:104490004C000294CDE900634FF4407302F012F82F
:1044A00004B070BD907100084D44000871430008CD
:1044B0000A68202383F311880B790B3342F8230019
:1044C0004B79133342F823008B7913B10B3342F845
:1044D000230000F58053C3F8A418022303740023BB
:1044E00083F311887047000038B5037F044613B189
:1044F00090F85430ABB90125201D0221FFF730FFA1
:1045000004F114006FF00101257700F0ABFC04F119
:104510004C0084F854506FF00101BDE8384000F0C1
:10452000A1BC38BD10B5012104460430FFF718FFC7
:104530000023237784F8543010BD000038B50446BA
:104540000025143001F002FF04F14C00257701F042
:10455000D1FF201D84F854500121FFF701FF2046B0
:10456000BDE83840FFF750BF90F8803003F060039B
:10457000202B06D190F881200023212A03D81F2A5E
:1045800006D800207047222AFBD1C0E91D3303E082
:10459000034A426707228267C3670120704700BF52
:1045A0003423002037B500F58055D5F8A4381A68B3
:1045B000117804291AD1017C022917D11979012314
:1045C00012898B40134211D100F14C04204602F0B5
:1045D00051F858B101A9204601F098FFD5F8A44838
:1045E0000246019B2179206800F0C0F803B030BD7D
:1045F00001F10B03F0B550F8236085B004460D4679
:10460000FEB1202383F3118804EB8507301D0821B8
:10461000FFF7A6FEFB6806F14C005B691B681BB147
:10462000019001F081FF019803A901F06FFF02469C
:1046300048B1039B2946204600F098F8002383F3F5
:10464000118805B0F0BDFB685A691268002AF5D0E0
:104650001B8A013B1340F1D104F18002EAE700001C
:10466000133138B550F82140ECB1202383F3118881
:1046700004F58053D3F8A4281368527903EB82031E
:10468000DB689B695D6845B104216018FFF768FE2F
:10469000294604F1140001F06FFE2046FFF7B4FE36
:1046A000002383F3118838BD7047000001F078B90A
:1046B00001234022002110B5044600F8303BFDF7ED
:1046C00005FB0023C4E9013310BD000010B5202311
:1046D000044683F311882422416000210C30FDF749
:1046E000F5FA204601F07EF902232370002383F3BC
:1046F000118810BD70B500EB8103054650690E4668
:104700001446DA6018B110220021FDF7DFFAA06923
:1047100018B110220021FDF7D9FA31462846BDE82C
:10472000704001F071BA000083682022002103F07C
:10473000011310B5044683601030FDF7C7FA204618
:10474000BDE8104001F0ECBAF0B4012500EB8104A3
:1047500047898D40E4683D43A46945812360002377
:10476000A2606360F0BC01F009BB0000F0B4012559
:1047700000EB810407898D40E4683D43646905814D
:1047800023600023A2606360F0BC01F07FBB0000E7
:1047900070B5022300250446242203702946C0F880
:1047A00088500C3040F8045CFDF790FA204684F8FD
:1047B000705001F0BDF963681B6823B1294620469B
:1047C000BDE87040184770BD037880F88C30052331
:1047D000037043681B6810B504460BB10421984769
:1047E0000023A36010BD000090F88C204368027085
:1047F0001B680BB1052118477047000070B590F891
:104800007030044613B1002380F8703004F1800248
:10481000204601F0A9FA63689B68B3B994F8803028
:1048200013F0600535D00021204601F053FD002132
:10483000204601F043FD63681B6813B10621204642
:104840009847062384F8703070BD204698470028AA
:10485000E4D0B4F88630A26F9A4288BFA36794F977
:104860008030A56F002B4FF0200380F20381002DD4
:1048700000F0F280092284F8702083F3118800216F
:104880002046D4E91D23FFF771FF002383F311882D
:10489000DAE794F8812003F07F0343EA022340F231
:1048A0000232934200F0C58021D8B3F5807F48D012
:1048B0000DD8012B3FD0022B00F09380002BB2D1FA
:1048C00004F1880262670222A267E367C1E7B3F5D9
:1048D000817F00F09B80B3F5407FA4D194F88230B3
:1048E000012BA0D1B4F8883043F0020332E0B3F5D5
:1048F000006F4DD017D8B3F5A06F31D0A3F5C063CA
:10490000012B90D86368204694F882205E6894F862
:104910008310B4F88430B047002884D043686367BC
:104920000368A3671AE0B3F5106F36D040F6024271
:1049300093427FF478AF5C4B63670223A367002345
:10494000C3E794F88230012B7FF46DAFB4F8883060
:1049500023F00203A4F88830C4E91D55E56778E721
:10496000B4F88030B3F5A06F0ED194F882302046B1
:1049700084F88A3001F03AF963681B6813B10121A9
:1049800020469847032323700023C4E91D339CE786
:1049900004F18B0363670123C3E72378042B10D151
:1049A000202383F311882046FFF7BEFE85F311888C
:1049B0000321636884F88B5021701B680BB120467B
:1049C000984794F88230002BDED084F88B30042393
:1049D000237063681B68002BD6D0022120469847BD
:1049E000D2E794F8843020461D0603F00F010AD563
:1049F00001F0ACF9012804D002287FF414AF2B4B4E
:104A00009AE72B4B98E701F093F9F3E794F882309B
:104A1000002B7FF408AF94F8843013F00F01B3D06B
:104A20001A06204602D501F06DFCADE701F05EFCF0
:104A3000AAE794F88230002B7FF4F5AE94F8843026
:104A400013F00F01A0D01B06204602D501F042FC56
:104A50009AE701F033FC97E7142284F8702083F37F
:104A600011882B462A4629462046FFF76DFE85F31E
:104A70001188E9E65DB1152284F8702083F311886E
:104A800000212046D4E91D23FFF75EFEFDE60B2240
:104A900084F8702083F311882B462A462946204645
:104AA000FFF764FEE3E700BFC0710008B8710008BB
:104AB000BC71000838B590F870300446002B3ED029
:104AC000063BDAB20F2A34D80F2B32D8DFE803F0D6
:104AD00037313108223231313131313131313737EB
:104AE000856FB0F886309D4214D2C3681B8AB5FB2F
:104AF000F3F203FB12556DB9202383F311882B4683
:104B00002A462946FFF732FE85F311880A2384F8E6
:104B100070300EE0142384F87030202383F3118862
:104B2000002320461A461946FFF70EFE002383F3A2
:104B3000118838BDC36F03B198470023E7E7002110
:104B4000204601F0C7FB0021204601F0B7FB636857
:104B50001B6813B10621204698470623D7E70000BB
:104B600010B590F870300446142B29D017D8062BB6
:104B700005D001D81BB110BD093B022BFBD8002189
:104B8000204601F0A7FB0021204601F097FB636857
:104B90001B6813B1062120469847062319E0152B00
:104BA000E9D10B2380F87030202383F31188002390
:104BB0001A461946FFF7DAFD002383F31188DAE776
:104BC000C3689B695B68002BD5D1C36F03B198475D
:104BD000002384F87030CEE70023826803750369F0
:104BE0001B6899689142FBD25A680360426010606A
:104BF0005860704700238268037503691B689968D1
:104C00009142FBD85A680360426010605860704758
:104C100008B50846202383F311880B7D032B05D0AC
:104C2000042B0DD02BB983F3118808BD8B690022AA
:104C30001A604FF0FF338361FFF7CEFF0023F2E7E6
:104C4000D1E9003213605A60F3E70000FFF7C4BFF8
:104C5000054BD96808751868026853601A6001220C
:104C6000D8600275FBF73CBDC05300200C4B30B53B
:104C7000DD684B1C87B004460FD02B46094A6846B6
:104C800000F05AF92046FFF7E3FF009B13B1684696
:104C900000F062F9A86907B030BDFFF7D9FFF9E766
:104CA000C0530020114C0008044B1A68DB68906860
:104CB0009B68984294BF002001207047C053002099
:104CC000084B10B51C68D868226853601A6001222E
:104CD000DC602275FFF78EFF01462046BDE81040DC
:104CE000FBF7FEBCC0530020044B1A68DB689268D7
:104CF0009B689A4201D9FFF7E3BF7047C053002079
:104D000038B5074C01230025064907482370656024
:104D100001F0EEFC0223237085F3118838BD00BF3B
:104D2000F8550020C8710008C053002008B572B6BD
:104D3000044B186500F048FC00F02AFD024B0322EA
:104D40001A70FEE7C0530020F855002000F03AB971
:104D5000EFF3118020B9EFF30583202282F311884D
:104D60007047000010B530B9EFF30584C4F30804B0
:104D700014B180F3118810BDFFF7B6FF84F31188DA
:104D8000F9E70000034A516853685B1A9842FBD860
:104D9000704700BF001000E08B60022308610846E6
:104DA0008B8270478368A3F1840243F8142C026954
:104DB00043F8442C426943F8402C094A43F8242C18
:104DC000C268A3F1200043F8182C022203F80C2C2F
:104DD000002203F80B2C034A43F8102C704700BF45
:104DE000F9060008C053002008B5FFF7DBFFBDE857
:104DF0000840FFF72BBF0000024BDB6898610F20D3
:104E0000FFF726BFC0530020202383F31188FFF74C
:104E1000F3BF000008B50146202383F31188082062
:104E2000FFF724FF002383F3118808BD064BDB68DE
:104E300039B1426818605A60136043600420FFF77C
:104E400015BF4FF0FF307047C053002003689842F1
:104E500006D01A680260506018469961FFF7F6BEE6
:104E60007047000038B504460D462068844200D1E2
:104E700038BD036823605C608561FFF7E7FEF4E7F7
:104E80000A2938BF0A21F8B504460D460A276019D9
:104E900001F026FC01F00EFC041B0646A54206D8D4
:104EA0007D1C0120344601F063FC2F46EFE7F8BD7E
:104EB000036810B59C68A2420CD85C688A600B60DD
:104EC0004C602160596099688A1A9A604FF0FF33EC
:104ED000836010BD121B1B68ECE7000038B5144B53
:104EE000054608461C4654F8101FA1420DD1D86152
:104EF0000A2A2CBF80180A302960C5E90112C3E9CB
:104F00000455BDE8384001F0DBBBDC698B68041B4D
:104F1000141928BF1446A34202D91146FFF7B0FF67
:104F2000224629460348BDE83840FFF7C1BF00BF0D
:104F3000C0530020D053002038B5C0E9032300231C
:104F40000D460446436101F0B5FB2A460146204662
:104F5000BDE83840FFF7C2BF10B5194C236998422D
:104F60000DD08168D0E9003213605A609A680A4413
:104F70009A60002303604FF0FF33A36110BD026805
:104F8000234643F8102F53600022026022699A42A0
:104F900003D1BDE8104001F09DBB936881680B44CC
:104FA000936001F087FB2269E1699268441AA2428A
:104FB000E4D91144BDE81040091AFFF761BF00BFF2
:104FC000C05300202DE9F0472E4D05F110082E4F5B
:104FD0002C6901F06FFBEE69A268831B9A4246D8E8
:104FE00016444FF00009D4E90032EE6113605A60B4
:104FF000C4F800902B69BB4201D101F06BFB89F32F
:105000001188D4E9033120469847202383F311887F
:105010006369002BDCD001F04DFB6169A0EB060A4F
:105020008146514517D2022001F0A2FB00212B69D5
:10503000BB4213D1C5F81C900A292CBF09EB010013
:1050400009F10A002760C4E90171C5E90444BDE81B
:10505000F04701F035BB091A3144E8E711EB0A02C9
:10506000404628BF0A462146FFF722FFAFE72B69DB
:10507000BB4205D01644311ABDE8F047FFF700BF28
:10508000BDE8F087C0530020D053002000207047B7
:10509000FEE70000704700004FF0FF30704700004F
:1050A00002290CD0032904D00129074818BF002089
:1050B0007047032A05D8054800EBC2007047044832
:1050C00070470020704700BFA072000844230020F2
:1050D0005472000870B59AB005460846144601A9F6
:1050E00000F0C2F801A8FCF7E9FD431C0022C6B29B
:1050F0005B001046C5E9003423700323023404F832
:10510000013C01ABD1B202348E4201D81AB070BD5D
:1051100013F8011B013204F8010C04F8021CF1E73A
:1051200008B5202383F311880348FFF73BFA0023D7
:1051300083F3118808BD00BF0056002090F880302E
:1051400003F01F02012A07D190F881200B2A03D116
:105150000023C0E91D3315E003F06003202B08D1C4
:10516000B0F884302BB990F88120212A03D81F2A67
:1051700004D8FFF7F9B9222AEBD0FAE7034A4267CD
:1051800007228267C3670120704700BF3B230020CE
:1051900007B5052917D8DFE801F0191603191920FA
:1051A000202383F31188104A01210190FFF7A2FA0E
:1051B000019802210D4AFFF79DFA0D48FFF7BEF94D
:1051C000002383F3118803B05DF804FB202383F3ED
:1051D00011880748FFF788F9F2E7202383F3118845
:1051E0000348FFF79FF9EBE7F47100081872000815
:1051F0000056002038B50C4D0C4C2A460C4904F1E1
:105200000800FFF767FF05F1CA0204F11000094921
:10521000FFF760FF05F5CA7204F118000649BDE802
:105220003840FFF757BF00BFD86E0020442300204E
:10523000D4710008DE710008E971000870B50446F9
:1052400008460D46FCF73AFDC6B220460134037805
:105250000BB9184670BD32462946FCF71BFD0028E5
:10526000F3D10120F6E700002DE9F84F05460C4682
:10527000FCF724FD2A49C6B22846FFF7DFFF08B134
:105280000136F6B227492846FFF7D8FF08B1103695
:10529000F6B2632E0DD8DFF88890DFF888A0224F91
:1052A000DFF88CB0DFF88C802E7846B92670BDE828
:1052B000F88F29462046BDE8F84F01F08DBE252E17
:1052C0002AD1072249462846FCF7E4FC50B9D8F811
:1052D00000300735083444F8083CD8F8043044F866
:1052E000043CE1E7082251462846FCF7D3FC98B974
:1052F000A21C0E4B197802320909C95D02F8041C80
:1053000013F8011B01F00F015B45C95D02F8031C96
:10531000F0D118340835C7E7013504F8016BC3E74D
:10532000C0720008E9710008D172000800E8F11F9E
:105330000CE8F11FC8720008BFF34F8F044B1A69C5
:105340005107FCD1D3F810215207F8D1704700BFA4
:105350000020005208B50D4B1B78ABB9FFF7ECFFEE
:105360000B4BDA68D10704D50A4A5A6002F1883239
:105370005A60D3F80C21D20706D5064AC3F8042197
:1053800002F18832C3F8042108BD00BF3671002045
:10539000002000522301674508B5114B1B78F3B973
:1053A000104B1A69510703D5DA6842F04002DA60FF
:1053B000D3F81021520705D5D3F80C2142F0400252
:1053C000C3F80C21FFF7B8FF064BDA6842F0010280
:1053D000DA60D3F80C2142F00102C3F80C2108BDB9
:1053E00036710020002000520F289ABF00F580601F
:1053F00040040020704700004FF400307047000068
:10540000102070470F2808B50BD8FFF7EDFF00F507
:1054100000330268013204D104308342F9D1012003
:1054200008BD0020FCE700000F2838B505463FD82E
:10543000FFF782FF1F4CFFF78DFF4FF0FF33072868
:105440006361C4F814311DD82361FFF775FF0302AF
:1054500043F02403E360E36843F08003E3602369DF
:105460005A07FCD42846FFF767FFFFF7BDFF4FF44C
:10547000003100F069F92846FFF78EFFBDE838409B
:10548000FFF7C0BFC4F81031FFF756FFA0F10803C3
:105490001B0243F02403C4F80C31D4F80C3143F060
:1054A0008003C4F80C31D4F810315B07FBD4D9E782
:1054B000002038BD002000522DE9F84F05460C466B
:1054C000104645EA0203DB065DD122F003022B46BB
:1054D0002A44934209D120F01F00DFF8BCB0DFF866
:1054E000BCA0FFF737FF271844E0196801314AD103
:1054F0000433EEE705F1784324492548B3F5801FCE
:10550000244B38BF184603F1F80339BF8846D94603
:105510009846D146FFF710FF4FF0FF33A5EB040C80
:1055200004F11C010360D8F8003043F00203C8F80E
:105530000030231FD9F8006016F00506FAD153F8A1
:10554000042F99424CF80320F4D1BFF34F8FFFF79B
:10555000F3FE4FF0FF332022214603602846D8F89F
:10556000003023F00203C8F8003001F0B7FC40B966
:1055700020352034BC42BDD10120FFF70DFFBDE82E
:10558000F88F3046F9E70020F9E700BF0C20005201
:1055900014210052142000521020005210210052F9
:1055A00010B5084C237828B11BB9FFF7D3FE0123AF
:1055B000237010BD002BFCD02070BDE81040FFF719
:1055C000EBBE00BF3671002008B54FF400314FF03C
:1055D000005000F0CBF84FF480214FF0405000F025
:1055E000C5F84FF400214FF0105000F0BFF84FF411
:1055F0007C414FF4806000F0B9F84FF480314FF0F7
:105600006050BDE8084000F0B1B8000070B5104E21
:1056100082B0FFF79DFB054601F04CF83268034667
:105620009042336037BF0B4A0A495168146836BF4D
:105630000131D1E9004151600419284641F10001CE
:105640000191FFF78FFB2046019902B070BD00BFAA
:10565000387100204071002070B5124E82B0FFF703
:1056600077FB054601F026F8326803469042336026
:1056700037BF0D4A0C495168146836BF0131D1E972
:10568000004151600419284641F100010191FFF7E2
:1056900069FB4FF47A72002320460199FAF708FE5D
:1056A00002B070BD38710020407100200244074BE9
:1056B000D2B210B5904200D110BD441C00B253F8D4
:1056C000200041F8040BE0B2F4E700BF504000585E
:1056D0000E4B30B51C6F240405D41C6F1C671C6F67
:1056E00044F400441C670A4C02442368D2B243F4D9
:1056F00080732360074B904200D130BD441C51F8A9
:10570000045B00B243F82050E0B2F4E700440258D2
:10571000004802585040005807B5012201A9002056
:10572000FFF7C4FF019803B05DF804FB13B504460E
:10573000FFF7F2FFA04205D0012201A90020019449
:10574000FFF7C6FF02B010BD0144BFF34F8F064BF9
:10575000884204D3BFF34F8FBFF36F8F7047C3F8F6
:105760005C022030F4E700BF00ED00E00144BFF32D
:105770004F8F064B884204D3BFF34F8FBFF36F8F19
:105780007047C3F870022030F4E700BF00ED00E07E
:1057900070470000034B1B781BB1034B4AF6AA224B
:1057A0001A6070474971002000480058044BD3F834
:1057B000D0345B0142BF034B01221A70704700BF17
:1057C0000040025848710020024B4FF48032C3F869
:1057D000D024704700400258014B1878704700BF32
:1057E0004871002070B5BFF34F8FBFF36F8F1A4A17
:1057F0000021C2F85012BFF34F8FBFF36F8F536970
:1058000043F400335361BFF34F8FBFF36F8FC2F880
:105810008410BFF34F8FD2F8803043F6E074C3F3A7
:10582000C900C3F34E335B0103EA0406014646EAAE
:1058300081750139C2F86052F9D2203B13F1200F73
:10584000F2D1BFF34F8F536943F480335361BFF3F9
:105850004F8FBFF36F8F70BD00ED00E0FEE70000DB
:1058600070B50825134C2368D4E90102043B0146B6
:105870008A4219D8D31CC11E10341B1A23F003030B
:105880008A4238BF0023184454F8043CDA1CC11E75
:10589000121A22F00302994288BF00220021FCF76D
:1058A00015FA013DDFD170BD53F8046F41F8046B68
:1058B000DEE700BFE47200087047000070B5D0E971
:1058C000244300224FF0FF359E6804EB4213510140
:1058D000D3F80009002805DAD3F8000940F0804029
:1058E000C3F80009D3F8000B002805DAD3F8000B41
:1058F00040F08040C3F8000B013263189642C3F8B1
:105900000859C3F8085BE0D24FF00113C4F81C3803
:1059100070BD000000EB8103D3F80CC02DE9F0430B
:10592000DCF814204E1CD0F89050D2F800E005EBC3
:10593000063605EB4118506870450AD30122D5F8A8
:10594000343802FA01F123EA0101C5F83418BDE840
:10595000F083AEEB0003BCF81040A34228BF2346FF
:10596000D8F81849A4B2B3EB840FF0D89468A4F126
:10597000040959F8047F3760A4EB09071F44042F7A
:10598000F7D81C44034494605360D4E7890141F084
:105990002001016103699B06FCD41220FFF7F2B9D4
:1059A00010B50A4C2046FEF783FE094BC4F8903030
:1059B000084BC4F89430084C2046FEF779FE074B9C
:1059C000C4F89030064BC4F8943010BD4C710020E0
:1059D0000000084088730008E871002000000440BF
:1059E0009473000870B503780546012B5DD1494BCF
:1059F000D0F89040984259D1474B0E216520D3F8FA
:105A0000D82042F00062C3F8D820D3F8002142F039
:105A10000062C3F80021D3F80021D3F8802042F0BF
:105A20000062C3F88020D3F8802022F00062C3F81F
:105A30008020D3F88030FEF7BBFA384BE360384B58
:105A4000C4F800380023D5F89060C4F8003EC023A5
:105A500023604FF40413A3633369002BFCDA0123A2
:105A60000C203361FFF78EF93369DB07FCD4122079
:105A7000FFF788F93369002BFCDA00262846A66078
:105A8000FFF71CFF6B68C4F81068DB68C4F8146883
:105A9000C4F81C68002B3AD1224BA3614FF0FF33AE
:105AA0006361A36843F00103A36070BD1E4B98427D
:105AB000C8D1194B0E214D20D3F8D82042F00072E6
:105AC000C3F8D820D3F8002142F00072C3F80021B7
:105AD000D3F80021D3F8802042F00072C3F8802070
